{
  "_format": "hh-sol-artifact-1",
  "contractName": "Admin",
  "sourceName": "contracts/mock/Admin.sol",
  "abi": [
    {
      "inputs": [
        {
          "internalType": "address",
          "name": "_hopeToken",
          "type": "address"
        }
      ],
      "stateMutability": "nonpayable",
      "type": "constructor"
    },
    {
      "inputs": [
        {
          "internalType": "uint256",
          "name": "amount",
          "type": "uint256"
        }
      ],
      "name": "burn",
      "outputs": [],
      "stateMutability": "nonpayable",
      "type": "function"
    },
    {
      "inputs": [
        {
          "internalType": "address",
          "name": "to",
          "type": "address"
        },
        {
          "internalType": "uint256",
          "name": "amount",
          "type": "uint256"
        }
      ],
      "name": "mint",
      "outputs": [],
      "stateMutability": "nonpayable",
      "type": "function"
    }
  ],
  "bytecode": "0x608060405234801561001057600080fd5b5060405161024838038061024883398101604081905261002f91610054565b600080546001600160a01b0319166001600160a01b0392909216919091179055610084565b60006020828403121561006657600080fd5b81516001600160a01b038116811461007d57600080fd5b9392505050565b6101b5806100936000396000f3fe608060405234801561001057600080fd5b50600436106100365760003560e01c806340c10f191461003b57806342966c6814610050575b600080fd5b61004e61004936600461012e565b610063565b005b61004e61005e366004610166565b6100cd565b6000546040516340c10f1960e01b81526001600160a01b03848116600483015260248201849052909116906340c10f1990604401600060405180830381600087803b1580156100b157600080fd5b505af11580156100c5573d6000803e3d6000fd5b505050505050565b600054604051630852cd8d60e31b8152600481018390526001600160a01b03909116906342966c6890602401600060405180830381600087803b15801561011357600080fd5b505af1158015610127573d6000803e3d6000fd5b5050505050565b6000806040838503121561014157600080fd5b82356001600160a01b038116811461015857600080fd5b946020939093013593505050565b60006020828403121561017857600080fd5b503591905056fea26469706673582212204684c29c6d0cf85209088f95253e55523dc302c3fe5b7c78c40aa4b6bd920cf664736f6c63430008110033",
  "linkReferences": {},
  "deployedLinkReferences": {}
}