{
  "_format": "hh-sol-artifact-1",
  "contractName": "BurnerManager",
  "sourceName": "contracts/feeDistributor/BurnerManager.sol",
  "abi": [
    {
      "inputs": [],
      "stateMutability": "nonpayable",
      "type": "constructor"
    },
    {
      "anonymous": false,
      "inputs": [
        {
          "indexed": true,
          "internalType": "address",
          "name": "newBurner",
          "type": "address"
        },
        {
          "indexed": true,
          "internalType": "address",
          "name": "oldBurner",
          "type": "address"
        }
      ],
      "name": "AddBurner",
      "type": "event"
    },
    {
      "anonymous": false,
      "inputs": [
        {
          "indexed": true,
          "internalType": "address",
          "name": "previousOwner",
          "type": "address"
        },
        {
          "indexed": true,
          "internalType": "address",
          "name": "newOwner",
          "type": "address"
        }
      ],
      "name": "OwnershipTransferStarted",
      "type": "event"
    },
    {
      "anonymous": false,
      "inputs": [
        {
          "indexed": true,
          "internalType": "address",
          "name": "previousOwner",
          "type": "address"
        },
        {
          "indexed": true,
          "internalType": "address",
          "name": "newOwner",
          "type": "address"
        }
      ],
      "name": "OwnershipTransferred",
      "type": "event"
    },
    {
      "inputs": [],
      "name": "acceptOwnership",
      "outputs": [],
      "stateMutability": "nonpayable",
      "type": "function"
    },
    {
      "inputs": [
        {
          "internalType": "address",
          "name": "",
          "type": "address"
        }
      ],
      "name": "burners",
      "outputs": [
        {
          "internalType": "address",
          "name": "",
          "type": "address"
        }
      ],
      "stateMutability": "view",
      "type": "function"
    },
    {
      "inputs": [],
      "name": "owner",
      "outputs": [
        {
          "internalType": "address",
          "name": "",
          "type": "address"
        }
      ],
      "stateMutability": "view",
      "type": "function"
    },
    {
      "inputs": [],
      "name": "pendingOwner",
      "outputs": [
        {
          "internalType": "address",
          "name": "",
          "type": "address"
        }
      ],
      "stateMutability": "view",
      "type": "function"
    },
    {
      "inputs": [],
      "name": "renounceOwnership",
      "outputs": [],
      "stateMutability": "nonpayable",
      "type": "function"
    },
    {
      "inputs": [
        {
          "internalType": "address",
          "name": "token",
          "type": "address"
        },
        {
          "internalType": "address",
          "name": "burner",
          "type": "address"
        }
      ],
      "name": "setBurner",
      "outputs": [
        {
          "internalType": "bool",
          "name": "",
          "type": "bool"
        }
      ],
      "stateMutability": "nonpayable",
      "type": "function"
    },
    {
      "inputs": [
        {
          "internalType": "address[]",
          "name": "tokens",
          "type": "address[]"
        },
        {
          "internalType": "address[]",
          "name": "burnerList",
          "type": "address[]"
        }
      ],
      "name": "setManyBurner",
      "outputs": [
        {
          "internalType": "bool",
          "name": "",
          "type": "bool"
        }
      ],
      "stateMutability": "nonpayable",
      "type": "function"
    },
    {
      "inputs": [
        {
          "internalType": "address",
          "name": "newOwner",
          "type": "address"
        }
      ],
      "name": "transferOwnership",
      "outputs": [],
      "stateMutability": "nonpayable",
      "type": "function"
    }
  ],
  "bytecode": "0x6080806040523461006357600180546001600160a01b03199081169091556000805433928116831782556001600160a01b0316907f8be0079c531659141344cd1fd0a4f28419497f9722a3daafe3b4186f6b6457e09080a361060590816100698239f35b600080fdfe60806040908082526004918236101561001757600080fd5b600092833560e01c92836303d41e0e146103af57508263715018a61461034a57826379ba50971461028a5782638da5cb5b14610262578263953951901461016757508163b9f91aad1461011b578163e30c3978146100ee575063f2fde38b1461007f57600080fd5b346100eb5760203660031901126100eb576100986103e7565b6100a061049d565b600180546001600160a01b0319166001600160a01b0392831690811790915582549091167f38d16b8cac22d99fc7c124b9cd0de2d3fa1faef420bfe791d8c362d765e227008380a380f35b80fd5b90503461011757816003193601126101175760015490516001600160a01b039091168152602090f35b5080fd5b9050346101175780600319360112610117576101356103e7565b602435926001600160a01b03841684036100eb575060209261015e9161015961049d565b610553565b90519015158152f35b9083346100eb57816003193601126100eb5767ffffffffffffffff92803584811161025e576101999036908301610402565b602494853590811161025a576101b29036908401610402565b906101bb61049d565b805182510361022857835b815181101561021e576101fa6001600160a01b03806101e584866104f5565b5116906101f284876104f5565b511690610553565b50600019811461020c576001016101c6565b634e487b7160e01b8552601184528685fd5b6020865160018152f35b845162461bcd60e51b8152602081850152600d818801526c696e76616c696420706172616d60981b6044820152606490fd5b8380fd5b8280fd5b838234610117578160031936011261011757905490516001600160a01b039091168152602090f35b91503461025e578260031936011261025e57600154916001600160a01b039133838516036102f55750506001600160a01b031991821660015582543392811683178455167f8be0079c531659141344cd1fd0a4f28419497f9722a3daafe3b4186f6b6457e08380a380f35b906020608492519162461bcd60e51b8352820152602960248201527f4f776e61626c6532537465703a2063616c6c6572206973206e6f7420746865206044820152683732bb9037bbb732b960b91b6064820152fd5b83346100eb57806003193601126100eb5761036361049d565b600180546001600160a01b03199081169091558154908116825581906001600160a01b03167f8be0079c531659141344cd1fd0a4f28419497f9722a3daafe3b4186f6b6457e08280a380f35b9250503461025e57602036600319011261025e576020926001600160a01b039190826103d96103e7565b168152600285522054168152f35b600435906001600160a01b03821682036103fd57565b600080fd5b81601f820112156103fd5767ffffffffffffffff918135838111610487578060051b9060405194601f19603f8401168601908682109082111761048757604052845260209283808601928201019283116103fd578301905b828210610468575050505090565b81356001600160a01b03811681036103fd57815290830190830161045a565b634e487b7160e01b600052604160045260246000fd5b6000546001600160a01b031633036104b157565b606460405162461bcd60e51b815260206004820152602060248201527f4f776e61626c653a2063616c6c6572206973206e6f7420746865206f776e65726044820152fd5b80518210156105095760209160051b010190565b634e487b7160e01b600052603260045260246000fd5b1561052657565b60405162461bcd60e51b8152602060048201526005602482015264043453030360dc1b6044820152606490fd5b6001600160a01b0390811691819061056c84151561051f565b169161057983151561051f565b600052600260205260406000205416906040600020816bffffffffffffffffffffffff60a01b8254161790557f772a8241c23539d7a189220e139d1e2fa2c385ff8a54afd7e72673f4318169f3600080a360019056fea2646970667358221220d13eec750099c0162a4687cf4075a696132d0f0934f6a3aa8c468c12ed8b80eb64736f6c63430008110033",
  "linkReferences": {},
  "deployedLinkReferences": {}
}