{
  "_format": "hh-sol-artifact-1",
  "contractName": "MyToken",
  "sourceName": "contracts/mock/MyToken.sol",
  "abi": [
    {
      "anonymous": false,
      "inputs": [
        {
          "indexed": true,
          "internalType": "address",
          "name": "owner",
          "type": "address"
        },
        {
          "indexed": true,
          "internalType": "address",
          "name": "spender",
          "type": "address"
        },
        {
          "indexed": false,
          "internalType": "uint256",
          "name": "value",
          "type": "uint256"
        }
      ],
      "name": "Approval",
      "type": "event"
    },
    {
      "anonymous": false,
      "inputs": [
        {
          "indexed": false,
          "internalType": "uint8",
          "name": "version",
          "type": "uint8"
        }
      ],
      "name": "Initialized",
      "type": "event"
    },
    {
      "anonymous": false,
      "inputs": [
        {
          "indexed": true,
          "internalType": "address",
          "name": "previousOwner",
          "type": "address"
        },
        {
          "indexed": true,
          "internalType": "address",
          "name": "newOwner",
          "type": "address"
        }
      ],
      "name": "OwnershipTransferStarted",
      "type": "event"
    },
    {
      "anonymous": false,
      "inputs": [
        {
          "indexed": true,
          "internalType": "address",
          "name": "previousOwner",
          "type": "address"
        },
        {
          "indexed": true,
          "internalType": "address",
          "name": "newOwner",
          "type": "address"
        }
      ],
      "name": "OwnershipTransferred",
      "type": "event"
    },
    {
      "anonymous": false,
      "inputs": [
        {
          "indexed": true,
          "internalType": "address",
          "name": "from",
          "type": "address"
        },
        {
          "indexed": true,
          "internalType": "address",
          "name": "to",
          "type": "address"
        },
        {
          "indexed": false,
          "internalType": "uint256",
          "name": "value",
          "type": "uint256"
        }
      ],
      "name": "Transfer",
      "type": "event"
    },
    {
      "inputs": [],
      "name": "acceptOwnership",
      "outputs": [],
      "stateMutability": "nonpayable",
      "type": "function"
    },
    {
      "inputs": [
        {
          "internalType": "address",
          "name": "owner",
          "type": "address"
        },
        {
          "internalType": "address",
          "name": "spender",
          "type": "address"
        }
      ],
      "name": "allowance",
      "outputs": [
        {
          "internalType": "uint256",
          "name": "",
          "type": "uint256"
        }
      ],
      "stateMutability": "view",
      "type": "function"
    },
    {
      "inputs": [
        {
          "internalType": "address",
          "name": "spender",
          "type": "address"
        },
        {
          "internalType": "uint256",
          "name": "amount",
          "type": "uint256"
        }
      ],
      "name": "approve",
      "outputs": [
        {
          "internalType": "bool",
          "name": "",
          "type": "bool"
        }
      ],
      "stateMutability": "nonpayable",
      "type": "function"
    },
    {
      "inputs": [
        {
          "internalType": "address",
          "name": "account",
          "type": "address"
        }
      ],
      "name": "balanceOf",
      "outputs": [
        {
          "internalType": "uint256",
          "name": "",
          "type": "uint256"
        }
      ],
      "stateMutability": "view",
      "type": "function"
    },
    {
      "inputs": [],
      "name": "decimals",
      "outputs": [
        {
          "internalType": "uint8",
          "name": "",
          "type": "uint8"
        }
      ],
      "stateMutability": "view",
      "type": "function"
    },
    {
      "inputs": [
        {
          "internalType": "address",
          "name": "spender",
          "type": "address"
        },
        {
          "internalType": "uint256",
          "name": "subtractedValue",
          "type": "uint256"
        }
      ],
      "name": "decreaseAllowance",
      "outputs": [
        {
          "internalType": "bool",
          "name": "",
          "type": "bool"
        }
      ],
      "stateMutability": "nonpayable",
      "type": "function"
    },
    {
      "inputs": [
        {
          "internalType": "address",
          "name": "spender",
          "type": "address"
        },
        {
          "internalType": "uint256",
          "name": "addedValue",
          "type": "uint256"
        }
      ],
      "name": "increaseAllowance",
      "outputs": [
        {
          "internalType": "bool",
          "name": "",
          "type": "bool"
        }
      ],
      "stateMutability": "nonpayable",
      "type": "function"
    },
    {
      "inputs": [
        {
          "internalType": "string",
          "name": "_name",
          "type": "string"
        },
        {
          "internalType": "string",
          "name": "_symbol",
          "type": "string"
        },
        {
          "internalType": "uint256",
          "name": "initialSupply",
          "type": "uint256"
        },
        {
          "internalType": "uint8",
          "name": "_decimals",
          "type": "uint8"
        }
      ],
      "name": "initialize",
      "outputs": [],
      "stateMutability": "nonpayable",
      "type": "function"
    },
    {
      "inputs": [],
      "name": "name",
      "outputs": [
        {
          "internalType": "string",
          "name": "",
          "type": "string"
        }
      ],
      "stateMutability": "view",
      "type": "function"
    },
    {
      "inputs": [],
      "name": "owner",
      "outputs": [
        {
          "internalType": "address",
          "name": "",
          "type": "address"
        }
      ],
      "stateMutability": "view",
      "type": "function"
    },
    {
      "inputs": [],
      "name": "pendingOwner",
      "outputs": [
        {
          "internalType": "address",
          "name": "",
          "type": "address"
        }
      ],
      "stateMutability": "view",
      "type": "function"
    },
    {
      "inputs": [],
      "name": "renounceOwnership",
      "outputs": [],
      "stateMutability": "nonpayable",
      "type": "function"
    },
    {
      "inputs": [],
      "name": "symbol",
      "outputs": [
        {
          "internalType": "string",
          "name": "",
          "type": "string"
        }
      ],
      "stateMutability": "view",
      "type": "function"
    },
    {
      "inputs": [],
      "name": "totalSupply",
      "outputs": [
        {
          "internalType": "uint256",
          "name": "",
          "type": "uint256"
        }
      ],
      "stateMutability": "view",
      "type": "function"
    },
    {
      "inputs": [
        {
          "internalType": "address",
          "name": "to",
          "type": "address"
        },
        {
          "internalType": "uint256",
          "name": "amount",
          "type": "uint256"
        }
      ],
      "name": "transfer",
      "outputs": [
        {
          "internalType": "bool",
          "name": "",
          "type": "bool"
        }
      ],
      "stateMutability": "nonpayable",
      "type": "function"
    },
    {
      "inputs": [
        {
          "internalType": "address",
          "name": "from",
          "type": "address"
        },
        {
          "internalType": "address",
          "name": "to",
          "type": "address"
        },
        {
          "internalType": "uint256",
          "name": "amount",
          "type": "uint256"
        }
      ],
      "name": "transferFrom",
      "outputs": [
        {
          "internalType": "bool",
          "name": "",
          "type": "bool"
        }
      ],
      "stateMutability": "nonpayable",
      "type": "function"
    },
    {
      "inputs": [
        {
          "internalType": "address",
          "name": "newOwner",
          "type": "address"
        }
      ],
      "name": "transferOwnership",
      "outputs": [],
      "stateMutability": "nonpayable",
      "type": "function"
    }
  ],
  "bytecode": "0x608060405234801561001057600080fd5b50611047806100206000396000f3fe608060405234801561001057600080fd5b506004361061010b5760003560e01c8063715018a6116100a2578063a457c2d711610071578063a457c2d714610219578063a9059cbb1461022c578063dd62ed3e1461023f578063e30c397814610252578063f2fde38b1461026357600080fd5b8063715018a6146101dc57806379ba5097146101e45780638da5cb5b146101ec57806395d89b411461021157600080fd5b8063313ce567116100de578063313ce56714610176578063395093511461018b57806341658f3c1461019e57806370a08231146101b357600080fd5b806306fdde0314610110578063095ea7b31461012e57806318160ddd1461015157806323b872dd14610163575b600080fd5b610118610276565b6040516101259190610c0f565b60405180910390f35b61014161013c366004610c79565b610308565b6040519015158152602001610125565b6035545b604051908152602001610125565b610141610171366004610ca3565b610322565b60c95460405160ff9091168152602001610125565b610141610199366004610c79565b610346565b6101b16101ac366004610d82565b610368565b005b6101556101c1366004610e08565b6001600160a01b031660009081526033602052604090205490565b6101b16104a5565b6101b16104b9565b6065546001600160a01b03165b6040516001600160a01b039091168152602001610125565b610118610533565b610141610227366004610c79565b610542565b61014161023a366004610c79565b6105bd565b61015561024d366004610e2a565b6105cb565b6097546001600160a01b03166101f9565b6101b1610271366004610e08565b6105f6565b60606036805461028590610e5d565b80601f01602080910402602001604051908101604052809291908181526020018280546102b190610e5d565b80156102fe5780601f106102d3576101008083540402835291602001916102fe565b820191906000526020600020905b8154815290600101906020018083116102e157829003601f168201915b5050505050905090565b600033610316818585610667565b60019150505b92915050565b60003361033085828561078b565b61033b858585610805565b506001949350505050565b60003361031681858561035983836105cb565b6103639190610e97565b610667565b600054610100900460ff16158080156103885750600054600160ff909116105b806103a25750303b1580156103a2575060005460ff166001145b61040a5760405162461bcd60e51b815260206004820152602e60248201527f496e697469616c697a61626c653a20636f6e747261637420697320616c72656160448201526d191e481a5b9a5d1a585b1a5e995960921b60648201526084015b60405180910390fd5b6000805460ff19166001179055801561042d576000805461ff0019166101001790555b6104356109b0565b61043f85856109df565b6104493384610a14565b60c9805460ff191660ff8416179055801561049e576000805461ff0019169055604051600181527f7f26b83ff96e1f2b6a682f133852f6798a09c465da95921460cefb38474024989060200160405180910390a15b5050505050565b6104ad610ad5565b6104b76000610b2f565b565b60975433906001600160a01b031681146105275760405162461bcd60e51b815260206004820152602960248201527f4f776e61626c6532537465703a2063616c6c6572206973206e6f7420746865206044820152683732bb9037bbb732b960b91b6064820152608401610401565b61053081610b2f565b50565b60606037805461028590610e5d565b6000338161055082866105cb565b9050838110156105b05760405162461bcd60e51b815260206004820152602560248201527f45524332303a2064656372656173656420616c6c6f77616e63652062656c6f77604482015264207a65726f60d81b6064820152608401610401565b61033b8286868403610667565b600033610316818585610805565b6001600160a01b03918216600090815260346020908152604080832093909416825291909152205490565b6105fe610ad5565b609780546001600160a01b0383166001600160a01b0319909116811790915561062f6065546001600160a01b031690565b6001600160a01b03167f38d16b8cac22d99fc7c124b9cd0de2d3fa1faef420bfe791d8c362d765e2270060405160405180910390a350565b6001600160a01b0383166106c95760405162461bcd60e51b8152602060048201526024808201527f45524332303a20617070726f76652066726f6d20746865207a65726f206164646044820152637265737360e01b6064820152608401610401565b6001600160a01b03821661072a5760405162461bcd60e51b815260206004820152602260248201527f45524332303a20617070726f766520746f20746865207a65726f206164647265604482015261737360f01b6064820152608401610401565b6001600160a01b0383811660008181526034602090815260408083209487168084529482529182902085905590518481527f8c5be1e5ebec7d5bd14f71427d1e84f3dd0314c0f7b2291e5b200ac8c7c3b925910160405180910390a3505050565b600061079784846105cb565b905060001981146107ff57818110156107f25760405162461bcd60e51b815260206004820152601d60248201527f45524332303a20696e73756666696369656e7420616c6c6f77616e63650000006044820152606401610401565b6107ff8484848403610667565b50505050565b6001600160a01b0383166108695760405162461bcd60e51b815260206004820152602560248201527f45524332303a207472616e736665722066726f6d20746865207a65726f206164604482015264647265737360d81b6064820152608401610401565b6001600160a01b0382166108cb5760405162461bcd60e51b815260206004820152602360248201527f45524332303a207472616e7366657220746f20746865207a65726f206164647260448201526265737360e81b6064820152608401610401565b6001600160a01b038316600090815260336020526040902054818110156109435760405162461bcd60e51b815260206004820152602660248201527f45524332303a207472616e7366657220616d6f756e7420657863656564732062604482015265616c616e636560d01b6064820152608401610401565b6001600160a01b0380851660008181526033602052604080822086860390559286168082529083902080548601905591517fddf252ad1be2c89b69c2b068fc378daa952ba7f163c4a11628f55a4df523b3ef906109a39086815260200190565b60405180910390a36107ff565b600054610100900460ff166109d75760405162461bcd60e51b815260040161040190610eb8565b6104b7610b4d565b600054610100900460ff16610a065760405162461bcd60e51b815260040161040190610eb8565b610a108282610b7d565b5050565b6001600160a01b038216610a6a5760405162461bcd60e51b815260206004820152601f60248201527f45524332303a206d696e7420746f20746865207a65726f2061646472657373006044820152606401610401565b8060356000828254610a7c9190610e97565b90915550506001600160a01b0382166000818152603360209081526040808320805486019055518481527fddf252ad1be2c89b69c2b068fc378daa952ba7f163c4a11628f55a4df523b3ef910160405180910390a35050565b6065546001600160a01b031633146104b75760405162461bcd60e51b815260206004820181905260248201527f4f776e61626c653a2063616c6c6572206973206e6f7420746865206f776e65726044820152606401610401565b609780546001600160a01b031916905561053081610bbd565b505050565b600054610100900460ff16610b745760405162461bcd60e51b815260040161040190610eb8565b6104b733610b2f565b600054610100900460ff16610ba45760405162461bcd60e51b815260040161040190610eb8565b6036610bb08382610f51565b506037610b488282610f51565b606580546001600160a01b038381166001600160a01b0319831681179093556040519116919082907f8be0079c531659141344cd1fd0a4f28419497f9722a3daafe3b4186f6b6457e090600090a35050565b600060208083528351808285015260005b81811015610c3c57858101830151858201604001528201610c20565b506000604082860101526040601f19601f8301168501019250505092915050565b80356001600160a01b0381168114610c7457600080fd5b919050565b60008060408385031215610c8c57600080fd5b610c9583610c5d565b946020939093013593505050565b600080600060608486031215610cb857600080fd5b610cc184610c5d565b9250610ccf60208501610c5d565b9150604084013590509250925092565b634e487b7160e01b600052604160045260246000fd5b600082601f830112610d0657600080fd5b813567ffffffffffffffff80821115610d2157610d21610cdf565b604051601f8301601f19908116603f01168101908282118183101715610d4957610d49610cdf565b81604052838152866020858801011115610d6257600080fd5b836020870160208301376000602085830101528094505050505092915050565b60008060008060808587031215610d9857600080fd5b843567ffffffffffffffff80821115610db057600080fd5b610dbc88838901610cf5565b95506020870135915080821115610dd257600080fd5b50610ddf87828801610cf5565b93505060408501359150606085013560ff81168114610dfd57600080fd5b939692955090935050565b600060208284031215610e1a57600080fd5b610e2382610c5d565b9392505050565b60008060408385031215610e3d57600080fd5b610e4683610c5d565b9150610e5460208401610c5d565b90509250929050565b600181811c90821680610e7157607f821691505b602082108103610e9157634e487b7160e01b600052602260045260246000fd5b50919050565b8082018082111561031c57634e487b7160e01b600052601160045260246000fd5b6020808252602b908201527f496e697469616c697a61626c653a20636f6e7472616374206973206e6f74206960408201526a6e697469616c697a696e6760a81b606082015260800190565b601f821115610b4857600081815260208120601f850160051c81016020861015610f2a5750805b601f850160051c820191505b81811015610f4957828155600101610f36565b505050505050565b815167ffffffffffffffff811115610f6b57610f6b610cdf565b610f7f81610f798454610e5d565b84610f03565b602080601f831160018114610fb45760008415610f9c5750858301515b600019600386901b1c1916600185901b178555610f49565b600085815260208120601f198616915b82811015610fe357888601518255948401946001909101908401610fc4565b50858210156110015787850151600019600388901b60f8161c191681555b5050505050600190811b0190555056fea264697066735822122065fc13b09c8dfd7e91ab941694095de3f6db00c1a7cefe134404c9f0ba333e0d64736f6c63430008110033",
  "linkReferences": {},
  "deployedLinkReferences": {}
}