{
  "_format": "hh-sol-artifact-1",
  "contractName": "FeeDistributor",
  "sourceName": "contracts/feeDistributor/FeeDistributor.sol",
  "abi": [
    {
      "inputs": [],
      "stateMutability": "nonpayable",
      "type": "constructor"
    },
    {
      "anonymous": false,
      "inputs": [
        {
          "indexed": false,
          "internalType": "uint256",
          "name": "time",
          "type": "uint256"
        },
        {
          "indexed": false,
          "internalType": "uint256",
          "name": "tokens",
          "type": "uint256"
        }
      ],
      "name": "CheckpointToken",
      "type": "event"
    },
    {
      "anonymous": false,
      "inputs": [
        {
          "indexed": true,
          "internalType": "address",
          "name": "recipient",
          "type": "address"
        },
        {
          "indexed": false,
          "internalType": "uint256",
          "name": "amount",
          "type": "uint256"
        },
        {
          "indexed": false,
          "internalType": "uint256",
          "name": "claimEpoch",
          "type": "uint256"
        },
        {
          "indexed": false,
          "internalType": "uint256",
          "name": "maxEpoch",
          "type": "uint256"
        }
      ],
      "name": "Claimed",
      "type": "event"
    },
    {
      "anonymous": false,
      "inputs": [
        {
          "indexed": false,
          "internalType": "uint8",
          "name": "version",
          "type": "uint8"
        }
      ],
      "name": "Initialized",
      "type": "event"
    },
    {
      "anonymous": false,
      "inputs": [
        {
          "indexed": true,
          "internalType": "address",
          "name": "previousOwner",
          "type": "address"
        },
        {
          "indexed": true,
          "internalType": "address",
          "name": "newOwner",
          "type": "address"
        }
      ],
      "name": "OwnershipTransferStarted",
      "type": "event"
    },
    {
      "anonymous": false,
      "inputs": [
        {
          "indexed": true,
          "internalType": "address",
          "name": "previousOwner",
          "type": "address"
        },
        {
          "indexed": true,
          "internalType": "address",
          "name": "newOwner",
          "type": "address"
        }
      ],
      "name": "OwnershipTransferred",
      "type": "event"
    },
    {
      "anonymous": false,
      "inputs": [
        {
          "indexed": false,
          "internalType": "address",
          "name": "account",
          "type": "address"
        }
      ],
      "name": "Paused",
      "type": "event"
    },
    {
      "anonymous": false,
      "inputs": [
        {
          "indexed": true,
          "internalType": "address",
          "name": "token",
          "type": "address"
        },
        {
          "indexed": true,
          "internalType": "address",
          "name": "emergencyReturn",
          "type": "address"
        },
        {
          "indexed": false,
          "internalType": "uint256",
          "name": "amount",
          "type": "uint256"
        }
      ],
      "name": "RecoverBalance",
      "type": "event"
    },
    {
      "anonymous": false,
      "inputs": [
        {
          "indexed": false,
          "internalType": "bool",
          "name": "toggleFlag",
          "type": "bool"
        }
      ],
      "name": "ToggleAllowCheckpointToken",
      "type": "event"
    },
    {
      "anonymous": false,
      "inputs": [
        {
          "indexed": false,
          "internalType": "address",
          "name": "account",
          "type": "address"
        }
      ],
      "name": "Unpaused",
      "type": "event"
    },
    {
      "inputs": [],
      "name": "acceptOwnership",
      "outputs": [],
      "stateMutability": "nonpayable",
      "type": "function"
    },
    {
      "inputs": [
        {
          "internalType": "uint256",
          "name": "amount",
          "type": "uint256"
        }
      ],
      "name": "burn",
      "outputs": [
        {
          "internalType": "bool",
          "name": "",
          "type": "bool"
        }
      ],
      "stateMutability": "nonpayable",
      "type": "function"
    },
    {
      "inputs": [],
      "name": "canCheckpointToken",
      "outputs": [
        {
          "internalType": "bool",
          "name": "",
          "type": "bool"
        }
      ],
      "stateMutability": "view",
      "type": "function"
    },
    {
      "inputs": [],
      "name": "checkpointToken",
      "outputs": [],
      "stateMutability": "nonpayable",
      "type": "function"
    },
    {
      "inputs": [],
      "name": "checkpointTotalSupply",
      "outputs": [],
      "stateMutability": "nonpayable",
      "type": "function"
    },
    {
      "inputs": [
        {
          "internalType": "address",
          "name": "_addr",
          "type": "address"
        }
      ],
      "name": "claim",
      "outputs": [
        {
          "internalType": "uint256",
          "name": "",
          "type": "uint256"
        }
      ],
      "stateMutability": "nonpayable",
      "type": "function"
    },
    {
      "inputs": [
        {
          "internalType": "address[]",
          "name": "_receivers",
          "type": "address[]"
        }
      ],
      "name": "claimMany",
      "outputs": [
        {
          "internalType": "uint256",
          "name": "",
          "type": "uint256"
        }
      ],
      "stateMutability": "nonpayable",
      "type": "function"
    },
    {
      "inputs": [],
      "name": "emergencyReturn",
      "outputs": [
        {
          "internalType": "address",
          "name": "",
          "type": "address"
        }
      ],
      "stateMutability": "view",
      "type": "function"
    },
    {
      "inputs": [
        {
          "internalType": "address",
          "name": "_votingEscrow",
          "type": "address"
        },
        {
          "internalType": "uint256",
          "name": "_startTime",
          "type": "uint256"
        },
        {
          "internalType": "address",
          "name": "_token",
          "type": "address"
        },
        {
          "internalType": "address",
          "name": "_stHOPE",
          "type": "address"
        },
        {
          "internalType": "address",
          "name": "_emergencyReturn",
          "type": "address"
        }
      ],
      "name": "initialize",
      "outputs": [],
      "stateMutability": "nonpayable",
      "type": "function"
    },
    {
      "inputs": [],
      "name": "lastTokenTime",
      "outputs": [
        {
          "internalType": "uint256",
          "name": "",
          "type": "uint256"
        }
      ],
      "stateMutability": "view",
      "type": "function"
    },
    {
      "inputs": [],
      "name": "owner",
      "outputs": [
        {
          "internalType": "address",
          "name": "",
          "type": "address"
        }
      ],
      "stateMutability": "view",
      "type": "function"
    },
    {
      "inputs": [],
      "name": "pause",
      "outputs": [],
      "stateMutability": "nonpayable",
      "type": "function"
    },
    {
      "inputs": [],
      "name": "paused",
      "outputs": [
        {
          "internalType": "bool",
          "name": "",
          "type": "bool"
        }
      ],
      "stateMutability": "view",
      "type": "function"
    },
    {
      "inputs": [],
      "name": "pendingOwner",
      "outputs": [
        {
          "internalType": "address",
          "name": "",
          "type": "address"
        }
      ],
      "stateMutability": "view",
      "type": "function"
    },
    {
      "inputs": [],
      "name": "recoverBalance",
      "outputs": [
        {
          "internalType": "bool",
          "name": "",
          "type": "bool"
        }
      ],
      "stateMutability": "nonpayable",
      "type": "function"
    },
    {
      "inputs": [],
      "name": "renounceOwnership",
      "outputs": [],
      "stateMutability": "nonpayable",
      "type": "function"
    },
    {
      "inputs": [
        {
          "internalType": "address",
          "name": "_addr",
          "type": "address"
        }
      ],
      "name": "setEmergencyReturn",
      "outputs": [],
      "stateMutability": "nonpayable",
      "type": "function"
    },
    {
      "inputs": [],
      "name": "stHOPE",
      "outputs": [
        {
          "internalType": "address",
          "name": "",
          "type": "address"
        }
      ],
      "stateMutability": "view",
      "type": "function"
    },
    {
      "inputs": [],
      "name": "startTime",
      "outputs": [
        {
          "internalType": "uint256",
          "name": "",
          "type": "uint256"
        }
      ],
      "stateMutability": "view",
      "type": "function"
    },
    {
      "inputs": [],
      "name": "timeCursor",
      "outputs": [
        {
          "internalType": "uint256",
          "name": "",
          "type": "uint256"
        }
      ],
      "stateMutability": "view",
      "type": "function"
    },
    {
      "inputs": [
        {
          "internalType": "address",
          "name": "",
          "type": "address"
        }
      ],
      "name": "timeCursorOf",
      "outputs": [
        {
          "internalType": "uint256",
          "name": "",
          "type": "uint256"
        }
      ],
      "stateMutability": "view",
      "type": "function"
    },
    {
      "inputs": [],
      "name": "toggleAllowCheckpointToken",
      "outputs": [],
      "stateMutability": "nonpayable",
      "type": "function"
    },
    {
      "inputs": [],
      "name": "token",
      "outputs": [
        {
          "internalType": "address",
          "name": "",
          "type": "address"
        }
      ],
      "stateMutability": "view",
      "type": "function"
    },
    {
      "inputs": [],
      "name": "tokenLastBalance",
      "outputs": [
        {
          "internalType": "uint256",
          "name": "",
          "type": "uint256"
        }
      ],
      "stateMutability": "view",
      "type": "function"
    },
    {
      "inputs": [
        {
          "internalType": "uint256",
          "name": "",
          "type": "uint256"
        }
      ],
      "name": "tokensPerWeek",
      "outputs": [
        {
          "internalType": "uint256",
          "name": "",
          "type": "uint256"
        }
      ],
      "stateMutability": "view",
      "type": "function"
    },
    {
      "inputs": [
        {
          "internalType": "address",
          "name": "newOwner",
          "type": "address"
        }
      ],
      "name": "transferOwnership",
      "outputs": [],
      "stateMutability": "nonpayable",
      "type": "function"
    },
    {
      "inputs": [],
      "name": "unpause",
      "outputs": [],
      "stateMutability": "nonpayable",
      "type": "function"
    },
    {
      "inputs": [
        {
          "internalType": "address",
          "name": "",
          "type": "address"
        }
      ],
      "name": "userEpochOf",
      "outputs": [
        {
          "internalType": "uint256",
          "name": "",
          "type": "uint256"
        }
      ],
      "stateMutability": "view",
      "type": "function"
    },
    {
      "inputs": [
        {
          "internalType": "address",
          "name": "_user",
          "type": "address"
        },
        {
          "internalType": "uint256",
          "name": "_timestamp",
          "type": "uint256"
        }
      ],
      "name": "veForAt",
      "outputs": [
        {
          "internalType": "uint256",
          "name": "",
          "type": "uint256"
        }
      ],
      "stateMutability": "view",
      "type": "function"
    },
    {
      "inputs": [
        {
          "internalType": "address",
          "name": "_user",
          "type": "address"
        },
        {
          "internalType": "uint256",
          "name": "_timestamp",
          "type": "uint256"
        }
      ],
      "name": "vePrecentageForAt",
      "outputs": [
        {
          "internalType": "uint256",
          "name": "",
          "type": "uint256"
        }
      ],
      "stateMutability": "view",
      "type": "function"
    },
    {
      "inputs": [
        {
          "internalType": "uint256",
          "name": "",
          "type": "uint256"
        }
      ],
      "name": "veSupply",
      "outputs": [
        {
          "internalType": "uint256",
          "name": "",
          "type": "uint256"
        }
      ],
      "stateMutability": "view",
      "type": "function"
    },
    {
      "inputs": [],
      "name": "votingEscrow",
      "outputs": [
        {
          "internalType": "address",
          "name": "",
          "type": "address"
        }
      ],
      "stateMutability": "view",
      "type": "function"
    }
  ],
  "bytecode": "0x608080604052346100c1576000549060ff8260081c1661006f575060ff80821610610034575b604051611fb090816100c78239f35b60ff90811916176000557f7f26b83ff96e1f2b6a682f133852f6798a09c465da95921460cefb3847402498602060405160ff8152a138610025565b62461bcd60e51b815260206004820152602760248201527f496e697469616c697a61626c653a20636f6e747261637420697320696e697469604482015266616c697a696e6760c81b6064820152608490fd5b600080fdfe608060408181526004918236101561001657600080fd5b600092833560e01c9182630cc672e41461103e575081630f6592ef146110165781631e83409a14610f06578163326a940714610eed5781633f4ba83a14610e5757816342966c6814610d135781634f2bfe5b14610cea5781635a4b8c1d14610cbd5781635c975abb14610c99578163715018a614610c32578163786479cd14610bfa57816378e9792514610bdb57816379ba509714610b555781637e686e01146109775781638456cb591461091c5781638721b785146108bf5781638736659b146108a0578163899519be146108785781638da5cb5b1461084f5781638ec8468a14610830578163939ea66b14610811578163a01ef25f14610616578163a143e2da146105ed578163b1850e9414610506578163b26bb8c4146104bc578163bee5dc321461041c578163c7f1ec50146103e4578163e30c3978146103bb578163f2fde38b1461034d578163f3648241146101df57508063f6e252aa146101b05763fc0c546a1461018557600080fd5b346101ac57816003193601126101ac5760cf5490516001600160a01b039091168152602090f35b5080fd5b50346101ac57806003193601126101ac576020906101d86101cf61105f565b602435906114ec565b9051908152f35b82843461034a578160031936011261034a576101f961105f565b60d15483516381fc83bb60e01b81526001600160a01b0380841682880152602096602480359591949092169290918890829081865afa90811561034057869161030d575b509181610252608094876102819795856118d3565b8851630d36406960e21b81526001600160a01b0390921693820193845260208401529384928391829160400190565b03915afa908115610303576102bd92916102b79185916102d5575b506102b1815193878984015193015190611213565b9061122f565b90611213565b9081156102cd5750905b51908152f35b9050906102c7565b6102f6915060803d81116102fc575b6102ee81836110c0565b8101906114b0565b8761029c565b503d6102e4565b84513d85823e3d90fd5b90508781813d8311610339575b61032481836110c0565b81010312610335575161028161023d565b8580fd5b503d61031a565b87513d88823e3d90fd5b80fd5b833461034a57602036600319011261034a5761036761105f565b61036f611138565b606580546001600160a01b0319166001600160a01b039283169081179091556033549091167f38d16b8cac22d99fc7c124b9cd0de2d3fa1faef420bfe791d8c362d765e227008380a380f35b5050346101ac57816003193601126101ac5760655490516001600160a01b039091168152602090f35b5050346101ac5760203660031901126101ac5760209181906001600160a01b0361040c61105f565b16815260cb845220549051908152f35b919050346104b857826003193601126104b8576033546001600160a01b031633148015610480575b156104555782610452611262565b80f35b906020606492519162461bcd60e51b83528201526005602482015264464430303160d81b6044820152fd5b5060ff60d454168015610444575060cd546201518081018091116104a5574211610444565b634e487b7160e01b845260118352602484fd5b8280fd5b833461034a57602036600319011261034a576104d661105f565b6104de611138565b60d48054610100600160a81b03191660089290921b610100600160a81b031691909117905580f35b82843461034a578060031936011261034a57610520611138565b60cf5482516370a0823160e01b815230948101949094526020936001600160a01b03918216908581602481855afa9384156105e25780946105ae575b505082610571918360d45460081c1690611f01565b7fd0a849a4b4c83176fa52813aff6ed8aa60f8756be6d3cc5cdf086614e3db6af4848260cf54169260d45460081c16938551908152a35160018152f35b909193508582813d83116105db575b6105c781836110c0565b8101031261034a575051916105718661055c565b503d6105bd565b8551903d90823e3d90fd5b5050346101ac57816003193601126101ac5760d05490516001600160a01b039091168152602090f35b9050346104b85760a03660031901126104b85761063161105f565b6001600160a01b0360443581811692908390036103355760643582811680910361080d5760843583811681036108095787549560ff8760081c1615968780986107fc575b80156107e5575b1561078b5760ff1981166001178a558761077a575b506106ab60ff8a5460081c166106a681611190565b611190565b6106b4336110e2565b62093a8090816024350482810292818404149015171561076757508060c9558060cd5560ca5560d45490610100600160a81b039060081b1690610100600160a81b0319161760d4556bffffffffffffffffffffffff60a01b938460cf54161760cf558360d054161760d055169060d154161760d155610731575080f35b60207f7f26b83ff96e1f2b6a682f133852f6798a09c465da95921460cefb38474024989161ff001984541684555160018152a180f35b634e487b7160e01b8a5260119052602489fd5b61ffff191661010117895538610691565b885162461bcd60e51b8152602081840152602e60248201527f496e697469616c697a61626c653a20636f6e747261637420697320616c72656160448201526d191e481a5b9a5d1a585b1a5e995960921b6064820152608490fd5b50303b15801561067c5750600160ff82161461067c565b50600160ff821610610675565b8780fd5b8680fd5b5050346101ac57816003193601126101ac5760209060cd549051908152f35b5050346101ac57816003193601126101ac5760209060d2549051908152f35b5050346101ac57816003193601126101ac5760335490516001600160a01b039091168152602090f35b9050346104b85760203660031901126104b857602092829135815260ce845220549051908152f35b5050346101ac57816003193601126101ac5760209060ca549051908152f35b5050346101ac57816003193601126101ac5760207fdbe6ac1081ebd8e648718341126659456f4009fcadfe1c23f66f5e61522610b2916108fd611138565b60d4549060ff8216159160ff83169060ff19161760d45551908152a180f35b5050346101ac57816003193601126101ac5760207f62e78cea01bee320cd4e420270b5ea74000d11b0c9f74754ebdbfc544b05a2589161095a611138565b6109626119db565b600160ff19609754161760975551338152a180f35b8383346101ac576020918260031936011261034a5767ffffffffffffffff9284358481116104b857366023820112156104b85780860135948511610b425760059085821b8551966109ca858301896110c0565b87526024848801918301019136831161033557602401905b828210610b23575050506109f46119db565b60ca54421015610b16575b60cd549560ff60d4541680610aee575b610add575b62093a80809704878102978189041490151715610aca5750825b8551811015610abf5780821b86018301516001600160a01b03908116908115610a975788610a609160d1541683611a1f565b9081610a77575b5050610a7290611220565b610a2e565b90610a729295610a8a82610a8f94611e0a565b6111f0565b939088610a67565b50505050935091505b81610aab5751908152f35b610ab78260d254611213565b60d2556102c7565b505093509150610aa0565b634e487b7160e01b845260119052602483fd5b9550610ae7611262565b4295610a14565b50620151808701808811610b03574211610a0f565b634e487b7160e01b855260118252602485fd5b610b1e6115d6565b6109ff565b81356001600160a01b038116810361080d5781529084019084016109e2565b634e487b7160e01b835260418652602483fd5b919050346104b857826003193601126104b857606554336001600160a01b0390911603610b865782610452336110e2565b906020608492519162461bcd60e51b8352820152602960248201527f4f776e61626c6532537465703a2063616c6c6572206973206e6f7420746865206044820152683732bb9037bbb732b960b91b6064820152fd5b5050346101ac57816003193601126101ac5760209060c9549051908152f35b5050346101ac5760203660031901126101ac5760209181906001600160a01b03610c2261105f565b16815260cc845220549051908152f35b833461034a578060031936011261034a57610c4b611138565b606580546001600160a01b031990811690915560338054918216905581906001600160a01b03167f8be0079c531659141344cd1fd0a4f28419497f9722a3daafe3b4186f6b6457e08280a380f35b5050346101ac57816003193601126101ac5760209060ff6097541690519015158152f35b5050346101ac57816003193601126101ac5760d454905160089190911c6001600160a01b03168152602090f35b5050346101ac57816003193601126101ac5760d15490516001600160a01b039091168152602090f35b82843461034a57602092836003193601126101ac578035610d326119db565b8481610d41575b845160018152f35b60cf5485516323b872dd60e01b8152338582015230602482015260448101939093528290606490829087906001600160a01b03165af1908115610303578391610e21575b5015610de75760ff60d454169182610db5575b5050610da8575b82808084610d39565b610db0611262565b610d9f565b90915060cd5491620151808301809311610dd457505042118380610d98565b634e487b7160e01b825260119052602490fd5b825162461bcd60e51b815290810184905260146024820152731514905394d1915497d19493d357d1905253115160621b6044820152606490fd5b90508481813d8311610e50575b610e3881836110c0565b810103126104b8575180151581036104b85785610d85565b503d610e2e565b9050346104b857826003193601126104b857610e71611138565b6097549060ff821615610eb3575060ff1916609755513381527f5db9ee0a495bf2e6ff9c91a7834c1ba4fdd244a5e8aa4e537bd38aeae4b073aa90602090a180f35b606490602084519162461bcd60e51b8352820152601460248201527314185d5cd8589b194e881b9bdd081c185d5cd95960621b6044820152fd5b833461034a578060031936011261034a576104526115d6565b8383346101ac5760203660031901126101ac57610f2161105f565b91610f2a6119db565b8260ca54421015611009575b6001600160a01b0390811615611001575b60cd549160ff60d4541680610fd9575b610fc8575b62093a80809304838102938185041490151715610fb55760208585610f86868660d1541684611a1f565b918280610f96575b505051908152f35b610f9f91611e0a565b610fab8260d254611213565b60d2558382610f8e565b634e487b7160e01b815260118652602490fd5b9150610fd2611262565b4291610f5c565b50620151808301808411610fee574211610f57565b634e487b7160e01b825260118752602482fd5b339350610f47565b6110116115d6565b610f36565b9050346104b85760203660031901126104b857602092829135815260d3845220549051908152f35b8490346101ac57816003193601126101ac5760209060ff60d4541615158152f35b600435906001600160a01b038216820361107557565b600080fd5b6080810190811067ffffffffffffffff82111761109657604052565b634e487b7160e01b600052604160045260246000fd5b67ffffffffffffffff811161109657604052565b90601f8019910116810190811067ffffffffffffffff82111761109657604052565b6bffffffffffffffffffffffff60a01b90816065541660655560335460018060a01b038092168093821617603355167f8be0079c531659141344cd1fd0a4f28419497f9722a3daafe3b4186f6b6457e0600080a3565b6033546001600160a01b0316330361114c57565b606460405162461bcd60e51b815260206004820152602060248201527f4f776e61626c653a2063616c6c6572206973206e6f7420746865206f776e65726044820152fd5b1561119757565b60405162461bcd60e51b815260206004820152602b60248201527f496e697469616c697a61626c653a20636f6e7472616374206973206e6f74206960448201526a6e697469616c697a696e6760a81b6064820152608490fd5b919082018092116111fd57565b634e487b7160e01b600052601160045260246000fd5b919082039182116111fd57565b60001981146111fd5760010190565b818102929181159184041417156111fd57565b811561124c570490565b634e487b7160e01b600052601260045260246000fd5b60018060a01b0360cf541690604080516370a0823160e01b815280806004953087830152602093849160249384915afa9182156114a557600092611476575b506112ae60d25483611213565b9160d25560cd546112bf8142611213565b4260cd5562093a8097888304898102908082048b149015171561146257936000915b60148310611320575b5050505050507fce749457b74e10f393f2c6b1ce4261b78791376db5a3f501477a809f03f500d6939450825191428352820152a1565b8a86019182871161144f578242106000146113d357505050507fce749457b74e10f393f2c6b1ce4261b78791376db5a3f501477a809f03f500d69697508015806113ca575b1561139157505060005260ce8252826000206113828282546111f0565b90555b849338808080806112ea565b6113a76113a16113ac9342611213565b8561122f565b611242565b9060005260ce83526113c3846000209182546111f0565b9055611385565b50814214611365565b91948480979294971580611446575b1561141257505060005260ce8752876000206113ff8782546111f0565b90555b61140c8495611220565b916112e1565b6113a76114226114289389611213565b8a61122f565b9060005260ce885261143f896000209182546111f0565b9055611402565b508187146113e2565b634e487b7160e01b600090815260118352fd5b84601183634e487b7160e01b600052526000fd5b90918382813d831161149e575b61148d81836110c0565b8101031261034a57505190386112a1565b503d611483565b84513d6000823e3d90fd5b90816080910312611075576060604051916114ca8361107a565b8051835260208101516020840152604081015160408401520151606082015290565b9062093a808091048181029181830414901517156111fd5760405163f364824160e01b81526001600160a01b0392909216600483015260248201819052602082604481305afa9182156115b657600092611583575b5060005260d3602052604060002054801561157c57670de0b6b3a7640000918281029281840414901517156111fd5761157991611242565b90565b5050600090565b90916020823d82116115ae575b8161159d602093836110c0565b8101031261034a5750519038611541565b3d9150611590565b6040513d6000823e3d90fd5b6001600160ff1b0381146111fd5760010190565b60ca54600062093a808042049182828102048214831517156118bf5760d1546001600160a01b0316803b156101ac57818091600460405180948193631ede4ced60e21b83525af180156118b4576118a5575b5080925b6014841261163e575b5050505060ca55565b82810285116000036116355760d15460405163900cf0cf60e01b81526001600160a01b03909116969395949293929084906020816004818c5afa90811561189a578691611868575b509385915b60808312156118585785811015611777576116a686826111f0565b90600282018092116117635760808b604051918280926318d45de760e11b82528660011c600483015260249485915afa908115611758578b916040918c91611739575b500151116117065750506117009060011c926115c2565b9161168b565b909396506000198260011c019160011c8211611727575061170090956115c2565b634e487b7160e01b8852601160045287fd5b611752915060803d6080116102fc576102ee81836110c0565b386116e9565b6040513d8c823e3d90fd5b634e487b7160e01b88526011600452602488fd5b91509791969493509491945b6040519182916318d45de760e11b8352600483015281602460809485935afa91821561184d57906117d692918592611830575b50506102b784604083015180861161181f575b506020835193015161122f565b8015611818575b81835260d36020526040832055828101809111611804576117fe90946115c2565b9261162c565b634e487b7160e01b82526011600452602482fd5b50816117dd565b61182a915085611213565b386117c9565b6118469250803d106102fc576102ee81836110c0565b38806117b6565b6040513d86823e3d90fd5b9150979196949350949194611783565b90506020813d602011611892575b81611883602093836110c0565b81010312611075575138611686565b3d9150611876565b6040513d88823e3d90fd5b6118ae906110ac565b38611628565b6040513d84823e3d90fd5b634e487b7160e01b81526011600452602490fd5b93919093600093845b608090818712156119d057828110156119d0576118f983826111f0565b600281018091116111fd5760408051630d36406960e21b81526001600160a01b038b1660048083019190915260019390931c6024820181905294908181806044810103816001600160a01b038c165afa9182156119c55790899392916000926119a8575b505001511161197857505061197290956115c2565b946118dc565b909692506000198201918211611993575061197290916115c2565b601190634e487b7160e01b6000525260246000fd5b6119be9250803d106102fc576102ee81836110c0565b388061195d565b83513d6000823e3d90fd5b955050505050915090565b60ff609754166119e757565b60405162461bcd60e51b815260206004820152601060248201526f14185d5cd8589b194e881c185d5cd95960821b6044820152606490fd5b6040516381fc83bb60e01b81526001600160a01b03808316600483015260009485949293906020856024818688165afa94851561189a578695611dd6575b5060c954938515611dcb57828416875260cb6020526040872054968715908115611dbb5750611a8e878786856118d3565b955b8615611db2575b604051630d36406960e21b81526001600160a01b038616600482015260248101889052608081604481878b165afa9081156115b657600091611d93575b508092611d56575b5083891015611d4757808910611d3f575b509190604051611afc8161107a565b600081526000602082015260006040820152600060608201526000905b60328212611b9e575b505050505060001983019283116111fd577f9cdcf2f7714cca3508c7f0110b04a90a80a3a8dd0e35de99689db74d28c5383e9360609380821015611b98575080955b83831660005260cc6020528660406000205560cb60205260406000205560405195878752602087015260408601521692a290565b95611b64565b838a9892939495981015611d375760408801518a101580611d2d575b15611c7757506001810181116111fd57600101958688811115611c105750611c06604051611be78161107a565b60008152600060208201526000604082015260006060820152926115c2565b9093929193611b19565b604051630d36406960e21b81526001600160a01b03871660048201526024810191909152608081604481878b165afa80156115b657611c0691600091611c58575b50926115c2565b611c71915060803d6080116102fc576102ee81836110c0565b38611c51565b90969198611c9d611c8c604084015183611213565b6102b784519160208601519061122f565b60008115611d2657505b80158080611d1d575b611d155715611cd2575b5062093a8081018091116111fd57611c0690996115c2565b9a611d08611cf3839d611d0e9460005260ce6020526040600020549061122f565b8d60005260d360205260406000205490611242565b906111f0565b9938611cba565b505098611b22565b508a8a11611cb0565b9050611ca7565b5088821115611bba565b819750611b22565b975038611aed565b50505050505050505050600090565b6040919950015162093a8090818101908181116111fd5762093a7f019081116111fd578190048181029181830414901517156111fd579738611adc565b611dac915060803d6080116102fc576102ee81836110c0565b38611ad4565b60019650611a97565b60409060cc602052205495611a90565b505050505050905090565b9094506020813d602011611e02575b81611df2602093836110c0565b8101031261033557519338611a5d565b3d9150611de5565b60cf5460d05460405163095ea7b360e01b81526001600160a01b03918216600482015260248101859052600095949392602091879160449190839086165af13d15601f3d11600188511416171615611ecb57848160d05416803b156101ac57819060a4604051809481936373dd055560e01b8352896004840152816024840152816044840152608060648401528160848401525af1801561189a57611eba959650611ebc575b5060d05416611f01565b565b611ec5906110ac565b38611eb0565b60405162461bcd60e51b815260206004820152600e60248201526d1054141493d59157d1905253115160921b6044820152606490fd5b600091826044926020956040519363a9059cbb60e01b85526004850152602484015260018060a01b03165af13d15601f3d1160016000511416171615611f4357565b60405162461bcd60e51b815260206004820152600f60248201526e1514905394d1915497d19052531151608a1b6044820152606490fdfea2646970667358221220ad37e58461949add29855bb5fceabf6140211400b0cfb572407258d0770089a964736f6c63430008110033",
  "linkReferences": {},
  "deployedLinkReferences": {}
}