{
  "_format": "hh-sol-artifact-1",
  "contractName": "FeeToVault",
  "sourceName": "contracts/feeDistributor/feeToVault/FeeToVault.sol",
  "abi": [
    {
      "inputs": [],
      "stateMutability": "nonpayable",
      "type": "constructor"
    },
    {
      "anonymous": false,
      "inputs": [
        {
          "indexed": false,
          "internalType": "uint8",
          "name": "version",
          "type": "uint8"
        }
      ],
      "name": "Initialized",
      "type": "event"
    },
    {
      "anonymous": false,
      "inputs": [
        {
          "indexed": true,
          "internalType": "address",
          "name": "previousOwner",
          "type": "address"
        },
        {
          "indexed": true,
          "internalType": "address",
          "name": "newOwner",
          "type": "address"
        }
      ],
      "name": "OwnershipTransferStarted",
      "type": "event"
    },
    {
      "anonymous": false,
      "inputs": [
        {
          "indexed": true,
          "internalType": "address",
          "name": "previousOwner",
          "type": "address"
        },
        {
          "indexed": true,
          "internalType": "address",
          "name": "newOwner",
          "type": "address"
        }
      ],
      "name": "OwnershipTransferred",
      "type": "event"
    },
    {
      "anonymous": false,
      "inputs": [
        {
          "indexed": false,
          "internalType": "address",
          "name": "account",
          "type": "address"
        }
      ],
      "name": "Paused",
      "type": "event"
    },
    {
      "anonymous": false,
      "inputs": [
        {
          "indexed": true,
          "internalType": "bytes32",
          "name": "role",
          "type": "bytes32"
        },
        {
          "indexed": true,
          "internalType": "bytes32",
          "name": "previousAdminRole",
          "type": "bytes32"
        },
        {
          "indexed": true,
          "internalType": "bytes32",
          "name": "newAdminRole",
          "type": "bytes32"
        }
      ],
      "name": "RoleAdminChanged",
      "type": "event"
    },
    {
      "anonymous": false,
      "inputs": [
        {
          "indexed": true,
          "internalType": "bytes32",
          "name": "role",
          "type": "bytes32"
        },
        {
          "indexed": true,
          "internalType": "address",
          "name": "account",
          "type": "address"
        },
        {
          "indexed": true,
          "internalType": "address",
          "name": "sender",
          "type": "address"
        }
      ],
      "name": "RoleGranted",
      "type": "event"
    },
    {
      "anonymous": false,
      "inputs": [
        {
          "indexed": true,
          "internalType": "bytes32",
          "name": "role",
          "type": "bytes32"
        },
        {
          "indexed": true,
          "internalType": "address",
          "name": "account",
          "type": "address"
        },
        {
          "indexed": true,
          "internalType": "address",
          "name": "sender",
          "type": "address"
        }
      ],
      "name": "RoleRevoked",
      "type": "event"
    },
    {
      "anonymous": false,
      "inputs": [
        {
          "indexed": false,
          "internalType": "address",
          "name": "account",
          "type": "address"
        }
      ],
      "name": "Unpaused",
      "type": "event"
    },
    {
      "inputs": [],
      "name": "DEFAULT_ADMIN_ROLE",
      "outputs": [
        {
          "internalType": "bytes32",
          "name": "",
          "type": "bytes32"
        }
      ],
      "stateMutability": "view",
      "type": "function"
    },
    {
      "inputs": [],
      "name": "HOPE",
      "outputs": [
        {
          "internalType": "address",
          "name": "",
          "type": "address"
        }
      ],
      "stateMutability": "view",
      "type": "function"
    },
    {
      "inputs": [],
      "name": "OPERATOR_ROLE",
      "outputs": [
        {
          "internalType": "bytes32",
          "name": "",
          "type": "bytes32"
        }
      ],
      "stateMutability": "view",
      "type": "function"
    },
    {
      "inputs": [],
      "name": "acceptOwnership",
      "outputs": [],
      "stateMutability": "nonpayable",
      "type": "function"
    },
    {
      "inputs": [
        {
          "internalType": "address",
          "name": "_operator",
          "type": "address"
        }
      ],
      "name": "addOperator",
      "outputs": [],
      "stateMutability": "nonpayable",
      "type": "function"
    },
    {
      "inputs": [
        {
          "components": [
            {
              "internalType": "address",
              "name": "token",
              "type": "address"
            },
            {
              "internalType": "uint256",
              "name": "amountIn",
              "type": "uint256"
            },
            {
              "internalType": "uint256",
              "name": "amountOutMin",
              "type": "uint256"
            },
            {
              "internalType": "address[]",
              "name": "path",
              "type": "address[]"
            }
          ],
          "internalType": "struct FeeToVault.SwapBurnerInput",
          "name": "input",
          "type": "tuple"
        }
      ],
      "name": "burn",
      "outputs": [],
      "stateMutability": "nonpayable",
      "type": "function"
    },
    {
      "inputs": [
        {
          "components": [
            {
              "internalType": "address",
              "name": "token",
              "type": "address"
            },
            {
              "internalType": "uint256",
              "name": "amountIn",
              "type": "uint256"
            },
            {
              "internalType": "uint256",
              "name": "amountOutMin",
              "type": "uint256"
            },
            {
              "internalType": "address[]",
              "name": "path",
              "type": "address[]"
            }
          ],
          "internalType": "struct FeeToVault.SwapBurnerInput[]",
          "name": "inputs",
          "type": "tuple[]"
        }
      ],
      "name": "burnMany",
      "outputs": [],
      "stateMutability": "nonpayable",
      "type": "function"
    },
    {
      "inputs": [],
      "name": "burnerManager",
      "outputs": [
        {
          "internalType": "address",
          "name": "",
          "type": "address"
        }
      ],
      "stateMutability": "view",
      "type": "function"
    },
    {
      "inputs": [
        {
          "internalType": "bytes32",
          "name": "role",
          "type": "bytes32"
        }
      ],
      "name": "getRoleAdmin",
      "outputs": [
        {
          "internalType": "bytes32",
          "name": "",
          "type": "bytes32"
        }
      ],
      "stateMutability": "view",
      "type": "function"
    },
    {
      "inputs": [
        {
          "internalType": "bytes32",
          "name": "role",
          "type": "bytes32"
        },
        {
          "internalType": "address",
          "name": "account",
          "type": "address"
        }
      ],
      "name": "grantRole",
      "outputs": [],
      "stateMutability": "nonpayable",
      "type": "function"
    },
    {
      "inputs": [
        {
          "internalType": "bytes32",
          "name": "role",
          "type": "bytes32"
        },
        {
          "internalType": "address",
          "name": "account",
          "type": "address"
        }
      ],
      "name": "hasRole",
      "outputs": [
        {
          "internalType": "bool",
          "name": "",
          "type": "bool"
        }
      ],
      "stateMutability": "view",
      "type": "function"
    },
    {
      "inputs": [
        {
          "internalType": "address",
          "name": "_burnerManager",
          "type": "address"
        },
        {
          "internalType": "address",
          "name": "_underlyingBurner",
          "type": "address"
        },
        {
          "internalType": "address",
          "name": "_HOPE",
          "type": "address"
        }
      ],
      "name": "initialize",
      "outputs": [],
      "stateMutability": "nonpayable",
      "type": "function"
    },
    {
      "inputs": [
        {
          "internalType": "address",
          "name": "_operator",
          "type": "address"
        }
      ],
      "name": "isOperator",
      "outputs": [
        {
          "internalType": "bool",
          "name": "",
          "type": "bool"
        }
      ],
      "stateMutability": "view",
      "type": "function"
    },
    {
      "inputs": [],
      "name": "owner",
      "outputs": [
        {
          "internalType": "address",
          "name": "",
          "type": "address"
        }
      ],
      "stateMutability": "view",
      "type": "function"
    },
    {
      "inputs": [],
      "name": "pause",
      "outputs": [],
      "stateMutability": "nonpayable",
      "type": "function"
    },
    {
      "inputs": [],
      "name": "paused",
      "outputs": [
        {
          "internalType": "bool",
          "name": "",
          "type": "bool"
        }
      ],
      "stateMutability": "view",
      "type": "function"
    },
    {
      "inputs": [],
      "name": "pendingOwner",
      "outputs": [
        {
          "internalType": "address",
          "name": "",
          "type": "address"
        }
      ],
      "stateMutability": "view",
      "type": "function"
    },
    {
      "inputs": [
        {
          "internalType": "address",
          "name": "_operator",
          "type": "address"
        }
      ],
      "name": "removeOperator",
      "outputs": [],
      "stateMutability": "nonpayable",
      "type": "function"
    },
    {
      "inputs": [],
      "name": "renounceOwnership",
      "outputs": [],
      "stateMutability": "nonpayable",
      "type": "function"
    },
    {
      "inputs": [
        {
          "internalType": "bytes32",
          "name": "role",
          "type": "bytes32"
        },
        {
          "internalType": "address",
          "name": "account",
          "type": "address"
        }
      ],
      "name": "renounceRole",
      "outputs": [],
      "stateMutability": "nonpayable",
      "type": "function"
    },
    {
      "inputs": [
        {
          "internalType": "bytes32",
          "name": "role",
          "type": "bytes32"
        },
        {
          "internalType": "address",
          "name": "account",
          "type": "address"
        }
      ],
      "name": "revokeRole",
      "outputs": [],
      "stateMutability": "nonpayable",
      "type": "function"
    },
    {
      "inputs": [
        {
          "internalType": "bytes4",
          "name": "interfaceId",
          "type": "bytes4"
        }
      ],
      "name": "supportsInterface",
      "outputs": [
        {
          "internalType": "bool",
          "name": "",
          "type": "bool"
        }
      ],
      "stateMutability": "view",
      "type": "function"
    },
    {
      "inputs": [
        {
          "internalType": "address",
          "name": "newOwner",
          "type": "address"
        }
      ],
      "name": "transferOwnership",
      "outputs": [],
      "stateMutability": "nonpayable",
      "type": "function"
    },
    {
      "inputs": [],
      "name": "underlyingBurner",
      "outputs": [
        {
          "internalType": "address",
          "name": "",
          "type": "address"
        }
      ],
      "stateMutability": "view",
      "type": "function"
    },
    {
      "inputs": [],
      "name": "unpause",
      "outputs": [],
      "stateMutability": "nonpayable",
      "type": "function"
    },
    {
      "inputs": [
        {
          "internalType": "address",
          "name": "pool",
          "type": "address"
        }
      ],
      "name": "withdrawAdminFee",
      "outputs": [],
      "stateMutability": "nonpayable",
      "type": "function"
    },
    {
      "inputs": [
        {
          "internalType": "address[]",
          "name": "pools",
          "type": "address[]"
        }
      ],
      "name": "withdrawMany",
      "outputs": [],
      "stateMutability": "nonpayable",
      "type": "function"
    }
  ],
  "bytecode": "0x608080604052346100c1576000549060ff8260081c1661006f575060ff80821610610034575b604051611aed90816100c78239f35b60ff90811916176000557f7f26b83ff96e1f2b6a682f133852f6798a09c465da95921460cefb3847402498602060405160ff8152a138610025565b62461bcd60e51b815260206004820152602760248201527f496e697469616c697a61626c653a20636f6e747261637420697320696e697469604482015266616c697a696e6760c81b6064820152608490fd5b600080fdfe60806040908082526004908136101561001757600080fd5b600092833560e01c91826301ffc9a714610caf575081630fd80c7914610be6578163248a9ca314610bba5781632f2ff15d14610b0c57816336568abe14610a7b5781633f4ba83a146109e45781635c975abb146109c0578163658e4821146108ac5781636d70f7ae14610858578163715018a6146107f157816374ac6112146107c757816379ba5097146107425781638456cb59146106e75781638da5cb5b146106be57816391d14854146106765781639839e1471461064c5781639870d7fe14610599578163a217fddf1461057e578163ac8a584a146104cf578163c0c53b8b14610302578163d547741f146102c7578163d883c43d14610295578163d88a30871461026b578163e30c397814610242578163f2fde38b146101d1578163f5b541a6146101a8575063fff4849c1461014f57600080fd5b346101a45760031960203682011261019c5781359067ffffffffffffffff82116101a057608090823603011261019c576101999161018b6113fe565b610193610db0565b01611614565b80f35b8280fd5b8380fd5b5080fd5b8390346101a457816003193601126101a45760209051600080516020611a988339815191528152f35b833461023f57602036600319011261023f576101eb610d1e565b6101f36111cb565b606580546001600160a01b0319166001600160a01b039283169081179091556033549091167f38d16b8cac22d99fc7c124b9cd0de2d3fa1faef420bfe791d8c362d765e227008380a380f35b80fd5b8390346101a457816003193601126101a45760655490516001600160a01b039091168152602090f35b8390346101a457816003193601126101a45761012e5490516001600160a01b039091168152602090f35b833461023f57602036600319011261023f576101996102b2610d1e565b6102ba6113fe565b6102c2610db0565b611467565b90503461019c578060031936011261019c5761019991356102fd60016102eb610d03565b9383875260fb60205286200154610fd0565b6110ff565b9190503461019c57606036600319011261019c5761031e610d1e565b90610327610d03565b6044356001600160a01b03818116918290036104cb5786549460ff8660081c1615948580966104be575b80156104a7575b1561044d5750819060ff1996866001898316178b5561043c575b501692610380841515611359565b1661038c811515611359565b6103a560ff885460081c166103a08161139e565b61139e565b6103ae33611175565b8654946103c460ff8760081c166103a08161139e565b609754166097556bffffffffffffffffffffffff60a01b9261012d908482541617905561012e908382541617905561012f91825416179055610404578280f35b61ff001916825551600181527f7f26b83ff96e1f2b6a682f133852f6798a09c465da95921460cefb384740249890602090a138808280f35b61ffff191661010117895538610372565b608490602089519162461bcd60e51b8352820152602e60248201527f496e697469616c697a61626c653a20636f6e747261637420697320616c72656160448201526d191e481a5b9a5d1a585b1a5e995960921b6064820152fd5b50303b1580156103585750600160ff881614610358565b50600160ff881610610351565b8680fd5b8390346101a45760203660031901126101a4576104ea610d1e565b6104f26111cb565b6001600160a01b0316610506811515611359565b600080516020611a988339815191529182845260fb60205280842082855260205260ff8185205416610536578380f35b82845260fb602052808420828552602052832060ff19815416905533917ff6391f5c32d9c69d2a47ea670b442974b53935d1edc7fd64eb21e047a839171b8480a48180808380f35b8390346101a457816003193601126101a45751908152602090f35b8390346101a45760203660031901126101a4576105b4610d1e565b6105bc6111cb565b6001600160a01b03166105d0811515611359565b600080516020611a988339815191529182845260fb60205280842082855260205260ff818520541615610601578380f35b82845260fb6020528084208285526020528320600160ff1982541617905533917f2f8788117e7eff1d82e926ec794901d17c78024a50270940304540a733656f0d8480a48180808380f35b8390346101a457816003193601126101a45761012d5490516001600160a01b039091168152602090f35b9190503461019c578160031936011261019c578160209360ff92610698610d03565b9035825260fb86528282206001600160a01b039091168252855220549151911615158152f35b8390346101a457816003193601126101a45760335490516001600160a01b039091168152602090f35b8390346101a457816003193601126101a45760207f62e78cea01bee320cd4e420270b5ea74000d11b0c9f74754ebdbfc544b05a258916107256111cb565b61072d6113fe565b600160ff19609754161760975551338152a180f35b90503461019c578260031936011261019c57606554336001600160a01b0390911603610772578261019933611175565b906020608492519162461bcd60e51b8352820152602960248201527f4f776e61626c6532537465703a2063616c6c6572206973206e6f7420746865206044820152683732bb9037bbb732b960b91b6064820152fd5b8390346101a457816003193601126101a45761012f5490516001600160a01b039091168152602090f35b833461023f578060031936011261023f5761080a6111cb565b606580546001600160a01b031990811690915560338054918216905581906001600160a01b03167f8be0079c531659141344cd1fd0a4f28419497f9722a3daafe3b4186f6b6457e08280a380f35b8390346101a45760203660031901126101a45760ff81602093610879610d1e565b600080516020611a98833981519152825260fb86528282206001600160a01b039091168252855220549151911615158152f35b82843461023f576020908160031936011261023f5782359367ffffffffffffffff9182861161023f573660238701121561023f57858501359283116109ad5760059583871b92519361090086850186610d8e565b845284840160248094830101913683116101a05784879101915b838310610995575050505061092d6113fe565b610935610db0565b805b83518110808061098a575b1561098657156109755780871b8401850151610970919061096b906001600160a01b0316611467565b611442565b610937565b50634e487b7160e01b815260328552fd5b8280f35b506101008210610942565b81906109a084610d34565b815201910190869061091a565b634e487b7160e01b815260418552602490fd5b8390346101a457816003193601126101a45760209060ff6097541690519015158152f35b9190503461019c578260031936011261019c576109ff6111cb565b6097549060ff821615610a41575060ff1916609755513381527f5db9ee0a495bf2e6ff9c91a7834c1ba4fdd244a5e8aa4e537bd38aeae4b073aa90602090a180f35b606490602084519162461bcd60e51b8352820152601460248201527314185d5cd8589b194e881b9bdd081c185d5cd95960621b6044820152fd5b8383346101a457826003193601126101a457610a95610d03565b90336001600160a01b03831603610ab1579061019991356110ff565b608490602085519162461bcd60e51b8352820152602f60248201527f416363657373436f6e74726f6c3a2063616e206f6e6c792072656e6f756e636560448201526e103937b632b9903337b91039b2b63360891b6064820152fd5b9190503461019c578160031936011261019c573590610b29610d03565b9082845260fb602052610b4160018286200154610fd0565b82845260fb60209081528185206001600160a01b039093168086529290528084205460ff1615610b6f578380f35b82845260fb6020528084208285526020528320600160ff1982541617905533917f2f8788117e7eff1d82e926ec794901d17c78024a50270940304540a733656f0d8480a43880808380f35b9190503461019c57602036600319011261019c578160209360019235815260fb85522001549051908152f35b5050346101a45760203660031901126101a45767ffffffffffffffff81358181116101a057366023820112156101a057808301359182116101a0576024936005368685831b850101116101a457610c3e9493946113fe565b610c46610db0565b3683900360a2190193825b8681108080610ca5575b15610ca15715610c8f578781841b8601013586811215610c8b579061096b89610c8693880101611614565b610c51565b8480fd5b634e487b7160e01b8452603282528784fd5b8480f35b5060808210610c5b565b8490843461019c57602036600319011261019c573563ffffffff60e01b811680910361019c5760209250637965db0b60e01b8114908115610cf2575b5015158152f35b6301ffc9a760e01b14905083610ceb565b602435906001600160a01b0382168203610d1957565b600080fd5b600435906001600160a01b0382168203610d1957565b35906001600160a01b0382168203610d1957565b67ffffffffffffffff8111610d5c57604052565b634e487b7160e01b600052604160045260246000fd5b6080810190811067ffffffffffffffff821117610d5c57604052565b90601f8019910116810190811067ffffffffffffffff821117610d5c57604052565b3360009081527f718e60bb5234ae98fe94f964117a61b7ee152511f628bdd477f8fafda2fc1700602090815260408083205490929190600080516020611a988339815191529060ff1615610e045750505050565b610e0d3361124a565b90845190610e1a82610d72565b60428252838201946060368737825115610fbc5760308653825190600191821015610fbc5790607860218501536041915b818311610f4e57505050610f0c5784610eda6048610efe936044979851988991610ecb8984019876020b1b1b2b9b9a1b7b73a3937b61d1030b1b1b7bab73a1604d1b8a52610ea2815180928d6037890191016110dc565b8401917001034b99036b4b9b9b4b733903937b6329607d1b6037840152518093868401906110dc565b01036028810189520187610d8e565b5194859362461bcd60e51b85526004850152518092816024860152858501906110dc565b601f01601f19168101030190fd5b60648386519062461bcd60e51b825280600483015260248201527f537472696e67733a20686578206c656e67746820696e73756666696369656e746044820152fd5b909192600f81166010811015610fa8576f181899199a1a9b1b9c1cb0b131b232b360811b901a610f7e8587611223565b5360041c928015610f9457600019019190610e4b565b634e487b7160e01b82526011600452602482fd5b634e487b7160e01b83526032600452602483fd5b634e487b7160e01b81526032600452602490fd5b6000818152602060fb8152604092838320338452825260ff848420541615610ff85750505050565b6110013361124a565b9084519061100e82610d72565b60428252838201946060368737825115610fbc5760308653825190600191821015610fbc5790607860218501536041915b81831161109657505050610f0c5784610eda6048610efe936044979851988991610ecb8984019876020b1b1b2b9b9a1b7b73a3937b61d1030b1b1b7bab73a1604d1b8a52610ea2815180928d6037890191016110dc565b909192600f81166010811015610fa8576f181899199a1a9b1b9c1cb0b131b232b360811b901a6110c68587611223565b5360041c928015610f945760001901919061103f565b60005b8381106110ef5750506000910152565b81810151838201526020016110df565b9060009180835260fb602052604083209160018060a01b03169182845260205260ff60408420541661113057505050565b80835260fb602052604083208284526020526040832060ff1981541690557ff6391f5c32d9c69d2a47ea670b442974b53935d1edc7fd64eb21e047a839171b339380a4565b6bffffffffffffffffffffffff60a01b90816065541660655560335460018060a01b038092168093821617603355167f8be0079c531659141344cd1fd0a4f28419497f9722a3daafe3b4186f6b6457e0600080a3565b6033546001600160a01b031633036111df57565b606460405162461bcd60e51b815260206004820152602060248201527f4f776e61626c653a2063616c6c6572206973206e6f7420746865206f776e65726044820152fd5b908151811015611234570160200190565b634e487b7160e01b600052603260045260246000fd5b604051906060820182811067ffffffffffffffff821117610d5c57604052602a82526020820160403682378251156112345760309053815160019081101561123457607860218401536029905b8082116112eb5750506112a75790565b606460405162461bcd60e51b815260206004820152602060248201527f537472696e67733a20686578206c656e67746820696e73756666696369656e746044820152fd5b9091600f81166010811015611344576f181899199a1a9b1b9c1cb0b131b232b360811b901a61131a8486611223565b5360041c91801561132f576000190190611297565b60246000634e487b7160e01b81526011600452fd5b60246000634e487b7160e01b81526032600452fd5b1561136057565b60405162461bcd60e51b815260206004820152601660248201527516995c9bc81859191c995cdcc81b9bdd081d985b1a5960521b6044820152606490fd5b156113a557565b60405162461bcd60e51b815260206004820152602b60248201527f496e697469616c697a61626c653a20636f6e7472616374206973206e6f74206960448201526a6e697469616c697a696e6760a81b6064820152608490fd5b60ff6097541661140a57565b60405162461bcd60e51b815260206004820152601060248201526f14185d5cd8589b194e881c185d5cd95960821b6044820152606490fd5b60001981146114515760010190565b634e487b7160e01b600052601160045260246000fd5b6001600160a01b0316803b15610d1957604080516313966db560e01b815260009290838160048183865af180156115f3576115e0575b5081516370a0823160e01b81523060048201526020808260248188875af19182156115a75785926115b1575b50816114d7575b5050505050565b83519163a9059cbb60e01b83528360048401526024830152808260448188875af180156115a75791859391859361156c575b5050602482518094819363226bf2d160e21b83523060048401525af1801561156057611537575b80806114d0565b813d8311611559575b61154a8183610d8e565b8101031261023f578080611530565b503d611540565b505051903d90823e3d90fd5b809294508193503d83116115a0575b6115858183610d8e565b810103126101a057518015150361019c578183913880611509565b503d61157b565b84513d87823e3d90fd5b9080925081813d83116115d9575b6115c98183610d8e565b81010312610d19575190386114c9565b503d6115bf565b6115ec90939193610d48565b913861149d565b50505051903d90823e3d90fd5b356001600160a01b0381168103610d195790565b6001600160a01b038061162683611600565b16916040918251918280926370a0823160e01b8083526004973089850152602093849160249889915afa9485156118b057600095611a68575b5082840135948515159081611a5d575b5015611a295761167e84611600565b828061012f54169116146118bb5750868282878161012d541660006116a289611600565b918c5196879586946301ea0f0760e11b865216908401525af19081156118b057908291600091611875575b50169485156118415782600060448a82866116e78a611600565b168b8d519363095ea7b360e01b85528401528a878401525af13d15601f3d116001600051141617161561180f578161012e54169761172485611600565b6060860135601e1987360301811215610d195786019586359667ffffffffffffffff8811610d19578601978760051b36038913610d1957893b15610d19578a51637d0a40d160e11b81529384019b909b52908416928201929092526044810198909852860135606488015260a0608488015260a48701839052869360c4850193909290916000905b8382106117e75750505050509181600081819503925af19081156117dd57506117d25750565b6117db90610d48565b565b513d6000823e3d90fd5b91849650806001929496846117fc8398610d34565b16815201960192018895949293916117ac565b87600e606492858a519362461bcd60e51b85528401528201526d1054141493d59157d1905253115160921b6044820152fd5b876010606492858a519362461bcd60e51b85528401528201526f14d95d08189d5c9b995c88199a5c9cdd60821b6044820152fd5b9091508381813d83116118a9575b61188d8183610d8e565b810103126101a4575190828216820361023f57508190386116cd565b503d611883565b87513d6000823e3d90fd5b926118cd909796949597929192611600565b918061012e5416921691845193808552818886015282858a81875afa948515611a1e576000956119ef575b508260006044885163a9059cbb60e01b8152858c8201528a8d82015282885af13d15601f3d11600160005114161716156119bb57908883928751958693849283528b8301525afa9384156117dd575060009361198a575b505081039081116119765711611963575050565b600190634e487b7160e01b600052526000fd5b83601184634e487b7160e01b600052526000fd5b8181949293943d83116119b4575b6119a28183610d8e565b8101031261023f57505190388061194f565b503d611998565b855162461bcd60e51b8152808901849052600f818b01526e1514905394d1915497d19052531151608a1b6044820152606490fd5b90948382813d8311611a17575b611a068183610d8e565b8101031261023f57505193386118f8565b503d6119fc565b86513d6000823e3d90fd5b865162461bcd60e51b8152808901849052600f818801526e2bb937b7339030b6b7bab73a1034b760891b6044820152606490fd5b90508511153861166f565b90948382813d8311611a90575b611a7f8183610d8e565b8101031261023f575051933861165f565b503d611a7556fea33daac198390630db2998ca75f43ac7962e047fbef856c9c97ccc60c64bfe17a264697066735822122044d4ad3bae1f1ccfec1aef6195a3b3754cfe28873cf556674d3d45a65b57163064736f6c63430008110033",
  "linkReferences": {},
  "deployedLinkReferences": {}
}