{
  "_format": "hh-sol-artifact-1",
  "contractName": "Gateway",
  "sourceName": "contracts/automation/Gateway.sol",
  "abi": [
    {
      "inputs": [
        {
          "internalType": "address",
          "name": "_hopeAddress",
          "type": "address"
        },
        {
          "internalType": "address",
          "name": "_wbtcAddress",
          "type": "address"
        },
        {
          "internalType": "address",
          "name": "_wethAddress",
          "type": "address"
        },
        {
          "internalType": "address",
          "name": "_stETHAddress",
          "type": "address"
        },
        {
          "internalType": "address",
          "name": "_vaultAddress",
          "type": "address"
        }
      ],
      "stateMutability": "nonpayable",
      "type": "constructor"
    },
    {
      "anonymous": false,
      "inputs": [
        {
          "indexed": false,
          "internalType": "address",
          "name": "fromToken",
          "type": "address"
        },
        {
          "indexed": false,
          "internalType": "address",
          "name": "toToken",
          "type": "address"
        },
        {
          "indexed": false,
          "internalType": "address",
          "name": "user",
          "type": "address"
        },
        {
          "indexed": false,
          "internalType": "uint256",
          "name": "fromAmount",
          "type": "uint256"
        },
        {
          "indexed": false,
          "internalType": "uint256",
          "name": "returnAmount",
          "type": "uint256"
        }
      ],
      "name": "AggregatorSwap",
      "type": "event"
    },
    {
      "anonymous": false,
      "inputs": [
        {
          "indexed": true,
          "internalType": "address",
          "name": "user",
          "type": "address"
        },
        {
          "indexed": false,
          "internalType": "uint256",
          "name": "mintAmount",
          "type": "uint256"
        },
        {
          "indexed": false,
          "internalType": "address",
          "name": "ethCorrelatedToken",
          "type": "address"
        },
        {
          "indexed": false,
          "internalType": "uint256",
          "name": "wbtcAmount",
          "type": "uint256"
        },
        {
          "indexed": false,
          "internalType": "uint256",
          "name": "ethAmount",
          "type": "uint256"
        }
      ],
      "name": "CombinationDeposit",
      "type": "event"
    },
    {
      "anonymous": false,
      "inputs": [
        {
          "indexed": true,
          "internalType": "address",
          "name": "user",
          "type": "address"
        },
        {
          "indexed": false,
          "internalType": "uint256",
          "name": "burnAmount",
          "type": "uint256"
        },
        {
          "indexed": false,
          "internalType": "uint256",
          "name": "wbtcAmount",
          "type": "uint256"
        },
        {
          "indexed": false,
          "internalType": "uint256",
          "name": "stETHAmount",
          "type": "uint256"
        }
      ],
      "name": "CombinationWithdraw",
      "type": "event"
    },
    {
      "anonymous": false,
      "inputs": [
        {
          "indexed": true,
          "internalType": "address",
          "name": "previousOwner",
          "type": "address"
        },
        {
          "indexed": true,
          "internalType": "address",
          "name": "newOwner",
          "type": "address"
        }
      ],
      "name": "OwnershipTransferStarted",
      "type": "event"
    },
    {
      "anonymous": false,
      "inputs": [
        {
          "indexed": true,
          "internalType": "address",
          "name": "previousOwner",
          "type": "address"
        },
        {
          "indexed": true,
          "internalType": "address",
          "name": "newOwner",
          "type": "address"
        }
      ],
      "name": "OwnershipTransferred",
      "type": "event"
    },
    {
      "anonymous": false,
      "inputs": [
        {
          "indexed": false,
          "internalType": "address",
          "name": "account",
          "type": "address"
        }
      ],
      "name": "Paused",
      "type": "event"
    },
    {
      "anonymous": false,
      "inputs": [
        {
          "indexed": true,
          "internalType": "bytes32",
          "name": "role",
          "type": "bytes32"
        },
        {
          "indexed": true,
          "internalType": "bytes32",
          "name": "previousAdminRole",
          "type": "bytes32"
        },
        {
          "indexed": true,
          "internalType": "bytes32",
          "name": "newAdminRole",
          "type": "bytes32"
        }
      ],
      "name": "RoleAdminChanged",
      "type": "event"
    },
    {
      "anonymous": false,
      "inputs": [
        {
          "indexed": true,
          "internalType": "bytes32",
          "name": "role",
          "type": "bytes32"
        },
        {
          "indexed": true,
          "internalType": "address",
          "name": "account",
          "type": "address"
        },
        {
          "indexed": true,
          "internalType": "address",
          "name": "sender",
          "type": "address"
        }
      ],
      "name": "RoleGranted",
      "type": "event"
    },
    {
      "anonymous": false,
      "inputs": [
        {
          "indexed": true,
          "internalType": "bytes32",
          "name": "role",
          "type": "bytes32"
        },
        {
          "indexed": true,
          "internalType": "address",
          "name": "account",
          "type": "address"
        },
        {
          "indexed": true,
          "internalType": "address",
          "name": "sender",
          "type": "address"
        }
      ],
      "name": "RoleRevoked",
      "type": "event"
    },
    {
      "anonymous": false,
      "inputs": [
        {
          "indexed": true,
          "internalType": "address",
          "name": "user",
          "type": "address"
        },
        {
          "indexed": false,
          "internalType": "uint256",
          "name": "mintAmount",
          "type": "uint256"
        },
        {
          "indexed": false,
          "internalType": "address",
          "name": "depositToken",
          "type": "address"
        },
        {
          "indexed": false,
          "internalType": "uint256",
          "name": "depositAmount",
          "type": "uint256"
        }
      ],
      "name": "SingleDeposit",
      "type": "event"
    },
    {
      "anonymous": false,
      "inputs": [
        {
          "indexed": true,
          "internalType": "address",
          "name": "user",
          "type": "address"
        },
        {
          "indexed": false,
          "internalType": "uint256",
          "name": "burnAmount",
          "type": "uint256"
        },
        {
          "indexed": false,
          "internalType": "address",
          "name": "withdrawToken",
          "type": "address"
        },
        {
          "indexed": false,
          "internalType": "uint256",
          "name": "withdrawAmount",
          "type": "uint256"
        }
      ],
      "name": "SingleWithdraw",
      "type": "event"
    },
    {
      "anonymous": false,
      "inputs": [
        {
          "indexed": false,
          "internalType": "address",
          "name": "account",
          "type": "address"
        }
      ],
      "name": "Unpaused",
      "type": "event"
    },
    {
      "anonymous": false,
      "inputs": [
        {
          "indexed": true,
          "internalType": "address",
          "name": "token",
          "type": "address"
        },
        {
          "indexed": false,
          "internalType": "bool",
          "name": "isFrozen",
          "type": "bool"
        }
      ],
      "name": "UpdateFrozenToken",
      "type": "event"
    },
    {
      "anonymous": false,
      "inputs": [
        {
          "indexed": true,
          "internalType": "address",
          "name": "token",
          "type": "address"
        },
        {
          "indexed": false,
          "internalType": "bool",
          "name": "isSupported",
          "type": "bool"
        }
      ],
      "name": "UpdateSupportedToken",
      "type": "event"
    },
    {
      "anonymous": false,
      "inputs": [
        {
          "indexed": true,
          "internalType": "address",
          "name": "dex",
          "type": "address"
        },
        {
          "indexed": false,
          "internalType": "bool",
          "name": "isWhiteListed",
          "type": "bool"
        }
      ],
      "name": "UpdateSwapWhiteListed",
      "type": "event"
    },
    {
      "stateMutability": "payable",
      "type": "fallback"
    },
    {
      "inputs": [],
      "name": "DEFAULT_ADMIN_ROLE",
      "outputs": [
        {
          "internalType": "bytes32",
          "name": "",
          "type": "bytes32"
        }
      ],
      "stateMutability": "view",
      "type": "function"
    },
    {
      "inputs": [],
      "name": "EMERGENCY_MANAGER_ROLE",
      "outputs": [
        {
          "internalType": "bytes32",
          "name": "",
          "type": "bytes32"
        }
      ],
      "stateMutability": "view",
      "type": "function"
    },
    {
      "inputs": [],
      "name": "ETH_MOCK_ADDRESS",
      "outputs": [
        {
          "internalType": "address",
          "name": "",
          "type": "address"
        }
      ],
      "stateMutability": "view",
      "type": "function"
    },
    {
      "inputs": [],
      "name": "ETH_TO_BTC_RATIO",
      "outputs": [
        {
          "internalType": "uint256",
          "name": "",
          "type": "uint256"
        }
      ],
      "stateMutability": "view",
      "type": "function"
    },
    {
      "inputs": [],
      "name": "HOPE",
      "outputs": [
        {
          "internalType": "contract IHOPE",
          "name": "",
          "type": "address"
        }
      ],
      "stateMutability": "view",
      "type": "function"
    },
    {
      "inputs": [],
      "name": "K",
      "outputs": [
        {
          "internalType": "uint256",
          "name": "",
          "type": "uint256"
        }
      ],
      "stateMutability": "view",
      "type": "function"
    },
    {
      "inputs": [],
      "name": "K_FACTOR",
      "outputs": [
        {
          "internalType": "uint256",
          "name": "",
          "type": "uint256"
        }
      ],
      "stateMutability": "view",
      "type": "function"
    },
    {
      "inputs": [],
      "name": "VAULT",
      "outputs": [
        {
          "internalType": "contract IVault",
          "name": "",
          "type": "address"
        }
      ],
      "stateMutability": "view",
      "type": "function"
    },
    {
      "inputs": [],
      "name": "VAULT_MANAGER_ROLE",
      "outputs": [
        {
          "internalType": "bytes32",
          "name": "",
          "type": "bytes32"
        }
      ],
      "stateMutability": "view",
      "type": "function"
    },
    {
      "inputs": [],
      "name": "WBTC",
      "outputs": [
        {
          "internalType": "contract IWBTC",
          "name": "",
          "type": "address"
        }
      ],
      "stateMutability": "view",
      "type": "function"
    },
    {
      "inputs": [],
      "name": "WETH",
      "outputs": [
        {
          "internalType": "contract IWETH",
          "name": "",
          "type": "address"
        }
      ],
      "stateMutability": "view",
      "type": "function"
    },
    {
      "inputs": [],
      "name": "acceptOwnership",
      "outputs": [],
      "stateMutability": "nonpayable",
      "type": "function"
    },
    {
      "inputs": [
        {
          "internalType": "address",
          "name": "_manager",
          "type": "address"
        }
      ],
      "name": "addEmergencyManager",
      "outputs": [],
      "stateMutability": "nonpayable",
      "type": "function"
    },
    {
      "inputs": [
        {
          "internalType": "address",
          "name": "_manager",
          "type": "address"
        }
      ],
      "name": "addVaultManager",
      "outputs": [],
      "stateMutability": "nonpayable",
      "type": "function"
    },
    {
      "inputs": [
        {
          "internalType": "uint256",
          "name": "_mintAmount",
          "type": "uint256"
        },
        {
          "internalType": "address",
          "name": "_ethCorrelatedToken",
          "type": "address"
        }
      ],
      "name": "combinationDeposit",
      "outputs": [],
      "stateMutability": "payable",
      "type": "function"
    },
    {
      "inputs": [
        {
          "internalType": "uint256",
          "name": "_mintAmount",
          "type": "uint256"
        },
        {
          "internalType": "address",
          "name": "_ethCorrelatedToken",
          "type": "address"
        },
        {
          "internalType": "uint256",
          "name": "_deadline",
          "type": "uint256"
        },
        {
          "internalType": "uint8",
          "name": "_permitV",
          "type": "uint8"
        },
        {
          "internalType": "bytes32",
          "name": "_permitR",
          "type": "bytes32"
        },
        {
          "internalType": "bytes32",
          "name": "_permitS",
          "type": "bytes32"
        }
      ],
      "name": "combinationDepositWithPermit",
      "outputs": [],
      "stateMutability": "nonpayable",
      "type": "function"
    },
    {
      "inputs": [
        {
          "internalType": "uint256",
          "name": "_burnAmount",
          "type": "uint256"
        }
      ],
      "name": "combinationWithdraw",
      "outputs": [],
      "stateMutability": "nonpayable",
      "type": "function"
    },
    {
      "inputs": [
        {
          "internalType": "uint256",
          "name": "_burnAmount",
          "type": "uint256"
        },
        {
          "internalType": "uint256",
          "name": "_deadline",
          "type": "uint256"
        },
        {
          "internalType": "uint8",
          "name": "_permitV",
          "type": "uint8"
        },
        {
          "internalType": "bytes32",
          "name": "_permitR",
          "type": "bytes32"
        },
        {
          "internalType": "bytes32",
          "name": "_permitS",
          "type": "bytes32"
        }
      ],
      "name": "combinationWithdrawWithPermit",
      "outputs": [],
      "stateMutability": "nonpayable",
      "type": "function"
    },
    {
      "inputs": [
        {
          "internalType": "address",
          "name": "",
          "type": "address"
        }
      ],
      "name": "frozenTokens",
      "outputs": [
        {
          "internalType": "bool",
          "name": "",
          "type": "bool"
        }
      ],
      "stateMutability": "view",
      "type": "function"
    },
    {
      "inputs": [
        {
          "internalType": "bytes32",
          "name": "role",
          "type": "bytes32"
        }
      ],
      "name": "getRoleAdmin",
      "outputs": [
        {
          "internalType": "bytes32",
          "name": "",
          "type": "bytes32"
        }
      ],
      "stateMutability": "view",
      "type": "function"
    },
    {
      "inputs": [
        {
          "internalType": "bytes32",
          "name": "role",
          "type": "bytes32"
        },
        {
          "internalType": "address",
          "name": "account",
          "type": "address"
        }
      ],
      "name": "grantRole",
      "outputs": [],
      "stateMutability": "nonpayable",
      "type": "function"
    },
    {
      "inputs": [
        {
          "internalType": "bytes32",
          "name": "role",
          "type": "bytes32"
        },
        {
          "internalType": "address",
          "name": "account",
          "type": "address"
        }
      ],
      "name": "hasRole",
      "outputs": [
        {
          "internalType": "bool",
          "name": "",
          "type": "bool"
        }
      ],
      "stateMutability": "view",
      "type": "function"
    },
    {
      "inputs": [
        {
          "internalType": "address",
          "name": "_manager",
          "type": "address"
        }
      ],
      "name": "isEmergencyManager",
      "outputs": [
        {
          "internalType": "bool",
          "name": "",
          "type": "bool"
        }
      ],
      "stateMutability": "view",
      "type": "function"
    },
    {
      "inputs": [
        {
          "internalType": "address",
          "name": "",
          "type": "address"
        }
      ],
      "name": "isSwapWhiteListed",
      "outputs": [
        {
          "internalType": "bool",
          "name": "",
          "type": "bool"
        }
      ],
      "stateMutability": "view",
      "type": "function"
    },
    {
      "inputs": [
        {
          "internalType": "address",
          "name": "_manager",
          "type": "address"
        }
      ],
      "name": "isVaultManager",
      "outputs": [
        {
          "internalType": "bool",
          "name": "",
          "type": "bool"
        }
      ],
      "stateMutability": "view",
      "type": "function"
    },
    {
      "inputs": [],
      "name": "owner",
      "outputs": [
        {
          "internalType": "address",
          "name": "",
          "type": "address"
        }
      ],
      "stateMutability": "view",
      "type": "function"
    },
    {
      "inputs": [],
      "name": "pause",
      "outputs": [],
      "stateMutability": "nonpayable",
      "type": "function"
    },
    {
      "inputs": [],
      "name": "paused",
      "outputs": [
        {
          "internalType": "bool",
          "name": "",
          "type": "bool"
        }
      ],
      "stateMutability": "view",
      "type": "function"
    },
    {
      "inputs": [],
      "name": "pendingOwner",
      "outputs": [
        {
          "internalType": "address",
          "name": "",
          "type": "address"
        }
      ],
      "stateMutability": "view",
      "type": "function"
    },
    {
      "inputs": [
        {
          "internalType": "address",
          "name": "_manager",
          "type": "address"
        }
      ],
      "name": "removeEmergencyManager",
      "outputs": [],
      "stateMutability": "nonpayable",
      "type": "function"
    },
    {
      "inputs": [
        {
          "internalType": "address",
          "name": "_manager",
          "type": "address"
        }
      ],
      "name": "removeVaultManager",
      "outputs": [],
      "stateMutability": "nonpayable",
      "type": "function"
    },
    {
      "inputs": [],
      "name": "renounceOwnership",
      "outputs": [],
      "stateMutability": "nonpayable",
      "type": "function"
    },
    {
      "inputs": [
        {
          "internalType": "bytes32",
          "name": "role",
          "type": "bytes32"
        },
        {
          "internalType": "address",
          "name": "account",
          "type": "address"
        }
      ],
      "name": "renounceRole",
      "outputs": [],
      "stateMutability": "nonpayable",
      "type": "function"
    },
    {
      "inputs": [
        {
          "internalType": "address",
          "name": "_token",
          "type": "address"
        },
        {
          "internalType": "address",
          "name": "_recipient",
          "type": "address"
        },
        {
          "internalType": "uint256",
          "name": "_amount",
          "type": "uint256"
        }
      ],
      "name": "rescueTokens",
      "outputs": [],
      "stateMutability": "nonpayable",
      "type": "function"
    },
    {
      "inputs": [
        {
          "internalType": "bytes32",
          "name": "role",
          "type": "bytes32"
        },
        {
          "internalType": "address",
          "name": "account",
          "type": "address"
        }
      ],
      "name": "revokeRole",
      "outputs": [],
      "stateMutability": "nonpayable",
      "type": "function"
    },
    {
      "inputs": [
        {
          "internalType": "uint256",
          "name": "_mintAmount",
          "type": "uint256"
        },
        {
          "components": [
            {
              "internalType": "address",
              "name": "fromToken",
              "type": "address"
            },
            {
              "internalType": "address",
              "name": "toToken",
              "type": "address"
            },
            {
              "internalType": "address",
              "name": "approveTarget",
              "type": "address"
            },
            {
              "internalType": "address",
              "name": "swapTarget",
              "type": "address"
            },
            {
              "internalType": "uint256",
              "name": "fromTokenAmount",
              "type": "uint256"
            },
            {
              "internalType": "uint256",
              "name": "minReturnAmount",
              "type": "uint256"
            },
            {
              "internalType": "bytes",
              "name": "callDataConcat",
              "type": "bytes"
            },
            {
              "internalType": "uint256",
              "name": "deadLine",
              "type": "uint256"
            }
          ],
          "internalType": "struct IGateway.SwapInput[2]",
          "name": "_inputs",
          "type": "tuple[2]"
        }
      ],
      "name": "singleDeposit",
      "outputs": [],
      "stateMutability": "payable",
      "type": "function"
    },
    {
      "inputs": [
        {
          "internalType": "uint256",
          "name": "_mintAmount",
          "type": "uint256"
        },
        {
          "components": [
            {
              "internalType": "address",
              "name": "fromToken",
              "type": "address"
            },
            {
              "internalType": "address",
              "name": "toToken",
              "type": "address"
            },
            {
              "internalType": "address",
              "name": "approveTarget",
              "type": "address"
            },
            {
              "internalType": "address",
              "name": "swapTarget",
              "type": "address"
            },
            {
              "internalType": "uint256",
              "name": "fromTokenAmount",
              "type": "uint256"
            },
            {
              "internalType": "uint256",
              "name": "minReturnAmount",
              "type": "uint256"
            },
            {
              "internalType": "bytes",
              "name": "callDataConcat",
              "type": "bytes"
            },
            {
              "internalType": "uint256",
              "name": "deadLine",
              "type": "uint256"
            }
          ],
          "internalType": "struct IGateway.SwapInput[2]",
          "name": "_inputs",
          "type": "tuple[2]"
        },
        {
          "internalType": "uint256",
          "name": "_deadline",
          "type": "uint256"
        },
        {
          "internalType": "uint8",
          "name": "_permitV",
          "type": "uint8"
        },
        {
          "internalType": "bytes32",
          "name": "_permitR",
          "type": "bytes32"
        },
        {
          "internalType": "bytes32",
          "name": "_permitS",
          "type": "bytes32"
        }
      ],
      "name": "singleDepositWithPermit",
      "outputs": [],
      "stateMutability": "nonpayable",
      "type": "function"
    },
    {
      "inputs": [
        {
          "internalType": "uint256",
          "name": "_burnAmount",
          "type": "uint256"
        },
        {
          "components": [
            {
              "internalType": "address",
              "name": "fromToken",
              "type": "address"
            },
            {
              "internalType": "address",
              "name": "toToken",
              "type": "address"
            },
            {
              "internalType": "address",
              "name": "approveTarget",
              "type": "address"
            },
            {
              "internalType": "address",
              "name": "swapTarget",
              "type": "address"
            },
            {
              "internalType": "uint256",
              "name": "fromTokenAmount",
              "type": "uint256"
            },
            {
              "internalType": "uint256",
              "name": "minReturnAmount",
              "type": "uint256"
            },
            {
              "internalType": "bytes",
              "name": "callDataConcat",
              "type": "bytes"
            },
            {
              "internalType": "uint256",
              "name": "deadLine",
              "type": "uint256"
            }
          ],
          "internalType": "struct IGateway.SwapInput[2]",
          "name": "_inputs",
          "type": "tuple[2]"
        }
      ],
      "name": "singleWithdraw",
      "outputs": [],
      "stateMutability": "nonpayable",
      "type": "function"
    },
    {
      "inputs": [
        {
          "internalType": "uint256",
          "name": "_burnAmount",
          "type": "uint256"
        },
        {
          "internalType": "uint256",
          "name": "_deadline",
          "type": "uint256"
        },
        {
          "internalType": "uint8",
          "name": "_permitV",
          "type": "uint8"
        },
        {
          "internalType": "bytes32",
          "name": "_permitR",
          "type": "bytes32"
        },
        {
          "internalType": "bytes32",
          "name": "_permitS",
          "type": "bytes32"
        },
        {
          "components": [
            {
              "internalType": "address",
              "name": "fromToken",
              "type": "address"
            },
            {
              "internalType": "address",
              "name": "toToken",
              "type": "address"
            },
            {
              "internalType": "address",
              "name": "approveTarget",
              "type": "address"
            },
            {
              "internalType": "address",
              "name": "swapTarget",
              "type": "address"
            },
            {
              "internalType": "uint256",
              "name": "fromTokenAmount",
              "type": "uint256"
            },
            {
              "internalType": "uint256",
              "name": "minReturnAmount",
              "type": "uint256"
            },
            {
              "internalType": "bytes",
              "name": "callDataConcat",
              "type": "bytes"
            },
            {
              "internalType": "uint256",
              "name": "deadLine",
              "type": "uint256"
            }
          ],
          "internalType": "struct IGateway.SwapInput[2]",
          "name": "_inputs",
          "type": "tuple[2]"
        }
      ],
      "name": "singleWithdrawWithPermit",
      "outputs": [],
      "stateMutability": "nonpayable",
      "type": "function"
    },
    {
      "inputs": [],
      "name": "stETH",
      "outputs": [
        {
          "internalType": "contract IStETH",
          "name": "",
          "type": "address"
        }
      ],
      "stateMutability": "view",
      "type": "function"
    },
    {
      "inputs": [
        {
          "internalType": "address",
          "name": "",
          "type": "address"
        }
      ],
      "name": "supportTokens",
      "outputs": [
        {
          "internalType": "bool",
          "name": "",
          "type": "bool"
        }
      ],
      "stateMutability": "view",
      "type": "function"
    },
    {
      "inputs": [
        {
          "internalType": "bytes4",
          "name": "interfaceId",
          "type": "bytes4"
        }
      ],
      "name": "supportsInterface",
      "outputs": [
        {
          "internalType": "bool",
          "name": "",
          "type": "bool"
        }
      ],
      "stateMutability": "view",
      "type": "function"
    },
    {
      "inputs": [
        {
          "internalType": "address",
          "name": "newOwner",
          "type": "address"
        }
      ],
      "name": "transferOwnership",
      "outputs": [],
      "stateMutability": "nonpayable",
      "type": "function"
    },
    {
      "inputs": [],
      "name": "unpause",
      "outputs": [],
      "stateMutability": "nonpayable",
      "type": "function"
    },
    {
      "inputs": [
        {
          "internalType": "address",
          "name": "_token",
          "type": "address"
        },
        {
          "internalType": "bool",
          "name": "_isFrozen",
          "type": "bool"
        }
      ],
      "name": "updateFrozenToken",
      "outputs": [],
      "stateMutability": "nonpayable",
      "type": "function"
    },
    {
      "inputs": [
        {
          "internalType": "address[]",
          "name": "_tokens",
          "type": "address[]"
        },
        {
          "internalType": "bool[]",
          "name": "_isFrozen",
          "type": "bool[]"
        }
      ],
      "name": "updateFrozenTokens",
      "outputs": [],
      "stateMutability": "nonpayable",
      "type": "function"
    },
    {
      "inputs": [
        {
          "internalType": "address",
          "name": "_token",
          "type": "address"
        },
        {
          "internalType": "bool",
          "name": "_isSupported",
          "type": "bool"
        }
      ],
      "name": "updateSupportToken",
      "outputs": [],
      "stateMutability": "nonpayable",
      "type": "function"
    },
    {
      "inputs": [
        {
          "internalType": "address[]",
          "name": "_tokens",
          "type": "address[]"
        },
        {
          "internalType": "bool[]",
          "name": "_isSupported",
          "type": "bool[]"
        }
      ],
      "name": "updateSupportTokens",
      "outputs": [],
      "stateMutability": "nonpayable",
      "type": "function"
    },
    {
      "inputs": [
        {
          "internalType": "address",
          "name": "_dex",
          "type": "address"
        },
        {
          "internalType": "bool",
          "name": "_isWhiteList",
          "type": "bool"
        }
      ],
      "name": "updateSwapWhiteList",
      "outputs": [],
      "stateMutability": "nonpayable",
      "type": "function"
    },
    {
      "inputs": [
        {
          "internalType": "address[]",
          "name": "_dexList",
          "type": "address[]"
        },
        {
          "internalType": "bool[]",
          "name": "_isWhiteList",
          "type": "bool[]"
        }
      ],
      "name": "updateSwapWhiteLists",
      "outputs": [],
      "stateMutability": "nonpayable",
      "type": "function"
    },
    {
      "stateMutability": "payable",
      "type": "receive"
    }
  ],
  "bytecode": "0x61012034620001f357601f6200430338819003918201601f19168301916001600160401b03831184841017620001f85780849260a094604052833981010312620001f3576200004e816200020e565b6200005c602083016200020e565b6200006a604084016200020e565b916200008760806200007f606087016200020e565b95016200020e565b9360018060a01b031980600154166001556000549033908216176000556040519460018060a01b0380958180968195823391167f8be0079c531659141344cd1fd0a4f28419497f9722a3daafe3b4186f6b6457e0600080a360ff19600354166003556001600455166080521660a0521660c0521660e052610100921682526140df918262000224833960805182818161067e0152818161087401528181610bb50152818161239501526132ca015260a051828181610fc10152818161211c0152818161241f01528181612596015281816127de015281816128fe01526131d4015260c0518281816107ad015281816121b90152818161233a0152818161294c015261317c015260e05182818161072b015281816114bc015281816121430152818161230f0152818161247f0152818161282301528181613137015281816133980152613aab01525181818161108e015281816120d60152818161236b0152818161279f015261329c0152f35b600080fd5b634e487b7160e01b600052604160045260246000fd5b51906001600160a01b0382168203620001f35756fe60806040908082526004908136101561004f575b50361561004d576020606492519162461bcd60e51b8352820152600e60248201526d4e4f4e5f454d5054595f4441544160901b6044820152fd5b005b600090813560e01c90816301ffc9a7146116895750806304b54b091461162557806309b57906146115745780630ac8a01c1461147257806320d32fef14611411578063248a9ca3146113e55780632f2ff15d14611331578063303bc5e0146112f357806336568abe146112625780633f1ae0dc146111b15780633f4ba83a146110bd578063411557d114611079578063465b586614610ff05780634dede3de14610fac57806351ee886b14610f835780635290e6a614610ed55780635c975abb14610eb15780635e5a24a414610e885780635f80fcad14610e26578063676a553e14610dd15780636be4f04514610d7c578063715018a614610d16578063728ab34114610c0d5780637488df8914610be457806374ac611214610ba057806377519b7314610b8057806379ba509714610ab45780638456cb59146109fa5780638a0737a0146109bc5780638da5cb5b1461099457806391d148541461094d57806392eb626614610927578063a217fddf1461090c578063a8e1623814610826578063a932492f14610808578063aa3cdbc1146107dc578063ad5c464814610798578063bfd858081461075a578063c1fe3e4814610716578063c5faf7e61461064b578063ccb97240146105e1578063cd842088146105c5578063cea9d26f14610586578063d547741f14610548578063e30c39781461051f578063e4f2d3f71461046d578063f17835391461043d578063f2fde38b146103cd578063f6617d80146102bf5763fb457978036100135782346102bb5760203660031901126102bb5760209160ff9082906001600160a01b036102a86116f8565b1681526007855220541690519015158152f35b5080fd5b509190346103bc5760c03660031901126103bc5782602435926001600160401b0384116102bb57838301936044369101116102bb576102fc6117b7565b90610305611e5d565b61030d611ea1565b6001600160a01b0361032661032187611f67565b611f94565b169161034b608061033688611f67565b0135608061034389611f7c565b013590611d05565b90833b156103c95761038493859283855180978195829463d505accf60e01b845260a435918d6084359260443591309033908901611f2b565b03925af19081156103c057506103a8575b50506103a4600192823561257c565b5580f35b6103b190611bd2565b6103bc578238610395565b8280fd5b513d84823e3d90fd5b8480fd5b503461043a57602036600319011261043a576103e76116f8565b6103ef611cad565b600180546001600160a01b0319166001600160a01b0392831690811790915582549091167f38d16b8cac22d99fc7c124b9cd0de2d3fa1faef420bfe791d8c362d765e227008380a380f35b80fd5b5090346102bb5760203660031901126102bb5760019061045b611e5d565b610463611ea1565b6103a48135612361565b5082346102bb5760203660031901126102bb576104886116f8565b610490611cad565b60008051602061408a83398151915291826000526002602052806000209160018060a01b0316918260005260205260ff816000205416156104cf578380f35b8260005260026020528060002082600052602052600020600160ff1982541617905533917f2f8788117e7eff1d82e926ec794901d17c78024a50270940304540a733656f0d600080a48180808380f35b5082346102bb57816003193601126102bb5760015490516001600160a01b039091168152602090f35b5091346103bc57806003193601126103bc57610583913561057e600161056c6116dd565b93838752600260205286200154611aa3565b611c37565b80f35b503461043a57606036600319011261043a576105836105a36116f8565b6105ab6116dd565b6105b3611883565b604435916001600160a01b0316613d02565b5082346102bb57816003193601126102bb5760209051600a8152f35b5082346102bb577fd71e43dae5ba4386463c0ef49b6f19fc82aea6a936b4242ef04b99730c0ed4c360206106143661170e565b9061061d611883565b6001600160a01b031680865260058352848620805460ff191660ff84151516179055935b519015158152a280f35b509190346103bc5760a03660031901126103bc578281359261066b6117c7565b90610674611e5d565b61067c611ea1565b7f00000000000000000000000000000000000000000000000000000000000000006001600160a01b0316803b15610712576106e08493918492845195868094819363d505accf60e01b83528c608435918d6064359260243591309033908901611f2b565b03925af19081156103c057506106fe575b50506103a4600192612361565b61070790611bd2565b6103bc5782386106f1565b8380fd5b5082346102bb57816003193601126102bb57517f00000000000000000000000000000000000000000000000000000000000000006001600160a01b03168152602090f35b5082346102bb5760203660031901126102bb5760209160ff9082906001600160a01b036107856116f8565b1681526006855220541690519015158152f35b5082346102bb57816003193601126102bb57517f00000000000000000000000000000000000000000000000000000000000000006001600160a01b03168152602090f35b5090346102bb576001906103a46107f2366117d7565b906107fb611e5d565b610803611ea1565b6131bb565b5082346102bb57816003193601126102bb576020905162a4d28d8152f35b509190346103bc5760c03660031901126103bc57803591836108466117c7565b60a435926001600160401b0384116103bc573660448501116103bc5761086a611e5d565b610872611ea1565b7f00000000000000000000000000000000000000000000000000000000000000006001600160a01b0316803b156107125785849188836108d69686519788958694859363d505accf60e01b8552608435926064359260243591309033908901611f2b565b03925af19081156103c057506108f8575b50506001926103a4918301906131bb565b61090190611bd2565b6107125783386108e7565b5082346102bb57816003193601126102bb5751908152602090f35b506001826103a4610937366117d7565b90610940611e5d565b610948611ea1565b61257c565b509190346103bc57816003193601126103bc578160209361096c6116dd565b9235815260028552209060018060a01b0316600052825260ff81600020541690519015158152f35b5082346102bb57816003193601126102bb57905490516001600160a01b039091168152602090f35b5082346102bb5760203660031901126102bb5760209160ff9082906001600160a01b036109e76116f8565b1681526005855220541690519015158152f35b5082346102bb57816003193601126102bb5760207f62e78cea01bee320cd4e420270b5ea74000d11b0c9f74754ebdbfc544b05a2589160008051602061408a83398151915284526002825280842033600052825260ff8160002054168015610a83575b610a6690612008565b610a6e611e5d565b600160ff19600354161760035551338152a180f35b5060008051602061402a833981519152845260028252808420336000528252610a6660ff8260002054169050610a5d565b5091346103bc57826003193601126103bc57600154916001600160a01b03913383851603610b2b5750506bffffffffffffffffffffffff60a01b8092166001556000549133908316176000553391167f8be0079c531659141344cd1fd0a4f28419497f9722a3daafe3b4186f6b6457e0600080a380f35b906020608492519162461bcd60e51b8352820152602960248201527f4f776e61626c6532537465703a2063616c6c6572206973206e6f7420746865206044820152683732bb9037bbb732b960b91b6064820152fd5b5082346102bb57816003193601126102bb576020905164e8d4a510008152f35b5082346102bb57816003193601126102bb57517f00000000000000000000000000000000000000000000000000000000000000006001600160a01b03168152602090f35b5082346102bb57816003193601126102bb576020905160008051602061408a8339815191528152f35b5082346102bb57610c1d3661176d565b9091610c2b94939433611809565b8015610d02575b610c3b90612008565b610c46828214611fa8565b855b818110610c53578680f35b80610c65610321610ce993858a611feb565b7f20c5551228e0fa40b2fdd0279f6b45066a834897b5a8bf8b3c5f63520983c92f89610c9a610c9585898b611feb565b611ffb565b92610ca433611809565b8015610cee575b610cb490612008565b6001600160a01b031680825260066020908152918a9020805460ff191660ff86151516179055925b89519015158152a2611fdc565b610c48565b50610cb4610cfb33611846565b9050610cab565b50610c3b610d0f33611846565b9050610c32565b503461043a578060031936011261043a57610d2f611cad565b600180546001600160a01b0319908116909155600080549182168155906001600160a01b03167f8be0079c531659141344cd1fd0a4f28419497f9722a3daafe3b4186f6b6457e08280a380f35b5082346102bb5760203660031901126102bb5760209181610d9b6116f8565b9160008051602061408a833981519152815260028552209060018060a01b0316600052825260ff81600020541690519015158152f35b5082346102bb5760203660031901126102bb5760209181610df06116f8565b9160008051602061402a833981519152815260028552209060018060a01b0316600052825260ff81600020541690519015158152f35b5082346102bb5760203660031901126102bb57610e416116f8565b610e49611cad565b60008051602061402a83398151915291826000526002602052806000209160018060a01b0316918260005260205260ff816000205416156104cf578380f35b5082346102bb57816003193601126102bb576020905160008051602061402a8339815191528152f35b5082346102bb57816003193601126102bb5760209060ff6003541690519015158152f35b5082346102bb5760203660031901126102bb57610ef06116f8565b610ef8611cad565b60008051602061402a83398151915291826000526002602052806000209160018060a01b0316918260005260205260ff816000205416610f36578380f35b826000526002602052806000208260005260205260002060ff19815416905533917ff6391f5c32d9c69d2a47ea670b442974b53935d1edc7fd64eb21e047a839171b600080a48180808380f35b5082346102bb57816003193601126102bb576020905160008051602061404a8339815191528152f35b5082346102bb57816003193601126102bb57517f00000000000000000000000000000000000000000000000000000000000000006001600160a01b03168152602090f35b5082346102bb577f20c5551228e0fa40b2fdd0279f6b45066a834897b5a8bf8b3c5f63520983c92f60206110233661170e565b9061102d33611809565b8015611065575b61103d90612008565b6001600160a01b031680865260068352848620805460ff191660ff8415151617905593610641565b5061103d61107233611846565b9050611034565b5082346102bb57816003193601126102bb57517f00000000000000000000000000000000000000000000000000000000000000006001600160a01b03168152602090f35b5082346102bb57816003193601126102bb5760008051602061408a83398151915282526020906002825280832033600052825260ff8160002054168015611180575b61110890612008565b6003549360ff85161561114857507f5db9ee0a495bf2e6ff9c91a7834c1ba4fdd244a5e8aa4e537bd38aeae4b073aa929360ff191660035551338152a180f35b82606492519162461bcd60e51b8352820152601460248201527314185d5cd8589b194e881b9bdd081c185d5cd95960621b6044820152fd5b5060008051602061402a83398151915283526002825280832033600052825261110860ff82600020541690506110ff565b5082346102bb576111c13661176d565b90916111ce949394611883565b6111d9828214611fa8565b855b8181106111e6578680f35b806111f861032161125d93858a611feb565b7fd71e43dae5ba4386463c0ef49b6f19fc82aea6a936b4242ef04b99730c0ed4c389611228610c9585898b611feb565b92611231611883565b6001600160a01b031680825260056020908152918a9020805460ff191660ff8615151617905592610cdc565b6111db565b5090346102bb57826003193601126102bb5761127c6116dd565b90336001600160a01b0383160361129857906105839135611c37565b608490602085519162461bcd60e51b8352820152602f60248201527f416363657373436f6e74726f6c3a2063616e206f6e6c792072656e6f756e636560448201526e103937b632b9903337b91039b2b63360891b6064820152fd5b50913660031901126102bb57806103a46001923561130f6116dd565b90611318611e5d565b611320611ea1565b61132981613caf565b929091612070565b509190346103bc57816003193601126103bc57359061134e6116dd565b90828452600260205261136660018286200154611aa3565b826000526002602052806000209160018060a01b0316918260005260205260ff81600020541615611395578380f35b8260005260026020528060002082600052602052600020600160ff1982541617905533917f2f8788117e7eff1d82e926ec794901d17c78024a50270940304540a733656f0d600080a43880808380f35b509190346103bc5760203660031901126103bc5781602093600192358152600285522001549051908152f35b5082346102bb5760203660031901126102bb5761142c6116f8565b611434611cad565b60008051602061408a83398151915291826000526002602052806000209160018060a01b0316918260005260205260ff816000205416610f36578380f35b5090346102bb5760c03660031901126102bb578035926114906116dd565b6114986117b7565b906114a1611e5d565b6114a9611ea1565b6001600160a01b0381811693906114e3907f0000000000000000000000000000000000000000000000000000000000000000168514611ef7565b6114ec87613caf565b949093813b1561157057868392878a809461152a97519788958694859363d505accf60e01b855260a435926084359260443591309033908901611f2b565b03925af1908115611567575061154b575b50906103a4929160019596612070565b9060019561155d6103a4959493611bd2565b955090919261153b565b513d88823e3d90fd5b8780fd5b5082346102bb576115843661176d565b9091611591949394611cad565b61159c828214611fa8565b855b8181106115a9578680f35b806115bb61032161162093858a611feb565b7f861d8711b4135ed7373a2d98a9c2ab4e46f87b080ffee97982f594167d7f5007896115eb610c9585898b611feb565b926115f4611cad565b6001600160a01b031680825260076020908152918a9020805460ff191660ff8615151617905592610cdc565b61159e565b5082346102bb577f861d8711b4135ed7373a2d98a9c2ab4e46f87b080ffee97982f594167d7f500760206116583661170e565b90611661611cad565b6001600160a01b031680865260078352848620805460ff191660ff8415151617905593610641565b905082346103bc5760203660031901126103bc573563ffffffff60e01b81168091036103bc5760209250637965db0b60e01b81149081156116cc575b5015158152f35b6301ffc9a760e01b149050836116c5565b602435906001600160a01b03821682036116f357565b600080fd5b600435906001600160a01b03821682036116f357565b60409060031901126116f3576004356001600160a01b03811681036116f3579060243580151581036116f35790565b9181601f840112156116f3578235916001600160401b0383116116f3576020808501948460051b0101116116f357565b60406003198201126116f3576001600160401b03916004358381116116f357826117999160040161173d565b939093926024359182116116f3576117b39160040161173d565b9091565b6064359060ff821682036116f357565b6044359060ff821682036116f357565b9060406003198301126116f35760043591602435906001600160401b0382116116f35760448201116116f35760040190565b6001600160a01b031660009081527f5117d5be553acbc6e22fc2206afd422ed773ebd19fe3096bca48e139191036d9602052604090205460ff1690565b6001600160a01b031660009081527f94141351b80f1704310b66d100f6d2d855bc312ec9444238ab053b30a5b36021602052604090205460ff1690565b3360009081527f94141351b80f1704310b66d100f6d2d855bc312ec9444238ab053b30a5b3602160209081526040808320549092919060008051602061402a8339815191529060ff16156118d75750505050565b6118e033611d4f565b908451906118ed82611bfb565b60428252838201946060368737825115611a8f5760308653825190600191821015611a8f5790607860218501536041915b818311611a21575050506119df57846119ad60486119d193604497985198899161199e8984019876020b1b1b2b9b9a1b7b73a3937b61d1030b1b1b7bab73a1604d1b8a52611975815180928d603789019101611baf565b8401917001034b99036b4b9b9b4b733903937b6329607d1b603784015251809386840190611baf565b01036028810189520187611c16565b5194859362461bcd60e51b8552600485015251809281602486015285850190611baf565b601f01601f19168101030190fd5b60648386519062461bcd60e51b825280600483015260248201527f537472696e67733a20686578206c656e67746820696e73756666696369656e746044820152fd5b909192600f81166010811015611a7b576f181899199a1a9b1b9c1cb0b131b232b360811b901a611a518587611d28565b5360041c928015611a675760001901919061191e565b634e487b7160e01b82526011600452602482fd5b634e487b7160e01b83526032600452602483fd5b634e487b7160e01b81526032600452602490fd5b6000818152602060028152604092838320338452825260ff848420541615611acb5750505050565b611ad433611d4f565b90845190611ae182611bfb565b60428252838201946060368737825115611a8f5760308653825190600191821015611a8f5790607860218501536041915b818311611b69575050506119df57846119ad60486119d193604497985198899161199e8984019876020b1b1b2b9b9a1b7b73a3937b61d1030b1b1b7bab73a1604d1b8a52611975815180928d603789019101611baf565b909192600f81166010811015611a7b576f181899199a1a9b1b9c1cb0b131b232b360811b901a611b998587611d28565b5360041c928015611a6757600019019190611b12565b60005b838110611bc25750506000910152565b8181015183820152602001611bb2565b6001600160401b038111611be557604052565b634e487b7160e01b600052604160045260246000fd5b608081019081106001600160401b03821117611be557604052565b90601f801991011681019081106001600160401b03821117611be557604052565b906000918083526002602052604083209160018060a01b03169182845260205260ff604084205416611c6857505050565b8083526002602052604083208284526020526040832060ff1981541690557ff6391f5c32d9c69d2a47ea670b442974b53935d1edc7fd64eb21e047a839171b339380a4565b6000546001600160a01b03163303611cc157565b606460405162461bcd60e51b815260206004820152602060248201527f4f776e61626c653a2063616c6c6572206973206e6f7420746865206f776e65726044820152fd5b91908201809211611d1257565b634e487b7160e01b600052601160045260246000fd5b908151811015611d39570160200190565b634e487b7160e01b600052603260045260246000fd5b60405190606082018281106001600160401b03821117611be557604052602a8252602082016040368237825115611d3957603090538151600190811015611d3957607860218401536029905b808211611def575050611dab5790565b606460405162461bcd60e51b815260206004820152602060248201527f537472696e67733a20686578206c656e67746820696e73756666696369656e746044820152fd5b9091600f81166010811015611e48576f181899199a1a9b1b9c1cb0b131b232b360811b901a611e1e8486611d28565b5360041c918015611e33576000190190611d9b565b60246000634e487b7160e01b81526011600452fd5b60246000634e487b7160e01b81526032600452fd5b60ff60035416611e6957565b60405162461bcd60e51b815260206004820152601060248201526f14185d5cd8589b194e881c185d5cd95960821b6044820152606490fd5b600260045414611eb2576002600455565b60405162461bcd60e51b815260206004820152601f60248201527f5265656e7472616e637947756172643a207265656e7472616e742063616c6c006044820152606490fd5b15611efe57565b60405162461bcd60e51b815260206004820152600560248201526423ab98181960d91b6044820152606490fd5b9360ff929897969360c0969260e087019a60018060a01b0380921688521660208701526040860152606085015216608083015260a08201520152565b80359060fe19813603018212156116f3570190565b60208101359060fe19813603018212156116f3570190565b356001600160a01b03811681036116f35790565b15611faf57565b60405162461bcd60e51b8152602060048201526005602482015264475730303960d81b6044820152606490fd5b6000198114611d125760010190565b9190811015611d395760051b0190565b3580151581036116f35790565b1561200f57565b60405162461bcd60e51b815260206004820152600560248201526423ab98189b60d91b6044820152606490fd5b1561204357565b60405162461bcd60e51b8152602060048201526005602482015264047573031360dc1b6044820152606490fd5b9291906001600160a01b0390811660008051602061404a83398151915281148015612336575b801561230b575b156122de57600091831515806122d5575b6120b79061203c565b604080516311f9fbc960e21b81523360048201526024810188905290937f000000000000000000000000000000000000000000000000000000000000000083169160208160448185875af180156122cb57908893929161229a575b50612141878333877f000000000000000000000000000000000000000000000000000000000000000016613adf565b7f00000000000000000000000000000000000000000000000000000000000000008416908582036121b3575061217993503390613adf565b8151948552602085015283015260608201527f5387c13e5c44e46bc579ca84b74276d8146592fbdee37ab69d207b2699edcc3660803392a2565b925050917f000000000000000000000000000000000000000000000000000000000000000016808414600014612288576121ef87303384613adf565b803b156102bb578180916024875180948193632e1a7d4d60e01b83528c60048401525af1801561227e5761226f575b50905b803b156102bb57818691600486518094819363dceb986d60e01b83525af1801561226557612251575b5050612179565b61225b8291611bd2565b61043a578061224a565b84513d84823e3d90fd5b61227890611bd2565b3861221e565b85513d84823e3d90fd5b509061229586341461203c565b612221565b602080929394503d81116122c4575b6122b38183611c16565b8101031261043a5790869138612112565b503d6122a9565b86513d84823e3d90fd5b508415156120ae565b60405162461bcd60e51b8152602060048201526005602482015264047573030360dc1b6044820152606490fd5b50817f000000000000000000000000000000000000000000000000000000000000000016811461209d565b50817f0000000000000000000000000000000000000000000000000000000000000000168114612096565b6001600160a01b037f00000000000000000000000000000000000000000000000000000000000000008116906123bb8383337f00000000000000000000000000000000000000000000000000000000000000008516613adf565b6040908151632e1a7d4d60e01b815260009085600482015260208160248185895af18015612265578290612549575b6123f49150613caf565b94909283151580612540575b6124099061203c565b813b156103bc57845163583b50c560e11b8082527f000000000000000000000000000000000000000000000000000000000000000083166001600160a01b031660048301523360248301526044820186905290848160648183885af1801561253657612523575b50823b156107125785519081527f0000000000000000000000000000000000000000000000000000000000000000919091166001600160a01b031660048201523360248201526044810186905290829082908183816064810103925af180156122655761250f575b5050815193845260208401528201527f8c299cd4f7f63d8e8c62f86b7f2484af88683b6b3d575d383c46abd5153021cc60603392a2565b6125198291611bd2565b61043a57806124d8565b61252f90949194611bd2565b9238612470565b87513d87823e3d90fd5b50851515612400565b506020813d8211612574575b8161256260209383611c16565b810103126102bb576123f490516123ea565b3d9150612555565b60009291612594602061258e83611f67565b01611f94565b7f00000000000000000000000000000000000000000000000000000000000000006001600160a01b03908116911614806130ef575b6125d290611ef7565b6125de61032182611f67565b6001600160a01b036125f261032184611f7c565b166001600160a01b03909116036130c2576001600160a01b0361261761032183611f67565b168452600560205260ff60408520541615613095576001600160a01b0361264061032183611f67565b168452600660205260ff6040852054166130685760008051602061404a8339815191526001600160a01b0361267761032184611f67565b161461303e576126b161268c61032183611f67565b6126a7608061269a85611f67565b0135608061034386611f7c565b9030903390613adf565b6126bd61032182611f67565b6001600160a01b036126d3602061258e85611f67565b6001600160a01b03909216911603612de35760806126f082611f67565b01355b6126ff61032183611f7c565b6001600160a01b03612715602061258e86611f7c565b6001600160a01b03909216911603612a8e57608061273283611f7c565b01355b61277361277961274486613caf565b928180968593151580612a85575b61275b9061203c565b8181101580612a7b575b61276e9061203c565b6131ae565b936131ae565b6040516311f9fbc960e21b81523360048201526024810187905290936001600160a01b037f000000000000000000000000000000000000000000000000000000000000000016916020816044818d875af18015612a7057612a41575b5061280b9082307f00000000000000000000000000000000000000000000000000000000000000006001600160a01b0316613adf565b612819602061258e87611f7c565b6001600160a01b037f00000000000000000000000000000000000000000000000000000000000000008116999116890361293157509061287e917f65964ba8ff7ac19e43c9a67f34d5a0855847a22f15d8d6144fc64153ae48ef0a9697983090613adf565b806128f6575b50806128d7575b506128b361289b61032183611f67565b916080610343816128ab84611f67565b013592611f7c565b604080519485526001600160a01b03929092166020850152908301523391606090a2565b6128f09033306128eb602061258e87611f7c565b613adf565b3861288b565b61292b9033307f00000000000000000000000000000000000000000000000000000000000000006001600160a01b0316613adf565b38612884565b809850612942602061258e88611f7c565b6001600160a01b037f00000000000000000000000000000000000000000000000000000000000000008116911681146129ed575b5090803b156102bb5760046040518094819363dceb986d60e01b83525af180156129e2576129ca575b507f65964ba8ff7ac19e43c9a67f34d5a0855847a22f15d8d6144fc64153ae48ef0a9394955061287e565b6129d48791611bd2565b6129de578561299f565b8580fd5b6040513d89823e3d90fd5b803b156102bb578190602460405180948193632e1a7d4d60e01b83528860048401525af18015612a3657612a23575b8890612976565b612a2f90989198611bd2565b9638612a1c565b6040513d8b823e3d90fd5b602090813d8311612a69575b612a578183611c16565b81010312612a6557386127d5565b8880fd5b503d612a4d565b6040513d8c823e3d90fd5b5083871015612765565b50831515612752565b612a9782611f7c565b4260e082013510612db65760a081013515612d8957612acb6001600160a01b03612ac360208401611f94565b163090613eb7565b60008051602061404a8339815191526001600160a01b03612aeb84611f94565b1603612cc0575b606082016001600160a01b03612b0782611f94565b168852600760205260ff60408920541615612c9357612b268891611f94565b60008051602061404a8339815191526001600160a01b03612b4686611f94565b1603612c8c576080840135905b60c0850135601e19863603018112156107125785018035906001600160401b0382116103c9576020019281360384136103c9578493826040519384928337810185815203925af1612ba2613c70565b5015612c5f57612bca9061276e306001600160a01b03612bc460208701611f94565b16613eb7565b9060a08101358210612c325760a0816080612bf360008051602061406a83398151915294611f94565b91612c0060208201611f94565b60405193600180871b03168452600180861b0316602084015233604084015201356060820152836080820152a1612735565b60405162461bcd60e51b8152602060048201526005602482015264475730313560d81b6044820152606490fd5b60405162461bcd60e51b815260206004820152600560248201526411d5cc0c4d60da1b6044820152606490fd5b8190612b53565b60405162461bcd60e51b8152602060048201526005602482015264475730313360d81b6044820152606490fd5b6001600160a01b03612cd183611f94565b16612cde60408401611f94565b604051636eb1769f60e11b81523060048201526001600160a01b038216602482015291602083604481845afa928315612a70578a93612d51575b5060808501358310612d2d575b505050612af2565b612d3a92612d4257613fdf565b388080612d25565b612d4c8282613f67565b613fdf565b9092506020813d602011612d81575b81612d6d60209383611c16565b81010312612d7d57519138612d18565b8980fd5b3d9150612d60565b60405162461bcd60e51b815260206004820152600560248201526423ab98189960d91b6044820152606490fd5b60405162461bcd60e51b8152602060048201526005602482015264475730313160d81b6044820152606490fd5b612dec81611f67565b4260e082013510612db65760a0810135908115612d89576020810190612e1c6001600160a01b03612ac384611f94565b60008051602061404a8339815191526001600160a01b03612e3c84611f94565b1603612f79575b606082016001600160a01b03612e5882611f94565b168952600760205260ff60408a20541615612c9357612e778991611f94565b60008051602061404a8339815191526001600160a01b03612e9786611f94565b1603612f72576080840135905b60c0850135601e19863603018112156107125785018035906001600160401b0382116103c9576020019281360384136103c9578493826040519384928337810185815203925af1612ef3613c70565b5015612c5f57612f129061276e306001600160a01b03612bc487611f94565b928310612c325760008051602061406a83398151915291608082612f40612f3a60a095611f94565b93611f94565b60405193600180871b03168452600180861b0316602084015233604084015201356060820152836080820152a16126f3565b8190612ea4565b6001600160a01b03612f8a83611f94565b16612f9760408401611f94565b604051636eb1769f60e11b81523060048201526001600160a01b038216602482015291602083604481845afa928315613033578b93612ffb575b5060808501358310612fe6575b505050612e43565b612ff392612d4257613fdf565b388080612fde565b9092506020813d60201161302b575b8161301760209383611c16565b8101031261302757519138612fd1565b8a80fd5b3d915061300a565b6040513d8d823e3d90fd5b61306361305c608061304f84611f67565b0135608061034385611f7c565b341461203c565b6126b1565b60405162461bcd60e51b8152602060048201526005602482015264475730303560d81b6044820152606490fd5b60405162461bcd60e51b815260206004820152600560248201526411d5cc0c0d60da1b6044820152606490fd5b60405162461bcd60e51b8152602060048201526005602482015264475730303360d81b6044820152606490fd5b5060008051602061404a8339815191526001600160a01b03613115602061258e85611f7c565b1614801561316b575b806125c957506125d2613135602061258e84611f7c565b7f00000000000000000000000000000000000000000000000000000000000000006001600160a01b0390811691161490506125c9565b5061317a602061258e83611f7c565b7f00000000000000000000000000000000000000000000000000000000000000006001600160a01b0390811691161461311e565b91908203918211611d1257565b9060006131ca61032183611f67565b6001600160a01b037f000000000000000000000000000000000000000000000000000000000000000081169116811480613a99575b61320890611ef7565b613216602061258e85611f67565b6001600160a01b0361322c602061258e87611f7c565b166001600160a01b0390911603613a6c576001600160a01b03613253602061258e86611f67565b168252600560205260ff60408320541615613a3f576001600160a01b0361327e602061258e86611f67565b168252600660205260ff604083205416613a12576001600160a01b037f00000000000000000000000000000000000000000000000000000000000000008116906132ef908690839033907f000000000000000000000000000000000000000000000000000000000000000016613adf565b604051632e1a7d4d60e01b81526004810186905260208160248187865af180156137515784906139de575b6133249150613caf565b9290801515806139d5575b6133389061203c565b823b156103c95760405163583b50c560e11b8082526001600160a01b039390931660048201523060248201526044810191909152848160648183875af180156139ca576139b7575b50813b15610712576040519081526001600160a01b037f0000000000000000000000000000000000000000000000000000000000000000166004820152306024820152604481019290925282908290606490829084905af180156139ac57908291613998575b50506133f461032183611f67565b6001600160a01b0361340a602061258e86611f67565b6001600160a01b0390921691160361375c57608061342783611f67565b0135905b61343761032184611f7c565b6001600160a01b0361344d602061258e87611f7c565b6001600160a01b039092169116036134cb57506128b3826134c5602061258e60806134987f6ec52833f4092ffdb483b763237a9d61c0cab33ed4b4e4eb2fab7ccca32cb77898611f7c565b0135935b6134c06134ac8461258e84611f67565b6134b6878a611d05565b9033903090613adf565b611f67565b92611d05565b916134d581611f7c565b924260e085013510612db65760a084013515612d8957613503306001600160a01b03612bc460208801611f94565b9060008051602061404a8339815191526001600160a01b0361352487611f94565b160361369b575b606085016001600160a01b0361354082611f94565b168252600760205260ff60408320541615612c935761355e90611f94565b60008051602061404a8339815191526001600160a01b0361357e88611f94565b16036136955760808601355b60c0870135601e1988360301811215610712578701906001600160401b038235116107125781353603602083011361071257908392916040518281933560208201833735810185815203925af16135df613c70565b5015612c5f576136019061276e306001600160a01b03612bc460208901611f94565b9060a08401358210612c32576134c5602061258e6128b39460008051602061406a83398151915260a08960806136577f6ec52833f4092ffdb483b763237a9d61c0cab33ed4b4e4eb2fab7ccca32cb7789c611f94565b91613663888201611f94565b60405193600180871b03168452600180861b03168884015233604084015201356060820152836080820152a19361349c565b8161358a565b6001600160a01b036136ac86611f94565b166136b960408701611f94565b604051636eb1769f60e11b81523060048201526001600160a01b038216602482015291602083604481845afa92831561375157849361371d575b5060808801358310613708575b50505061352b565b61371592612d4257613fdf565b388080613700565b9092506020813d602011613749575b8161373960209383611c16565b810103126116f3575191386136f3565b3d915061372c565b6040513d86823e3d90fd5b61376582611f67565b4260e082013510612db65760a0810135908115612d89576020810190613796306001600160a01b03612bc485611f94565b60008051602061404a833981519152806001600160a01b036137b785611f94565b16036138e2575b606083016001600160a01b036137d382611f94565b168752600760205260ff60408820541615612c93576137f190611f94565b906001600160a01b0361380385611f94565b16036138dc5760808301355b60c0840135601e1985360301811215611570578401908135916001600160401b038311612a65576020018236038113612a6557918893918493826040519384928337810185815203925af1613862613c70565b5015612c5f576138819061276e306001600160a01b03612bc487611f94565b928310612c325760008051602061406a833981519152916080826138a9612f3a60a095611f94565b60405193600180871b03168452600180861b0316602084015233604084015201356060820152836080820152a19061342b565b8561380f565b6001600160a01b036138f384611f94565b1661390060408501611f94565b604051636eb1769f60e11b81523060048201526001600160a01b038216602482015291602083604481845afa928315612a36578993613964575b506080860135831061394f575b5050506137be565b61395c92612d4257613fdf565b388080613947565b9092506020813d602011613990575b8161398060209383611c16565b810103126116f35751913861393a565b3d9150613973565b6139a190611bd2565b61043a5780386133e6565b6040513d84823e3d90fd5b6139c390949194611bd2565b9238613380565b6040513d87823e3d90fd5b5083151561332f565b506020813d602011613a0a575b816139f860209383611c16565b8101031261071257613324905161331a565b3d91506139eb565b60405162461bcd60e51b815260206004820152600560248201526408eae6060760db1b6044820152606490fd5b60405162461bcd60e51b8152602060048201526005602482015264475730303760d81b6044820152606490fd5b60405162461bcd60e51b815260206004820152600560248201526423ab98181b60d91b6044820152606490fd5b50613208613aa961032185611f7c565b7f00000000000000000000000000000000000000000000000000000000000000006001600160a01b0390811691161490506131ff565b9291906001600160a01b03908181163003613b015750613aff9316613d02565b565b919080939416906040928351946370a0823160e01b908187528316918260048801526020938488602481895afa978815613c6557600098613c35575b50606485926000928951916323b872dd60e01b8352600483015260248201528a604482015282885af13d15601f3d1160016000511416171615613bf157906024839286519586938492835260048301525afa928315613be75750600092613bb6575b5050613aff9291613baf916131ae565b1115613f4a565b81819392933d8311613be0575b613bcd8183611c16565b8101031261043a57505181613baf613b9f565b503d613bc3565b513d6000823e3d90fd5b845162461bcd60e51b815260048101849052601960248201527f5452414e534645525f46524f4d5f4641494c45443131313131000000000000006044820152606490fd5b90978582813d8311613c5e575b613c4c8183611c16565b8101031261043a575051966064613b3d565b503d613c42565b87513d6000823e3d90fd5b3d15613caa573d906001600160401b038211611be55760405191613c9e601f8201601f191660200184611c16565b82523d6000602084013e565b606090565b9062a4d28d91828102928184041490151715611d125764e8d4a51000916402540be400928391040491808302908382041483151715611d125764174876e800830290808204600a1490151715611d125790565b9082613d0d57505050565b6001600160a01b0391821660008051602061404a8339815191528103613da65750905060405160208101908082106001600160401b03831117611be5576000938493848094938194604052525af1613d63613c70565b5015613d6b57565b60405162461bcd60e51b815260206004820152601360248201527211551217d514905394d1915497d19052531151606a1b6044820152606490fd5b6040918251936370a0823160e01b908186528216908160048701526020928387602481885afa968715613eac57600097613e7c575b5060006044859288519063a9059cbb60e01b825260048201528a602482015282885af13d15601f3d1160016000511416171615613e4657906024839286519586938492835260048301525afa928315613be75750600092613bb6575050613aff9291613baf916131ae565b845162461bcd60e51b815260048101849052600f60248201526e1514905394d1915497d19052531151608a1b6044820152606490fd5b90968482813d8311613ea5575b613e938183611c16565b8101031261043a575051956000613ddb565b503d613e89565b86513d6000823e3d90fd5b6001600160a01b039081169060008051602061404a8339815191528203613ede5750503190565b6040516370a0823160e01b815292166004830152602090829060249082905afa908115613f3e57600091613f10575090565b906020823d8211613f36575b81613f2960209383611c16565b8101031261043a57505190565b3d9150613f1c565b6040513d6000823e3d90fd5b15613f5157565b634e487b7160e01b600052600160045260246000fd5b6044602092600080936040519263095ea7b360e01b8452600484015281602484015260018060a01b03165af13d15601f3d1160016000511416171615613fa957565b60405162461bcd60e51b815260206004820152600e60248201526d1054141493d59157d1905253115160921b6044820152606490fd5b60405163095ea7b360e01b8152600481019290925260001960248301526020916000916044919083906001600160a01b03165af13d15601f3d1160016000511416171615613fa95756fed1473398bb66596de5d1ea1fc8e303ff2ac23265adc9144b1b52065dc4f0934b000000000000000000000000eeeeeeeeeeeeeeeeeeeeeeeeeeeeeeeeeeeeeeee9f70203000dc5ad49aeaa844d92d2a87451c6cf2d727afb7acce473707615624dc882e12f5b8cf973047e20ece7167f89c4c0d401afaebea3031a0b4acb97489a2646970667358221220ce7327da2b7ec809bec0e6336a4ddc720ccd522a865dc4d6023fa52f6521bdaf64736f6c63430008110033",
  "linkReferences": {},
  "deployedLinkReferences": {}
}