{
  "_format": "hh-sol-artifact-1",
  "contractName": "Gateway",
  "sourceName": "contracts/automation/Gateway.sol",
  "abi": [
    {
      "inputs": [
        {
          "internalType": "address",
          "name": "_hopeAddress",
          "type": "address"
        },
        {
          "internalType": "address",
          "name": "_wbtcAddress",
          "type": "address"
        },
        {
          "internalType": "address",
          "name": "_wethAddress",
          "type": "address"
        },
        {
          "internalType": "address",
          "name": "_stETHAddress",
          "type": "address"
        },
        {
          "internalType": "address",
          "name": "_vaultAddress",
          "type": "address"
        }
      ],
      "stateMutability": "nonpayable",
      "type": "constructor"
    },
    {
      "anonymous": false,
      "inputs": [
        {
          "indexed": false,
          "internalType": "address",
          "name": "fromToken",
          "type": "address"
        },
        {
          "indexed": false,
          "internalType": "address",
          "name": "toToken",
          "type": "address"
        },
        {
          "indexed": false,
          "internalType": "address",
          "name": "user",
          "type": "address"
        },
        {
          "indexed": false,
          "internalType": "uint256",
          "name": "fromAmount",
          "type": "uint256"
        },
        {
          "indexed": false,
          "internalType": "uint256",
          "name": "returnAmount",
          "type": "uint256"
        }
      ],
      "name": "AggregatorSwap",
      "type": "event"
    },
    {
      "anonymous": false,
      "inputs": [
        {
          "indexed": true,
          "internalType": "address",
          "name": "user",
          "type": "address"
        },
        {
          "indexed": false,
          "internalType": "uint256",
          "name": "mintAmount",
          "type": "uint256"
        },
        {
          "indexed": false,
          "internalType": "address",
          "name": "ethCorrelatedToken",
          "type": "address"
        },
        {
          "indexed": false,
          "internalType": "uint256",
          "name": "wbtcAmount",
          "type": "uint256"
        },
        {
          "indexed": false,
          "internalType": "uint256",
          "name": "ethAmount",
          "type": "uint256"
        }
      ],
      "name": "CombinationDeposit",
      "type": "event"
    },
    {
      "anonymous": false,
      "inputs": [
        {
          "indexed": true,
          "internalType": "address",
          "name": "user",
          "type": "address"
        },
        {
          "indexed": false,
          "internalType": "uint256",
          "name": "burnAmount",
          "type": "uint256"
        },
        {
          "indexed": false,
          "internalType": "uint256",
          "name": "wbtcAmount",
          "type": "uint256"
        },
        {
          "indexed": false,
          "internalType": "uint256",
          "name": "stETHAmount",
          "type": "uint256"
        }
      ],
      "name": "CombinationWithdraw",
      "type": "event"
    },
    {
      "anonymous": false,
      "inputs": [
        {
          "indexed": true,
          "internalType": "address",
          "name": "previousOwner",
          "type": "address"
        },
        {
          "indexed": true,
          "internalType": "address",
          "name": "newOwner",
          "type": "address"
        }
      ],
      "name": "OwnershipTransferStarted",
      "type": "event"
    },
    {
      "anonymous": false,
      "inputs": [
        {
          "indexed": true,
          "internalType": "address",
          "name": "previousOwner",
          "type": "address"
        },
        {
          "indexed": true,
          "internalType": "address",
          "name": "newOwner",
          "type": "address"
        }
      ],
      "name": "OwnershipTransferred",
      "type": "event"
    },
    {
      "anonymous": false,
      "inputs": [
        {
          "indexed": false,
          "internalType": "address",
          "name": "account",
          "type": "address"
        }
      ],
      "name": "Paused",
      "type": "event"
    },
    {
      "anonymous": false,
      "inputs": [
        {
          "indexed": true,
          "internalType": "bytes32",
          "name": "role",
          "type": "bytes32"
        },
        {
          "indexed": true,
          "internalType": "bytes32",
          "name": "previousAdminRole",
          "type": "bytes32"
        },
        {
          "indexed": true,
          "internalType": "bytes32",
          "name": "newAdminRole",
          "type": "bytes32"
        }
      ],
      "name": "RoleAdminChanged",
      "type": "event"
    },
    {
      "anonymous": false,
      "inputs": [
        {
          "indexed": true,
          "internalType": "bytes32",
          "name": "role",
          "type": "bytes32"
        },
        {
          "indexed": true,
          "internalType": "address",
          "name": "account",
          "type": "address"
        },
        {
          "indexed": true,
          "internalType": "address",
          "name": "sender",
          "type": "address"
        }
      ],
      "name": "RoleGranted",
      "type": "event"
    },
    {
      "anonymous": false,
      "inputs": [
        {
          "indexed": true,
          "internalType": "bytes32",
          "name": "role",
          "type": "bytes32"
        },
        {
          "indexed": true,
          "internalType": "address",
          "name": "account",
          "type": "address"
        },
        {
          "indexed": true,
          "internalType": "address",
          "name": "sender",
          "type": "address"
        }
      ],
      "name": "RoleRevoked",
      "type": "event"
    },
    {
      "anonymous": false,
      "inputs": [
        {
          "indexed": true,
          "internalType": "address",
          "name": "user",
          "type": "address"
        },
        {
          "indexed": false,
          "internalType": "uint256",
          "name": "mintAmount",
          "type": "uint256"
        },
        {
          "indexed": false,
          "internalType": "address",
          "name": "depositToken",
          "type": "address"
        },
        {
          "indexed": false,
          "internalType": "uint256",
          "name": "depositAmount",
          "type": "uint256"
        }
      ],
      "name": "SingleDeposit",
      "type": "event"
    },
    {
      "anonymous": false,
      "inputs": [
        {
          "indexed": true,
          "internalType": "address",
          "name": "user",
          "type": "address"
        },
        {
          "indexed": false,
          "internalType": "uint256",
          "name": "burnAmount",
          "type": "uint256"
        },
        {
          "indexed": false,
          "internalType": "address",
          "name": "withdrawToken",
          "type": "address"
        },
        {
          "indexed": false,
          "internalType": "uint256",
          "name": "withdrawAmount",
          "type": "uint256"
        }
      ],
      "name": "SingleWithdraw",
      "type": "event"
    },
    {
      "anonymous": false,
      "inputs": [
        {
          "indexed": false,
          "internalType": "address",
          "name": "account",
          "type": "address"
        }
      ],
      "name": "Unpaused",
      "type": "event"
    },
    {
      "anonymous": false,
      "inputs": [
        {
          "indexed": true,
          "internalType": "address",
          "name": "token",
          "type": "address"
        },
        {
          "indexed": false,
          "internalType": "bool",
          "name": "isFrozen",
          "type": "bool"
        }
      ],
      "name": "UpdateFrozenToken",
      "type": "event"
    },
    {
      "anonymous": false,
      "inputs": [
        {
          "indexed": true,
          "internalType": "address",
          "name": "token",
          "type": "address"
        },
        {
          "indexed": false,
          "internalType": "bool",
          "name": "isSupported",
          "type": "bool"
        }
      ],
      "name": "UpdateSupportedToken",
      "type": "event"
    },
    {
      "anonymous": false,
      "inputs": [
        {
          "indexed": true,
          "internalType": "address",
          "name": "dex",
          "type": "address"
        },
        {
          "indexed": false,
          "internalType": "bool",
          "name": "isWhiteListed",
          "type": "bool"
        }
      ],
      "name": "UpdateSwapWhiteListed",
      "type": "event"
    },
    {
      "stateMutability": "payable",
      "type": "fallback"
    },
    {
      "inputs": [],
      "name": "DEFAULT_ADMIN_ROLE",
      "outputs": [
        {
          "internalType": "bytes32",
          "name": "",
          "type": "bytes32"
        }
      ],
      "stateMutability": "view",
      "type": "function"
    },
    {
      "inputs": [],
      "name": "EMERGENCY_MANAGER_ROLE",
      "outputs": [
        {
          "internalType": "bytes32",
          "name": "",
          "type": "bytes32"
        }
      ],
      "stateMutability": "view",
      "type": "function"
    },
    {
      "inputs": [],
      "name": "ETH_MOCK_ADDRESS",
      "outputs": [
        {
          "internalType": "address",
          "name": "",
          "type": "address"
        }
      ],
      "stateMutability": "view",
      "type": "function"
    },
    {
      "inputs": [],
      "name": "ETH_TO_BTC_RATIO",
      "outputs": [
        {
          "internalType": "uint256",
          "name": "",
          "type": "uint256"
        }
      ],
      "stateMutability": "view",
      "type": "function"
    },
    {
      "inputs": [],
      "name": "HOPE",
      "outputs": [
        {
          "internalType": "contract IHOPE",
          "name": "",
          "type": "address"
        }
      ],
      "stateMutability": "view",
      "type": "function"
    },
    {
      "inputs": [],
      "name": "K",
      "outputs": [
        {
          "internalType": "uint256",
          "name": "",
          "type": "uint256"
        }
      ],
      "stateMutability": "view",
      "type": "function"
    },
    {
      "inputs": [],
      "name": "K_FACTOR",
      "outputs": [
        {
          "internalType": "uint256",
          "name": "",
          "type": "uint256"
        }
      ],
      "stateMutability": "view",
      "type": "function"
    },
    {
      "inputs": [],
      "name": "VAULT",
      "outputs": [
        {
          "internalType": "contract IVault",
          "name": "",
          "type": "address"
        }
      ],
      "stateMutability": "view",
      "type": "function"
    },
    {
      "inputs": [],
      "name": "VAULT_MANAGER_ROLE",
      "outputs": [
        {
          "internalType": "bytes32",
          "name": "",
          "type": "bytes32"
        }
      ],
      "stateMutability": "view",
      "type": "function"
    },
    {
      "inputs": [],
      "name": "WBTC",
      "outputs": [
        {
          "internalType": "contract IWBTC",
          "name": "",
          "type": "address"
        }
      ],
      "stateMutability": "view",
      "type": "function"
    },
    {
      "inputs": [],
      "name": "WETH",
      "outputs": [
        {
          "internalType": "contract IWETH",
          "name": "",
          "type": "address"
        }
      ],
      "stateMutability": "view",
      "type": "function"
    },
    {
      "inputs": [],
      "name": "acceptOwnership",
      "outputs": [],
      "stateMutability": "nonpayable",
      "type": "function"
    },
    {
      "inputs": [
        {
          "internalType": "address",
          "name": "_manager",
          "type": "address"
        }
      ],
      "name": "addEmergencyManager",
      "outputs": [],
      "stateMutability": "nonpayable",
      "type": "function"
    },
    {
      "inputs": [
        {
          "internalType": "address",
          "name": "_manager",
          "type": "address"
        }
      ],
      "name": "addVaultManager",
      "outputs": [],
      "stateMutability": "nonpayable",
      "type": "function"
    },
    {
      "inputs": [
        {
          "internalType": "uint256",
          "name": "_mintAmount",
          "type": "uint256"
        },
        {
          "internalType": "address",
          "name": "_ethCorrelatedToken",
          "type": "address"
        }
      ],
      "name": "combinationDeposit",
      "outputs": [],
      "stateMutability": "payable",
      "type": "function"
    },
    {
      "inputs": [
        {
          "internalType": "uint256",
          "name": "_mintAmount",
          "type": "uint256"
        },
        {
          "internalType": "address",
          "name": "_ethCorrelatedToken",
          "type": "address"
        },
        {
          "internalType": "uint256",
          "name": "_deadline",
          "type": "uint256"
        },
        {
          "internalType": "uint8",
          "name": "_permitV",
          "type": "uint8"
        },
        {
          "internalType": "bytes32",
          "name": "_permitR",
          "type": "bytes32"
        },
        {
          "internalType": "bytes32",
          "name": "_permitS",
          "type": "bytes32"
        }
      ],
      "name": "combinationDepositWithPermit",
      "outputs": [],
      "stateMutability": "nonpayable",
      "type": "function"
    },
    {
      "inputs": [
        {
          "internalType": "uint256",
          "name": "_burnAmount",
          "type": "uint256"
        }
      ],
      "name": "combinationWithdraw",
      "outputs": [],
      "stateMutability": "nonpayable",
      "type": "function"
    },
    {
      "inputs": [
        {
          "internalType": "uint256",
          "name": "_burnAmount",
          "type": "uint256"
        },
        {
          "internalType": "uint256",
          "name": "_deadline",
          "type": "uint256"
        },
        {
          "internalType": "uint8",
          "name": "_permitV",
          "type": "uint8"
        },
        {
          "internalType": "bytes32",
          "name": "_permitR",
          "type": "bytes32"
        },
        {
          "internalType": "bytes32",
          "name": "_permitS",
          "type": "bytes32"
        }
      ],
      "name": "combinationWithdrawWithPermit",
      "outputs": [],
      "stateMutability": "nonpayable",
      "type": "function"
    },
    {
      "inputs": [
        {
          "internalType": "address",
          "name": "",
          "type": "address"
        }
      ],
      "name": "frozenTokens",
      "outputs": [
        {
          "internalType": "bool",
          "name": "",
          "type": "bool"
        }
      ],
      "stateMutability": "view",
      "type": "function"
    },
    {
      "inputs": [
        {
          "internalType": "bytes32",
          "name": "role",
          "type": "bytes32"
        }
      ],
      "name": "getRoleAdmin",
      "outputs": [
        {
          "internalType": "bytes32",
          "name": "",
          "type": "bytes32"
        }
      ],
      "stateMutability": "view",
      "type": "function"
    },
    {
      "inputs": [
        {
          "internalType": "bytes32",
          "name": "role",
          "type": "bytes32"
        },
        {
          "internalType": "address",
          "name": "account",
          "type": "address"
        }
      ],
      "name": "grantRole",
      "outputs": [],
      "stateMutability": "nonpayable",
      "type": "function"
    },
    {
      "inputs": [
        {
          "internalType": "bytes32",
          "name": "role",
          "type": "bytes32"
        },
        {
          "internalType": "address",
          "name": "account",
          "type": "address"
        }
      ],
      "name": "hasRole",
      "outputs": [
        {
          "internalType": "bool",
          "name": "",
          "type": "bool"
        }
      ],
      "stateMutability": "view",
      "type": "function"
    },
    {
      "inputs": [
        {
          "internalType": "address",
          "name": "_manager",
          "type": "address"
        }
      ],
      "name": "isEmergencyManager",
      "outputs": [
        {
          "internalType": "bool",
          "name": "",
          "type": "bool"
        }
      ],
      "stateMutability": "view",
      "type": "function"
    },
    {
      "inputs": [
        {
          "internalType": "address",
          "name": "",
          "type": "address"
        }
      ],
      "name": "isSwapWhiteListed",
      "outputs": [
        {
          "internalType": "bool",
          "name": "",
          "type": "bool"
        }
      ],
      "stateMutability": "view",
      "type": "function"
    },
    {
      "inputs": [
        {
          "internalType": "address",
          "name": "_manager",
          "type": "address"
        }
      ],
      "name": "isVaultManager",
      "outputs": [
        {
          "internalType": "bool",
          "name": "",
          "type": "bool"
        }
      ],
      "stateMutability": "view",
      "type": "function"
    },
    {
      "inputs": [],
      "name": "owner",
      "outputs": [
        {
          "internalType": "address",
          "name": "",
          "type": "address"
        }
      ],
      "stateMutability": "view",
      "type": "function"
    },
    {
      "inputs": [],
      "name": "pause",
      "outputs": [],
      "stateMutability": "nonpayable",
      "type": "function"
    },
    {
      "inputs": [],
      "name": "paused",
      "outputs": [
        {
          "internalType": "bool",
          "name": "",
          "type": "bool"
        }
      ],
      "stateMutability": "view",
      "type": "function"
    },
    {
      "inputs": [],
      "name": "pendingOwner",
      "outputs": [
        {
          "internalType": "address",
          "name": "",
          "type": "address"
        }
      ],
      "stateMutability": "view",
      "type": "function"
    },
    {
      "inputs": [
        {
          "internalType": "address",
          "name": "_manager",
          "type": "address"
        }
      ],
      "name": "removeEmergencyManager",
      "outputs": [],
      "stateMutability": "nonpayable",
      "type": "function"
    },
    {
      "inputs": [
        {
          "internalType": "address",
          "name": "_manager",
          "type": "address"
        }
      ],
      "name": "removeVaultManager",
      "outputs": [],
      "stateMutability": "nonpayable",
      "type": "function"
    },
    {
      "inputs": [],
      "name": "renounceOwnership",
      "outputs": [],
      "stateMutability": "nonpayable",
      "type": "function"
    },
    {
      "inputs": [
        {
          "internalType": "bytes32",
          "name": "role",
          "type": "bytes32"
        },
        {
          "internalType": "address",
          "name": "account",
          "type": "address"
        }
      ],
      "name": "renounceRole",
      "outputs": [],
      "stateMutability": "nonpayable",
      "type": "function"
    },
    {
      "inputs": [
        {
          "internalType": "address",
          "name": "_token",
          "type": "address"
        },
        {
          "internalType": "address",
          "name": "_recipient",
          "type": "address"
        },
        {
          "internalType": "uint256",
          "name": "_amount",
          "type": "uint256"
        }
      ],
      "name": "rescueTokens",
      "outputs": [],
      "stateMutability": "nonpayable",
      "type": "function"
    },
    {
      "inputs": [
        {
          "internalType": "bytes32",
          "name": "role",
          "type": "bytes32"
        },
        {
          "internalType": "address",
          "name": "account",
          "type": "address"
        }
      ],
      "name": "revokeRole",
      "outputs": [],
      "stateMutability": "nonpayable",
      "type": "function"
    },
    {
      "inputs": [
        {
          "internalType": "uint256",
          "name": "_mintAmount",
          "type": "uint256"
        },
        {
          "components": [
            {
              "internalType": "address",
              "name": "fromToken",
              "type": "address"
            },
            {
              "internalType": "address",
              "name": "toToken",
              "type": "address"
            },
            {
              "internalType": "address",
              "name": "approveTarget",
              "type": "address"
            },
            {
              "internalType": "address",
              "name": "swapTarget",
              "type": "address"
            },
            {
              "internalType": "uint256",
              "name": "fromTokenAmount",
              "type": "uint256"
            },
            {
              "internalType": "uint256",
              "name": "minReturnAmount",
              "type": "uint256"
            },
            {
              "internalType": "bytes",
              "name": "callDataConcat",
              "type": "bytes"
            },
            {
              "internalType": "uint256",
              "name": "deadLine",
              "type": "uint256"
            }
          ],
          "internalType": "struct IGateway.SwapInput[2]",
          "name": "_inputs",
          "type": "tuple[2]"
        }
      ],
      "name": "singleDeposit",
      "outputs": [],
      "stateMutability": "payable",
      "type": "function"
    },
    {
      "inputs": [
        {
          "internalType": "uint256",
          "name": "_mintAmount",
          "type": "uint256"
        },
        {
          "components": [
            {
              "internalType": "address",
              "name": "fromToken",
              "type": "address"
            },
            {
              "internalType": "address",
              "name": "toToken",
              "type": "address"
            },
            {
              "internalType": "address",
              "name": "approveTarget",
              "type": "address"
            },
            {
              "internalType": "address",
              "name": "swapTarget",
              "type": "address"
            },
            {
              "internalType": "uint256",
              "name": "fromTokenAmount",
              "type": "uint256"
            },
            {
              "internalType": "uint256",
              "name": "minReturnAmount",
              "type": "uint256"
            },
            {
              "internalType": "bytes",
              "name": "callDataConcat",
              "type": "bytes"
            },
            {
              "internalType": "uint256",
              "name": "deadLine",
              "type": "uint256"
            }
          ],
          "internalType": "struct IGateway.SwapInput[2]",
          "name": "_inputs",
          "type": "tuple[2]"
        },
        {
          "internalType": "uint256",
          "name": "_deadline",
          "type": "uint256"
        },
        {
          "internalType": "uint8",
          "name": "_permitV",
          "type": "uint8"
        },
        {
          "internalType": "bytes32",
          "name": "_permitR",
          "type": "bytes32"
        },
        {
          "internalType": "bytes32",
          "name": "_permitS",
          "type": "bytes32"
        }
      ],
      "name": "singleDepositWithPermit",
      "outputs": [],
      "stateMutability": "nonpayable",
      "type": "function"
    },
    {
      "inputs": [
        {
          "internalType": "uint256",
          "name": "_burnAmount",
          "type": "uint256"
        },
        {
          "components": [
            {
              "internalType": "address",
              "name": "fromToken",
              "type": "address"
            },
            {
              "internalType": "address",
              "name": "toToken",
              "type": "address"
            },
            {
              "internalType": "address",
              "name": "approveTarget",
              "type": "address"
            },
            {
              "internalType": "address",
              "name": "swapTarget",
              "type": "address"
            },
            {
              "internalType": "uint256",
              "name": "fromTokenAmount",
              "type": "uint256"
            },
            {
              "internalType": "uint256",
              "name": "minReturnAmount",
              "type": "uint256"
            },
            {
              "internalType": "bytes",
              "name": "callDataConcat",
              "type": "bytes"
            },
            {
              "internalType": "uint256",
              "name": "deadLine",
              "type": "uint256"
            }
          ],
          "internalType": "struct IGateway.SwapInput[2]",
          "name": "_inputs",
          "type": "tuple[2]"
        }
      ],
      "name": "singleWithdraw",
      "outputs": [],
      "stateMutability": "nonpayable",
      "type": "function"
    },
    {
      "inputs": [
        {
          "internalType": "uint256",
          "name": "_burnAmount",
          "type": "uint256"
        },
        {
          "internalType": "uint256",
          "name": "_deadline",
          "type": "uint256"
        },
        {
          "internalType": "uint8",
          "name": "_permitV",
          "type": "uint8"
        },
        {
          "internalType": "bytes32",
          "name": "_permitR",
          "type": "bytes32"
        },
        {
          "internalType": "bytes32",
          "name": "_permitS",
          "type": "bytes32"
        },
        {
          "components": [
            {
              "internalType": "address",
              "name": "fromToken",
              "type": "address"
            },
            {
              "internalType": "address",
              "name": "toToken",
              "type": "address"
            },
            {
              "internalType": "address",
              "name": "approveTarget",
              "type": "address"
            },
            {
              "internalType": "address",
              "name": "swapTarget",
              "type": "address"
            },
            {
              "internalType": "uint256",
              "name": "fromTokenAmount",
              "type": "uint256"
            },
            {
              "internalType": "uint256",
              "name": "minReturnAmount",
              "type": "uint256"
            },
            {
              "internalType": "bytes",
              "name": "callDataConcat",
              "type": "bytes"
            },
            {
              "internalType": "uint256",
              "name": "deadLine",
              "type": "uint256"
            }
          ],
          "internalType": "struct IGateway.SwapInput[2]",
          "name": "_inputs",
          "type": "tuple[2]"
        }
      ],
      "name": "singleWithdrawWithPermit",
      "outputs": [],
      "stateMutability": "nonpayable",
      "type": "function"
    },
    {
      "inputs": [],
      "name": "stETH",
      "outputs": [
        {
          "internalType": "contract IStETH",
          "name": "",
          "type": "address"
        }
      ],
      "stateMutability": "view",
      "type": "function"
    },
    {
      "inputs": [
        {
          "internalType": "address",
          "name": "",
          "type": "address"
        }
      ],
      "name": "supportTokens",
      "outputs": [
        {
          "internalType": "bool",
          "name": "",
          "type": "bool"
        }
      ],
      "stateMutability": "view",
      "type": "function"
    },
    {
      "inputs": [
        {
          "internalType": "bytes4",
          "name": "interfaceId",
          "type": "bytes4"
        }
      ],
      "name": "supportsInterface",
      "outputs": [
        {
          "internalType": "bool",
          "name": "",
          "type": "bool"
        }
      ],
      "stateMutability": "view",
      "type": "function"
    },
    {
      "inputs": [
        {
          "internalType": "address",
          "name": "newOwner",
          "type": "address"
        }
      ],
      "name": "transferOwnership",
      "outputs": [],
      "stateMutability": "nonpayable",
      "type": "function"
    },
    {
      "inputs": [],
      "name": "unpause",
      "outputs": [],
      "stateMutability": "nonpayable",
      "type": "function"
    },
    {
      "inputs": [
        {
          "internalType": "address",
          "name": "_token",
          "type": "address"
        },
        {
          "internalType": "bool",
          "name": "_isFrozen",
          "type": "bool"
        }
      ],
      "name": "updateFrozenToken",
      "outputs": [],
      "stateMutability": "nonpayable",
      "type": "function"
    },
    {
      "inputs": [
        {
          "internalType": "address[]",
          "name": "_tokens",
          "type": "address[]"
        },
        {
          "internalType": "bool[]",
          "name": "_isFrozen",
          "type": "bool[]"
        }
      ],
      "name": "updateFrozenTokens",
      "outputs": [],
      "stateMutability": "nonpayable",
      "type": "function"
    },
    {
      "inputs": [
        {
          "internalType": "address",
          "name": "_token",
          "type": "address"
        },
        {
          "internalType": "bool",
          "name": "_isSupported",
          "type": "bool"
        }
      ],
      "name": "updateSupportToken",
      "outputs": [],
      "stateMutability": "nonpayable",
      "type": "function"
    },
    {
      "inputs": [
        {
          "internalType": "address[]",
          "name": "_tokens",
          "type": "address[]"
        },
        {
          "internalType": "bool[]",
          "name": "_isSupported",
          "type": "bool[]"
        }
      ],
      "name": "updateSupportTokens",
      "outputs": [],
      "stateMutability": "nonpayable",
      "type": "function"
    },
    {
      "inputs": [
        {
          "internalType": "address",
          "name": "_dex",
          "type": "address"
        },
        {
          "internalType": "bool",
          "name": "_isWhiteList",
          "type": "bool"
        }
      ],
      "name": "updateSwapWhiteList",
      "outputs": [],
      "stateMutability": "nonpayable",
      "type": "function"
    },
    {
      "inputs": [
        {
          "internalType": "address[]",
          "name": "_dexList",
          "type": "address[]"
        },
        {
          "internalType": "bool[]",
          "name": "_isWhiteList",
          "type": "bool[]"
        }
      ],
      "name": "updateSwapWhiteLists",
      "outputs": [],
      "stateMutability": "nonpayable",
      "type": "function"
    },
    {
      "stateMutability": "payable",
      "type": "receive"
    }
  ],
  "bytecode": "0x61012034620001ec57601f620042b838819003918201601f19168301916001600160401b03831184841017620001f15780849260a094604052833981010312620001ec576200004e8162000207565b6200005c6020830162000207565b6200006a6040840162000207565b916200008760806200007f6060870162000207565b950162000207565b9360018060a01b031980600154166001556000549033908216176000556040519460018060a01b0380958180968195823391167f8be0079c531659141344cd1fd0a4f28419497f9722a3daafe3b4186f6b6457e0600080a360ff19600354166003556001600455166080521660a0521660c0521660e0526101009216825261409b91826200021d833960805182818161067e0152818161087401528181610bb50152818161231d0152613286015260a051828181610fc1015281816120b9015281816123a7015281816125520152818161279a015281816128ba0152613190015260c0518281816107ad01528181612156015281816122c2015281816129080152613138015260e05182818161072b015281816120e00152818161229701528181612407015281816127df015281816130f3015281816133540152613a6701525181818161108e01528181612073015281816122f30152818161275b01526132580152f35b600080fd5b634e487b7160e01b600052604160045260246000fd5b51906001600160a01b0382168203620001ec5756fe60806040908082526004908136101561004f575b50361561004d576020606492519162461bcd60e51b8352820152600e60248201526d4e4f4e5f454d5054595f4441544160901b6044820152fd5b005b600090813560e01c90816301ffc9a71461165a5750806304b54b09146115f657806309b57906146115455780630ac8a01c1461147257806320d32fef14611411578063248a9ca3146113e55780632f2ff15d14611331578063303bc5e0146112f357806336568abe146112625780633f1ae0dc146111b15780633f4ba83a146110bd578063411557d114611079578063465b586614610ff05780634dede3de14610fac57806351ee886b14610f835780635290e6a614610ed55780635c975abb14610eb15780635e5a24a414610e885780635f80fcad14610e26578063676a553e14610dd15780636be4f04514610d7c578063715018a614610d16578063728ab34114610c0d5780637488df8914610be457806374ac611214610ba057806377519b7314610b8057806379ba509714610ab45780638456cb59146109fa5780638a0737a0146109bc5780638da5cb5b1461099457806391d148541461094d57806392eb626614610927578063a217fddf1461090c578063a8e1623814610826578063a932492f14610808578063aa3cdbc1146107dc578063ad5c464814610798578063bfd858081461075a578063c1fe3e4814610716578063c5faf7e61461064b578063ccb97240146105e1578063cd842088146105c5578063cea9d26f14610586578063d547741f14610548578063e30c39781461051f578063e4f2d3f71461046d578063f17835391461043d578063f2fde38b146103cd578063f6617d80146102bf5763fb457978036100135782346102bb5760203660031901126102bb5760209160ff9082906001600160a01b036102a86116c9565b1681526007855220541690519015158152f35b5080fd5b509190346103bc5760c03660031901126103bc5782602435926001600160401b0384116102bb57838301936044369101116102bb576102fc611788565b90610305611e2e565b61030d611e72565b6001600160a01b0361032661032187611f04565b611f31565b169161034b608061033688611f04565b0135608061034389611f19565b013590611cd6565b90833b156103c95761038493859283855180978195829463d505accf60e01b845260a435918d6084359260443591309033908901611ec8565b03925af19081156103c057506103a8575b50506103a46001928235612538565b5580f35b6103b190611ba3565b6103bc578238610395565b8280fd5b513d84823e3d90fd5b8480fd5b503461043a57602036600319011261043a576103e76116c9565b6103ef611c7e565b600180546001600160a01b0319166001600160a01b0392831690811790915582549091167f38d16b8cac22d99fc7c124b9cd0de2d3fa1faef420bfe791d8c362d765e227008380a380f35b80fd5b5090346102bb5760203660031901126102bb5760019061045b611e2e565b610463611e72565b6103a481356122e9565b5082346102bb5760203660031901126102bb576104886116c9565b610490611c7e565b60008051602061404683398151915291826000526002602052806000209160018060a01b0316918260005260205260ff816000205416156104cf578380f35b8260005260026020528060002082600052602052600020600160ff1982541617905533917f2f8788117e7eff1d82e926ec794901d17c78024a50270940304540a733656f0d600080a48180808380f35b5082346102bb57816003193601126102bb5760015490516001600160a01b039091168152602090f35b5091346103bc57806003193601126103bc57610583913561057e600161056c6116ae565b93838752600260205286200154611a74565b611c08565b80f35b503461043a57606036600319011261043a576105836105a36116c9565b6105ab6116ae565b6105b3611854565b604435916001600160a01b0316613cbe565b5082346102bb57816003193601126102bb5760209051600a8152f35b5082346102bb577fd71e43dae5ba4386463c0ef49b6f19fc82aea6a936b4242ef04b99730c0ed4c36020610614366116df565b9061061d611854565b6001600160a01b031680865260058352848620805460ff191660ff84151516179055935b519015158152a280f35b509190346103bc5760a03660031901126103bc578281359261066b611798565b90610674611e2e565b61067c611e72565b7f00000000000000000000000000000000000000000000000000000000000000006001600160a01b0316803b15610712576106e08493918492845195868094819363d505accf60e01b83528c608435918d6064359260243591309033908901611ec8565b03925af19081156103c057506106fe575b50506103a46001926122e9565b61070790611ba3565b6103bc5782386106f1565b8380fd5b5082346102bb57816003193601126102bb57517f00000000000000000000000000000000000000000000000000000000000000006001600160a01b03168152602090f35b5082346102bb5760203660031901126102bb5760209160ff9082906001600160a01b036107856116c9565b1681526006855220541690519015158152f35b5082346102bb57816003193601126102bb57517f00000000000000000000000000000000000000000000000000000000000000006001600160a01b03168152602090f35b5090346102bb576001906103a46107f2366117a8565b906107fb611e2e565b610803611e72565b613177565b5082346102bb57816003193601126102bb576020905162a4d28d8152f35b509190346103bc5760c03660031901126103bc5780359183610846611798565b60a435926001600160401b0384116103bc573660448501116103bc5761086a611e2e565b610872611e72565b7f00000000000000000000000000000000000000000000000000000000000000006001600160a01b0316803b156107125785849188836108d69686519788958694859363d505accf60e01b8552608435926064359260243591309033908901611ec8565b03925af19081156103c057506108f8575b50506001926103a491830190613177565b61090190611ba3565b6107125783386108e7565b5082346102bb57816003193601126102bb5751908152602090f35b506001826103a4610937366117a8565b90610940611e2e565b610948611e72565b612538565b509190346103bc57816003193601126103bc578160209361096c6116ae565b9235815260028552209060018060a01b0316600052825260ff81600020541690519015158152f35b5082346102bb57816003193601126102bb57905490516001600160a01b039091168152602090f35b5082346102bb5760203660031901126102bb5760209160ff9082906001600160a01b036109e76116c9565b1681526005855220541690519015158152f35b5082346102bb57816003193601126102bb5760207f62e78cea01bee320cd4e420270b5ea74000d11b0c9f74754ebdbfc544b05a2589160008051602061404683398151915284526002825280842033600052825260ff8160002054168015610a83575b610a6690611fa5565b610a6e611e2e565b600160ff19600354161760035551338152a180f35b50600080516020613fe6833981519152845260028252808420336000528252610a6660ff8260002054169050610a5d565b5091346103bc57826003193601126103bc57600154916001600160a01b03913383851603610b2b5750506bffffffffffffffffffffffff60a01b8092166001556000549133908316176000553391167f8be0079c531659141344cd1fd0a4f28419497f9722a3daafe3b4186f6b6457e0600080a380f35b906020608492519162461bcd60e51b8352820152602960248201527f4f776e61626c6532537465703a2063616c6c6572206973206e6f7420746865206044820152683732bb9037bbb732b960b91b6064820152fd5b5082346102bb57816003193601126102bb576020905164e8d4a510008152f35b5082346102bb57816003193601126102bb57517f00000000000000000000000000000000000000000000000000000000000000006001600160a01b03168152602090f35b5082346102bb57816003193601126102bb57602090516000805160206140468339815191528152f35b5082346102bb57610c1d3661173e565b9091610c2b949394336117da565b8015610d02575b610c3b90611fa5565b610c46828214611f45565b855b818110610c53578680f35b80610c65610321610ce993858a611f88565b7f20c5551228e0fa40b2fdd0279f6b45066a834897b5a8bf8b3c5f63520983c92f89610c9a610c9585898b611f88565b611f98565b92610ca4336117da565b8015610cee575b610cb490611fa5565b6001600160a01b031680825260066020908152918a9020805460ff191660ff86151516179055925b89519015158152a2611f79565b610c48565b50610cb4610cfb33611817565b9050610cab565b50610c3b610d0f33611817565b9050610c32565b503461043a578060031936011261043a57610d2f611c7e565b600180546001600160a01b0319908116909155600080549182168155906001600160a01b03167f8be0079c531659141344cd1fd0a4f28419497f9722a3daafe3b4186f6b6457e08280a380f35b5082346102bb5760203660031901126102bb5760209181610d9b6116c9565b91600080516020614046833981519152815260028552209060018060a01b0316600052825260ff81600020541690519015158152f35b5082346102bb5760203660031901126102bb5760209181610df06116c9565b91600080516020613fe6833981519152815260028552209060018060a01b0316600052825260ff81600020541690519015158152f35b5082346102bb5760203660031901126102bb57610e416116c9565b610e49611c7e565b600080516020613fe683398151915291826000526002602052806000209160018060a01b0316918260005260205260ff816000205416156104cf578380f35b5082346102bb57816003193601126102bb5760209051600080516020613fe68339815191528152f35b5082346102bb57816003193601126102bb5760209060ff6003541690519015158152f35b5082346102bb5760203660031901126102bb57610ef06116c9565b610ef8611c7e565b600080516020613fe683398151915291826000526002602052806000209160018060a01b0316918260005260205260ff816000205416610f36578380f35b826000526002602052806000208260005260205260002060ff19815416905533917ff6391f5c32d9c69d2a47ea670b442974b53935d1edc7fd64eb21e047a839171b600080a48180808380f35b5082346102bb57816003193601126102bb57602090516000805160206140068339815191528152f35b5082346102bb57816003193601126102bb57517f00000000000000000000000000000000000000000000000000000000000000006001600160a01b03168152602090f35b5082346102bb577f20c5551228e0fa40b2fdd0279f6b45066a834897b5a8bf8b3c5f63520983c92f6020611023366116df565b9061102d336117da565b8015611065575b61103d90611fa5565b6001600160a01b031680865260068352848620805460ff191660ff8415151617905593610641565b5061103d61107233611817565b9050611034565b5082346102bb57816003193601126102bb57517f00000000000000000000000000000000000000000000000000000000000000006001600160a01b03168152602090f35b5082346102bb57816003193601126102bb5760008051602061404683398151915282526020906002825280832033600052825260ff8160002054168015611180575b61110890611fa5565b6003549360ff85161561114857507f5db9ee0a495bf2e6ff9c91a7834c1ba4fdd244a5e8aa4e537bd38aeae4b073aa929360ff191660035551338152a180f35b82606492519162461bcd60e51b8352820152601460248201527314185d5cd8589b194e881b9bdd081c185d5cd95960621b6044820152fd5b50600080516020613fe683398151915283526002825280832033600052825261110860ff82600020541690506110ff565b5082346102bb576111c13661173e565b90916111ce949394611854565b6111d9828214611f45565b855b8181106111e6578680f35b806111f861032161125d93858a611f88565b7fd71e43dae5ba4386463c0ef49b6f19fc82aea6a936b4242ef04b99730c0ed4c389611228610c9585898b611f88565b92611231611854565b6001600160a01b031680825260056020908152918a9020805460ff191660ff8615151617905592610cdc565b6111db565b5090346102bb57826003193601126102bb5761127c6116ae565b90336001600160a01b0383160361129857906105839135611c08565b608490602085519162461bcd60e51b8352820152602f60248201527f416363657373436f6e74726f6c3a2063616e206f6e6c792072656e6f756e636560448201526e103937b632b9903337b91039b2b63360891b6064820152fd5b50913660031901126102bb57806103a46001923561130f6116ae565b90611318611e2e565b611320611e72565b61132981613c6b565b92909161200d565b509190346103bc57816003193601126103bc57359061134e6116ae565b90828452600260205261136660018286200154611a74565b826000526002602052806000209160018060a01b0316918260005260205260ff81600020541615611395578380f35b8260005260026020528060002082600052602052600020600160ff1982541617905533917f2f8788117e7eff1d82e926ec794901d17c78024a50270940304540a733656f0d600080a43880808380f35b509190346103bc5760203660031901126103bc5781602093600192358152600285522001549051908152f35b5082346102bb5760203660031901126102bb5761142c6116c9565b611434611c7e565b60008051602061404683398151915291826000526002602052806000209160018060a01b0316918260005260205260ff816000205416610f36578380f35b5090346102bb5760c03660031901126102bb578035926114906116ae565b611498611788565b906114a1611e2e565b6114a9611e72565b6114b286613c6b565b9390926001600160a01b03831690813b1561154157868392878a80946114fb97519788958694859363d505accf60e01b855260a435926084359260443591309033908901611ec8565b03925af1908115611538575061151c575b50906103a492916001959661200d565b9060019561152e6103a4959493611ba3565b955090919261150c565b513d88823e3d90fd5b8780fd5b5082346102bb576115553661173e565b9091611562949394611c7e565b61156d828214611f45565b855b81811061157a578680f35b8061158c6103216115f193858a611f88565b7f861d8711b4135ed7373a2d98a9c2ab4e46f87b080ffee97982f594167d7f5007896115bc610c9585898b611f88565b926115c5611c7e565b6001600160a01b031680825260076020908152918a9020805460ff191660ff8615151617905592610cdc565b61156f565b5082346102bb577f861d8711b4135ed7373a2d98a9c2ab4e46f87b080ffee97982f594167d7f50076020611629366116df565b90611632611c7e565b6001600160a01b031680865260078352848620805460ff191660ff8415151617905593610641565b905082346103bc5760203660031901126103bc573563ffffffff60e01b81168091036103bc5760209250637965db0b60e01b811490811561169d575b5015158152f35b6301ffc9a760e01b14905083611696565b602435906001600160a01b03821682036116c457565b600080fd5b600435906001600160a01b03821682036116c457565b60409060031901126116c4576004356001600160a01b03811681036116c4579060243580151581036116c45790565b9181601f840112156116c4578235916001600160401b0383116116c4576020808501948460051b0101116116c457565b60406003198201126116c4576001600160401b03916004358381116116c4578261176a9160040161170e565b939093926024359182116116c4576117849160040161170e565b9091565b6064359060ff821682036116c457565b6044359060ff821682036116c457565b9060406003198301126116c45760043591602435906001600160401b0382116116c45760448201116116c45760040190565b6001600160a01b031660009081527f5117d5be553acbc6e22fc2206afd422ed773ebd19fe3096bca48e139191036d9602052604090205460ff1690565b6001600160a01b031660009081527f94141351b80f1704310b66d100f6d2d855bc312ec9444238ab053b30a5b36021602052604090205460ff1690565b3360009081527f94141351b80f1704310b66d100f6d2d855bc312ec9444238ab053b30a5b36021602090815260408083205490929190600080516020613fe68339815191529060ff16156118a85750505050565b6118b133611d20565b908451906118be82611bcc565b60428252838201946060368737825115611a605760308653825190600191821015611a605790607860218501536041915b8183116119f2575050506119b0578461197e60486119a293604497985198899161196f8984019876020b1b1b2b9b9a1b7b73a3937b61d1030b1b1b7bab73a1604d1b8a52611946815180928d603789019101611b80565b8401917001034b99036b4b9b9b4b733903937b6329607d1b603784015251809386840190611b80565b01036028810189520187611be7565b5194859362461bcd60e51b8552600485015251809281602486015285850190611b80565b601f01601f19168101030190fd5b60648386519062461bcd60e51b825280600483015260248201527f537472696e67733a20686578206c656e67746820696e73756666696369656e746044820152fd5b909192600f81166010811015611a4c576f181899199a1a9b1b9c1cb0b131b232b360811b901a611a228587611cf9565b5360041c928015611a38576000190191906118ef565b634e487b7160e01b82526011600452602482fd5b634e487b7160e01b83526032600452602483fd5b634e487b7160e01b81526032600452602490fd5b6000818152602060028152604092838320338452825260ff848420541615611a9c5750505050565b611aa533611d20565b90845190611ab282611bcc565b60428252838201946060368737825115611a605760308653825190600191821015611a605790607860218501536041915b818311611b3a575050506119b0578461197e60486119a293604497985198899161196f8984019876020b1b1b2b9b9a1b7b73a3937b61d1030b1b1b7bab73a1604d1b8a52611946815180928d603789019101611b80565b909192600f81166010811015611a4c576f181899199a1a9b1b9c1cb0b131b232b360811b901a611b6a8587611cf9565b5360041c928015611a3857600019019190611ae3565b60005b838110611b935750506000910152565b8181015183820152602001611b83565b6001600160401b038111611bb657604052565b634e487b7160e01b600052604160045260246000fd5b608081019081106001600160401b03821117611bb657604052565b90601f801991011681019081106001600160401b03821117611bb657604052565b906000918083526002602052604083209160018060a01b03169182845260205260ff604084205416611c3957505050565b8083526002602052604083208284526020526040832060ff1981541690557ff6391f5c32d9c69d2a47ea670b442974b53935d1edc7fd64eb21e047a839171b339380a4565b6000546001600160a01b03163303611c9257565b606460405162461bcd60e51b815260206004820152602060248201527f4f776e61626c653a2063616c6c6572206973206e6f7420746865206f776e65726044820152fd5b91908201809211611ce357565b634e487b7160e01b600052601160045260246000fd5b908151811015611d0a570160200190565b634e487b7160e01b600052603260045260246000fd5b60405190606082018281106001600160401b03821117611bb657604052602a8252602082016040368237825115611d0a57603090538151600190811015611d0a57607860218401536029905b808211611dc0575050611d7c5790565b606460405162461bcd60e51b815260206004820152602060248201527f537472696e67733a20686578206c656e67746820696e73756666696369656e746044820152fd5b9091600f81166010811015611e19576f181899199a1a9b1b9c1cb0b131b232b360811b901a611def8486611cf9565b5360041c918015611e04576000190190611d6c565b60246000634e487b7160e01b81526011600452fd5b60246000634e487b7160e01b81526032600452fd5b60ff60035416611e3a57565b60405162461bcd60e51b815260206004820152601060248201526f14185d5cd8589b194e881c185d5cd95960821b6044820152606490fd5b600260045414611e83576002600455565b60405162461bcd60e51b815260206004820152601f60248201527f5265656e7472616e637947756172643a207265656e7472616e742063616c6c006044820152606490fd5b9360ff929897969360c0969260e087019a60018060a01b0380921688521660208701526040860152606085015216608083015260a08201520152565b80359060fe19813603018212156116c4570190565b60208101359060fe19813603018212156116c4570190565b356001600160a01b03811681036116c45790565b15611f4c57565b60405162461bcd60e51b8152602060048201526005602482015264475730303960d81b6044820152606490fd5b6000198114611ce35760010190565b9190811015611d0a5760051b0190565b3580151581036116c45790565b15611fac57565b60405162461bcd60e51b815260206004820152600560248201526423ab98189b60d91b6044820152606490fd5b15611fe057565b60405162461bcd60e51b8152602060048201526005602482015264047573031360dc1b6044820152606490fd5b9291906001600160a01b03908116600080516020614006833981519152811480156122be575b8015612293575b15612266576000918315158061225d575b61205490611fd9565b604080516311f9fbc960e21b81523360048201526024810188905290937f000000000000000000000000000000000000000000000000000000000000000083169160208160448185875af18015612253579088939291612222575b506120de878333877f000000000000000000000000000000000000000000000000000000000000000016613a9b565b7f0000000000000000000000000000000000000000000000000000000000000000841690858203612150575061211693503390613a9b565b8151948552602085015283015260608201527f5387c13e5c44e46bc579ca84b74276d8146592fbdee37ab69d207b2699edcc3660803392a2565b925050917f0000000000000000000000000000000000000000000000000000000000000000168084146121ce575b5090803b156102bb57818691600486518094819363dceb986d60e01b83525af180156121c4576121b0575b5050612116565b6121ba8291611ba3565b61043a57806121a9565b84513d84823e3d90fd5b6121da87303384613a9b565b803b156102bb578180916024875180948193632e1a7d4d60e01b83528c60048401525af18015612218571561217e5761221290611ba3565b3861217e565b85513d84823e3d90fd5b602080929394503d811161224c575b61223b8183611be7565b8101031261043a57908691386120af565b503d612231565b86513d84823e3d90fd5b5084151561204b565b60405162461bcd60e51b8152602060048201526005602482015264047573030360dc1b6044820152606490fd5b50817f000000000000000000000000000000000000000000000000000000000000000016811461203a565b50817f0000000000000000000000000000000000000000000000000000000000000000168114612033565b6001600160a01b037f00000000000000000000000000000000000000000000000000000000000000008116906123438383337f00000000000000000000000000000000000000000000000000000000000000008516613a9b565b6040908151632e1a7d4d60e01b815260009085600482015260208160248185895af180156121c45782906124d1575b61237c9150613c6b565b949092831515806124c8575b61239190611fd9565b813b156103bc57845163583b50c560e11b8082527f000000000000000000000000000000000000000000000000000000000000000083166001600160a01b031660048301523360248301526044820186905290848160648183885af180156124be576124ab575b50823b156107125785519081527f0000000000000000000000000000000000000000000000000000000000000000919091166001600160a01b031660048201523360248201526044810186905290829082908183816064810103925af180156121c457612497575b5050815193845260208401528201527f8c299cd4f7f63d8e8c62f86b7f2484af88683b6b3d575d383c46abd5153021cc60603392a2565b6124a18291611ba3565b61043a5780612460565b6124b790949194611ba3565b92386123f8565b87513d87823e3d90fd5b50851515612388565b506020813d82116124fc575b816124ea60209383611be7565b810103126102bb5761237c9051612372565b3d91506124dd565b1561250b57565b60405162461bcd60e51b815260206004820152600560248201526423ab98181960d91b6044820152606490fd5b60009291612550602061254a83611f04565b01611f31565b7f00000000000000000000000000000000000000000000000000000000000000006001600160a01b03908116911614806130ab575b61258e90612504565b61259a61032182611f04565b6001600160a01b036125ae61032184611f19565b166001600160a01b039091160361307e576001600160a01b036125d361032183611f04565b168452600560205260ff60408520541615613051576001600160a01b036125fc61032183611f04565b168452600660205260ff604085205416613024576000805160206140068339815191526001600160a01b0361263361032184611f04565b1614612ffa5761266d61264861032183611f04565b612663608061265685611f04565b0135608061034386611f19565b9030903390613a9b565b61267961032182611f04565b6001600160a01b0361268f602061254a85611f04565b6001600160a01b03909216911603612d9f5760806126ac82611f04565b01355b6126bb61032183611f19565b6001600160a01b036126d1602061254a86611f19565b6001600160a01b03909216911603612a4a5760806126ee83611f19565b01355b61272f61273561270086613c6b565b928180968593151580612a41575b61271790611fd9565b8181101580612a37575b61272a90611fd9565b61316a565b9361316a565b6040516311f9fbc960e21b81523360048201526024810187905290936001600160a01b037f000000000000000000000000000000000000000000000000000000000000000016916020816044818d875af18015612a2c576129fd575b506127c79082307f00000000000000000000000000000000000000000000000000000000000000006001600160a01b0316613a9b565b6127d5602061254a87611f19565b6001600160a01b037f0000000000000000000000000000000000000000000000000000000000000000811699911689036128ed57509061283a917f65964ba8ff7ac19e43c9a67f34d5a0855847a22f15d8d6144fc64153ae48ef0a9697983090613a9b565b806128b2575b5080612893575b5061286f61285761032183611f04565b9160806103438161286784611f04565b013592611f19565b604080519485526001600160a01b03929092166020850152908301523391606090a2565b6128ac9033306128a7602061254a87611f19565b613a9b565b38612847565b6128e79033307f00000000000000000000000000000000000000000000000000000000000000006001600160a01b0316613a9b565b38612840565b8098506128fe602061254a88611f19565b6001600160a01b037f00000000000000000000000000000000000000000000000000000000000000008116911681146129a9575b5090803b156102bb5760046040518094819363dceb986d60e01b83525af1801561299e57612986575b507f65964ba8ff7ac19e43c9a67f34d5a0855847a22f15d8d6144fc64153ae48ef0a9394955061283a565b6129908791611ba3565b61299a578561295b565b8580fd5b6040513d89823e3d90fd5b803b156102bb578190602460405180948193632e1a7d4d60e01b83528860048401525af180156129f2576129df575b8890612932565b6129eb90989198611ba3565b96386129d8565b6040513d8b823e3d90fd5b602090813d8311612a25575b612a138183611be7565b81010312612a215738612791565b8880fd5b503d612a09565b6040513d8c823e3d90fd5b5083871015612721565b5083151561270e565b612a5382611f19565b4260e082013510612d725760a081013515612d4557612a876001600160a01b03612a7f60208401611f31565b163090613e73565b6000805160206140068339815191526001600160a01b03612aa784611f31565b1603612c7c575b606082016001600160a01b03612ac382611f31565b168852600760205260ff60408920541615612c4f57612ae28891611f31565b6000805160206140068339815191526001600160a01b03612b0286611f31565b1603612c48576080840135905b60c0850135601e19863603018112156107125785018035906001600160401b0382116103c9576020019281360384136103c9578493826040519384928337810185815203925af1612b5e613c2c565b5015612c1b57612b869061272a306001600160a01b03612b8060208701611f31565b16613e73565b9060a08101358210612bee5760a0816080612baf60008051602061402683398151915294611f31565b91612bbc60208201611f31565b60405193600180871b03168452600180861b0316602084015233604084015201356060820152836080820152a16126f1565b60405162461bcd60e51b8152602060048201526005602482015264475730313560d81b6044820152606490fd5b60405162461bcd60e51b815260206004820152600560248201526411d5cc0c4d60da1b6044820152606490fd5b8190612b0f565b60405162461bcd60e51b8152602060048201526005602482015264475730313360d81b6044820152606490fd5b6001600160a01b03612c8d83611f31565b16612c9a60408401611f31565b604051636eb1769f60e11b81523060048201526001600160a01b038216602482015291602083604481845afa928315612a2c578a93612d0d575b5060808501358310612ce9575b505050612aae565b612cf692612cfe57613f9b565b388080612ce1565b612d088282613f23565b613f9b565b9092506020813d602011612d3d575b81612d2960209383611be7565b81010312612d3957519138612cd4565b8980fd5b3d9150612d1c565b60405162461bcd60e51b815260206004820152600560248201526423ab98189960d91b6044820152606490fd5b60405162461bcd60e51b8152602060048201526005602482015264475730313160d81b6044820152606490fd5b612da881611f04565b4260e082013510612d725760a0810135908115612d45576020810190612dd86001600160a01b03612a7f84611f31565b6000805160206140068339815191526001600160a01b03612df884611f31565b1603612f35575b606082016001600160a01b03612e1482611f31565b168952600760205260ff60408a20541615612c4f57612e338991611f31565b6000805160206140068339815191526001600160a01b03612e5386611f31565b1603612f2e576080840135905b60c0850135601e19863603018112156107125785018035906001600160401b0382116103c9576020019281360384136103c9578493826040519384928337810185815203925af1612eaf613c2c565b5015612c1b57612ece9061272a306001600160a01b03612b8087611f31565b928310612bee5760008051602061402683398151915291608082612efc612ef660a095611f31565b93611f31565b60405193600180871b03168452600180861b0316602084015233604084015201356060820152836080820152a16126af565b8190612e60565b6001600160a01b03612f4683611f31565b16612f5360408401611f31565b604051636eb1769f60e11b81523060048201526001600160a01b038216602482015291602083604481845afa928315612fef578b93612fb7575b5060808501358310612fa2575b505050612dff565b612faf92612cfe57613f9b565b388080612f9a565b9092506020813d602011612fe7575b81612fd360209383611be7565b81010312612fe357519138612f8d565b8a80fd5b3d9150612fc6565b6040513d8d823e3d90fd5b61301f613018608061300b84611f04565b0135608061034385611f19565b3414611fd9565b61266d565b60405162461bcd60e51b8152602060048201526005602482015264475730303560d81b6044820152606490fd5b60405162461bcd60e51b815260206004820152600560248201526411d5cc0c0d60da1b6044820152606490fd5b60405162461bcd60e51b8152602060048201526005602482015264475730303360d81b6044820152606490fd5b506000805160206140068339815191526001600160a01b036130d1602061254a85611f19565b16148015613127575b80612585575061258e6130f1602061254a84611f19565b7f00000000000000000000000000000000000000000000000000000000000000006001600160a01b039081169116149050612585565b50613136602061254a83611f19565b7f00000000000000000000000000000000000000000000000000000000000000006001600160a01b039081169116146130da565b91908203918211611ce357565b90600061318661032183611f04565b6001600160a01b037f000000000000000000000000000000000000000000000000000000000000000081169116811480613a55575b6131c490612504565b6131d2602061254a85611f04565b6001600160a01b036131e8602061254a87611f19565b166001600160a01b0390911603613a28576001600160a01b0361320f602061254a86611f04565b168252600560205260ff604083205416156139fb576001600160a01b0361323a602061254a86611f04565b168252600660205260ff6040832054166139ce576001600160a01b037f00000000000000000000000000000000000000000000000000000000000000008116906132ab908690839033907f000000000000000000000000000000000000000000000000000000000000000016613a9b565b604051632e1a7d4d60e01b81526004810186905260208160248187865af1801561370d57849061399a575b6132e09150613c6b565b929080151580613991575b6132f490611fd9565b823b156103c95760405163583b50c560e11b8082526001600160a01b039390931660048201523060248201526044810191909152848160648183875af1801561398657613973575b50813b15610712576040519081526001600160a01b037f0000000000000000000000000000000000000000000000000000000000000000166004820152306024820152604481019290925282908290606490829084905af1801561396857908291613954575b50506133b061032183611f04565b6001600160a01b036133c6602061254a86611f04565b6001600160a01b039092169116036137185760806133e383611f04565b0135905b6133f361032184611f19565b6001600160a01b03613409602061254a87611f19565b6001600160a01b03909216911603613487575061286f82613481602061254a60806134547f6ec52833f4092ffdb483b763237a9d61c0cab33ed4b4e4eb2fab7ccca32cb77898611f19565b0135935b61347c6134688461254a84611f04565b613472878a611cd6565b9033903090613a9b565b611f04565b92611cd6565b9161349181611f19565b924260e085013510612d725760a084013515612d45576134bf306001600160a01b03612b8060208801611f31565b906000805160206140068339815191526001600160a01b036134e087611f31565b1603613657575b606085016001600160a01b036134fc82611f31565b168252600760205260ff60408320541615612c4f5761351a90611f31565b6000805160206140068339815191526001600160a01b0361353a88611f31565b16036136515760808601355b60c0870135601e1988360301811215610712578701906001600160401b038235116107125781353603602083011361071257908392916040518281933560208201833735810185815203925af161359b613c2c565b5015612c1b576135bd9061272a306001600160a01b03612b8060208901611f31565b9060a08401358210612bee57613481602061254a61286f9460008051602061402683398151915260a08960806136137f6ec52833f4092ffdb483b763237a9d61c0cab33ed4b4e4eb2fab7ccca32cb7789c611f31565b9161361f888201611f31565b60405193600180871b03168452600180861b03168884015233604084015201356060820152836080820152a193613458565b81613546565b6001600160a01b0361366886611f31565b1661367560408701611f31565b604051636eb1769f60e11b81523060048201526001600160a01b038216602482015291602083604481845afa92831561370d5784936136d9575b50608088013583106136c4575b5050506134e7565b6136d192612cfe57613f9b565b3880806136bc565b9092506020813d602011613705575b816136f560209383611be7565b810103126116c4575191386136af565b3d91506136e8565b6040513d86823e3d90fd5b61372182611f04565b4260e082013510612d725760a0810135908115612d45576020810190613752306001600160a01b03612b8085611f31565b600080516020614006833981519152806001600160a01b0361377385611f31565b160361389e575b606083016001600160a01b0361378f82611f31565b168752600760205260ff60408820541615612c4f576137ad90611f31565b906001600160a01b036137bf85611f31565b16036138985760808301355b60c0840135601e1985360301811215611541578401908135916001600160401b038311612a21576020018236038113612a2157918893918493826040519384928337810185815203925af161381e613c2c565b5015612c1b5761383d9061272a306001600160a01b03612b8087611f31565b928310612bee5760008051602061402683398151915291608082613865612ef660a095611f31565b60405193600180871b03168452600180861b0316602084015233604084015201356060820152836080820152a1906133e7565b856137cb565b6001600160a01b036138af84611f31565b166138bc60408501611f31565b604051636eb1769f60e11b81523060048201526001600160a01b038216602482015291602083604481845afa9283156129f2578993613920575b506080860135831061390b575b50505061377a565b61391892612cfe57613f9b565b388080613903565b9092506020813d60201161394c575b8161393c60209383611be7565b810103126116c4575191386138f6565b3d915061392f565b61395d90611ba3565b61043a5780386133a2565b6040513d84823e3d90fd5b61397f90949194611ba3565b923861333c565b6040513d87823e3d90fd5b508315156132eb565b506020813d6020116139c6575b816139b460209383611be7565b81010312610712576132e090516132d6565b3d91506139a7565b60405162461bcd60e51b815260206004820152600560248201526408eae6060760db1b6044820152606490fd5b60405162461bcd60e51b8152602060048201526005602482015264475730303760d81b6044820152606490fd5b60405162461bcd60e51b815260206004820152600560248201526423ab98181b60d91b6044820152606490fd5b506131c4613a6561032185611f19565b7f00000000000000000000000000000000000000000000000000000000000000006001600160a01b0390811691161490506131bb565b9291906001600160a01b03908181163003613abd5750613abb9316613cbe565b565b919080939416906040928351946370a0823160e01b908187528316918260048801526020938488602481895afa978815613c2157600098613bf1575b50606485926000928951916323b872dd60e01b8352600483015260248201528a604482015282885af13d15601f3d1160016000511416171615613bad57906024839286519586938492835260048301525afa928315613ba35750600092613b72575b5050613abb9291613b6b9161316a565b1115613f06565b81819392933d8311613b9c575b613b898183611be7565b8101031261043a57505181613b6b613b5b565b503d613b7f565b513d6000823e3d90fd5b845162461bcd60e51b815260048101849052601960248201527f5452414e534645525f46524f4d5f4641494c45443131313131000000000000006044820152606490fd5b90978582813d8311613c1a575b613c088183611be7565b8101031261043a575051966064613af9565b503d613bfe565b87513d6000823e3d90fd5b3d15613c66573d906001600160401b038211611bb65760405191613c5a601f8201601f191660200184611be7565b82523d6000602084013e565b606090565b9062a4d28d91828102928184041490151715611ce35764e8d4a51000916402540be400928391040491808302908382041483151715611ce35764174876e800830290808204600a1490151715611ce35790565b9082613cc957505050565b6001600160a01b039182166000805160206140068339815191528103613d625750905060405160208101908082106001600160401b03831117611bb6576000938493848094938194604052525af1613d1f613c2c565b5015613d2757565b60405162461bcd60e51b815260206004820152601360248201527211551217d514905394d1915497d19052531151606a1b6044820152606490fd5b6040918251936370a0823160e01b908186528216908160048701526020928387602481885afa968715613e6857600097613e38575b5060006044859288519063a9059cbb60e01b825260048201528a602482015282885af13d15601f3d1160016000511416171615613e0257906024839286519586938492835260048301525afa928315613ba35750600092613b72575050613abb9291613b6b9161316a565b845162461bcd60e51b815260048101849052600f60248201526e1514905394d1915497d19052531151608a1b6044820152606490fd5b90968482813d8311613e61575b613e4f8183611be7565b8101031261043a575051956000613d97565b503d613e45565b86513d6000823e3d90fd5b6001600160a01b03908116906000805160206140068339815191528203613e9a5750503190565b6040516370a0823160e01b815292166004830152602090829060249082905afa908115613efa57600091613ecc575090565b906020823d8211613ef2575b81613ee560209383611be7565b8101031261043a57505190565b3d9150613ed8565b6040513d6000823e3d90fd5b15613f0d57565b634e487b7160e01b600052600160045260246000fd5b6044602092600080936040519263095ea7b360e01b8452600484015281602484015260018060a01b03165af13d15601f3d1160016000511416171615613f6557565b60405162461bcd60e51b815260206004820152600e60248201526d1054141493d59157d1905253115160921b6044820152606490fd5b60405163095ea7b360e01b8152600481019290925260001960248301526020916000916044919083906001600160a01b03165af13d15601f3d1160016000511416171615613f655756fed1473398bb66596de5d1ea1fc8e303ff2ac23265adc9144b1b52065dc4f0934b000000000000000000000000eeeeeeeeeeeeeeeeeeeeeeeeeeeeeeeeeeeeeeee9f70203000dc5ad49aeaa844d92d2a87451c6cf2d727afb7acce473707615624dc882e12f5b8cf973047e20ece7167f89c4c0d401afaebea3031a0b4acb97489a26469706673582212201d9cd4c34ff1b1a83091258ae623a454bad1a5a7b2cbaf56fa3d4aca7ea5d28c64736f6c63430008110033",
  "linkReferences": {},
  "deployedLinkReferences": {}
}