{
  "_format": "hh-sol-artifact-1",
  "contractName": "GombocFeeDistributor",
  "sourceName": "contracts/feeDistributor/GombocFeeDistributor.sol",
  "abi": [
    {
      "inputs": [],
      "stateMutability": "nonpayable",
      "type": "constructor"
    },
    {
      "anonymous": false,
      "inputs": [
        {
          "indexed": false,
          "internalType": "uint256",
          "name": "time",
          "type": "uint256"
        },
        {
          "indexed": false,
          "internalType": "uint256",
          "name": "tokens",
          "type": "uint256"
        }
      ],
      "name": "CheckpointToken",
      "type": "event"
    },
    {
      "anonymous": false,
      "inputs": [
        {
          "indexed": true,
          "internalType": "address",
          "name": "gomboc",
          "type": "address"
        },
        {
          "indexed": true,
          "internalType": "address",
          "name": "recipient",
          "type": "address"
        },
        {
          "indexed": false,
          "internalType": "uint256",
          "name": "amount",
          "type": "uint256"
        },
        {
          "indexed": false,
          "internalType": "uint256",
          "name": "claimEpoch",
          "type": "uint256"
        },
        {
          "indexed": false,
          "internalType": "uint256",
          "name": "maxEpoch",
          "type": "uint256"
        }
      ],
      "name": "Claimed",
      "type": "event"
    },
    {
      "anonymous": false,
      "inputs": [
        {
          "indexed": false,
          "internalType": "uint8",
          "name": "version",
          "type": "uint8"
        }
      ],
      "name": "Initialized",
      "type": "event"
    },
    {
      "anonymous": false,
      "inputs": [
        {
          "indexed": true,
          "internalType": "address",
          "name": "previousOwner",
          "type": "address"
        },
        {
          "indexed": true,
          "internalType": "address",
          "name": "newOwner",
          "type": "address"
        }
      ],
      "name": "OwnershipTransferStarted",
      "type": "event"
    },
    {
      "anonymous": false,
      "inputs": [
        {
          "indexed": true,
          "internalType": "address",
          "name": "previousOwner",
          "type": "address"
        },
        {
          "indexed": true,
          "internalType": "address",
          "name": "newOwner",
          "type": "address"
        }
      ],
      "name": "OwnershipTransferred",
      "type": "event"
    },
    {
      "anonymous": false,
      "inputs": [
        {
          "indexed": false,
          "internalType": "address",
          "name": "account",
          "type": "address"
        }
      ],
      "name": "Paused",
      "type": "event"
    },
    {
      "anonymous": false,
      "inputs": [
        {
          "indexed": true,
          "internalType": "address",
          "name": "token",
          "type": "address"
        },
        {
          "indexed": true,
          "internalType": "address",
          "name": "emergencyReturn",
          "type": "address"
        },
        {
          "indexed": false,
          "internalType": "uint256",
          "name": "amount",
          "type": "uint256"
        }
      ],
      "name": "RecoverBalance",
      "type": "event"
    },
    {
      "anonymous": false,
      "inputs": [
        {
          "indexed": false,
          "internalType": "bool",
          "name": "toggleFlag",
          "type": "bool"
        }
      ],
      "name": "ToggleAllowCheckpointToken",
      "type": "event"
    },
    {
      "anonymous": false,
      "inputs": [
        {
          "indexed": false,
          "internalType": "address",
          "name": "account",
          "type": "address"
        }
      ],
      "name": "Unpaused",
      "type": "event"
    },
    {
      "inputs": [],
      "name": "acceptOwnership",
      "outputs": [],
      "stateMutability": "nonpayable",
      "type": "function"
    },
    {
      "inputs": [
        {
          "internalType": "uint256",
          "name": "amount",
          "type": "uint256"
        }
      ],
      "name": "burn",
      "outputs": [
        {
          "internalType": "bool",
          "name": "",
          "type": "bool"
        }
      ],
      "stateMutability": "nonpayable",
      "type": "function"
    },
    {
      "inputs": [],
      "name": "canCheckpointToken",
      "outputs": [
        {
          "internalType": "bool",
          "name": "",
          "type": "bool"
        }
      ],
      "stateMutability": "view",
      "type": "function"
    },
    {
      "inputs": [],
      "name": "checkpointToken",
      "outputs": [],
      "stateMutability": "nonpayable",
      "type": "function"
    },
    {
      "inputs": [
        {
          "internalType": "address",
          "name": "gomboc",
          "type": "address"
        },
        {
          "internalType": "address",
          "name": "_addr",
          "type": "address"
        }
      ],
      "name": "claim",
      "outputs": [
        {
          "internalType": "uint256",
          "name": "",
          "type": "uint256"
        }
      ],
      "stateMutability": "nonpayable",
      "type": "function"
    },
    {
      "inputs": [
        {
          "internalType": "address",
          "name": "gomboc",
          "type": "address"
        },
        {
          "internalType": "address[]",
          "name": "_receivers",
          "type": "address[]"
        }
      ],
      "name": "claimMany",
      "outputs": [
        {
          "internalType": "uint256",
          "name": "",
          "type": "uint256"
        }
      ],
      "stateMutability": "nonpayable",
      "type": "function"
    },
    {
      "inputs": [
        {
          "internalType": "address[]",
          "name": "gombocList",
          "type": "address[]"
        },
        {
          "internalType": "address",
          "name": "receiver",
          "type": "address"
        }
      ],
      "name": "claimManyGomboc",
      "outputs": [
        {
          "internalType": "uint256",
          "name": "",
          "type": "uint256"
        }
      ],
      "stateMutability": "nonpayable",
      "type": "function"
    },
    {
      "inputs": [],
      "name": "emergencyReturn",
      "outputs": [
        {
          "internalType": "address",
          "name": "",
          "type": "address"
        }
      ],
      "stateMutability": "view",
      "type": "function"
    },
    {
      "inputs": [
        {
          "internalType": "address",
          "name": "_gomboc",
          "type": "address"
        },
        {
          "internalType": "uint256",
          "name": "_weekCursor",
          "type": "uint256"
        }
      ],
      "name": "gombocBalancePreWeek",
      "outputs": [
        {
          "internalType": "uint256",
          "name": "",
          "type": "uint256"
        }
      ],
      "stateMutability": "view",
      "type": "function"
    },
    {
      "inputs": [],
      "name": "gombocController",
      "outputs": [
        {
          "internalType": "address",
          "name": "",
          "type": "address"
        }
      ],
      "stateMutability": "view",
      "type": "function"
    },
    {
      "inputs": [
        {
          "internalType": "address",
          "name": "_gombocController",
          "type": "address"
        },
        {
          "internalType": "uint256",
          "name": "_startTime",
          "type": "uint256"
        },
        {
          "internalType": "address",
          "name": "_token",
          "type": "address"
        },
        {
          "internalType": "address",
          "name": "_stHOPE",
          "type": "address"
        },
        {
          "internalType": "address",
          "name": "_emergencyReturn",
          "type": "address"
        }
      ],
      "name": "initialize",
      "outputs": [],
      "stateMutability": "nonpayable",
      "type": "function"
    },
    {
      "inputs": [],
      "name": "lastTokenTime",
      "outputs": [
        {
          "internalType": "uint256",
          "name": "",
          "type": "uint256"
        }
      ],
      "stateMutability": "view",
      "type": "function"
    },
    {
      "inputs": [],
      "name": "owner",
      "outputs": [
        {
          "internalType": "address",
          "name": "",
          "type": "address"
        }
      ],
      "stateMutability": "view",
      "type": "function"
    },
    {
      "inputs": [],
      "name": "pause",
      "outputs": [],
      "stateMutability": "nonpayable",
      "type": "function"
    },
    {
      "inputs": [],
      "name": "paused",
      "outputs": [
        {
          "internalType": "bool",
          "name": "",
          "type": "bool"
        }
      ],
      "stateMutability": "view",
      "type": "function"
    },
    {
      "inputs": [],
      "name": "pendingOwner",
      "outputs": [
        {
          "internalType": "address",
          "name": "",
          "type": "address"
        }
      ],
      "stateMutability": "view",
      "type": "function"
    },
    {
      "inputs": [],
      "name": "recoverBalance",
      "outputs": [
        {
          "internalType": "bool",
          "name": "",
          "type": "bool"
        }
      ],
      "stateMutability": "nonpayable",
      "type": "function"
    },
    {
      "inputs": [],
      "name": "renounceOwnership",
      "outputs": [],
      "stateMutability": "nonpayable",
      "type": "function"
    },
    {
      "inputs": [
        {
          "internalType": "address",
          "name": "_addr",
          "type": "address"
        }
      ],
      "name": "setEmergencyReturn",
      "outputs": [],
      "stateMutability": "nonpayable",
      "type": "function"
    },
    {
      "inputs": [],
      "name": "stHOPE",
      "outputs": [
        {
          "internalType": "address",
          "name": "",
          "type": "address"
        }
      ],
      "stateMutability": "view",
      "type": "function"
    },
    {
      "inputs": [],
      "name": "startTime",
      "outputs": [
        {
          "internalType": "uint256",
          "name": "",
          "type": "uint256"
        }
      ],
      "stateMutability": "view",
      "type": "function"
    },
    {
      "inputs": [],
      "name": "timeCursor",
      "outputs": [
        {
          "internalType": "uint256",
          "name": "",
          "type": "uint256"
        }
      ],
      "stateMutability": "view",
      "type": "function"
    },
    {
      "inputs": [
        {
          "internalType": "address",
          "name": "",
          "type": "address"
        },
        {
          "internalType": "address",
          "name": "",
          "type": "address"
        }
      ],
      "name": "timeCursorOf",
      "outputs": [
        {
          "internalType": "uint256",
          "name": "",
          "type": "uint256"
        }
      ],
      "stateMutability": "view",
      "type": "function"
    },
    {
      "inputs": [],
      "name": "toggleAllowCheckpointToken",
      "outputs": [],
      "stateMutability": "nonpayable",
      "type": "function"
    },
    {
      "inputs": [],
      "name": "token",
      "outputs": [
        {
          "internalType": "address",
          "name": "",
          "type": "address"
        }
      ],
      "stateMutability": "view",
      "type": "function"
    },
    {
      "inputs": [],
      "name": "tokenLastBalance",
      "outputs": [
        {
          "internalType": "uint256",
          "name": "",
          "type": "uint256"
        }
      ],
      "stateMutability": "view",
      "type": "function"
    },
    {
      "inputs": [
        {
          "internalType": "uint256",
          "name": "",
          "type": "uint256"
        }
      ],
      "name": "tokensPerWeek",
      "outputs": [
        {
          "internalType": "uint256",
          "name": "",
          "type": "uint256"
        }
      ],
      "stateMutability": "view",
      "type": "function"
    },
    {
      "inputs": [
        {
          "internalType": "address",
          "name": "newOwner",
          "type": "address"
        }
      ],
      "name": "transferOwnership",
      "outputs": [],
      "stateMutability": "nonpayable",
      "type": "function"
    },
    {
      "inputs": [],
      "name": "unpause",
      "outputs": [],
      "stateMutability": "nonpayable",
      "type": "function"
    },
    {
      "inputs": [
        {
          "internalType": "address",
          "name": "",
          "type": "address"
        },
        {
          "internalType": "address",
          "name": "",
          "type": "address"
        }
      ],
      "name": "userEpochOf",
      "outputs": [
        {
          "internalType": "uint256",
          "name": "",
          "type": "uint256"
        }
      ],
      "stateMutability": "view",
      "type": "function"
    },
    {
      "inputs": [
        {
          "internalType": "address",
          "name": "_gomboc",
          "type": "address"
        },
        {
          "internalType": "address",
          "name": "_user",
          "type": "address"
        },
        {
          "internalType": "uint256",
          "name": "_timestamp",
          "type": "uint256"
        }
      ],
      "name": "veForAt",
      "outputs": [
        {
          "internalType": "uint256",
          "name": "",
          "type": "uint256"
        }
      ],
      "stateMutability": "view",
      "type": "function"
    },
    {
      "inputs": [
        {
          "internalType": "address",
          "name": "_gomboc",
          "type": "address"
        },
        {
          "internalType": "address",
          "name": "_user",
          "type": "address"
        },
        {
          "internalType": "uint256",
          "name": "_timestamp",
          "type": "uint256"
        }
      ],
      "name": "vePrecentageForAt",
      "outputs": [
        {
          "internalType": "uint256",
          "name": "",
          "type": "uint256"
        }
      ],
      "stateMutability": "view",
      "type": "function"
    }
  ],
  "bytecode": "0x608080604052346100c1576000549060ff8260081c1661006f575060ff80821610610034575b6040516122bb90816100c78239f35b60ff90811916176000557f7f26b83ff96e1f2b6a682f133852f6798a09c465da95921460cefb3847402498602060405160ff8152a138610025565b62461bcd60e51b815260206004820152602760248201527f496e697469616c697a61626c653a20636f6e747261637420697320696e697469604482015266616c697a696e6760c81b6064820152608490fd5b600080fdfe608060408181526004918236101561001657600080fd5b600092833560e01c918263071cb5ad14611311575081630cc672e4146112ea578163171acc831461118357816321c0b3421461108757816338b74b471461103e5781633f4ba83a14610fa857816342966c6814610e585781635a4b8c1d14610e2f5781635c975abb14610e0b578163715018a614610da4578163745b97bd14610d7b57816378e9792514610d5c57816379ba509714610cd65781638030206014610b795781638456cb5914610b1e5781638721b78514610ab45781638736659b14610a95578163899519be14610a6d5781638da5cb5b14610a445781638ec8468a14610a255781638f4ddcfd14610896578163939ea66b14610877578163a01ef25f14610694578163a143e2da1461066b578163b1850e941461058a578163b26bb8c41461054a578163ba74da0b146103ed578163bee5dc321461034a578163dca251701461024957508063e30c397814610221578063f2fde38b146101b05763fc0c546a1461018557600080fd5b346101ac57816003193601126101ac5760cf5490516001600160a01b039091168152602090f35b5080fd5b823461021e57602036600319011261021e576101ca611357565b6101d26114d9565b606580546001600160a01b0319166001600160a01b039283169081179091556033549091167f38d16b8cac22d99fc7c124b9cd0de2d3fa1faef420bfe791d8c362d765e227008380a380f35b80fd5b50346101ac57816003193601126101ac5760655490516001600160a01b039091168152602090f35b82843461021e578160031936011261021e57610263611357565b9262093a809182602435048381029381850414901517156103385760d25484516319ab092360e11b81526001600160a01b0396871693810193845260208481018690529690938792859216908290819060400103915afa91821561032c5790849181936102f1575b509081670de0b6b3a7640000946102e994935260ce875220546115d0565b049051908152f35b86809294508193503d8311610325575b61030b81836113ef565b810103126101ac5751908390670de0b6b3a76400006102cb565b503d610301565b508351903d90823e3d90fd5b6011602492634e487b7160e01b835252fd5b919050346103e957826003193601126103e9576033546001600160a01b0316331480156103ae575b156103835782610380611603565b80f35b906020606492519162461bcd60e51b83528201526005602482015264464430303160d81b6044820152fd5b5060ff60d25460a01c168015610372575060cd546201518081018091116103d6574211610372565b634e487b7160e01b845260118352602484fd5b8280fd5b82843461021e578160031936011261021e57823567ffffffffffffffff81116101ac5761041d9036908501611411565b91610426611372565b9061042f6119ef565b60cd549460ff60d25460a01c1680610522575b610511575b62093a808096048681029681880414901517156104fe5750825b84518110156104f1576001600160a01b0361047c828761207c565b511680156104b957868461048f92611a58565b806104a4575b5061049f906115c1565b610461565b6104b29061049f9295611591565b9390610495565b5050919250602093505b82806104d2575b505051908152f35b6104ea916104e28260d1546115b4565b60d1556120be565b83826104ca565b50919250602093506104c3565b634e487b7160e01b845260119052602483fd5b945061051b611603565b4294610447565b50620151808601808711610537574211610442565b634e487b7160e01b855260118252602485fd5b833461021e57602036600319011261021e57610564611357565b61056c6114d9565b60018060a01b03166001600160601b0360a01b60d354161760d35580f35b82843461021e578060031936011261021e576105a46114d9565b60cf5482516370a0823160e01b815230948101949094526020936001600160a01b03918216908581602481855afa93841561066057809461062c575b5050826105f2918360d354169061220c565b7fd0a849a4b4c83176fa52813aff6ed8aa60f8756be6d3cc5cdf086614e3db6af4848260cf54169260d35416938551908152a35160018152f35b909193508582813d8311610659575b61064581836113ef565b8101031261021e575051916105f2866105e0565b503d61063b565b8551903d90823e3d90fd5b5050346101ac57816003193601126101ac5760d05490516001600160a01b039091168152602090f35b9050346103e95760a03660031901126103e9576106af611357565b906044356001600160a01b0381811691829003610873576064359381851680950361086f576084359382851680950361086b5787549560ff8760081c16159687809861085e575b8015610847575b156107ed5760ff1981166001178a55876107dc575b5061072c60ff8a5460081c1661072781611531565b611531565b61073533611488565b62093a809182602435048381029381850414901517156107c957508160c9558160cd556001600160601b0360a01b948560cf54161760cf558460d054161760d05560ca55168160d254161760d25560d354161760d355610793575080f35b60207f7f26b83ff96e1f2b6a682f133852f6798a09c465da95921460cefb38474024989161ff001984541684555160018152a180f35b634e487b7160e01b8a5260119052602489fd5b61ffff191661010117895538610712565b885162461bcd60e51b8152602081850152602e60248201527f496e697469616c697a61626c653a20636f6e747261637420697320616c72656160448201526d191e481a5b9a5d1a585b1a5e995960921b6064820152608490fd5b50303b1580156106fd5750600160ff8216146106fd565b50600160ff8216106106f6565b8780fd5b8680fd5b8580fd5b5050346101ac57816003193601126101ac5760209060cd549051908152f35b82843461021e576108a636611388565b9062093a80939293809204828102928184041490151715610a1257845163171acc8360e01b81526001600160a01b0380861688830190815292166020838101919091526040830184905290939291849081906060010381305afa928315610a085790859183946109ce575b5060d254825163c3a6ca1360e01b81526001600160a01b03968716898201908152602081019390935294958592911690829081906040015b03915afa91821561032c57819261099f575b50670de0b6b3a76400009283810293818504149015171561098c57602084610985858551906115e3565b9051908152f35b634e487b7160e01b815260118552602490fd5b6109c0919250843d86116109c7575b6109b881836113ef565b81019061188d565b908561095b565b503d6109ae565b91509192506020813d8211610a00575b816109eb602093836113ef565b810103126103e9575191908490610949610911565b3d91506109de565b85513d84823e3d90fd5b634e487b7160e01b835260118652602483fd5b5050346101ac57816003193601126101ac5760209060d1549051908152f35b5050346101ac57816003193601126101ac5760335490516001600160a01b039091168152602090f35b9050346103e95760203660031901126103e957602092829135815260ce845220549051908152f35b5050346101ac57816003193601126101ac5760209060ca549051908152f35b5050346101ac57816003193601126101ac5760207fdbe6ac1081ebd8e648718341126659456f4009fcadfe1c23f66f5e61522610b291610af26114d9565b60d2805460ff60a01b19811660a091821c60ff16159182901b60ff60a01b16179091559051908152a180f35b5050346101ac57816003193601126101ac5760207f62e78cea01bee320cd4e420270b5ea74000d11b0c9f74754ebdbfc544b05a25891610b5c6114d9565b610b646119ef565b600160ff19609754161760975551338152a180f35b8383346101ac57806003193601126101ac57610b93611357565b9160243567ffffffffffffffff81116101ac57610bb39036908601611411565b92610bbc6119ef565b60cd549460ff60d25460a01c1680610cae575b610c9d575b62093a80809604868102968188041490151715610c8a5750815b8451811015610c7d576001600160a01b03610c09828761207c565b51168015610c5357610c1c878285611a58565b9081610c33575b5050610c2e906115c1565b610bee565b90610c2e9294610c4682610c4b946120be565b611591565b929087610c23565b5050509150602092505b81610c69575b51908152f35b610c758260d1546115b4565b60d155610c63565b5050915060209250610c5d565b634e487b7160e01b835260119052602482fd5b9450610ca7611603565b4294610bd4565b50620151808601808711610cc3574211610bcf565b634e487b7160e01b845260118252602484fd5b919050346103e957826003193601126103e957606554336001600160a01b0390911603610d07578261038033611488565b906020608492519162461bcd60e51b8352820152602960248201527f4f776e61626c6532537465703a2063616c6c6572206973206e6f7420746865206044820152683732bb9037bbb732b960b91b6064820152fd5b5050346101ac57816003193601126101ac5760209060c9549051908152f35b5050346101ac57816003193601126101ac5760d25490516001600160a01b039091168152602090f35b833461021e578060031936011261021e57610dbd6114d9565b606580546001600160a01b031990811690915560338054918216905581906001600160a01b03167f8be0079c531659141344cd1fd0a4f28419497f9722a3daafe3b4186f6b6457e08280a380f35b5050346101ac57816003193601126101ac5760209060ff6097541690519015158152f35b5050346101ac57816003193601126101ac5760d35490516001600160a01b039091168152602090f35b82843461021e57602092836003193601126101ac578035610e776119ef565b8481610e86575b845160018152f35b60cf5485516323b872dd60e01b81523385820190815230602082015260408101949094529283916001600160a01b03169082908790829060600103925af1908115610f9e578391610f71575b5015610f375760ff60d25460a01c169182610f05575b5050610ef8575b82808084610e7e565b610f00611603565b610eef565b90915060cd5491620151808301809311610f2457505042118380610ee8565b634e487b7160e01b825260119052602490fd5b825162461bcd60e51b815290810184905260146024820152731514905394d1915497d19493d357d1905253115160621b6044820152606490fd5b610f919150853d8711610f97575b610f8981836113ef565b8101906120a6565b85610ed2565b503d610f7f565b84513d85823e3d90fd5b9050346103e957826003193601126103e957610fc26114d9565b6097549060ff821615611004575060ff1916609755513381527f5db9ee0a495bf2e6ff9c91a7834c1ba4fdd244a5e8aa4e537bd38aeae4b073aa90602090a180f35b606490602084519162461bcd60e51b8352820152601460248201527314185d5cd8589b194e881b9bdd081c185d5cd95960621b6044820152fd5b5050346101ac57806003193601126101ac578060209261105c611357565b611064611372565b6001600160a01b03918216835260cb865283832091168252845220549051908152f35b8383346101ac57806003193601126101ac576110a1611357565b916110aa611372565b926110b36119ef565b6001600160a01b0384161561117b575b60cd549160ff60d25460a01c1680611153575b611142575b62093a8080930483810293818504149015171561112f5760208585611101868387611a58565b91828061111057505051908152f35b611119916120be565b6111258260d1546115b4565b60d15583826104ca565b634e487b7160e01b815260118652602490fd5b915061114c611603565b42916110db565b506201518083018084116111685742116110d6565b634e487b7160e01b825260118752602482fd5b3393506110c3565b82843461021e5761119336611388565b60d254855163362985ab60e01b81526001600160a01b03808516828a019081528187166020828101919091529994969495939091169291908990829081906040010381865afa9081156112e05787916112b1575b50906111f984939287836080976118dc565b885163c06cd02b60e01b81526001600160a01b03928316968101968752939091166020860152604085015290928391908290819060600103915afa908115610f9e5761126c9291611266918591611283575b506112608151938789840151930151906115b4565b906115d0565b906115b4565b90811561127b57509051908152f35b905090610c63565b6112a4915060803d81116112aa575b61129c81836113ef565b810190611851565b8761124b565b503d611292565b90508881813d83116112d9575b6112c881836113ef565b8101031261086f57516111f96111e7565b503d6112be565b88513d89823e3d90fd5b5050346101ac57816003193601126101ac5760209060ff60d25460a01c1690519015158152f35b849084346103e957806003193601126103e95760209261132f611357565b611337611372565b6001600160a01b03918216835260cc865283832091168252845220548152f35b600435906001600160a01b038216820361136d57565b600080fd5b602435906001600160a01b038216820361136d57565b606090600319011261136d576001600160a01b0390600435828116810361136d5791602435908116810361136d579060443590565b6080810190811067ffffffffffffffff8211176113d957604052565b634e487b7160e01b600052604160045260246000fd5b90601f8019910116810190811067ffffffffffffffff8211176113d957604052565b9080601f8301121561136d5781359067ffffffffffffffff82116113d9578160051b60405193602093611446858401876113ef565b8552838086019282010192831161136d578301905b828210611469575050505090565b81356001600160a01b038116810361136d57815290830190830161145b565b6001600160601b0360a01b90816065541660655560335460018060a01b038092168093821617603355167f8be0079c531659141344cd1fd0a4f28419497f9722a3daafe3b4186f6b6457e0600080a3565b6033546001600160a01b031633036114ed57565b606460405162461bcd60e51b815260206004820152602060248201527f4f776e61626c653a2063616c6c6572206973206e6f7420746865206f776e65726044820152fd5b1561153857565b60405162461bcd60e51b815260206004820152602b60248201527f496e697469616c697a61626c653a20636f6e7472616374206973206e6f74206960448201526a6e697469616c697a696e6760a81b6064820152608490fd5b9190820180921161159e57565b634e487b7160e01b600052601160045260246000fd5b9190820391821161159e57565b600019811461159e5760010190565b8181029291811591840414171561159e57565b81156115ed570490565b634e487b7160e01b600052601260045260246000fd5b60018060a01b0360cf541690604080516370a0823160e01b815280806004953087830152602093849160249384915afa91821561184657600092611817575b5061164f60d154836115b4565b9160d15560cd5461166081426115b4565b4260cd5562093a8097888304898102908082048b149015171561180357936000915b601483106116c1575b5050505050507fce749457b74e10f393f2c6b1ce4261b78791376db5a3f501477a809f03f500d6939450825191428352820152a1565b8a8601918287116117f05782421060001461177457505050507fce749457b74e10f393f2c6b1ce4261b78791376db5a3f501477a809f03f500d696975080158061176b575b1561173257505060005260ce825282600020611723828254611591565b90555b8493388080808061168b565b61174861174261174d93426115b4565b856115d0565b6115e3565b9060005260ce835261176484600020918254611591565b9055611726565b50814214611706565b919484809792949715806117e7575b156117b357505060005260ce8752876000206117a0878254611591565b90555b6117ad84956115c1565b91611682565b6117486117c36117c993896115b4565b8a6115d0565b9060005260ce88526117e089600020918254611591565b90556117a3565b50818714611783565b634e487b7160e01b600090815260118352fd5b84601183634e487b7160e01b600052526000fd5b90918382813d831161183f575b61182e81836113ef565b8101031261021e5750519038611642565b503d611824565b84513d6000823e3d90fd5b9081608091031261136d5760606040519161186b836113bd565b8051835260208101516020840152604081015160408401520151606082015290565b9081604091031261136d5760405190604082019082821067ffffffffffffffff8311176113d957602091604052805183520151602082015290565b6001600160ff1b03811461159e5760010190565b60d25491946000946001600160a01b039093169392855b608090818812156119e357828110156119e3576119108382611591565b6002810180911161159e576040805163c06cd02b60e01b81526001600160a01b038c8116600480840191909152908916602483015260019390931c60448201819052949081816064818e5afa9182156119d857908a9392916000926119bb575b505001511161198b57505061198590966118c8565b956118f3565b9097925060001982019182116119a6575061198590916118c8565b601190634e487b7160e01b6000525260246000fd5b6119d19250803d106112aa5761129c81836113ef565b3880611970565b83513d6000823e3d90fd5b96505050945050505090565b60ff609754166119fb57565b60405162461bcd60e51b815260206004820152601060248201526f14185d5cd8589b194e881c185d5cd95960821b6044820152606490fd5b60405190611a40826113bd565b60006060838281528260208201528260408201520152565b604051919260c0830167ffffffffffffffff8111848210176113d95760405260008352600060208401526000604084015260006060840152611a98611a33565b6080840152611aa5611a33565b60a0840152600080845260208085019190915260d25460405163362985ab60e01b81526001600160a01b0387811660048301528581166024830152909116929181604481865afa908115611db45760009161204a575b5080604086015260c954901561203f576001600160a01b03848116600090815260cb60209081526040808320938a16835292905220546060860181905261201257611b4c60408601518288876118dc565b85525b845115612009575b845160405163c06cd02b60e01b81526001600160a01b038881166004830152861660248201526044810191909152608081606481875afa908115611db457600091611fea575b50806080870152606086015115611fac575b50606085015182811015611fa0578111611f95575b50604051611bd1816113bd565b6000815260006020820152600060408201526000606082015260a085015260005b60328112611cb9575b505050604082015182516000198101949190851161159e5760209480821015611cb257505b8084526001600160a01b03928316600081815260cc87526040808220949095168082529387528481209290925560608086015182845260cb885285842085855288529285902092909255858501518551858701518651928352828901919091529481019490945291927fd795915374024be1f03204e052bd584b33bb85c9128ede9c54adbe0bbdc220959190a3015190565b9050611c20565b606085015182811015611f8f5760406080870151015181101580611f80575b15611dc0575084519060018201821161159e5760018201808752608087015160a088015260408701511015611d4057611d3b9150604051611d18816113bd565b6000815260006020820152600060408201526000606082015260808701526118c8565b611bf2565b60405163c06cd02b60e01b81526001600160a01b038881166004830152861660248201526001929092016044830152608082606481875afa8015611db457611d3b92600091611d95575b5060808701526118c8565b611dae915060803d6080116112aa5761129c81836113ef565b38611d8a565b6040513d6000823e3d90fd5b611dd6611dec91604060a08901510151906115b4565b61126660a08801519160208351930151906115d0565b8015611f78575b80158080611f6a575b611f635715611e28575b5060608501519062093a80820180921161159e57611d3b9160608701526118c8565b60608601516040805163c3a6ca1360e01b81526001600160a01b0388166004820152602481019290925290919082604481885afa918215611db457600092611f3e575b5060608701516040516319ab092360e11b81526001600160a01b038816600482015260248101919091529060208280604481015b0381895afa918215611db457600092611f08575b50611efd92611eea670de0b6b3a764000093611ee5611ef29460608d015160005260ce602052604060002054906115d0565b6115d0565b9051906115e3565b046020870151611591565b602086015238611e06565b91506020823d602011611f36575b81611f23602093836113ef565b8101031261136d57905190611efd611eb3565b3d9150611f16565b611e9f919250611f5c9060403d6040116109c7576109b881836113ef565b9190611e6b565b5050611bfb565b508651604088015110611dfc565b506000611df3565b50855160408701511015611cd8565b50611bfb565b606085015238611bc4565b50505050505050600090565b6040015162093a80908181019081811161159e5762093a7f0190811161159e57819004808281020482148115171561159e5702606086015238611baf565b612003915060803d6080116112aa5761129c81836113ef565b38611b9d565b60018552611b57565b6001600160a01b03848116600090815260cc60209081526040808320938a16835292905220548552611b4f565b505050505050600090565b90506020813d602011612074575b81612065602093836113ef565b8101031261136d575138611afb565b3d9150612058565b80518210156120905760209160051b010190565b634e487b7160e01b600052603260045260246000fd5b9081602091031261136d5751801515810361136d5790565b60cf5460d0546040805163095ea7b360e01b81526001600160a01b03928316600482015260248101869052600096959493602090829060449082908b9088165af19081156122025787916121e4575b50156121b05785908260d05416803b156103e957829060a48351809581936373dd055560e01b83528a6004840152816024840152816044840152608060648401528160848401525af180156121a657612174575b505061217293945060d0541661220c565b565b67ffffffffffffffff82116121925761217295965052849338612161565b634e487b7160e01b87526041600452602487fd5b81513d89823e3d90fd5b5162461bcd60e51b815260206004820152600e60248201526d1054141493d59157d1905253115160921b6044820152606490fd5b6121fc915060203d8111610f9757610f8981836113ef565b3861210d565b82513d89823e3d90fd5b600091826044926020956040519363a9059cbb60e01b85526004850152602484015260018060a01b03165af13d15601f3d116001600051141617161561224e57565b60405162461bcd60e51b815260206004820152600f60248201526e1514905394d1915497d19052531151608a1b6044820152606490fdfea2646970667358221220e1805de4986aaad792b3c84071f615a67494b1c26811bcd14a0e5ab7607453e864736f6c63430008110033",
  "linkReferences": {},
  "deployedLinkReferences": {}
}