{
  "_format": "hh-sol-artifact-1",
  "contractName": "GombocController",
  "sourceName": "contracts/GombocController.sol",
  "abi": [
    {
      "inputs": [
        {
          "internalType": "address",
          "name": "tokenAddress",
          "type": "address"
        },
        {
          "internalType": "address",
          "name": "votingEscrowAddress",
          "type": "address"
        }
      ],
      "stateMutability": "nonpayable",
      "type": "constructor"
    },
    {
      "anonymous": false,
      "inputs": [
        {
          "indexed": false,
          "internalType": "string",
          "name": "name",
          "type": "string"
        },
        {
          "indexed": false,
          "internalType": "int128",
          "name": "type_id",
          "type": "int128"
        }
      ],
      "name": "AddType",
      "type": "event"
    },
    {
      "anonymous": false,
      "inputs": [
        {
          "indexed": true,
          "internalType": "address",
          "name": "gomboc_address",
          "type": "address"
        },
        {
          "indexed": false,
          "internalType": "int128",
          "name": "gomboc_type",
          "type": "int128"
        },
        {
          "indexed": false,
          "internalType": "uint256",
          "name": "weight",
          "type": "uint256"
        }
      ],
      "name": "NewGomboc",
      "type": "event"
    },
    {
      "anonymous": false,
      "inputs": [
        {
          "indexed": true,
          "internalType": "address",
          "name": "gomboc_address",
          "type": "address"
        },
        {
          "indexed": false,
          "internalType": "uint256",
          "name": "time",
          "type": "uint256"
        },
        {
          "indexed": false,
          "internalType": "uint256",
          "name": "weight",
          "type": "uint256"
        },
        {
          "indexed": false,
          "internalType": "uint256",
          "name": "total_weight",
          "type": "uint256"
        }
      ],
      "name": "NewGombocWeight",
      "type": "event"
    },
    {
      "anonymous": false,
      "inputs": [
        {
          "indexed": true,
          "internalType": "int128",
          "name": "type_id",
          "type": "int128"
        },
        {
          "indexed": false,
          "internalType": "uint256",
          "name": "time",
          "type": "uint256"
        },
        {
          "indexed": false,
          "internalType": "uint256",
          "name": "weight",
          "type": "uint256"
        },
        {
          "indexed": false,
          "internalType": "uint256",
          "name": "total_weight",
          "type": "uint256"
        }
      ],
      "name": "NewTypeWeight",
      "type": "event"
    },
    {
      "anonymous": false,
      "inputs": [
        {
          "indexed": true,
          "internalType": "address",
          "name": "previousOwner",
          "type": "address"
        },
        {
          "indexed": true,
          "internalType": "address",
          "name": "newOwner",
          "type": "address"
        }
      ],
      "name": "OwnershipTransferStarted",
      "type": "event"
    },
    {
      "anonymous": false,
      "inputs": [
        {
          "indexed": true,
          "internalType": "address",
          "name": "previousOwner",
          "type": "address"
        },
        {
          "indexed": true,
          "internalType": "address",
          "name": "newOwner",
          "type": "address"
        }
      ],
      "name": "OwnershipTransferred",
      "type": "event"
    },
    {
      "anonymous": false,
      "inputs": [
        {
          "indexed": true,
          "internalType": "address",
          "name": "user",
          "type": "address"
        },
        {
          "indexed": true,
          "internalType": "address",
          "name": "gomboc_address",
          "type": "address"
        },
        {
          "indexed": false,
          "internalType": "uint256",
          "name": "time",
          "type": "uint256"
        },
        {
          "indexed": false,
          "internalType": "uint256",
          "name": "weight",
          "type": "uint256"
        }
      ],
      "name": "VoteForGomboc",
      "type": "event"
    },
    {
      "inputs": [],
      "name": "acceptOwnership",
      "outputs": [],
      "stateMutability": "nonpayable",
      "type": "function"
    },
    {
      "inputs": [
        {
          "internalType": "address",
          "name": "addr",
          "type": "address"
        },
        {
          "internalType": "int128",
          "name": "gombocType",
          "type": "int128"
        },
        {
          "internalType": "uint256",
          "name": "weight",
          "type": "uint256"
        }
      ],
      "name": "addGomboc",
      "outputs": [],
      "stateMutability": "nonpayable",
      "type": "function"
    },
    {
      "inputs": [
        {
          "internalType": "string",
          "name": "_name",
          "type": "string"
        },
        {
          "internalType": "uint256",
          "name": "weight",
          "type": "uint256"
        }
      ],
      "name": "addType",
      "outputs": [],
      "stateMutability": "nonpayable",
      "type": "function"
    },
    {
      "inputs": [
        {
          "internalType": "address",
          "name": "gombocAddress",
          "type": "address"
        },
        {
          "internalType": "uint256",
          "name": "weight",
          "type": "uint256"
        }
      ],
      "name": "changeGombocWeight",
      "outputs": [],
      "stateMutability": "nonpayable",
      "type": "function"
    },
    {
      "inputs": [
        {
          "internalType": "int128",
          "name": "typeId",
          "type": "int128"
        },
        {
          "internalType": "uint256",
          "name": "weight",
          "type": "uint256"
        }
      ],
      "name": "changeTypeWeight",
      "outputs": [],
      "stateMutability": "nonpayable",
      "type": "function"
    },
    {
      "inputs": [
        {
          "internalType": "int128",
          "name": "",
          "type": "int128"
        },
        {
          "internalType": "uint256",
          "name": "",
          "type": "uint256"
        }
      ],
      "name": "changesSum",
      "outputs": [
        {
          "internalType": "uint256",
          "name": "",
          "type": "uint256"
        }
      ],
      "stateMutability": "view",
      "type": "function"
    },
    {
      "inputs": [],
      "name": "checkpoint",
      "outputs": [],
      "stateMutability": "nonpayable",
      "type": "function"
    },
    {
      "inputs": [
        {
          "internalType": "address",
          "name": "addr",
          "type": "address"
        }
      ],
      "name": "checkpointGomboc",
      "outputs": [],
      "stateMutability": "nonpayable",
      "type": "function"
    },
    {
      "inputs": [
        {
          "internalType": "address",
          "name": "addr",
          "type": "address"
        }
      ],
      "name": "getGombocWeight",
      "outputs": [
        {
          "internalType": "uint256",
          "name": "",
          "type": "uint256"
        }
      ],
      "stateMutability": "view",
      "type": "function"
    },
    {
      "inputs": [],
      "name": "getTotalWeight",
      "outputs": [
        {
          "internalType": "uint256",
          "name": "",
          "type": "uint256"
        }
      ],
      "stateMutability": "view",
      "type": "function"
    },
    {
      "inputs": [
        {
          "internalType": "int128",
          "name": "typeId",
          "type": "int128"
        }
      ],
      "name": "getTypeWeight",
      "outputs": [
        {
          "internalType": "uint256",
          "name": "",
          "type": "uint256"
        }
      ],
      "stateMutability": "view",
      "type": "function"
    },
    {
      "inputs": [
        {
          "internalType": "int128",
          "name": "typeId",
          "type": "int128"
        }
      ],
      "name": "getWeightsSumPreType",
      "outputs": [
        {
          "internalType": "uint256",
          "name": "",
          "type": "uint256"
        }
      ],
      "stateMutability": "view",
      "type": "function"
    },
    {
      "inputs": [
        {
          "internalType": "address",
          "name": "gombocAddress",
          "type": "address"
        },
        {
          "internalType": "uint256",
          "name": "time",
          "type": "uint256"
        }
      ],
      "name": "gombocRelativeWeight",
      "outputs": [
        {
          "internalType": "uint256",
          "name": "",
          "type": "uint256"
        }
      ],
      "stateMutability": "view",
      "type": "function"
    },
    {
      "inputs": [
        {
          "internalType": "address",
          "name": "gombocAddress",
          "type": "address"
        },
        {
          "internalType": "uint256",
          "name": "time",
          "type": "uint256"
        }
      ],
      "name": "gombocRelativeWeightWrite",
      "outputs": [
        {
          "internalType": "uint256",
          "name": "",
          "type": "uint256"
        }
      ],
      "stateMutability": "nonpayable",
      "type": "function"
    },
    {
      "inputs": [
        {
          "internalType": "int128",
          "name": "",
          "type": "int128"
        }
      ],
      "name": "gombocTypeNames",
      "outputs": [
        {
          "internalType": "string",
          "name": "",
          "type": "string"
        }
      ],
      "stateMutability": "view",
      "type": "function"
    },
    {
      "inputs": [
        {
          "internalType": "address",
          "name": "_addr",
          "type": "address"
        }
      ],
      "name": "gombocTypes",
      "outputs": [
        {
          "internalType": "int128",
          "name": "",
          "type": "int128"
        }
      ],
      "stateMutability": "view",
      "type": "function"
    },
    {
      "inputs": [
        {
          "internalType": "uint256",
          "name": "",
          "type": "uint256"
        }
      ],
      "name": "gombocs",
      "outputs": [
        {
          "internalType": "address",
          "name": "",
          "type": "address"
        }
      ],
      "stateMutability": "view",
      "type": "function"
    },
    {
      "inputs": [
        {
          "internalType": "address",
          "name": "",
          "type": "address"
        },
        {
          "internalType": "address",
          "name": "",
          "type": "address"
        }
      ],
      "name": "lastUserVote",
      "outputs": [
        {
          "internalType": "uint256",
          "name": "",
          "type": "uint256"
        }
      ],
      "stateMutability": "view",
      "type": "function"
    },
    {
      "inputs": [],
      "name": "nGomboc",
      "outputs": [
        {
          "internalType": "int128",
          "name": "",
          "type": "int128"
        }
      ],
      "stateMutability": "view",
      "type": "function"
    },
    {
      "inputs": [],
      "name": "nGombocTypes",
      "outputs": [
        {
          "internalType": "int128",
          "name": "",
          "type": "int128"
        }
      ],
      "stateMutability": "view",
      "type": "function"
    },
    {
      "inputs": [],
      "name": "owner",
      "outputs": [
        {
          "internalType": "address",
          "name": "",
          "type": "address"
        }
      ],
      "stateMutability": "view",
      "type": "function"
    },
    {
      "inputs": [],
      "name": "pendingOwner",
      "outputs": [
        {
          "internalType": "address",
          "name": "",
          "type": "address"
        }
      ],
      "stateMutability": "view",
      "type": "function"
    },
    {
      "inputs": [
        {
          "internalType": "int128",
          "name": "",
          "type": "int128"
        },
        {
          "internalType": "uint256",
          "name": "",
          "type": "uint256"
        }
      ],
      "name": "pointsSum",
      "outputs": [
        {
          "internalType": "uint256",
          "name": "bias",
          "type": "uint256"
        },
        {
          "internalType": "uint256",
          "name": "slope",
          "type": "uint256"
        }
      ],
      "stateMutability": "view",
      "type": "function"
    },
    {
      "inputs": [
        {
          "internalType": "uint256",
          "name": "",
          "type": "uint256"
        }
      ],
      "name": "pointsTotal",
      "outputs": [
        {
          "internalType": "uint256",
          "name": "",
          "type": "uint256"
        }
      ],
      "stateMutability": "view",
      "type": "function"
    },
    {
      "inputs": [
        {
          "internalType": "int128",
          "name": "",
          "type": "int128"
        },
        {
          "internalType": "uint256",
          "name": "",
          "type": "uint256"
        }
      ],
      "name": "pointsTypeWeight",
      "outputs": [
        {
          "internalType": "uint256",
          "name": "",
          "type": "uint256"
        }
      ],
      "stateMutability": "view",
      "type": "function"
    },
    {
      "inputs": [
        {
          "internalType": "address",
          "name": "",
          "type": "address"
        },
        {
          "internalType": "uint256",
          "name": "",
          "type": "uint256"
        }
      ],
      "name": "pointsWeight",
      "outputs": [
        {
          "internalType": "uint256",
          "name": "bias",
          "type": "uint256"
        },
        {
          "internalType": "uint256",
          "name": "slope",
          "type": "uint256"
        }
      ],
      "stateMutability": "view",
      "type": "function"
    },
    {
      "inputs": [],
      "name": "renounceOwnership",
      "outputs": [],
      "stateMutability": "nonpayable",
      "type": "function"
    },
    {
      "inputs": [
        {
          "internalType": "uint256",
          "name": "",
          "type": "uint256"
        }
      ],
      "name": "timeSum",
      "outputs": [
        {
          "internalType": "uint256",
          "name": "",
          "type": "uint256"
        }
      ],
      "stateMutability": "view",
      "type": "function"
    },
    {
      "inputs": [],
      "name": "timeTotal",
      "outputs": [
        {
          "internalType": "uint256",
          "name": "",
          "type": "uint256"
        }
      ],
      "stateMutability": "view",
      "type": "function"
    },
    {
      "inputs": [
        {
          "internalType": "uint256",
          "name": "",
          "type": "uint256"
        }
      ],
      "name": "timeTypeWeight",
      "outputs": [
        {
          "internalType": "uint256",
          "name": "",
          "type": "uint256"
        }
      ],
      "stateMutability": "view",
      "type": "function"
    },
    {
      "inputs": [
        {
          "internalType": "address",
          "name": "",
          "type": "address"
        }
      ],
      "name": "timeWeight",
      "outputs": [
        {
          "internalType": "uint256",
          "name": "",
          "type": "uint256"
        }
      ],
      "stateMutability": "view",
      "type": "function"
    },
    {
      "inputs": [],
      "name": "token",
      "outputs": [
        {
          "internalType": "address",
          "name": "",
          "type": "address"
        }
      ],
      "stateMutability": "view",
      "type": "function"
    },
    {
      "inputs": [
        {
          "internalType": "address",
          "name": "newOwner",
          "type": "address"
        }
      ],
      "name": "transferOwnership",
      "outputs": [],
      "stateMutability": "nonpayable",
      "type": "function"
    },
    {
      "inputs": [
        {
          "internalType": "address",
          "name": "gombocAddress",
          "type": "address"
        },
        {
          "internalType": "uint256",
          "name": "userWeight",
          "type": "uint256"
        }
      ],
      "name": "voteForGombocWeights",
      "outputs": [],
      "stateMutability": "nonpayable",
      "type": "function"
    },
    {
      "inputs": [
        {
          "internalType": "address",
          "name": "",
          "type": "address"
        }
      ],
      "name": "voteUserPower",
      "outputs": [
        {
          "internalType": "uint256",
          "name": "",
          "type": "uint256"
        }
      ],
      "stateMutability": "view",
      "type": "function"
    },
    {
      "inputs": [
        {
          "internalType": "address",
          "name": "",
          "type": "address"
        },
        {
          "internalType": "address",
          "name": "",
          "type": "address"
        }
      ],
      "name": "voteUserSlopes",
      "outputs": [
        {
          "internalType": "uint256",
          "name": "slope",
          "type": "uint256"
        },
        {
          "internalType": "uint256",
          "name": "power",
          "type": "uint256"
        },
        {
          "internalType": "uint256",
          "name": "end",
          "type": "uint256"
        }
      ],
      "stateMutability": "view",
      "type": "function"
    },
    {
      "inputs": [],
      "name": "votingEscrow",
      "outputs": [
        {
          "internalType": "address",
          "name": "",
          "type": "address"
        }
      ],
      "stateMutability": "view",
      "type": "function"
    }
  ],
  "bytecode": "0x60806040523480156200001157600080fd5b50604051620029a7380380620029a78339810160408190526200003491620001d2565b6200003f336200013b565b6001600160a01b038216620000835760405162461bcd60e51b8152602060048201526005602482015264043453030360dc1b60448201526064015b60405180910390fd5b6001600160a01b038116620000c35760405162461bcd60e51b8152602060048201526005602482015264043453030360dc1b60448201526064016200007a565b600280546001600160a01b038085166001600160a01b0319928316179092556003805492841692909116919091179055620001036201518060076200020a565b620001136201518060076200020a565b6200011f904262000236565b6200012b91906200020a565b64028fa6ae105550620002599050565b600180546001600160a01b0319169055620001628162000165602090811b620016c617901c565b50565b600080546001600160a01b038381166001600160a01b0319831681178455604051919092169283917f8be0079c531659141344cd1fd0a4f28419497f9722a3daafe3b4186f6b6457e09190a35050565b80516001600160a01b0381168114620001cd57600080fd5b919050565b60008060408385031215620001e657600080fd5b620001f183620001b5565b91506200020160208401620001b5565b90509250929050565b80820281158282048414176200023057634e487b7160e01b600052601160045260246000fd5b92915050565b6000826200025457634e487b7160e01b600052601260045260246000fd5b500490565b61273e80620002696000396000f3fe608060405234801561001057600080fd5b50600436106102275760003560e01c8063870e373311610130578063e0ab067e116100b8578063f2fde38b1161007c578063f2fde38b146105ba578063f763d1ff146105cd578063f9b4467814610603578063fc0c546a14610616578063fe5e38631461062957600080fd5b8063e0ab067e146104ea578063e30c3978146104fd578063e75ec6991461050e578063eab9041e14610567578063ec73d9061461059657600080fd5b8063b827ab79116100ff578063b827ab791461045e578063b93cd39d14610471578063c2c4c5c114610484578063c3a6ca131461048c578063daff6f08146104d757600080fd5b8063870e3733146104135780638da5cb5b146104265780638ebea4921461043757806393580fe01461044a57600080fd5b80634f2bfe5b116101b35780636fc25b06116101825780636fc25b06146103bd578063715018a6146103dd57806377bc2ae0146103e557806379ba5097146103f85780637d1530d51461040057600080fd5b80634f2bfe5b1461035257806362897a321461037d578063688f3f1f1461039d5780636eb2d62c146103aa57600080fd5b806326f4ed51116101fa57806326f4ed51146102c4578063289f338f146102f35780632cb3075e146103175780632e22618a1461032a578063335612461461033f57600080fd5b8063057c9cb41461022c57806306aba0e11461026357806310d1ba5814610282578063117610fc14610295575b600080fd5b61025061023a366004612209565b64028fa6ae0f6020526000908152604090205481565b6040519081526020015b60405180910390f35b64028fa6ae1054600090815264028fa6ae0f6020526040902054610250565b610250610290366004612239565b61066c565b6102506102a3366004612254565b6402540be40e60209081526000928352604080842090915290825290205481565b6102506102d2366004612295565b6402540be40960209081526000928352604080842090915290825290205481565b6102506103013660046122c8565b6402540be40c6020526000908152604090205481565b6102506103253660046122e3565b6106bf565b61033d6103383660046122ff565b6106e7565b005b61025061034d3660046122e3565b610a35565b600354610365906001600160a01b031681565b6040516001600160a01b03909116815260200161025a565b61039061038b366004612239565b610a41565b60405161025a9190612381565b61025064028fa6ae105481565b6102506103b8366004612209565b610adb565b6004546103ca90600f0b81565b604051600f9190910b815260200161025a565b61033d610af9565b6102506103f3366004612209565b610b0d565b61033d610b24565b6103ca61040e3660046122c8565b610b9e565b61033d6104213660046123aa565b610c07565b6000546001600160a01b0316610365565b61033d6104453660046122e3565b610ca7565b6004546103ca90600160801b9004600f0b81565b61025061046c366004612239565b610d28565b61033d61047f3660046122c8565b610d7c565b61033d610d92565b6104c261049a3660046122e3565b6402540be40a6020908152600092835260408084209091529082529020805460019091015482565b6040805192835260208301919091520161025a565b6103656104e5366004612209565b610d9a565b61033d6104f8366004612254565b610dbe565b6001546001600160a01b0316610365565b61054c61051c366004612295565b6402540be40760209081526000928352604080842090915290825290208054600182015460029092015490919083565b6040805193845260208401929092529082015260600161025a565b610250610575366004612254565b64028fa6ae1160209081526000928352604080842090915290825290205481565b6102506105a43660046122c8565b6402540be4086020526000908152604090205481565b61033d6105c83660046122c8565b610dd0565b6104c26105db366004612254565b6402540be40d6020908152600092835260408084209091529082529020805460019091015482565b61033d6106113660046122e3565b610e41565b600254610365906001600160a01b031681565b6102506106373660046122c8565b6001600160a01b031660009081526402540be40a602090815260408083206402540be40c835281842054845290915290205490565b600f81900b600090815264028fa6ae11602052604081208164028fa6ae126001600160801b038516633b9aca0081106106a7576106a761245f565b01548152602001908152602001600020549050919050565b60006106ca83611716565b506106d36118b7565b506106de8383611a37565b90505b92915050565b6106ef611b38565b600082600f0b1215801561070c5750600454600f90810b9083900b125b6107455760405162461bcd60e51b8152602060048201526005602482015264474330303160d81b60448201526064015b60405180910390fd5b6001600160a01b03831660009081526402540be4066020526040902054600f0b1561079a5760405162461bcd60e51b815260206004820152600560248201526423a198181960d91b604482015260640161073c565b600454600160801b9004600f0b6107b281600161248b565b600480546001600160801b03928316600160801b0292169190911790558360066107e2836001600160801b031690565b6402540be40081106107f6576107f661245f565b0180546001600160a01b0319166001600160a01b039290921691909117905561082083600161248b565b6001600160a01b03851660009081526402540be4066020526040812080546001600160801b0319166001600160801b0393909316929092179091556108696201518060076124b8565b6108776201518060076124b8565b6108856201518060076124b8565b61088f90426124cf565b61089991906124e2565b6108a391906124b8565b9050821561097e5760006108b685611b92565b905060006108c386611c83565b905060006108cf6118b7565b90506108db82876124cf565b600f88900b60009081526402540be40d60209081526040808320888452909152902055836402540be40f6001600160801b038916633b9aca0081106109225761092261245f565b015561092e86846124b8565b61093890826124cf565b600085815264028fa6ae0f602090815260408083209390935564028fa6ae108790556001600160a01b038b1682526402540be40a81528282208783529052208690555050505b6402540be40f6001600160801b038516633b9aca0081106109a1576109a161245f565b01546000036109d157806402540be40f6001600160801b038616633b9aca0081106109ce576109ce61245f565b01555b6001600160a01b03851660008181526402540be40c60209081526040918290208490558151600f88900b81529081018690527f19673bf07d33c3c59c62af022ddbde96f27516096651b9f4649b2d076e612a4b910160405180910390a25050505050565b60006106de8383611a37565b60056020526000908152604090208054610a5a90612504565b80601f0160208091040260200160405190810160405280929190818152602001828054610a8690612504565b8015610ad35780601f10610aa857610100808354040283529160200191610ad3565b820191906000526020600020905b815481529060010190602001808311610ab657829003601f168201915b505050505081565b64028fa6ae1281633b9aca008110610af257600080fd5b0154905081565b610b01611b38565b610b0b6000611e26565b565b6402540be40f81633b9aca008110610af257600080fd5b60015433906001600160a01b03168114610b925760405162461bcd60e51b815260206004820152602960248201527f4f776e61626c6532537465703a2063616c6c6572206973206e6f7420746865206044820152683732bb9037bbb732b960b91b606482015260840161073c565b610b9b81611e26565b50565b6001600160a01b03811660009081526402540be4066020526040812054600f0b808203610bf55760405162461bcd60e51b8152602060048201526005602482015264043453030360dc1b604482015260640161073c565b610c0060018261253e565b9392505050565b610c0f611b38565b600454600f0b6000818152600560205260409020610c2d84826125b9565b50610c3981600161248b565b600480546001600160801b0319166001600160801b03929092169190911790558115610c6957610c698183611e3f565b7f6fbe76157c712f16b5a3c44ed48baa04e3450bc3fab0c020e848aca72bbccc848382604051610c9a929190612679565b60405180910390a1505050565b610caf611b38565b6001600160a01b03821660009081526402540be4066020526040812054610cdb90600190600f0b61253e565b9050600081600f0b1215610d195760405162461bcd60e51b8152602060048201526005602482015264047433030360dc1b604482015260640161073c565b610d238383611f8d565b505050565b600f81900b60009081526402540be40d60205260408120816402540be40f6001600160801b038516633b9aca008110610d6357610d6361245f565b0154815260208101919091526040016000205492915050565b610d8581611716565b50610d8e6118b7565b5050565b610b9b6118b7565b6006816402540be4008110610dae57600080fd5b01546001600160a01b0316905081565b610dc6611b38565b610d8e8282611e3f565b610dd8611b38565b600180546001600160a01b0383166001600160a01b03199091168117909155610e096000546001600160a01b031690565b6001600160a01b03167f38d16b8cac22d99fc7c124b9cd0de2d3fa1faef420bfe791d8c362d765e2270060405160405180910390a350565b6001600160a01b03821660009081526402540be4066020526040812054610e6d90600190600f0b61253e565b9050600081600f0b1215610eab5760405162461bcd60e51b8152602060048201526005602482015264047433030360dc1b604482015260640161073c565b600354604051631e74dac160e31b81523360048201526000916001600160a01b03169063f3a6d60890602401602060405180830381865afa158015610ef4573d6000803e3d6000fd5b505050506040513d601f19601f82011682018060405250810190610f18919061269e565b6003546040516326f57e5760e11b81523360048201529192506000916001600160a01b0390911690634deafcae90602401602060405180830381865afa158015610f66573d6000803e3d6000fd5b505050506040513d601f19601f82011682018060405250810190610f8a919061269e565b90506000610f9c6201518060076124b8565b610faa6201518060076124b8565b610fb86201518060076124b8565b610fc290426124cf565b610fcc91906124e2565b610fd691906124b8565b905080821161100f5760405162461bcd60e51b8152602060048201526005602482015264474330303360d81b604482015260640161073c565b6127108511156110495760405162461bcd60e51b815260206004820152600560248201526411d0cc0c0d60da1b604482015260640161073c565b61105762015180600a6124b8565b3360009081526402540be409602090815260408083206001600160a01b038b16845290915290205461108991906124cf565b4210156110c05760405162461bcd60e51b8152602060048201526005602482015264474330303560d81b604482015260640161073c565b6110c861218f565b3360009081526402540be407602090815260408083206001600160a01b038b16845282528083208151606081018352815481526001820154938101939093526002015482820190815291845283019190915251821015611139578051604001516111339083906126b7565b60408201525b604081015181515161114b91906124b8565b6060808301919091526040805191820190528061271061116b89886124b8565b61117591906124e2565b81526020808201899052604090910185905282015261119482846126b7565b608082018190526020820151516111ab91906124b8565b60a08201523360009081526402540be4086020908152604090912054825182015182840151909201519091906111e190836124cf565b6111eb91906126b7565b3360009081526402540be40860205260409020819055905061271081111561123d5760405162461bcd60e51b815260206004820152600560248201526423a198181b60d91b604482015260640161073c565b600061124889611716565b6001600160a01b038a1660009081526402540be40a6020908152604080832088845290915281206001015491925061127f89611c83565b600f8a900b60009081526402540be40d602090815260408083208a8452909152902060010154606087015160a088015192935090916112cc906112c290876124cf565b8860600151612179565b6112d691906126b7565b6001600160a01b038d1660009081526402540be40a602090815260408083208b8452909152902055606086015160a0870151611316906112c290856124cf565b61132091906126b7565b600f8b900b60009081526402540be40d602090815260408083208b84529091529081902091909155865101518710156113f5578551516020870151516113729061136a90866124cf565b885151612179565b61137c91906126b7565b6001600160a01b038d1660009081526402540be40a602090815260408083208b845282529091206001019190915586515190870151516113c09061136a90846124cf565b6113ca91906126b7565b600f8b900b60009081526402540be40d602090815260408083208b845290915290206001015561147b565b602080870151516001600160a01b038e1660009081526402540be40a835260408082208b83529093529182206001018054919290916114359084906124cf565b909155505060208087015151600f8c900b60009081526402540be40d835260408082208b83529093529182206001018054919290916114759084906124cf565b90915550505b85516040015142101561150a578551516001600160a01b038d1660009081526402540be40b602090815260408083208a518201518452909152812080549091906114c69084906126b7565b9091555050855151600f8b900b60009081526402540be40e602090815260408083208a518201518452909152812080549091906115049084906126b7565b90915550505b60208087018051516001600160a01b038f1660009081526402540be40b84526040808220935181015182529290935290822080549192909161154d9084906124cf565b90915550506020808701805151600f8d900b60009081526402540be40e8452604080822093518101518252929093529082208054919290916115909084906124cf565b9091555061159e90506118b7565b5085602001516402540be4076000336001600160a01b03166001600160a01b0316815260200190815260200160002060008e6001600160a01b03166001600160a01b03168152602001908152602001600020600082015181600001556020820151816001015560408201518160020155905050426402540be4096000336001600160a01b03166001600160a01b0316815260200190815260200160002060008e6001600160a01b03166001600160a01b03168152602001908152602001600020819055508b6001600160a01b0316336001600160a01b03167fce1dc810fa82e83c4f084d18c488cee677745c66f464ff8f8b76b23f125d41af428e6040516116b0929190918252602082015260400190565b60405180910390a3505050505050505050505050565b600080546001600160a01b038381166001600160a01b0319831681178455604051919092169283917f8be0079c531659141344cd1fd0a4f28419497f9722a3daafe3b4186f6b6457e09190a35050565b6001600160a01b03811660009081526402540be40c6020526040812054806117415750600092915050565b6001600160a01b03831660009081526402540be40a6020908152604080832084845282528083208151808301909252805482526001015491810191909152905b6101f48110156118ae574283116118ae576117a06201518060076124b8565b6117aa90846124cf565b925060006117bc6201518060076124b8565b83602001516117cb91906124b8565b905080836000015111156118335780836000018181516117eb91906126b7565b9052506001600160a01b03861660009081526402540be40b6020908152604080832087845282529091205490840180518291906118299083906126b7565b90525061183e9050565b600080845260208401525b6001600160a01b03861660009081526402540be40a60209081526040808320878452825290912084518155908401516001909101554284111561189b576001600160a01b03861660009081526402540be40c602052604090208490555b50806118a6816126ca565b915050611781565b50519392505050565b64028fa6ae105460045460009190600f0b428211156118eb576118de6201518060076124b8565b6118e890836126b7565b91505b600082815264028fa6ae0f6020526040812054905b606481600f0b12156119405782600f0b81600f0b03156119405761192381611c83565b5061192d81611b92565b5080611938816126e3565b915050611900565b5060005b6101f4811015611a2f57428411611a2f576119636201518060076124b8565b61196d90856124cf565b93506000915060005b606481600f0b12156119f55783600f0b81600f0b03156119f557600f81900b60008181526402540be40d6020908152604080832089845282528083205493835264028fa6ae1182528083208984529091529020546119d481836124b8565b6119de90866124cf565b9450505080806119ed906126e3565b915050611976565b50600084815264028fa6ae0f6020526040902082905542841115611a1d5764028fa6ae108490555b80611a27816126ca565b915050611944565b509392505050565b600080611a486201518060076124b8565b611a566201518060076124b8565b611a6090856124e2565b611a6a91906124b8565b600081815264028fa6ae0f602052604090205490915080611a90576000925050506106e1565b6001600160a01b03851660009081526402540be4066020526040812054611abc90600190600f0b61253e565b600f81900b600090815264028fa6ae11602090815260408083208784528252808320546001600160a01b038b1684526402540be40a835281842088855290925290912054919250908381611b1884670de0b6b3a76400006124b8565b611b2291906124b8565b611b2c91906124e2565b98975050505050505050565b6000546001600160a01b03163314610b0b5760405162461bcd60e51b815260206004820181905260248201527f4f776e61626c653a2063616c6c6572206973206e6f7420746865206f776e6572604482015260640161073c565b60008064028fa6ae126001600160801b038416633b9aca008110611bb857611bb861245f565b0154905060008111611bcd5750600092915050565b600f83900b600090815264028fa6ae1160209081526040808320848452909152812054905b6101f4811015611a2f57428311611a2f57611c116201518060076124b8565b611c1b90846124cf565b600f86900b600090815264028fa6ae11602090815260408083208484529091529020839055925042831115611c71578264028fa6ae126001600160801b038716633b9aca008110611c6e57611c6e61245f565b01555b80611c7b816126ca565b915050611bf2565b60006001600160801b038216816402540be40f82633b9aca008110611caa57611caa61245f565b0154905060008111611cc0575060009392505050565b600f84900b60009081526402540be40d6020908152604080832084845282528083208151808301909252805482526001015491810191909152905b6101f4811015611e1c57428311611e1c57611d1a6201518060076124b8565b611d2490846124cf565b92506000611d366201518060076124b8565b8360200151611d4591906124b8565b90508083600001511115611da8578083600001818151611d6591906126b7565b905250600f87900b60009081526402540be40e602090815260408083208784528252909120549084018051829190611d9e9083906126b7565b905250611db39050565b600080845260208401525b600f87900b60009081526402540be40d602090815260408083208784528252909120845181559084015160019091015542841115611e0957836402540be40f86633b9aca008110611e0657611e0661245f565b01555b5080611e14816126ca565b915050611cfb565b5051949350505050565b600180546001600160a01b0319169055610b9b816116c6565b6000611e4a83611b92565b90506000611e5784611c83565b90506000611e636118b7565b90506000611e756201518060076124b8565b611e836201518060076124b8565b611e916201518060076124b8565b611e9b90426124cf565b611ea591906124e2565b611eaf91906124b8565b9050611ebb84846124b8565b611ec586856124b8565b611ecf90846124cf565b611ed991906126b7565b600082815264028fa6ae0f60209081526040808320849055600f8a900b835264028fa6ae118252808320858452909152902086905564028fa6ae1082905591508064028fa6ae126001600160801b038816633b9aca008110611f3d57611f3d61245f565b01556040805182815260208101879052908101839052600f87900b907e170bcdc909b6ac6e12d020fe8942256312cdcd555fb6d712899eba56d2f9019060600160405180910390a2505050505050565b6001600160a01b03821660009081526402540be4066020526040812054611fb990600190600f0b61253e565b90506000611fc684611716565b90506000611fd383611b92565b90506000611fe084611c83565b90506000611fec6118b7565b90506000611ffe6201518060076124b8565b61200c6201518060076124b8565b61201a6201518060076124b8565b61202490426124cf565b61202e91906124e2565b61203891906124b8565b6001600160a01b03891660008181526402540be40a6020908152604080832085845282528083208c90559282526402540be40c90529081208290559091508561208189866124cf565b61208b91906126b7565b600f88900b60009081526402540be40d6020908152604080832086845290915290208190559050816402540be40f6001600160801b038916633b9aca0081106120d6576120d661245f565b01556120e285856124b8565b6120ec86836124b8565b6120f690856124cf565b61210091906126b7565b600083815264028fa6ae0f602090815260409182902083905564028fa6ae1085905581514281529081018b90529081018290529093506001600160a01b038a16907f2d0d230497e89332e470eb504f613985f0c7abff50e94d09ef03a4bdc9c07e5a9060600160405180910390a2505050505050505050565b600081831161218857816106de565b5090919050565b6040518060c001604052806121be60405180606001604052806000815260200160008152602001600081525090565b81526020016121e760405180606001604052806000815260200160008152602001600081525090565b8152602001600081526020016000815260200160008152602001600081525090565b60006020828403121561221b57600080fd5b5035919050565b8035600f81900b811461223457600080fd5b919050565b60006020828403121561224b57600080fd5b6106de82612222565b6000806040838503121561226757600080fd5b61227083612222565b946020939093013593505050565b80356001600160a01b038116811461223457600080fd5b600080604083850312156122a857600080fd5b6122b18361227e565b91506122bf6020840161227e565b90509250929050565b6000602082840312156122da57600080fd5b6106de8261227e565b600080604083850312156122f657600080fd5b6122708361227e565b60008060006060848603121561231457600080fd5b61231d8461227e565b925061232b60208501612222565b9150604084013590509250925092565b6000815180845260005b8181101561236157602081850181015186830182015201612345565b506000602082860101526020601f19601f83011685010191505092915050565b6020815260006106de602083018461233b565b634e487b7160e01b600052604160045260246000fd5b600080604083850312156123bd57600080fd5b823567ffffffffffffffff808211156123d557600080fd5b818501915085601f8301126123e957600080fd5b8135818111156123fb576123fb612394565b604051601f8201601f19908116603f0116810190838211818310171561242357612423612394565b8160405282815288602084870101111561243c57600080fd5b826020860160208301376000602093820184015298969091013596505050505050565b634e487b7160e01b600052603260045260246000fd5b634e487b7160e01b600052601160045260246000fd5b600f81810b9083900b0160016001607f1b03811360016001607f1b0319821217156106e1576106e1612475565b80820281158282048414176106e1576106e1612475565b808201808211156106e1576106e1612475565b6000826124ff57634e487b7160e01b600052601260045260246000fd5b500490565b600181811c9082168061251857607f821691505b60208210810361253857634e487b7160e01b600052602260045260246000fd5b50919050565b600f82810b9082900b0360016001607f1b0319811260016001607f1b03821317156106e1576106e1612475565b601f821115610d2357600081815260208120601f850160051c810160208610156125925750805b601f850160051c820191505b818110156125b15782815560010161259e565b505050505050565b815167ffffffffffffffff8111156125d3576125d3612394565b6125e7816125e18454612504565b8461256b565b602080601f83116001811461261c57600084156126045750858301515b600019600386901b1c1916600185901b1785556125b1565b600085815260208120601f198616915b8281101561264b5788860151825594840194600190910190840161262c565b50858210156126695787850151600019600388901b60f8161c191681555b5050505050600190811b01905550565b60408152600061268c604083018561233b565b905082600f0b60208301529392505050565b6000602082840312156126b057600080fd5b5051919050565b818103818111156106e1576106e1612475565b6000600182016126dc576126dc612475565b5060010190565b600081600f0b60016001607f1b0381036126ff576126ff612475565b6001019291505056fea2646970667358221220a0496ce999aafd8290b02d9564cee5606e45d0b7604cfbdcc0d029fe4371851564736f6c63430008110033",
  "linkReferences": {},
  "deployedLinkReferences": {}
}