{
  "_format": "hh-sol-artifact-1",
  "contractName": "HopeCardGauge",
  "sourceName": "contracts/gauges/HopeCardGauge.sol",
  "abi": [
    {
      "inputs": [
        {
          "internalType": "address",
          "name": "_ltToken",
          "type": "address"
        },
        {
          "internalType": "address",
          "name": "_gaugeController",
          "type": "address"
        },
        {
          "internalType": "address",
          "name": "_minter",
          "type": "address"
        },
        {
          "internalType": "address",
          "name": "_receiver",
          "type": "address"
        }
      ],
      "stateMutability": "nonpayable",
      "type": "constructor"
    },
    {
      "anonymous": false,
      "inputs": [
        {
          "indexed": true,
          "internalType": "address",
          "name": "previousOwner",
          "type": "address"
        },
        {
          "indexed": true,
          "internalType": "address",
          "name": "newOwner",
          "type": "address"
        }
      ],
      "name": "OwnershipTransferStarted",
      "type": "event"
    },
    {
      "anonymous": false,
      "inputs": [
        {
          "indexed": true,
          "internalType": "address",
          "name": "previousOwner",
          "type": "address"
        },
        {
          "indexed": true,
          "internalType": "address",
          "name": "newOwner",
          "type": "address"
        }
      ],
      "name": "OwnershipTransferred",
      "type": "event"
    },
    {
      "anonymous": false,
      "inputs": [
        {
          "indexed": false,
          "internalType": "address",
          "name": "oldReceiver",
          "type": "address"
        },
        {
          "indexed": false,
          "internalType": "address",
          "name": "newReceiver",
          "type": "address"
        }
      ],
      "name": "UpdateReceiver",
      "type": "event"
    },
    {
      "inputs": [],
      "name": "acceptOwnership",
      "outputs": [],
      "stateMutability": "nonpayable",
      "type": "function"
    },
    {
      "inputs": [],
      "name": "gaugeController",
      "outputs": [
        {
          "internalType": "address",
          "name": "",
          "type": "address"
        }
      ],
      "stateMutability": "view",
      "type": "function"
    },
    {
      "inputs": [],
      "name": "inflationParams",
      "outputs": [
        {
          "internalType": "uint256",
          "name": "rate",
          "type": "uint256"
        },
        {
          "internalType": "uint256",
          "name": "finishTime",
          "type": "uint256"
        }
      ],
      "stateMutability": "view",
      "type": "function"
    },
    {
      "inputs": [
        {
          "internalType": "address",
          "name": "_user",
          "type": "address"
        }
      ],
      "name": "integrateFraction",
      "outputs": [
        {
          "internalType": "uint256",
          "name": "",
          "type": "uint256"
        }
      ],
      "stateMutability": "view",
      "type": "function"
    },
    {
      "inputs": [],
      "name": "isKilled",
      "outputs": [
        {
          "internalType": "bool",
          "name": "",
          "type": "bool"
        }
      ],
      "stateMutability": "view",
      "type": "function"
    },
    {
      "inputs": [],
      "name": "lastPeriod",
      "outputs": [
        {
          "internalType": "uint256",
          "name": "",
          "type": "uint256"
        }
      ],
      "stateMutability": "view",
      "type": "function"
    },
    {
      "inputs": [],
      "name": "ltToken",
      "outputs": [
        {
          "internalType": "address",
          "name": "",
          "type": "address"
        }
      ],
      "stateMutability": "view",
      "type": "function"
    },
    {
      "inputs": [],
      "name": "minter",
      "outputs": [
        {
          "internalType": "address",
          "name": "",
          "type": "address"
        }
      ],
      "stateMutability": "view",
      "type": "function"
    },
    {
      "inputs": [],
      "name": "owner",
      "outputs": [
        {
          "internalType": "address",
          "name": "",
          "type": "address"
        }
      ],
      "stateMutability": "view",
      "type": "function"
    },
    {
      "inputs": [],
      "name": "pendingOwner",
      "outputs": [
        {
          "internalType": "address",
          "name": "",
          "type": "address"
        }
      ],
      "stateMutability": "view",
      "type": "function"
    },
    {
      "inputs": [],
      "name": "receiver",
      "outputs": [
        {
          "internalType": "address",
          "name": "",
          "type": "address"
        }
      ],
      "stateMutability": "view",
      "type": "function"
    },
    {
      "inputs": [],
      "name": "renounceOwnership",
      "outputs": [],
      "stateMutability": "nonpayable",
      "type": "function"
    },
    {
      "inputs": [
        {
          "internalType": "bool",
          "name": "_isKilled",
          "type": "bool"
        }
      ],
      "name": "setKilled",
      "outputs": [],
      "stateMutability": "nonpayable",
      "type": "function"
    },
    {
      "inputs": [],
      "name": "totalEmissions",
      "outputs": [
        {
          "internalType": "uint256",
          "name": "",
          "type": "uint256"
        }
      ],
      "stateMutability": "view",
      "type": "function"
    },
    {
      "inputs": [
        {
          "internalType": "address",
          "name": "newOwner",
          "type": "address"
        }
      ],
      "name": "transferOwnership",
      "outputs": [],
      "stateMutability": "nonpayable",
      "type": "function"
    },
    {
      "inputs": [],
      "name": "transmitEmissions",
      "outputs": [],
      "stateMutability": "nonpayable",
      "type": "function"
    },
    {
      "inputs": [
        {
          "internalType": "address",
          "name": "newReceiver",
          "type": "address"
        }
      ],
      "name": "updateReceiver",
      "outputs": [],
      "stateMutability": "nonpayable",
      "type": "function"
    },
    {
      "inputs": [
        {
          "internalType": "address",
          "name": "_user",
          "type": "address"
        }
      ],
      "name": "userCheckpoint",
      "outputs": [
        {
          "internalType": "bool",
          "name": "",
          "type": "bool"
        }
      ],
      "stateMutability": "nonpayable",
      "type": "function"
    }
  ],
  "bytecode": "0x60e060409080825234620002b457608081620011668038038091620000258285620002b9565b833981010312620002b4576200003b81620002f3565b60206200004a818401620002f3565b916200006660606200005e878701620002f3565b9501620002f3565b600180546001600160a01b03199081169091556000805433818416811783559197939493916001600160a01b039182167f8be0079c531659141344cd1fd0a4f28419497f9722a3daafe3b4186f6b6457e08a80a380841694620000cb86151562000308565b620000da828916151562000308565b620000e9828416151562000308565b16958693620000fa85151562000308565b60805260c05260a0526002541617600255845190631627391760e11b82528282600481845afa91821562000272578591849183946200027c575b50600488518094819363277dbafb60e01b83525af1908115620002725785916200023b575b5085518087016001600160401b03811182821017620002275782918591895284815201528160065560075515620002135762093a80420460035583519283528201527f62904549814f5511a5d36a62611a6e2fe1d2c29b6de74de25d95395e0a7d009b908290a151610e1090816200035682396080518181816105c60152818161067f0152610b78015260a0518181816106110152610c68015260c0518181816102470152818161028b0152818161034f015261086b0152f35b634e487b7160e01b83526001600452602483fd5b634e487b7160e01b87526041600452602487fd5b90508281813d83116200026a575b620002558183620002b9565b810103126200026657513862000159565b8480fd5b503d62000249565b86513d87823e3d90fd5b9250925081813d8311620002ac575b620002978183620002b9565b81010312620002665782859151923862000134565b503d6200028b565b600080fd5b601f909101601f19168101906001600160401b03821190821017620002dd57604052565b634e487b7160e01b600052604160045260246000fd5b51906001600160a01b0382168203620002b457565b156200031057565b60405162461bcd60e51b815260206004820152601660248201527f43414e4e4f54204245205a45524f2041444452455353000000000000000000006044820152606490fdfe608080604052600436101561001357600080fd5b600090813560e01c9081630181b60714610c97575080630754617214610c525780630959950414610b21578063450db90b14610b03578063715018a614610a9e57806379ba5097146109e15780637ba2196a146108e45780638da5cb5b146108bd5780638fe8a1011461089a57806399eecb3b146108555780639fadebf4146105f5578063a5870d6b146105b0578063b07b709b14610202578063caa0b9ed146101c9578063d340ef8a146101ab578063e30c397814610182578063f2fde38b146101125763f7260d3e146100e757600080fd5b3461010f578060031936011261010f576002546040516001600160a01b039091168152602090f35b80fd5b503461010f57602036600319011261010f576004356001600160a01b038181169182900361017e57610142610cbc565b600180546001600160a01b031916831790558254167f38d16b8cac22d99fc7c124b9cd0de2d3fa1faef420bfe791d8c362d765e227008380a380f35b8280fd5b503461010f578060031936011261010f576001546040516001600160a01b039091168152602090f35b503461010f578060031936011261010f576020600354604051908152f35b503461010f57602036600319011261010f57600435906001600160a01b038216820361010f5760206101fa83610d7d565b604051908152f35b503461010f57602036600319011261010f576001600160a01b03906004358281160361010f576003549062093a8042048203610244575b602060405160018152f35b827f0000000000000000000000000000000000000000000000000000000000000000163b1561010f57604051638aca6a2360e01b81523060048201526024939082818681837f000000000000000000000000000000000000000000000000000000000000000087165af180156105a55790839161058d575b5050604051906040820182811067ffffffffffffffff821117610578576040526006805483526007546020840152610100850185119490918185875b6104675761010082018410156105665762093a804204841461053c578362093a8081020462093a80148415171561046757604051630cb8c08d60e31b815230600482015262093a8085028a820152906020826044817f000000000000000000000000000000000000000000000000000000000000000088165afa9182156105315788926104f8575b5060208701518062093a808702111590816104df575b50156104a0576103db6103d4916103ae895185610dba565b670de0b6b3a76400009384916103ce8c602062093a808d02910151610dcd565b90610dba565b0490610d97565b9187518281029080820484149015171561048d57671080e992061ab300900480895261040691610dba565b62093a80808702018062093a8088021161048d576104329392916103ce6103d49260208c015190610dcd565b9260208601516301e13380810180911161047a57806020880152865186556007555b60001981146104675760010192876102f8565b634e487b7160e01b875260116004528887fd5b634e487b7160e01b885260116004528988fd5b634e487b7160e01b8a5260116004528b8afd5b906104ad90875190610dba565b62093a8081029080820462093a80149015171561047a5790670de0b6b3a76400006104d9920490610d97565b92610454565b62093a808781029081019250821061048d571038610396565b9091506020813d602011610529575b8161051460209383610d3e565b8101031261052457519038610380565b600080fd5b3d9150610507565b6040513d8a823e3d90fd5b965050505050505061055b91505b62093a804204600355600454610d97565b600455388080610239565b965050505050505061055b915061054a565b85634e487b7160e01b60005260416004526000fd5b61059690610d14565b6105a15781386102bc565b5080fd5b6040513d85823e3d90fd5b503461010f578060031936011261010f576040517f00000000000000000000000000000000000000000000000000000000000000006001600160a01b03168152602090f35b503461010f578060031936011261010f57806001600160a01b037f00000000000000000000000000000000000000000000000000000000000000008116803b15610851578260405180926335313c2160e11b82523060048301528160249687925af1801561084657610833575b506040516370a0823160e01b8082523060048301529290916020917f000000000000000000000000000000000000000000000000000000000000000082169183858381865afa9485156108285787956107f9575b506106c2851515610d60565b60025416906040519580875282600488015284878381875afa9687156105315788976107ca575b508488604460405163a9059cbb60e01b8152866004820152898682015282885af13d15601f3d1160018b51141617161561079457908492916040519485938492835260048301525afa918215610789578592610759575b50506107569261074f91610dcd565b1115610d60565b80f35b90809250813d8311610782575b6107708183610d3e565b8101031261052457518261074f610740565b503d610766565b6040513d87823e3d90fd5b60405162461bcd60e51b815260048101869052600f818401526e1514905394d1915497d19052531151608a1b6044820152606490fd5b9096508481813d83116107f2575b6107e28183610d3e565b81010312610524575195386106e9565b503d6107d8565b9094508381813d8311610821575b6108118183610d3e565b81010312610524575193386106b6565b503d610807565b6040513d89823e3d90fd5b61083f90939193610d14565b9138610662565b6040513d86823e3d90fd5b5050fd5b503461010f578060031936011261010f576040517f00000000000000000000000000000000000000000000000000000000000000006001600160a01b03168152602090f35b503461010f578060031936011261010f57602060ff600554166040519015158152f35b503461010f578060031936011261010f57546040516001600160a01b039091168152602090f35b503461010f57602036600319011261010f576004356001600160a01b038181169182900361017e57610914610cbc565b81156109a357600254908116821461096a576001600160a01b03191681176002556040805182815260208101929092527f62904549814f5511a5d36a62611a6e2fe1d2c29b6de74de25d95395e0a7d009b91a180f35b60405162461bcd60e51b81526020600482015260116024820152702a24229029a0a6a2902922a1a2a4ab22a960791b6044820152606490fd5b60405162461bcd60e51b815260206004820152601660248201527543414e4e4f54204245205a45524f204144445245535360501b6044820152606490fd5b503461010f578060031936011261010f576001546001600160a01b033381831603610a47576001600160a01b031991821660015582543392811683178455167f8be0079c531659141344cd1fd0a4f28419497f9722a3daafe3b4186f6b6457e08380a380f35b60405162461bcd60e51b815260206004820152602960248201527f4f776e61626c6532537465703a2063616c6c6572206973206e6f7420746865206044820152683732bb9037bbb732b960b91b6064820152608490fd5b503461010f578060031936011261010f57610ab7610cbc565b600180546001600160a01b03199081169091558154908116825581906001600160a01b03167f8be0079c531659141344cd1fd0a4f28419497f9722a3daafe3b4186f6b6457e08280a380f35b503461010f578060031936011261010f576020600454604051908152f35b503461010f576020806003193601126105a1576004359081151591828103610c4e57610b4b610cbc565b15610b675750816006555b60ff80196005541691161760055580f35b604051631627391760e11b815283907f00000000000000000000000000000000000000000000000000000000000000006001600160a01b03168382600481845afa80156105a55784928491610c1f575b5060065560046040518094819363277dbafb60e01b83525af1918215610846578492610bf1575b505060075562093a804204600355610b56565b90809250813d8311610c18575b610c088183610d3e565b8101031261017e57513880610bde565b503d610bfe565b83819492503d8311610c47575b610c368183610d3e565b8101031261017e5783915138610bb7565b503d610c2c565b8380fd5b503461010f578060031936011261010f576040517f00000000000000000000000000000000000000000000000000000000000000006001600160a01b03168152602090f35b9050346105a157816003193601126105a1576040906006546007549082526020820152f35b6000546001600160a01b03163303610cd057565b606460405162461bcd60e51b815260206004820152602060248201527f4f776e61626c653a2063616c6c6572206973206e6f7420746865206f776e65726044820152fd5b67ffffffffffffffff8111610d2857604052565b634e487b7160e01b600052604160045260246000fd5b90601f8019910116810190811067ffffffffffffffff821117610d2857604052565b15610d6757565b634e487b7160e01b600052600160045260246000fd5b6001600160a01b03163014610d9157600090565b60045490565b91908201809211610da457565b634e487b7160e01b600052601160045260246000fd5b81810292918115918404141715610da457565b91908203918211610da45756fea2646970667358221220dab57cac40a01d1135695fd29e8863c38e443f887df0383974e13f33b13fd75d64736f6c63430008110033",
  "linkReferences": {},
  "deployedLinkReferences": {}
}