{
  "_format": "hh-sol-artifact-1",
  "contractName": "HOPE",
  "sourceName": "contracts/tokens/HOPE.sol",
  "abi": [
    {
      "anonymous": false,
      "inputs": [
        {
          "indexed": true,
          "internalType": "address",
          "name": "account",
          "type": "address"
        },
        {
          "indexed": false,
          "internalType": "uint256",
          "name": "effectiveTime",
          "type": "uint256"
        },
        {
          "indexed": false,
          "internalType": "address",
          "name": "sender",
          "type": "address"
        }
      ],
      "name": "AgentChangeEffectiveTime",
      "type": "event"
    },
    {
      "anonymous": false,
      "inputs": [
        {
          "indexed": true,
          "internalType": "address",
          "name": "account",
          "type": "address"
        },
        {
          "indexed": false,
          "internalType": "uint256",
          "name": "expirationTime",
          "type": "uint256"
        },
        {
          "indexed": false,
          "internalType": "address",
          "name": "sender",
          "type": "address"
        }
      ],
      "name": "AgentChangeExpirationTime",
      "type": "event"
    },
    {
      "anonymous": false,
      "inputs": [
        {
          "indexed": true,
          "internalType": "address",
          "name": "account",
          "type": "address"
        },
        {
          "indexed": false,
          "internalType": "uint256",
          "name": "credit",
          "type": "uint256"
        },
        {
          "indexed": false,
          "internalType": "address",
          "name": "sender",
          "type": "address"
        }
      ],
      "name": "AgentDecreaseCredit",
      "type": "event"
    },
    {
      "anonymous": false,
      "inputs": [
        {
          "indexed": true,
          "internalType": "address",
          "name": "account",
          "type": "address"
        },
        {
          "indexed": false,
          "internalType": "uint256",
          "name": "credit",
          "type": "uint256"
        },
        {
          "indexed": false,
          "internalType": "uint256",
          "name": "effectiveTime",
          "type": "uint256"
        },
        {
          "indexed": false,
          "internalType": "uint256",
          "name": "expirationTime",
          "type": "uint256"
        },
        {
          "indexed": false,
          "internalType": "bool",
          "name": "minable",
          "type": "bool"
        },
        {
          "indexed": false,
          "internalType": "bool",
          "name": "burnable",
          "type": "bool"
        },
        {
          "indexed": false,
          "internalType": "address",
          "name": "sender",
          "type": "address"
        }
      ],
      "name": "AgentGranted",
      "type": "event"
    },
    {
      "anonymous": false,
      "inputs": [
        {
          "indexed": true,
          "internalType": "address",
          "name": "account",
          "type": "address"
        },
        {
          "indexed": false,
          "internalType": "uint256",
          "name": "credit",
          "type": "uint256"
        },
        {
          "indexed": false,
          "internalType": "address",
          "name": "sender",
          "type": "address"
        }
      ],
      "name": "AgentIncreaseCredit",
      "type": "event"
    },
    {
      "anonymous": false,
      "inputs": [
        {
          "indexed": true,
          "internalType": "address",
          "name": "account",
          "type": "address"
        },
        {
          "indexed": false,
          "internalType": "address",
          "name": "sender",
          "type": "address"
        }
      ],
      "name": "AgentRevoked",
      "type": "event"
    },
    {
      "anonymous": false,
      "inputs": [
        {
          "indexed": true,
          "internalType": "address",
          "name": "account",
          "type": "address"
        },
        {
          "indexed": false,
          "internalType": "bool",
          "name": "burnable",
          "type": "bool"
        },
        {
          "indexed": false,
          "internalType": "address",
          "name": "sender",
          "type": "address"
        }
      ],
      "name": "AgentSwitchBurnable",
      "type": "event"
    },
    {
      "anonymous": false,
      "inputs": [
        {
          "indexed": true,
          "internalType": "address",
          "name": "account",
          "type": "address"
        },
        {
          "indexed": false,
          "internalType": "bool",
          "name": "minable",
          "type": "bool"
        },
        {
          "indexed": false,
          "internalType": "address",
          "name": "sender",
          "type": "address"
        }
      ],
      "name": "AgentSwitchMinable",
      "type": "event"
    },
    {
      "anonymous": false,
      "inputs": [
        {
          "indexed": true,
          "internalType": "address",
          "name": "owner",
          "type": "address"
        },
        {
          "indexed": true,
          "internalType": "address",
          "name": "spender",
          "type": "address"
        },
        {
          "indexed": false,
          "internalType": "uint256",
          "name": "value",
          "type": "uint256"
        }
      ],
      "name": "Approval",
      "type": "event"
    },
    {
      "anonymous": false,
      "inputs": [
        {
          "indexed": false,
          "internalType": "uint8",
          "name": "version",
          "type": "uint8"
        }
      ],
      "name": "Initialized",
      "type": "event"
    },
    {
      "anonymous": false,
      "inputs": [
        {
          "indexed": true,
          "internalType": "address",
          "name": "previousOwner",
          "type": "address"
        },
        {
          "indexed": true,
          "internalType": "address",
          "name": "newOwner",
          "type": "address"
        }
      ],
      "name": "OwnershipTransferStarted",
      "type": "event"
    },
    {
      "anonymous": false,
      "inputs": [
        {
          "indexed": true,
          "internalType": "address",
          "name": "previousOwner",
          "type": "address"
        },
        {
          "indexed": true,
          "internalType": "address",
          "name": "newOwner",
          "type": "address"
        }
      ],
      "name": "OwnershipTransferred",
      "type": "event"
    },
    {
      "anonymous": false,
      "inputs": [
        {
          "indexed": true,
          "internalType": "address",
          "name": "from",
          "type": "address"
        },
        {
          "indexed": true,
          "internalType": "address",
          "name": "to",
          "type": "address"
        },
        {
          "indexed": false,
          "internalType": "uint256",
          "name": "value",
          "type": "uint256"
        }
      ],
      "name": "Transfer",
      "type": "event"
    },
    {
      "inputs": [],
      "name": "acceptOwnership",
      "outputs": [],
      "stateMutability": "nonpayable",
      "type": "function"
    },
    {
      "inputs": [
        {
          "internalType": "address",
          "name": "owner",
          "type": "address"
        },
        {
          "internalType": "address",
          "name": "spender",
          "type": "address"
        }
      ],
      "name": "allowance",
      "outputs": [
        {
          "internalType": "uint256",
          "name": "",
          "type": "uint256"
        }
      ],
      "stateMutability": "view",
      "type": "function"
    },
    {
      "inputs": [
        {
          "internalType": "address",
          "name": "spender",
          "type": "address"
        },
        {
          "internalType": "uint256",
          "name": "amount",
          "type": "uint256"
        }
      ],
      "name": "approve",
      "outputs": [
        {
          "internalType": "bool",
          "name": "",
          "type": "bool"
        }
      ],
      "stateMutability": "nonpayable",
      "type": "function"
    },
    {
      "inputs": [
        {
          "internalType": "address",
          "name": "account",
          "type": "address"
        }
      ],
      "name": "balanceOf",
      "outputs": [
        {
          "internalType": "uint256",
          "name": "",
          "type": "uint256"
        }
      ],
      "stateMutability": "view",
      "type": "function"
    },
    {
      "inputs": [
        {
          "internalType": "uint256",
          "name": "amount",
          "type": "uint256"
        }
      ],
      "name": "burn",
      "outputs": [],
      "stateMutability": "nonpayable",
      "type": "function"
    },
    {
      "inputs": [
        {
          "internalType": "address",
          "name": "account",
          "type": "address"
        },
        {
          "internalType": "uint256",
          "name": "effectiveTime",
          "type": "uint256"
        }
      ],
      "name": "changeEffectiveTime",
      "outputs": [],
      "stateMutability": "nonpayable",
      "type": "function"
    },
    {
      "inputs": [
        {
          "internalType": "address",
          "name": "account",
          "type": "address"
        },
        {
          "internalType": "uint256",
          "name": "expirationTime",
          "type": "uint256"
        }
      ],
      "name": "changeExpirationTime",
      "outputs": [],
      "stateMutability": "nonpayable",
      "type": "function"
    },
    {
      "inputs": [],
      "name": "decimals",
      "outputs": [
        {
          "internalType": "uint8",
          "name": "",
          "type": "uint8"
        }
      ],
      "stateMutability": "view",
      "type": "function"
    },
    {
      "inputs": [
        {
          "internalType": "address",
          "name": "spender",
          "type": "address"
        },
        {
          "internalType": "uint256",
          "name": "subtractedValue",
          "type": "uint256"
        }
      ],
      "name": "decreaseAllowance",
      "outputs": [
        {
          "internalType": "bool",
          "name": "",
          "type": "bool"
        }
      ],
      "stateMutability": "nonpayable",
      "type": "function"
    },
    {
      "inputs": [
        {
          "internalType": "address",
          "name": "account",
          "type": "address"
        },
        {
          "internalType": "uint256",
          "name": "credit",
          "type": "uint256"
        }
      ],
      "name": "decreaseCredit",
      "outputs": [],
      "stateMutability": "nonpayable",
      "type": "function"
    },
    {
      "inputs": [
        {
          "internalType": "address",
          "name": "account",
          "type": "address"
        }
      ],
      "name": "getEffectiveTime",
      "outputs": [
        {
          "internalType": "uint256",
          "name": "",
          "type": "uint256"
        }
      ],
      "stateMutability": "view",
      "type": "function"
    },
    {
      "inputs": [
        {
          "internalType": "address",
          "name": "account",
          "type": "address"
        }
      ],
      "name": "getExpirationTime",
      "outputs": [
        {
          "internalType": "uint256",
          "name": "",
          "type": "uint256"
        }
      ],
      "stateMutability": "view",
      "type": "function"
    },
    {
      "inputs": [
        {
          "internalType": "address",
          "name": "account",
          "type": "address"
        }
      ],
      "name": "getMaxCredit",
      "outputs": [
        {
          "internalType": "uint256",
          "name": "",
          "type": "uint256"
        }
      ],
      "stateMutability": "view",
      "type": "function"
    },
    {
      "inputs": [
        {
          "internalType": "address",
          "name": "account",
          "type": "address"
        }
      ],
      "name": "getRemainingCredit",
      "outputs": [
        {
          "internalType": "uint256",
          "name": "",
          "type": "uint256"
        }
      ],
      "stateMutability": "view",
      "type": "function"
    },
    {
      "inputs": [
        {
          "internalType": "address",
          "name": "account",
          "type": "address"
        },
        {
          "internalType": "uint256",
          "name": "credit",
          "type": "uint256"
        },
        {
          "internalType": "uint256",
          "name": "effectiveTime",
          "type": "uint256"
        },
        {
          "internalType": "uint256",
          "name": "expirationTime",
          "type": "uint256"
        },
        {
          "internalType": "bool",
          "name": "minable",
          "type": "bool"
        },
        {
          "internalType": "bool",
          "name": "burnable",
          "type": "bool"
        }
      ],
      "name": "grantAgent",
      "outputs": [],
      "stateMutability": "nonpayable",
      "type": "function"
    },
    {
      "inputs": [
        {
          "internalType": "address",
          "name": "account",
          "type": "address"
        }
      ],
      "name": "hasAgent",
      "outputs": [
        {
          "internalType": "bool",
          "name": "",
          "type": "bool"
        }
      ],
      "stateMutability": "view",
      "type": "function"
    },
    {
      "inputs": [
        {
          "internalType": "address",
          "name": "spender",
          "type": "address"
        },
        {
          "internalType": "uint256",
          "name": "addedValue",
          "type": "uint256"
        }
      ],
      "name": "increaseAllowance",
      "outputs": [
        {
          "internalType": "bool",
          "name": "",
          "type": "bool"
        }
      ],
      "stateMutability": "nonpayable",
      "type": "function"
    },
    {
      "inputs": [
        {
          "internalType": "address",
          "name": "account",
          "type": "address"
        },
        {
          "internalType": "uint256",
          "name": "credit",
          "type": "uint256"
        }
      ],
      "name": "increaseCredit",
      "outputs": [],
      "stateMutability": "nonpayable",
      "type": "function"
    },
    {
      "inputs": [
        {
          "internalType": "address",
          "name": "_restrictedList",
          "type": "address"
        }
      ],
      "name": "initialize",
      "outputs": [],
      "stateMutability": "nonpayable",
      "type": "function"
    },
    {
      "inputs": [
        {
          "internalType": "address",
          "name": "account",
          "type": "address"
        }
      ],
      "name": "isBurnable",
      "outputs": [
        {
          "internalType": "bool",
          "name": "",
          "type": "bool"
        }
      ],
      "stateMutability": "view",
      "type": "function"
    },
    {
      "inputs": [
        {
          "internalType": "address",
          "name": "account",
          "type": "address"
        }
      ],
      "name": "isMinable",
      "outputs": [
        {
          "internalType": "bool",
          "name": "",
          "type": "bool"
        }
      ],
      "stateMutability": "view",
      "type": "function"
    },
    {
      "inputs": [
        {
          "internalType": "address",
          "name": "to",
          "type": "address"
        },
        {
          "internalType": "uint256",
          "name": "amount",
          "type": "uint256"
        }
      ],
      "name": "mint",
      "outputs": [],
      "stateMutability": "nonpayable",
      "type": "function"
    },
    {
      "inputs": [],
      "name": "name",
      "outputs": [
        {
          "internalType": "string",
          "name": "",
          "type": "string"
        }
      ],
      "stateMutability": "view",
      "type": "function"
    },
    {
      "inputs": [],
      "name": "owner",
      "outputs": [
        {
          "internalType": "address",
          "name": "",
          "type": "address"
        }
      ],
      "stateMutability": "view",
      "type": "function"
    },
    {
      "inputs": [],
      "name": "pendingOwner",
      "outputs": [
        {
          "internalType": "address",
          "name": "",
          "type": "address"
        }
      ],
      "stateMutability": "view",
      "type": "function"
    },
    {
      "inputs": [],
      "name": "renounceOwnership",
      "outputs": [],
      "stateMutability": "nonpayable",
      "type": "function"
    },
    {
      "inputs": [],
      "name": "restrictedList",
      "outputs": [
        {
          "internalType": "address",
          "name": "",
          "type": "address"
        }
      ],
      "stateMutability": "view",
      "type": "function"
    },
    {
      "inputs": [
        {
          "internalType": "address",
          "name": "account",
          "type": "address"
        }
      ],
      "name": "revokeAgent",
      "outputs": [],
      "stateMutability": "nonpayable",
      "type": "function"
    },
    {
      "inputs": [
        {
          "internalType": "address",
          "name": "account",
          "type": "address"
        },
        {
          "internalType": "bool",
          "name": "burnable",
          "type": "bool"
        }
      ],
      "name": "switchBurnable",
      "outputs": [],
      "stateMutability": "nonpayable",
      "type": "function"
    },
    {
      "inputs": [
        {
          "internalType": "address",
          "name": "account",
          "type": "address"
        },
        {
          "internalType": "bool",
          "name": "minable",
          "type": "bool"
        }
      ],
      "name": "switchMinable",
      "outputs": [],
      "stateMutability": "nonpayable",
      "type": "function"
    },
    {
      "inputs": [],
      "name": "symbol",
      "outputs": [
        {
          "internalType": "string",
          "name": "",
          "type": "string"
        }
      ],
      "stateMutability": "view",
      "type": "function"
    },
    {
      "inputs": [],
      "name": "totalSupply",
      "outputs": [
        {
          "internalType": "uint256",
          "name": "",
          "type": "uint256"
        }
      ],
      "stateMutability": "view",
      "type": "function"
    },
    {
      "inputs": [
        {
          "internalType": "address",
          "name": "to",
          "type": "address"
        },
        {
          "internalType": "uint256",
          "name": "amount",
          "type": "uint256"
        }
      ],
      "name": "transfer",
      "outputs": [
        {
          "internalType": "bool",
          "name": "",
          "type": "bool"
        }
      ],
      "stateMutability": "nonpayable",
      "type": "function"
    },
    {
      "inputs": [
        {
          "internalType": "address",
          "name": "from",
          "type": "address"
        },
        {
          "internalType": "address",
          "name": "to",
          "type": "address"
        },
        {
          "internalType": "uint256",
          "name": "amount",
          "type": "uint256"
        }
      ],
      "name": "transferFrom",
      "outputs": [
        {
          "internalType": "bool",
          "name": "",
          "type": "bool"
        }
      ],
      "stateMutability": "nonpayable",
      "type": "function"
    },
    {
      "inputs": [
        {
          "internalType": "address",
          "name": "newOwner",
          "type": "address"
        }
      ],
      "name": "transferOwnership",
      "outputs": [],
      "stateMutability": "nonpayable",
      "type": "function"
    }
  ],
  "bytecode": "0x608060405234801561001057600080fd5b506125ba806100206000396000f3fe608060405234801561001057600080fd5b50600436106102115760003560e01c806370a0823111610125578063a457c2d7116100ad578063c4d66de81161007c578063c4d66de81461046f578063dd62ed3e14610482578063e30c397814610495578063ea765370146104a6578063f2fde38b146104b957600080fd5b8063a457c2d714610423578063a504aded14610436578063a56ee0e014610449578063a9059cbb1461045c57600080fd5b80637da6ac0d116100f45780637da6ac0d146103bd5780638da5cb5b146103d057806395d89b41146103f55780639c5c95fc146103fd5780639ecd4e6a1461041057600080fd5b806370a0823114610371578063715018a61461039a57806379ba5097146103a25780637cd16025146103aa57600080fd5b806339509351116101a857806340c10f191161017757806340c10f191461031257806342966c68146103255780634aa1124814610338578063668c01651461034b5780636975454c1461035e57600080fd5b806339509351146102c65780633b09466b146102d95780633d421ea2146102ec5780633f0f0919146102ff57600080fd5b806323b872dd116101e457806323b872dd1461027c57806323e7ef4d1461028f5780632b5fef2f146102a4578063313ce567146102b757600080fd5b806306fdde0314610216578063095ea7b31461023457806318160ddd146102575780631b20aafc14610269575b600080fd5b61021e6104cc565b60405161022b919061214c565b60405180910390f35b6102476102423660046121b6565b61055e565b604051901515815260200161022b565b6035545b60405190815260200161022b565b61025b6102773660046121e0565b610578565b61024761028a3660046121fb565b6105c7565b6102a261029d3660046121b6565b6106dd565b005b61025b6102b23660046121e0565b6107e9565b6040516012815260200161022b565b6102476102d43660046121b6565b61082f565b6102a26102e73660046121b6565b610851565b6102476102fa3660046121e0565b610948565b6102a261030d366004612245565b610996565b6102a26103203660046121b6565b610aac565b6102a261033336600461227c565b610ca8565b6102476103463660046121e0565b610da1565b61025b6103593660046121e0565b610dbf565b61025b61036c3660046121e0565b610e05565b61025b61037f3660046121e0565b6001600160a01b031660009081526033602052604090205490565b6102a2610ea1565b6102a2610eb5565b6102476103b83660046121e0565b610f2c565b6102a26103cb3660046121e0565b610f75565b6065546001600160a01b03165b6040516001600160a01b03909116815260200161022b565b61021e610fd1565b6102a261040b3660046121b6565b610fe0565b6102a261041e366004612295565b6110fd565b6102476104313660046121b6565b611225565b60ca546103dd906001600160a01b031681565b6102a2610457366004612245565b6112ab565b61024761046a3660046121b6565b6113b0565b6102a261047d3660046121e0565b6114c2565b61025b6104903660046122fa565b611656565b6097546001600160a01b03166103dd565b6102a26104b43660046121b6565b611681565b6102a26104c73660046121e0565b6117f1565b6060603680546104db9061232d565b80601f01602080910402602001604051908101604052809291908181526020018280546105079061232d565b80156105545780601f1061052957610100808354040283529160200191610554565b820191906000526020600020905b81548152906001019060200180831161053757829003601f168201915b5050505050905090565b60003361056c818585611862565b60019150505b92915050565b600061058382610da1565b6105a85760405162461bcd60e51b815260040161059f90612367565b60405180910390fd5b506001600160a01b0316600090815260c9602052604090206001015490565b60ca546040516365e642dd60e11b81526001600160a01b038581166004830152600092169063cbcc85ba90602401602060405180830381865afa158015610612573d6000803e3d6000fd5b505050506040513d601f19601f820116820180604052508101906106369190612386565b1580156106ae575060ca546040516365e642dd60e11b81526001600160a01b0385811660048301529091169063cbcc85ba90602401602060405180830381865afa158015610688573d6000803e3d6000fd5b505050506040513d601f19601f820116820180604052508101906106ac9190612386565b155b6106ca5760405162461bcd60e51b815260040161059f906123a3565b6106d5848484611987565b949350505050565b6106e56119a0565b6001600160a01b03821661070b5760405162461bcd60e51b815260040161059f906123c2565b61071482610da1565b6107305760405162461bcd60e51b815260040161059f90612367565b6001600160a01b038216600090815260c9602052604090206004015481106107825760405162461bcd60e51b815260206004820152600560248201526420a398189960d91b604482015260640161059f565b6001600160a01b038216600081815260c9602052604090206003018290557ffe54f0ea15165a7f513e0ba0d0dc9e7bdfe4c0caa3d9eb38e03e1d18cfff60e982335b604080519283526001600160a01b039091166020830152015b60405180910390a25050565b60006107f482610da1565b6108105760405162461bcd60e51b815260040161059f90612367565b506001600160a01b0316600090815260c9602052604090206004015490565b60003361056c8185856108428383611656565b61084c91906123f7565b611862565b6108596119a0565b6001600160a01b03821661087f5760405162461bcd60e51b815260040161059f906123c2565b61088882610da1565b6108a45760405162461bcd60e51b815260040161059f90612367565b6001600160a01b038216600090815260c9602052604090206004015481148015906108ce57504281115b6109025760405162461bcd60e51b8152602060048201526005602482015264414730313360d81b604482015260640161059f565b6001600160a01b038216600081815260c9602052604090206004018290557fb72941046b2de561a02fb7b3c61bc68558dffa7eaa79a8d7ce3b32adfa007dc482336107c4565b600061095382610da1565b61096f5760405162461bcd60e51b815260040161059f90612367565b506001600160a01b0316600090815260c96020526040902060050154610100900460ff1690565b61099e6119a0565b6001600160a01b0382166109c45760405162461bcd60e51b815260040161059f906123c2565b6109cd82610da1565b6109e95760405162461bcd60e51b815260040161059f90612367565b6001600160a01b038216600090815260c9602052604090206005015460ff16151581151503610a425760405162461bcd60e51b8152602060048201526005602482015264041473031360dc1b604482015260640161059f565b6001600160a01b038216600081815260c960205260409020600501805460ff19168315151790557f983d7331307ece40a28c52e3bf4570a2ccfd6c6184923cebc4053c656b4d935e82335b6040805192151583526001600160a01b039091166020830152016107dd565b610ab533610da1565b610ad15760405162461bcd60e51b815260040161059f90612367565b610ada33610f2c565b610b0e5760405162461bcd60e51b815260206004820152600560248201526420a398181960d91b604482015260640161059f565b60ca546040516365e642dd60e11b81526001600160a01b0384811660048301529091169063cbcc85ba90602401602060405180830381865afa158015610b58573d6000803e3d6000fd5b505050506040513d601f19601f82011682018060405250810190610b7c9190612386565b15610b995760405162461bcd60e51b815260040161059f906123a3565b333203610bd05760405162461bcd60e51b81526020600482015260056024820152640484f3030360dc1b604482015260640161059f565b42610bda33610dbf565b1115610c105760405162461bcd60e51b81526020600482015260056024820152641051cc0c4d60da1b604482015260640161059f565b42610c1a336107e9565b1015610c505760405162461bcd60e51b8152602060048201526005602482015264414730313160d81b604482015260640161059f565b80610c5a33610e05565b1015610c905760405162461bcd60e51b81526020600482015260056024820152641051cc0c0d60da1b604482015260640161059f565b610c9a82826119fa565b610ca43382611abb565b5050565b610cb133610da1565b610ccd5760405162461bcd60e51b815260040161059f90612367565b610cd633610948565b610d0a5760405162461bcd60e51b8152602060048201526005602482015264414730303360d81b604482015260640161059f565b42610d1433610dbf565b1115610d4a5760405162461bcd60e51b81526020600482015260056024820152641051cc0c4d60da1b604482015260640161059f565b42610d54336107e9565b1015610d8a5760405162461bcd60e51b8152602060048201526005602482015264414730313160d81b604482015260640161059f565b610d943382611aef565b610d9e3382611c20565b50565b6001600160a01b0316600090815260c9602052604090205460ff1690565b6000610dca82610da1565b610de65760405162461bcd60e51b815260040161059f90612367565b506001600160a01b0316600090815260c9602052604090206003015490565b6000610e1082610da1565b610e2c5760405162461bcd60e51b815260040161059f90612367565b6001600160a01b038216600090815260c96020526040902060030154421015610e5757506000919050565b6001600160a01b038216600090815260c96020526040902060040154421115610e8257506000919050565b506001600160a01b0316600090815260c9602052604090206002015490565b610ea96119a0565b610eb36000611c97565b565b60975433906001600160a01b03168114610f235760405162461bcd60e51b815260206004820152602960248201527f4f776e61626c6532537465703a2063616c6c6572206973206e6f7420746865206044820152683732bb9037bbb732b960b91b606482015260840161059f565b610d9e81611c97565b6000610f3782610da1565b610f535760405162461bcd60e51b815260040161059f90612367565b506001600160a01b0316600090815260c9602052604090206005015460ff1690565b610f7d6119a0565b6001600160a01b038116610fa35760405162461bcd60e51b815260040161059f906123c2565b610fac81610da1565b610fc85760405162461bcd60e51b815260040161059f90612367565b610d9e81611cb0565b6060603780546104db9061232d565b610fe86119a0565b6001600160a01b03821661100e5760405162461bcd60e51b815260040161059f906123c2565b61101782610da1565b6110335760405162461bcd60e51b815260040161059f90612367565b6000811161106b5760405162461bcd60e51b8152602060048201526005602482015264414730303760d81b604482015260640161059f565b6001600160a01b038216600090815260c96020526040812060010180548392906110969084906123f7565b90915550506001600160a01b038216600090815260c96020526040812060020180548392906110c69084906123f7565b90915550506001600160a01b0382167f84e17095e2891395ad1fbd948081d0d4224f8fd3147418315a85d9031ef243c782336107c4565b6111056119a0565b6001600160a01b03861661112b5760405162461bcd60e51b815260040161059f906123c2565b61113486610da1565b156111695760405162461bcd60e51b8152602060048201526005602482015264414730303160d81b604482015260640161059f565b600085116111a15760405162461bcd60e51b8152602060048201526005602482015264414730303560d81b604482015260640161059f565b4283116111d85760405162461bcd60e51b815260206004820152600560248201526420a398181b60d91b604482015260640161059f565b82841061120f5760405162461bcd60e51b8152602060048201526005602482015264414730313560d81b604482015260640161059f565b61121d868686868686611d39565b505050505050565b600033816112338286611656565b9050838110156112935760405162461bcd60e51b815260206004820152602560248201527f45524332303a2064656372656173656420616c6c6f77616e63652062656c6f77604482015264207a65726f60d81b606482015260840161059f565b6112a08286868403611862565b506001949350505050565b6112b36119a0565b6001600160a01b0382166112d95760405162461bcd60e51b815260040161059f906123c2565b6112e282610da1565b6112fe5760405162461bcd60e51b815260040161059f90612367565b6001600160a01b038216600090815260c96020526040902060050154610100900460ff1615158115150361135c5760405162461bcd60e51b8152602060048201526005602482015264041473031360dc1b604482015260640161059f565b6001600160a01b038216600081815260c960205260409020600501805461ff001916610100841515021790557f94663b97a0b95bb2e91cf13e324f357fb02d74984001548b86dca69c24b0bd548233610a8d565b60ca546040516365e642dd60e11b81523360048201526000916001600160a01b03169063cbcc85ba90602401602060405180830381865afa1580156113f9573d6000803e3d6000fd5b505050506040513d601f19601f8201168201806040525081019061141d9190612386565b158015611495575060ca546040516365e642dd60e11b81526001600160a01b0385811660048301529091169063cbcc85ba90602401602060405180830381865afa15801561146f573d6000803e3d6000fd5b505050506040513d601f19601f820116820180604052508101906114939190612386565b155b6114b15760405162461bcd60e51b815260040161059f906123a3565b6114bb8383611df7565b9392505050565b600054610100900460ff16158080156114e25750600054600160ff909116105b806114fc5750303b1580156114fc575060005460ff166001145b61155f5760405162461bcd60e51b815260206004820152602e60248201527f496e697469616c697a61626c653a20636f6e747261637420697320616c72656160448201526d191e481a5b9a5d1a585b1a5e995960921b606482015260840161059f565b6000805460ff191660011790558015611582576000805461ff0019166101001790555b6001600160a01b0382166115a85760405162461bcd60e51b815260040161059f906123c2565b60ca80546001600160a01b0319166001600160a01b0384161790556115cb611e05565b61160d60405180604001604052806004815260200163484f504560e01b81525060405180604001604052806004815260200163484f504560e01b815250611e34565b8015610ca4576000805461ff0019169055604051600181527f7f26b83ff96e1f2b6a682f133852f6798a09c465da95921460cefb38474024989060200160405180910390a15050565b6001600160a01b03918216600090815260346020908152604080832093909416825291909152205490565b6116896119a0565b6001600160a01b0382166116af5760405162461bcd60e51b815260040161059f906123c2565b6116b882610da1565b6116d45760405162461bcd60e51b815260040161059f90612367565b6000811161170c5760405162461bcd60e51b81526020600482015260056024820152640828e6060760db1b604482015260640161059f565b6001600160a01b038216600090815260c9602052604090206002015481111561175f5760405162461bcd60e51b8152602060048201526005602482015264414730303960d81b604482015260640161059f565b6001600160a01b038216600090815260c960205260408120600101805483929061178a90849061240a565b90915550506001600160a01b038216600090815260c96020526040812060020180548392906117ba90849061240a565b90915550506001600160a01b0382167ffdd698477e15c452212c14b9e3a287151224a493c6c59cb04f01832acb862d8082336107c4565b6117f96119a0565b609780546001600160a01b0383166001600160a01b0319909116811790915561182a6065546001600160a01b031690565b6001600160a01b03167f38d16b8cac22d99fc7c124b9cd0de2d3fa1faef420bfe791d8c362d765e2270060405160405180910390a350565b6001600160a01b0383166118c45760405162461bcd60e51b8152602060048201526024808201527f45524332303a20617070726f76652066726f6d20746865207a65726f206164646044820152637265737360e01b606482015260840161059f565b6001600160a01b0382166119255760405162461bcd60e51b815260206004820152602260248201527f45524332303a20617070726f766520746f20746865207a65726f206164647265604482015261737360f01b606482015260840161059f565b6001600160a01b0383811660008181526034602090815260408083209487168084529482529182902085905590518481527f8c5be1e5ebec7d5bd14f71427d1e84f3dd0314c0f7b2291e5b200ac8c7c3b92591015b60405180910390a3505050565b600033611995858285611e65565b6112a0858585611edf565b6065546001600160a01b03163314610eb35760405162461bcd60e51b815260206004820181905260248201527f4f776e61626c653a2063616c6c6572206973206e6f7420746865206f776e6572604482015260640161059f565b6001600160a01b038216611a505760405162461bcd60e51b815260206004820152601f60248201527f45524332303a206d696e7420746f20746865207a65726f206164647265737300604482015260640161059f565b8060356000828254611a6291906123f7565b90915550506001600160a01b0382166000818152603360209081526040808320805486019055518481527fddf252ad1be2c89b69c2b068fc378daa952ba7f163c4a11628f55a4df523b3ef910160405180910390a35050565b6001600160a01b038216600090815260c9602052604081206002018054839290611ae690849061240a565b90915550505050565b6001600160a01b038216611b4f5760405162461bcd60e51b815260206004820152602160248201527f45524332303a206275726e2066726f6d20746865207a65726f206164647265736044820152607360f81b606482015260840161059f565b6001600160a01b03821660009081526033602052604090205481811015611bc35760405162461bcd60e51b815260206004820152602260248201527f45524332303a206275726e20616d6f756e7420657863656564732062616c616e604482015261636560f01b606482015260840161059f565b6001600160a01b03831660008181526033602090815260408083208686039055603580548790039055518581529192917fddf252ad1be2c89b69c2b068fc378daa952ba7f163c4a11628f55a4df523b3ef910161197a565b505050565b611c2982610578565b81611c3384610e05565b611c3d91906123f7565b1115611c6c57611c4c82610578565b6001600160a01b038316600090815260c960205260409020600201555050565b6001600160a01b038216600090815260c9602052604081206002018054839290611ae69084906123f7565b609780546001600160a01b0319169055610d9e8161208a565b6001600160a01b038116600081815260c960205260408120805460ff191681556001810182905560028101829055600381018290556004810191909155600501805461ffff191690557f3855bc4f5f7ba28049e0abd622b6ffbbf63cb46e6b09593b9213c9fd38db5cad336040516001600160a01b03909116815260200160405180910390a250565b6001600160a01b038616600081815260c96020908152604091829020805460ff19166001908117825581018990556002810189905560038101889055600481018790556005018054851515610100810261ff001989151590811661ffff19909416939093171790925583518a8152928301899052828401889052606083015260808201523360a082015290517f653c7adce8c38cac02918619b870346e7e3665daa532904f41de39a25e4551e99181900360c00190a2505050505050565b60003361056c818585611edf565b600054610100900460ff16611e2c5760405162461bcd60e51b815260040161059f9061241d565b610eb36120dc565b600054610100900460ff16611e5b5760405162461bcd60e51b815260040161059f9061241d565b610ca4828261210c565b6000611e718484611656565b90506000198114611ed95781811015611ecc5760405162461bcd60e51b815260206004820152601d60248201527f45524332303a20696e73756666696369656e7420616c6c6f77616e6365000000604482015260640161059f565b611ed98484848403611862565b50505050565b6001600160a01b038316611f435760405162461bcd60e51b815260206004820152602560248201527f45524332303a207472616e736665722066726f6d20746865207a65726f206164604482015264647265737360d81b606482015260840161059f565b6001600160a01b038216611fa55760405162461bcd60e51b815260206004820152602360248201527f45524332303a207472616e7366657220746f20746865207a65726f206164647260448201526265737360e81b606482015260840161059f565b6001600160a01b0383166000908152603360205260409020548181101561201d5760405162461bcd60e51b815260206004820152602660248201527f45524332303a207472616e7366657220616d6f756e7420657863656564732062604482015265616c616e636560d01b606482015260840161059f565b6001600160a01b0380851660008181526033602052604080822086860390559286168082529083902080548601905591517fddf252ad1be2c89b69c2b068fc378daa952ba7f163c4a11628f55a4df523b3ef9061207d9086815260200190565b60405180910390a3611ed9565b606580546001600160a01b038381166001600160a01b0319831681179093556040519116919082907f8be0079c531659141344cd1fd0a4f28419497f9722a3daafe3b4186f6b6457e090600090a35050565b600054610100900460ff166121035760405162461bcd60e51b815260040161059f9061241d565b610eb333611c97565b600054610100900460ff166121335760405162461bcd60e51b815260040161059f9061241d565b603661213f83826124c4565b506037611c1b82826124c4565b600060208083528351808285015260005b818110156121795785810183015185820160400152820161215d565b506000604082860101526040601f19601f8301168501019250505092915050565b80356001600160a01b03811681146121b157600080fd5b919050565b600080604083850312156121c957600080fd5b6121d28361219a565b946020939093013593505050565b6000602082840312156121f257600080fd5b6114bb8261219a565b60008060006060848603121561221057600080fd5b6122198461219a565b92506122276020850161219a565b9150604084013590509250925092565b8015158114610d9e57600080fd5b6000806040838503121561225857600080fd5b6122618361219a565b9150602083013561227181612237565b809150509250929050565b60006020828403121561228e57600080fd5b5035919050565b60008060008060008060c087890312156122ae57600080fd5b6122b78761219a565b955060208701359450604087013593506060870135925060808701356122dc81612237565b915060a08701356122ec81612237565b809150509295509295509295565b6000806040838503121561230d57600080fd5b6123168361219a565b91506123246020840161219a565b90509250929050565b600181811c9082168061234157607f821691505b60208210810361236157634e487b7160e01b600052602260045260246000fd5b50919050565b602080825260059082015264041473030360dc1b604082015260600190565b60006020828403121561239857600080fd5b81516114bb81612237565b602080825260059082015264046413030360dc1b604082015260600190565b602080825260059082015264043453030360dc1b604082015260600190565b634e487b7160e01b600052601160045260246000fd5b80820180821115610572576105726123e1565b81810381811115610572576105726123e1565b6020808252602b908201527f496e697469616c697a61626c653a20636f6e7472616374206973206e6f74206960408201526a6e697469616c697a696e6760a81b606082015260800190565b634e487b7160e01b600052604160045260246000fd5b601f821115611c1b57600081815260208120601f850160051c810160208610156124a55750805b601f850160051c820191505b8181101561121d578281556001016124b1565b815167ffffffffffffffff8111156124de576124de612468565b6124f2816124ec845461232d565b8461247e565b602080601f831160018114612527576000841561250f5750858301515b600019600386901b1c1916600185901b17855561121d565b600085815260208120601f198616915b8281101561255657888601518255948401946001909101908401612537565b50858210156125745787850151600019600388901b60f8161c191681555b5050505050600190811b0190555056fea2646970667358221220bb9e6817849d6bb360be0fe2a2329c2883485aa7917336f5793b0bda9220088964736f6c63430008110033",
  "linkReferences": {},
  "deployedLinkReferences": {}
}