{
  "_format": "hh-sol-artifact-1",
  "contractName": "LightSwapBurner",
  "sourceName": "contracts/feeDistributor/LightSwapBurner.sol",
  "abi": [
    {
      "inputs": [
        {
          "internalType": "contract IERC20",
          "name": "_HOPE",
          "type": "address"
        }
      ],
      "stateMutability": "nonpayable",
      "type": "constructor"
    },
    {
      "anonymous": false,
      "inputs": [
        {
          "indexed": true,
          "internalType": "address",
          "name": "previousOwner",
          "type": "address"
        },
        {
          "indexed": true,
          "internalType": "address",
          "name": "newOwner",
          "type": "address"
        }
      ],
      "name": "OwnershipTransferStarted",
      "type": "event"
    },
    {
      "anonymous": false,
      "inputs": [
        {
          "indexed": true,
          "internalType": "address",
          "name": "previousOwner",
          "type": "address"
        },
        {
          "indexed": true,
          "internalType": "address",
          "name": "newOwner",
          "type": "address"
        }
      ],
      "name": "OwnershipTransferred",
      "type": "event"
    },
    {
      "inputs": [],
      "name": "HOPE",
      "outputs": [
        {
          "internalType": "contract IERC20",
          "name": "",
          "type": "address"
        }
      ],
      "stateMutability": "view",
      "type": "function"
    },
    {
      "inputs": [],
      "name": "acceptOwnership",
      "outputs": [],
      "stateMutability": "nonpayable",
      "type": "function"
    },
    {
      "inputs": [
        {
          "internalType": "contract ISwapRouter",
          "name": "",
          "type": "address"
        },
        {
          "internalType": "contract IERC20",
          "name": "",
          "type": "address"
        }
      ],
      "name": "approved",
      "outputs": [
        {
          "internalType": "bool",
          "name": "",
          "type": "bool"
        }
      ],
      "stateMutability": "view",
      "type": "function"
    },
    {
      "inputs": [
        {
          "internalType": "address",
          "name": "to",
          "type": "address"
        },
        {
          "internalType": "contract IERC20",
          "name": "token",
          "type": "address"
        },
        {
          "internalType": "uint256",
          "name": "amount",
          "type": "uint256"
        }
      ],
      "name": "burn",
      "outputs": [],
      "stateMutability": "nonpayable",
      "type": "function"
    },
    {
      "inputs": [],
      "name": "owner",
      "outputs": [
        {
          "internalType": "address",
          "name": "",
          "type": "address"
        }
      ],
      "stateMutability": "view",
      "type": "function"
    },
    {
      "inputs": [],
      "name": "pendingOwner",
      "outputs": [
        {
          "internalType": "address",
          "name": "",
          "type": "address"
        }
      ],
      "stateMutability": "view",
      "type": "function"
    },
    {
      "inputs": [],
      "name": "renounceOwnership",
      "outputs": [],
      "stateMutability": "nonpayable",
      "type": "function"
    },
    {
      "inputs": [
        {
          "internalType": "uint256",
          "name": "",
          "type": "uint256"
        }
      ],
      "name": "routers",
      "outputs": [
        {
          "internalType": "contract ISwapRouter",
          "name": "",
          "type": "address"
        }
      ],
      "stateMutability": "view",
      "type": "function"
    },
    {
      "inputs": [
        {
          "internalType": "contract ISwapRouter[]",
          "name": "_routers",
          "type": "address[]"
        }
      ],
      "name": "setRouters",
      "outputs": [],
      "stateMutability": "nonpayable",
      "type": "function"
    },
    {
      "inputs": [
        {
          "internalType": "address",
          "name": "newOwner",
          "type": "address"
        }
      ],
      "name": "transferOwnership",
      "outputs": [],
      "stateMutability": "nonpayable",
      "type": "function"
    }
  ],
  "bytecode": "0x60a0346100b857601f610b2738819003918201601f19168301916001600160401b038311848410176100bd578084926020946040528339810103126100b857516001600160a01b039081811681036100b85760018060a01b03198060015416600155600054903390821617600055604051923391167f8be0079c531659141344cd1fd0a4f28419497f9722a3daafe3b4186f6b6457e0600080a3608052610a5390816100d4823960805181818161016c01526106920152f35b600080fd5b634e487b7160e01b600052604160045260246000fdfe6080604052600436101561001257600080fd5b60003560e01c8062b439f91461076f5780634e9c111814610726578063715018a6146106c157806374ac61121461067c57806379ba5097146105b45780638da5cb5b1461058b578063e30c397814610562578063f2fde38b146104f2578063f4b16045146104985763f6b911bc1461008957600080fd5b34610493576060366003190112610493576100a2610879565b6100aa61088f565b6040516323b872dd60e01b815233600482015230602482015260448035828201819052909160208160648160006001600160a01b0389165af190811561025857600091610474575b50156104485760025493841561041c57600260005260018060a01b036000805160206109fe8339815191525416600095604051966060880188811067ffffffffffffffff821117610432576040526002885260403660208a01376001600160a01b03871661015f89610937565b5287516001101561041c577f00000000000000000000000000000000000000000000000000000000000000006001600160a01b0316604089015260005b8281106103375750505060018060a01b031693846000526003602052604060002060018060a01b03821660005260205260ff6040600020541615610264575b5091600080949260a094610214604051988997889687956338ed173960e01b8752600487015286602487015285015260a48401906109c0565b6001600160a01b03909116606483015242608483015203925af180156102585761023a57005b610256903d806000833e61024e81836108fd565b810190610944565b005b6040513d6000823e3d90fd5b60405163095ea7b360e01b8152600481018690526000196024820152602081868160006001600160a01b0387165af190811561025857600091610308575b50156102dc5760008581526003602090815260408083206001600160a01b039094168352929052908120805460ff191660011790556101db565b60405162461bcd60e51b81526020600482015260056024820152644c5342303160d81b81860152606490fd5b61032a915060203d602011610330575b61032281836108fd565b81019061091f565b386102a2565b503d610318565b61037460008a8961034785610854565b919054918b6040519687958694859363d06ca61f60e01b85526004850152604060248501528301906109c0565b039260039190911b1c6001600160a01b03165afa90811561025857600091610401575b50826103a282610937565b51116103d1575b5060001981146103bb5760010161019c565b634e487b7160e01b600052601160045260246000fd5b9093506103de9150610937565b516103e883610854565b905460039190911b1c6001600160a01b031692386103a9565b61041691503d806000833e61024e81836108fd565b38610397565b634e487b7160e01b600052603260045260246000fd5b634e487b7160e01b600052604160045260246000fd5b60405162461bcd60e51b815260206004820152600560248201526404c534230360dc1b81840152606490fd5b61048d915060203d6020116103305761032281836108fd565b386100f2565b600080fd5b34610493576040366003190112610493576004356001600160a01b0381811691829003610493576104c761088f565b91600052600360205260406000209116600052602052602060ff604060002054166040519015158152f35b346104935760203660031901126104935761050b610879565b6105136108a5565b60018060a01b0380911690816bffffffffffffffffffffffff60a01b6001541617600155600054167f38d16b8cac22d99fc7c124b9cd0de2d3fa1faef420bfe791d8c362d765e22700600080a3005b34610493576000366003190112610493576001546040516001600160a01b039091168152602090f35b34610493576000366003190112610493576000546040516001600160a01b039091168152602090f35b34610493576000366003190112610493576001546001600160a01b033381831603610625576bffffffffffffffffffffffff60a01b8092166001556000549133908316176000553391167f8be0079c531659141344cd1fd0a4f28419497f9722a3daafe3b4186f6b6457e0600080a3005b60405162461bcd60e51b815260206004820152602960248201527f4f776e61626c6532537465703a2063616c6c6572206973206e6f7420746865206044820152683732bb9037bbb732b960b91b6064820152608490fd5b34610493576000366003190112610493576040517f00000000000000000000000000000000000000000000000000000000000000006001600160a01b03168152602090f35b34610493576000366003190112610493576106da6108a5565b600180546001600160a01b0319908116909155600080549182168155906001600160a01b03167f8be0079c531659141344cd1fd0a4f28419497f9722a3daafe3b4186f6b6457e08280a3005b34610493576020366003190112610493576004356002548110156104935760026000526000805160206109fe83398151915201546040516001600160a01b039091168152602090f35b34610493576020806003193601126104935767ffffffffffffffff6004358181116104935736602382011215610493578060040135918211610493573660248360051b83010111610493576107c26108a5565b6801000000000000000082116104325760025482600255808310610825575b50602401916000925b8284106107f357005b8035936001600160a01b038516850361049357826001920194816000805160206109fe833981519152015501926107ea565b826000805160206109fe83398151915291820191015b81811061084857506107e1565b6000815560010161083b565b60025481101561041c5760026000526000805160206109fe8339815191520190600090565b600435906001600160a01b038216820361049357565b602435906001600160a01b038216820361049357565b6000546001600160a01b031633036108b957565b606460405162461bcd60e51b815260206004820152602060248201527f4f776e61626c653a2063616c6c6572206973206e6f7420746865206f776e65726044820152fd5b90601f8019910116810190811067ffffffffffffffff82111761043257604052565b90816020910312610493575180151581036104935790565b80511561041c5760200190565b90602090818382031261049357825167ffffffffffffffff93848211610493570181601f82011215610493578051938411610432578360051b906040519461098e858401876108fd565b85528380860192820101928311610493578301905b8282106109b1575050505090565b815181529083019083016109a3565b90815180825260208080930193019160005b8281106109e0575050505090565b83516001600160a01b0316855293810193928101926001016109d256fe405787fa12a823e0f2b7631cc41b3ba8828b3321ca811111fa75cd3aa3bb5acea26469706673582212200283541c8077b3b109be37e69ef7e08cdb9106c84463b8fbd45a4a9bc8be970364736f6c63430008110033",
  "linkReferences": {},
  "deployedLinkReferences": {}
}