{
  "_format": "hh-sol-artifact-1",
  "contractName": "MockLP",
  "sourceName": "contracts/mock/MockLP.sol",
  "abi": [
    {
      "inputs": [
        {
          "internalType": "string",
          "name": "_name",
          "type": "string"
        },
        {
          "internalType": "string",
          "name": "_symbol",
          "type": "string"
        },
        {
          "internalType": "uint256",
          "name": "_decimal",
          "type": "uint256"
        },
        {
          "internalType": "uint256",
          "name": "_supply",
          "type": "uint256"
        }
      ],
      "stateMutability": "nonpayable",
      "type": "constructor"
    },
    {
      "anonymous": false,
      "inputs": [
        {
          "indexed": true,
          "internalType": "address",
          "name": "_owner",
          "type": "address"
        },
        {
          "indexed": true,
          "internalType": "address",
          "name": "_spender",
          "type": "address"
        },
        {
          "indexed": false,
          "internalType": "uint256",
          "name": "_value",
          "type": "uint256"
        }
      ],
      "name": "Approval",
      "type": "event"
    },
    {
      "anonymous": false,
      "inputs": [
        {
          "indexed": true,
          "internalType": "address",
          "name": "_from",
          "type": "address"
        },
        {
          "indexed": true,
          "internalType": "address",
          "name": "_to",
          "type": "address"
        },
        {
          "indexed": false,
          "internalType": "uint256",
          "name": "_value",
          "type": "uint256"
        }
      ],
      "name": "Transfer",
      "type": "event"
    },
    {
      "inputs": [
        {
          "internalType": "address",
          "name": "_owner",
          "type": "address"
        },
        {
          "internalType": "address",
          "name": "_spender",
          "type": "address"
        }
      ],
      "name": "allowance",
      "outputs": [
        {
          "internalType": "uint256",
          "name": "",
          "type": "uint256"
        }
      ],
      "stateMutability": "view",
      "type": "function"
    },
    {
      "inputs": [
        {
          "internalType": "address",
          "name": "",
          "type": "address"
        },
        {
          "internalType": "address",
          "name": "",
          "type": "address"
        }
      ],
      "name": "allowances",
      "outputs": [
        {
          "internalType": "uint256",
          "name": "",
          "type": "uint256"
        }
      ],
      "stateMutability": "view",
      "type": "function"
    },
    {
      "inputs": [
        {
          "internalType": "address",
          "name": "_spender",
          "type": "address"
        },
        {
          "internalType": "uint256",
          "name": "_value",
          "type": "uint256"
        }
      ],
      "name": "approve",
      "outputs": [
        {
          "internalType": "bool",
          "name": "",
          "type": "bool"
        }
      ],
      "stateMutability": "nonpayable",
      "type": "function"
    },
    {
      "inputs": [
        {
          "internalType": "address",
          "name": "",
          "type": "address"
        }
      ],
      "name": "balanceOf",
      "outputs": [
        {
          "internalType": "uint256",
          "name": "",
          "type": "uint256"
        }
      ],
      "stateMutability": "view",
      "type": "function"
    },
    {
      "inputs": [
        {
          "internalType": "uint256",
          "name": "_value",
          "type": "uint256"
        }
      ],
      "name": "burn",
      "outputs": [],
      "stateMutability": "nonpayable",
      "type": "function"
    },
    {
      "inputs": [
        {
          "internalType": "address",
          "name": "_to",
          "type": "address"
        },
        {
          "internalType": "uint256",
          "name": "_value",
          "type": "uint256"
        }
      ],
      "name": "burnFrom",
      "outputs": [],
      "stateMutability": "nonpayable",
      "type": "function"
    },
    {
      "inputs": [],
      "name": "decimals",
      "outputs": [
        {
          "internalType": "uint256",
          "name": "",
          "type": "uint256"
        }
      ],
      "stateMutability": "view",
      "type": "function"
    },
    {
      "inputs": [
        {
          "internalType": "address",
          "name": "_to",
          "type": "address"
        },
        {
          "internalType": "uint256",
          "name": "_value",
          "type": "uint256"
        }
      ],
      "name": "mint",
      "outputs": [],
      "stateMutability": "nonpayable",
      "type": "function"
    },
    {
      "inputs": [],
      "name": "minter",
      "outputs": [
        {
          "internalType": "address",
          "name": "",
          "type": "address"
        }
      ],
      "stateMutability": "view",
      "type": "function"
    },
    {
      "inputs": [],
      "name": "name",
      "outputs": [
        {
          "internalType": "string",
          "name": "",
          "type": "string"
        }
      ],
      "stateMutability": "view",
      "type": "function"
    },
    {
      "inputs": [
        {
          "internalType": "address",
          "name": "_minter",
          "type": "address"
        }
      ],
      "name": "setMinter",
      "outputs": [],
      "stateMutability": "nonpayable",
      "type": "function"
    },
    {
      "inputs": [],
      "name": "symbol",
      "outputs": [
        {
          "internalType": "string",
          "name": "",
          "type": "string"
        }
      ],
      "stateMutability": "view",
      "type": "function"
    },
    {
      "inputs": [],
      "name": "totalSupply",
      "outputs": [
        {
          "internalType": "uint256",
          "name": "",
          "type": "uint256"
        }
      ],
      "stateMutability": "view",
      "type": "function"
    },
    {
      "inputs": [
        {
          "internalType": "address",
          "name": "_to",
          "type": "address"
        },
        {
          "internalType": "uint256",
          "name": "_value",
          "type": "uint256"
        }
      ],
      "name": "transfer",
      "outputs": [
        {
          "internalType": "bool",
          "name": "",
          "type": "bool"
        }
      ],
      "stateMutability": "nonpayable",
      "type": "function"
    },
    {
      "inputs": [
        {
          "internalType": "address",
          "name": "_from",
          "type": "address"
        },
        {
          "internalType": "address",
          "name": "_to",
          "type": "address"
        },
        {
          "internalType": "uint256",
          "name": "_value",
          "type": "uint256"
        }
      ],
      "name": "transferFrom",
      "outputs": [
        {
          "internalType": "bool",
          "name": "",
          "type": "bool"
        }
      ],
      "stateMutability": "nonpayable",
      "type": "function"
    }
  ],
  "bytecode": "0x60806040523480156200001157600080fd5b5060405162000ef938038062000ef98339810160408190526200003491620001c3565b60006200005c6200004784600a62000350565b83620000e760201b620007101790919060201c565b905060006200006c8682620003ed565b5060016200007b8582620003ed565b5060028390553360008181526003602090815260408083208590556005859055600680546001600160a01b03191685179055518481527fddf252ad1be2c89b69c2b068fc378daa952ba7f163c4a11628f55a4df523b3ef910160405180910390a35050505050620004d3565b6000620000f58284620004b9565b90505b92915050565b634e487b7160e01b600052604160045260246000fd5b600082601f8301126200012657600080fd5b81516001600160401b0380821115620001435762000143620000fe565b604051601f8301601f19908116603f011681019082821181831017156200016e576200016e620000fe565b816040528381526020925086838588010111156200018b57600080fd5b600091505b83821015620001af578582018301518183018401529082019062000190565b600093810190920192909252949350505050565b60008060008060808587031215620001da57600080fd5b84516001600160401b0380821115620001f257600080fd5b620002008883890162000114565b955060208701519150808211156200021757600080fd5b50620002268782880162000114565b604087015160609097015195989097509350505050565b634e487b7160e01b600052601160045260246000fd5b600181815b80851115620002945781600019048211156200027857620002786200023d565b808516156200028657918102915b93841c939080029062000258565b509250929050565b600082620002ad57506001620000f8565b81620002bc57506000620000f8565b8160018114620002d55760028114620002e05762000300565b6001915050620000f8565b60ff841115620002f457620002f46200023d565b50506001821b620000f8565b5060208310610133831016604e8410600b841016171562000325575081810a620000f8565b62000331838362000253565b80600019048211156200034857620003486200023d565b029392505050565b6000620000f583836200029c565b600181811c908216806200037357607f821691505b6020821081036200039457634e487b7160e01b600052602260045260246000fd5b50919050565b601f821115620003e857600081815260208120601f850160051c81016020861015620003c35750805b601f850160051c820191505b81811015620003e457828155600101620003cf565b5050505b505050565b81516001600160401b03811115620004095762000409620000fe565b62000421816200041a84546200035e565b846200039a565b602080601f831160018114620004595760008415620004405750858301515b600019600386901b1c1916600185901b178555620003e4565b600085815260208120601f198616915b828110156200048a5788860151825594840194600190910190840162000469565b5085821015620004a95787850151600019600388901b60f8161c191681555b5050505050600190811b01905550565b8082028115828204841417620000f857620000f86200023d565b610a1680620004e36000396000f3fe608060405234801561001057600080fd5b50600436106100f55760003560e01c806342966c681161009757806395d89b411161006657806395d89b411461021f578063a9059cbb14610227578063dd62ed3e1461023a578063fca3b5aa1461027357600080fd5b806342966c68146101ae57806355b6ed5c146101c157806370a08231146101ec57806379cc67901461020c57600080fd5b806318160ddd116100d357806318160ddd1461016657806323b872dd1461017d578063313ce5671461019057806340c10f191461019957600080fd5b806306fdde03146100fa5780630754617214610118578063095ea7b314610143575b600080fd5b6101026102a3565b60405161010f91906107c0565b60405180910390f35b60065461012b906001600160a01b031681565b6040516001600160a01b03909116815260200161010f565b61015661015136600461082a565b610331565b604051901515815260200161010f565b61016f60055481565b60405190815260200161010f565b61015661018b366004610854565b610360565b61016f60025481565b6101ac6101a736600461082a565b6104c8565b005b6101ac6101bc366004610890565b610576565b61016f6101cf3660046108a9565b600460209081526000928352604080842090915290825290205481565b61016f6101fa3660046108dc565b60036020526000908152604090205481565b6101ac61021a36600461082a565b6105dd565b610102610645565b61015661023536600461082a565b610652565b61016f6102483660046108a9565b6001600160a01b03918216600090815260046020908152604080832093909416825291909152205490565b6101ac6102813660046108dc565b600680546001600160a01b0319166001600160a01b0392909216919091179055565b600080546102b0906108f7565b80601f01602080910402602001604051908101604052809291908181526020018280546102dc906108f7565b80156103295780601f106102fe57610100808354040283529160200191610329565b820191906000526020600020905b81548152906001019060200180831161030c57829003601f168201915b505050505081565b3360009081526004602090815260408083206001600160a01b0386168452909152902081905560015b92915050565b60006001600160a01b0384166103915760405162461bcd60e51b815260040161038890610931565b60405180910390fd5b6001600160a01b0383166103b75760405162461bcd60e51b815260040161038890610931565b6001600160a01b0384166000908152600360205260409020546103da9083610723565b6001600160a01b038086166000908152600360205260408082209390935590851681522054610409908361072f565b6001600160a01b03848116600090815260036020526040902091909155600654163314610483576001600160a01b038416600090815260046020908152604080832033845290915290205461045e9083610723565b6001600160a01b03851660009081526004602090815260408083203384529091529020555b826001600160a01b0316846001600160a01b03166000805160206109c1833981519152846040516104b691815260200190565b60405180910390a35060019392505050565b6006546001600160a01b031633146104e2576104e2610957565b6001600160a01b0382166104f8576104f8610957565b600554610505908261072f565b6005556001600160a01b03821660009081526003602052604090205461052b908261072f565b6001600160a01b0383166000818152600360205260408082209390935591519091906000805160206109c18339815191529061056a9085815260200190565b60405180910390a35050565b6006546001600160a01b031633146105d05760405162461bcd60e51b815260206004820152601e60248201527f6f6e6c79206d696e74657220697320616c6c6f77656420746f206275726e00006044820152606401610388565b6105da338261073b565b50565b6006546001600160a01b031633146106375760405162461bcd60e51b815260206004820152601e60248201527f6f6e6c79206d696e74657220697320616c6c6f77656420746f206275726e00006044820152606401610388565b610641828261073b565b5050565b600180546102b0906108f7565b60006001600160a01b03831661067a5760405162461bcd60e51b815260040161038890610931565b336000908152600360205260409020546106949083610723565b33600090815260036020526040808220929092556001600160a01b038516815220546106c0908361072f565b6001600160a01b0384166000818152600360205260409081902092909255905133906000805160206109c1833981519152906106ff9086815260200190565b60405180910390a350600192915050565b600061071c8284610983565b9392505050565b600061071c828461099a565b600061071c82846109ad565b6001600160a01b03821661075157610751610957565b60055461075e9082610723565b6005556001600160a01b0382166000908152600360205260409020546107849082610723565b6001600160a01b0383166000818152600360205260408082209390935591516000805160206109c18339815191529061056a9085815260200190565b600060208083528351808285015260005b818110156107ed578581018301518582016040015282016107d1565b506000604082860101526040601f19601f8301168501019250505092915050565b80356001600160a01b038116811461082557600080fd5b919050565b6000806040838503121561083d57600080fd5b6108468361080e565b946020939093013593505050565b60008060006060848603121561086957600080fd5b6108728461080e565b92506108806020850161080e565b9150604084013590509250925092565b6000602082840312156108a257600080fd5b5035919050565b600080604083850312156108bc57600080fd5b6108c58361080e565b91506108d36020840161080e565b90509250929050565b6000602082840312156108ee57600080fd5b61071c8261080e565b600181811c9082168061090b57607f821691505b60208210810361092b57634e487b7160e01b600052602260045260246000fd5b50919050565b6020808252600c908201526b7a65726f206164647265737360a01b604082015260600190565b634e487b7160e01b600052600160045260246000fd5b634e487b7160e01b600052601160045260246000fd5b808202811582820484141761035a5761035a61096d565b8181038181111561035a5761035a61096d565b8082018082111561035a5761035a61096d56feddf252ad1be2c89b69c2b068fc378daa952ba7f163c4a11628f55a4df523b3efa264697066735822122068684905f359407cf7ee508cac34f7a3825905b1221bd20447f73ad3be5aa13f64736f6c63430008110033",
  "linkReferences": {},
  "deployedLinkReferences": {}
}