{
  "_format": "hh-sol-artifact-1",
  "contractName": "Minter",
  "sourceName": "contracts/Minter.sol",
  "abi": [
    {
      "inputs": [
        {
          "internalType": "address",
          "name": "_token",
          "type": "address"
        },
        {
          "internalType": "address",
          "name": "_controller",
          "type": "address"
        }
      ],
      "stateMutability": "nonpayable",
      "type": "constructor"
    },
    {
      "anonymous": false,
      "inputs": [
        {
          "indexed": true,
          "internalType": "address",
          "name": "recipient",
          "type": "address"
        },
        {
          "indexed": false,
          "internalType": "address",
          "name": "gomboc",
          "type": "address"
        },
        {
          "indexed": false,
          "internalType": "uint256",
          "name": "minted",
          "type": "uint256"
        }
      ],
      "name": "Minted",
      "type": "event"
    },
    {
      "inputs": [
        {
          "internalType": "address",
          "name": "",
          "type": "address"
        },
        {
          "internalType": "address",
          "name": "",
          "type": "address"
        }
      ],
      "name": "allowedToMintFor",
      "outputs": [
        {
          "internalType": "bool",
          "name": "",
          "type": "bool"
        }
      ],
      "stateMutability": "view",
      "type": "function"
    },
    {
      "inputs": [],
      "name": "controller",
      "outputs": [
        {
          "internalType": "address",
          "name": "",
          "type": "address"
        }
      ],
      "stateMutability": "view",
      "type": "function"
    },
    {
      "inputs": [
        {
          "internalType": "address",
          "name": "gombocAddress",
          "type": "address"
        }
      ],
      "name": "mint",
      "outputs": [],
      "stateMutability": "nonpayable",
      "type": "function"
    },
    {
      "inputs": [
        {
          "internalType": "address",
          "name": "gombocAddress",
          "type": "address"
        },
        {
          "internalType": "address",
          "name": "_for",
          "type": "address"
        }
      ],
      "name": "mintFor",
      "outputs": [],
      "stateMutability": "nonpayable",
      "type": "function"
    },
    {
      "inputs": [
        {
          "internalType": "address[]",
          "name": "gombocAddressList",
          "type": "address[]"
        }
      ],
      "name": "mintMany",
      "outputs": [],
      "stateMutability": "nonpayable",
      "type": "function"
    },
    {
      "inputs": [
        {
          "internalType": "address",
          "name": "",
          "type": "address"
        },
        {
          "internalType": "address",
          "name": "",
          "type": "address"
        }
      ],
      "name": "minted",
      "outputs": [
        {
          "internalType": "uint256",
          "name": "",
          "type": "uint256"
        }
      ],
      "stateMutability": "view",
      "type": "function"
    },
    {
      "inputs": [
        {
          "internalType": "address",
          "name": "mintingUser",
          "type": "address"
        }
      ],
      "name": "toggleApproveMint",
      "outputs": [],
      "stateMutability": "nonpayable",
      "type": "function"
    },
    {
      "inputs": [],
      "name": "token",
      "outputs": [
        {
          "internalType": "address",
          "name": "",
          "type": "address"
        }
      ],
      "stateMutability": "view",
      "type": "function"
    }
  ],
  "bytecode": "0x608060405234801561001057600080fd5b5060405161082238038061082283398101604081905261002f9161007c565b600080546001600160a01b039384166001600160a01b031991821617909155600180549290931691161790556100af565b80516001600160a01b038116811461007757600080fd5b919050565b6000806040838503121561008f57600080fd5b61009883610060565b91506100a660208401610060565b90509250929050565b610764806100be6000396000f3fe608060405234801561001057600080fd5b50600436106100885760003560e01c80637504a15d1161005b5780637504a15d1461013a5780638b752bb01461014d578063f77c479114610186578063fc0c546a146101b157600080fd5b80630f3ec9981461008d578063388de6ce146100d1578063397ada21146101145780636a62784214610127575b600080fd5b6100cf61009b366004610542565b6001600160a01b031660009081526003602090815260408083203384529091529020805460ff81161560ff19909116179055565b005b6100ff6100df366004610564565b600360209081526000928352604080842090915290825290205460ff1681565b60405190151581526020015b60405180910390f35b6100cf6101223660046105ad565b6101c4565b6100cf610135366004610542565b61023d565b6100cf610148366004610564565b61024a565b61017861015b366004610564565b600260209081526000928352604080842090915290825290205481565b60405190815260200161010b565b600154610199906001600160a01b031681565b6040516001600160a01b03909116815260200161010b565b600054610199906001600160a01b031681565b60005b81518110156102395760006001600160a01b03168282815181106101ed576101ed610672565b60200260200101516001600160a01b031603156102275761022782828151811061021957610219610672565b60200260200101513361027c565b806102318161069e565b9150506101c7565b5050565b610247813361027c565b50565b3360009081526003602090815260408083206001600160a01b038516845290915290205460ff16156102395761023982825b600154604051637d1530d560e01b81526001600160a01b0384811660048301526000921690637d1530d590602401602060405180830381865afa1580156102c7573d6000803e3d6000fd5b505050506040513d601f19601f820116820180604052508101906102eb91906106b7565b600f0b12156103285760405162461bcd60e51b8152602060048201526005602482015264043453030360dc1b604482015260640160405180910390fd5b60405163b07b709b60e01b81526001600160a01b03828116600483015283169063b07b709b906024016020604051808303816000875af1158015610370573d6000803e3d6000fd5b505050506040513d601f19601f8201168201806040525081019061039491906106da565b5060405163caa0b9ed60e01b81526001600160a01b0382811660048301526000919084169063caa0b9ed90602401602060405180830381865afa1580156103df573d6000803e3d6000fd5b505050506040513d601f19601f8201168201806040525081019061040391906106fc565b6001600160a01b038084166000908152600260209081526040808320938816835292905290812054919250906104399083610715565b90508015610520576001600160a01b0383811660008181526002602090815260408083208986168452909152808220869055905490516340c10f1960e01b8152600481019290925260248201849052909116906340c10f19906044016020604051808303816000875af11580156104b4573d6000803e3d6000fd5b505050506040513d601f19601f820116820180604052508101906104d891906106da565b50604080516001600160a01b038681168252602082018490528516917f9d228d69b5fdb8d273a2336f8fb8612d039631024ea9bf09c424a9503aa078f0910160405180910390a25b50505050565b80356001600160a01b038116811461053d57600080fd5b919050565b60006020828403121561055457600080fd5b61055d82610526565b9392505050565b6000806040838503121561057757600080fd5b61058083610526565b915061058e60208401610526565b90509250929050565b634e487b7160e01b600052604160045260246000fd5b600060208083850312156105c057600080fd5b823567ffffffffffffffff808211156105d857600080fd5b818501915085601f8301126105ec57600080fd5b8135818111156105fe576105fe610597565b8060051b604051601f19603f8301168101818110858211171561062357610623610597565b60405291825284820192508381018501918883111561064157600080fd5b938501935b828510156106665761065785610526565b84529385019392850192610646565b98975050505050505050565b634e487b7160e01b600052603260045260246000fd5b634e487b7160e01b600052601160045260246000fd5b6000600182016106b0576106b0610688565b5060010190565b6000602082840312156106c957600080fd5b815180600f0b811461055d57600080fd5b6000602082840312156106ec57600080fd5b8151801515811461055d57600080fd5b60006020828403121561070e57600080fd5b5051919050565b8181038181111561072857610728610688565b9291505056fea26469706673582212200df7458d4e223b93b6b7f378aae54fa3f05681e62d5c8a2037f2c99ca264c01d64736f6c63430008110033",
  "linkReferences": {},
  "deployedLinkReferences": {}
}