{
  "_format": "hh-sol-artifact-1",
  "contractName": "LT",
  "sourceName": "contracts/tokens/LT.sol",
  "abi": [
    {
      "anonymous": false,
      "inputs": [
        {
          "indexed": true,
          "internalType": "address",
          "name": "owner",
          "type": "address"
        },
        {
          "indexed": true,
          "internalType": "address",
          "name": "spender",
          "type": "address"
        },
        {
          "indexed": false,
          "internalType": "uint256",
          "name": "value",
          "type": "uint256"
        }
      ],
      "name": "Approval",
      "type": "event"
    },
    {
      "anonymous": false,
      "inputs": [
        {
          "indexed": false,
          "internalType": "uint8",
          "name": "version",
          "type": "uint8"
        }
      ],
      "name": "Initialized",
      "type": "event"
    },
    {
      "anonymous": false,
      "inputs": [
        {
          "indexed": true,
          "internalType": "address",
          "name": "previousOwner",
          "type": "address"
        },
        {
          "indexed": true,
          "internalType": "address",
          "name": "newOwner",
          "type": "address"
        }
      ],
      "name": "OwnershipTransferStarted",
      "type": "event"
    },
    {
      "anonymous": false,
      "inputs": [
        {
          "indexed": true,
          "internalType": "address",
          "name": "previousOwner",
          "type": "address"
        },
        {
          "indexed": true,
          "internalType": "address",
          "name": "newOwner",
          "type": "address"
        }
      ],
      "name": "OwnershipTransferred",
      "type": "event"
    },
    {
      "anonymous": false,
      "inputs": [
        {
          "indexed": true,
          "internalType": "address",
          "name": "minter",
          "type": "address"
        }
      ],
      "name": "SetMinter",
      "type": "event"
    },
    {
      "anonymous": false,
      "inputs": [
        {
          "indexed": true,
          "internalType": "address",
          "name": "from",
          "type": "address"
        },
        {
          "indexed": true,
          "internalType": "address",
          "name": "to",
          "type": "address"
        },
        {
          "indexed": false,
          "internalType": "uint256",
          "name": "value",
          "type": "uint256"
        }
      ],
      "name": "Transfer",
      "type": "event"
    },
    {
      "anonymous": false,
      "inputs": [
        {
          "indexed": false,
          "internalType": "uint256",
          "name": "time",
          "type": "uint256"
        },
        {
          "indexed": false,
          "internalType": "uint256",
          "name": "rate",
          "type": "uint256"
        },
        {
          "indexed": false,
          "internalType": "uint256",
          "name": "supply",
          "type": "uint256"
        }
      ],
      "name": "UpdateMiningParameters",
      "type": "event"
    },
    {
      "inputs": [],
      "name": "acceptOwnership",
      "outputs": [],
      "stateMutability": "nonpayable",
      "type": "function"
    },
    {
      "inputs": [
        {
          "internalType": "address",
          "name": "owner",
          "type": "address"
        },
        {
          "internalType": "address",
          "name": "spender",
          "type": "address"
        }
      ],
      "name": "allowance",
      "outputs": [
        {
          "internalType": "uint256",
          "name": "",
          "type": "uint256"
        }
      ],
      "stateMutability": "view",
      "type": "function"
    },
    {
      "inputs": [
        {
          "internalType": "address",
          "name": "spender",
          "type": "address"
        },
        {
          "internalType": "uint256",
          "name": "amount",
          "type": "uint256"
        }
      ],
      "name": "approve",
      "outputs": [
        {
          "internalType": "bool",
          "name": "",
          "type": "bool"
        }
      ],
      "stateMutability": "nonpayable",
      "type": "function"
    },
    {
      "inputs": [],
      "name": "availableSupply",
      "outputs": [
        {
          "internalType": "uint256",
          "name": "",
          "type": "uint256"
        }
      ],
      "stateMutability": "view",
      "type": "function"
    },
    {
      "inputs": [
        {
          "internalType": "address",
          "name": "account",
          "type": "address"
        }
      ],
      "name": "balanceOf",
      "outputs": [
        {
          "internalType": "uint256",
          "name": "",
          "type": "uint256"
        }
      ],
      "stateMutability": "view",
      "type": "function"
    },
    {
      "inputs": [
        {
          "internalType": "uint256",
          "name": "value",
          "type": "uint256"
        }
      ],
      "name": "burn",
      "outputs": [
        {
          "internalType": "bool",
          "name": "",
          "type": "bool"
        }
      ],
      "stateMutability": "nonpayable",
      "type": "function"
    },
    {
      "inputs": [],
      "name": "decimals",
      "outputs": [
        {
          "internalType": "uint8",
          "name": "",
          "type": "uint8"
        }
      ],
      "stateMutability": "view",
      "type": "function"
    },
    {
      "inputs": [
        {
          "internalType": "address",
          "name": "spender",
          "type": "address"
        },
        {
          "internalType": "uint256",
          "name": "subtractedValue",
          "type": "uint256"
        }
      ],
      "name": "decreaseAllowance",
      "outputs": [
        {
          "internalType": "bool",
          "name": "",
          "type": "bool"
        }
      ],
      "stateMutability": "nonpayable",
      "type": "function"
    },
    {
      "inputs": [],
      "name": "futureEpochTimeWrite",
      "outputs": [
        {
          "internalType": "uint256",
          "name": "",
          "type": "uint256"
        }
      ],
      "stateMutability": "nonpayable",
      "type": "function"
    },
    {
      "inputs": [
        {
          "internalType": "address",
          "name": "spender",
          "type": "address"
        },
        {
          "internalType": "uint256",
          "name": "addedValue",
          "type": "uint256"
        }
      ],
      "name": "increaseAllowance",
      "outputs": [
        {
          "internalType": "bool",
          "name": "",
          "type": "bool"
        }
      ],
      "stateMutability": "nonpayable",
      "type": "function"
    },
    {
      "inputs": [
        {
          "internalType": "string",
          "name": "_name",
          "type": "string"
        },
        {
          "internalType": "string",
          "name": "_symbol",
          "type": "string"
        }
      ],
      "name": "initialize",
      "outputs": [],
      "stateMutability": "nonpayable",
      "type": "function"
    },
    {
      "inputs": [],
      "name": "miningEpoch",
      "outputs": [
        {
          "internalType": "int128",
          "name": "",
          "type": "int128"
        }
      ],
      "stateMutability": "view",
      "type": "function"
    },
    {
      "inputs": [
        {
          "internalType": "address",
          "name": "to",
          "type": "address"
        },
        {
          "internalType": "uint256",
          "name": "value",
          "type": "uint256"
        }
      ],
      "name": "mint",
      "outputs": [
        {
          "internalType": "bool",
          "name": "",
          "type": "bool"
        }
      ],
      "stateMutability": "nonpayable",
      "type": "function"
    },
    {
      "inputs": [
        {
          "internalType": "uint256",
          "name": "start",
          "type": "uint256"
        },
        {
          "internalType": "uint256",
          "name": "end",
          "type": "uint256"
        }
      ],
      "name": "mintableInTimeframe",
      "outputs": [
        {
          "internalType": "uint256",
          "name": "",
          "type": "uint256"
        }
      ],
      "stateMutability": "view",
      "type": "function"
    },
    {
      "inputs": [],
      "name": "minter",
      "outputs": [
        {
          "internalType": "address",
          "name": "",
          "type": "address"
        }
      ],
      "stateMutability": "view",
      "type": "function"
    },
    {
      "inputs": [],
      "name": "name",
      "outputs": [
        {
          "internalType": "string",
          "name": "",
          "type": "string"
        }
      ],
      "stateMutability": "view",
      "type": "function"
    },
    {
      "inputs": [],
      "name": "owner",
      "outputs": [
        {
          "internalType": "address",
          "name": "",
          "type": "address"
        }
      ],
      "stateMutability": "view",
      "type": "function"
    },
    {
      "inputs": [],
      "name": "pendingOwner",
      "outputs": [
        {
          "internalType": "address",
          "name": "",
          "type": "address"
        }
      ],
      "stateMutability": "view",
      "type": "function"
    },
    {
      "inputs": [],
      "name": "rate",
      "outputs": [
        {
          "internalType": "uint256",
          "name": "",
          "type": "uint256"
        }
      ],
      "stateMutability": "view",
      "type": "function"
    },
    {
      "inputs": [],
      "name": "renounceOwnership",
      "outputs": [],
      "stateMutability": "nonpayable",
      "type": "function"
    },
    {
      "inputs": [
        {
          "internalType": "address",
          "name": "_minter",
          "type": "address"
        }
      ],
      "name": "setMinter",
      "outputs": [],
      "stateMutability": "nonpayable",
      "type": "function"
    },
    {
      "inputs": [],
      "name": "startEpochSupply",
      "outputs": [
        {
          "internalType": "uint256",
          "name": "",
          "type": "uint256"
        }
      ],
      "stateMutability": "view",
      "type": "function"
    },
    {
      "inputs": [],
      "name": "startEpochTime",
      "outputs": [
        {
          "internalType": "uint256",
          "name": "",
          "type": "uint256"
        }
      ],
      "stateMutability": "view",
      "type": "function"
    },
    {
      "inputs": [],
      "name": "symbol",
      "outputs": [
        {
          "internalType": "string",
          "name": "",
          "type": "string"
        }
      ],
      "stateMutability": "view",
      "type": "function"
    },
    {
      "inputs": [],
      "name": "totalSupply",
      "outputs": [
        {
          "internalType": "uint256",
          "name": "",
          "type": "uint256"
        }
      ],
      "stateMutability": "view",
      "type": "function"
    },
    {
      "inputs": [
        {
          "internalType": "address",
          "name": "to",
          "type": "address"
        },
        {
          "internalType": "uint256",
          "name": "amount",
          "type": "uint256"
        }
      ],
      "name": "transfer",
      "outputs": [
        {
          "internalType": "bool",
          "name": "",
          "type": "bool"
        }
      ],
      "stateMutability": "nonpayable",
      "type": "function"
    },
    {
      "inputs": [
        {
          "internalType": "address",
          "name": "from",
          "type": "address"
        },
        {
          "internalType": "address",
          "name": "to",
          "type": "address"
        },
        {
          "internalType": "uint256",
          "name": "amount",
          "type": "uint256"
        }
      ],
      "name": "transferFrom",
      "outputs": [
        {
          "internalType": "bool",
          "name": "",
          "type": "bool"
        }
      ],
      "stateMutability": "nonpayable",
      "type": "function"
    },
    {
      "inputs": [
        {
          "internalType": "address",
          "name": "newOwner",
          "type": "address"
        }
      ],
      "name": "transferOwnership",
      "outputs": [],
      "stateMutability": "nonpayable",
      "type": "function"
    },
    {
      "inputs": [],
      "name": "updateMiningParameters",
      "outputs": [],
      "stateMutability": "nonpayable",
      "type": "function"
    }
  ],
  "bytecode": "0x608060405234801561001057600080fd5b50611b70806100206000396000f3fe608060405234801561001057600080fd5b50600436106101cf5760003560e01c806370a0823111610104578063a9059cbb116100a2578063dd62ed3e11610071578063dd62ed3e146103a4578063e30c3978146103b7578063f2fde38b146103c8578063fca3b5aa146103db57600080fd5b8063a9059cbb1461036d578063c3b03fa814610380578063cb626ae214610393578063dd5fbc9a1461039b57600080fd5b80637ecc2b56116100de5780637ecc2b56146103395780638da5cb5b1461034157806395d89b4114610352578063a457c2d71461035a57600080fd5b806370a0823114610300578063715018a61461032957806379ba50971461033157600080fd5b80632c4e722e1161017157806340c10f191161014b57806340c10f19146102a557806342966c68146102b85780634cd88b76146102cb57806364ef6dd4146102e057600080fd5b80632c4e722e1461027a578063313ce56714610283578063395093511461029257600080fd5b80631814a5b1116101ad5780631814a5b11461024057806318160ddd1461025757806323b872dd1461025f578063277dbafb1461027257600080fd5b806306fdde03146101d457806307546172146101f2578063095ea7b31461021d575b600080fd5b6101dc6103ee565b6040516101e99190611580565b60405180910390f35b60c954610205906001600160a01b031681565b6040516001600160a01b0390911681526020016101e9565b61023061022b3660046115ea565b610480565b60405190151581526020016101e9565b61024960cb5481565b6040519081526020016101e9565b603554610249565b61023061026d366004611614565b61049a565b6102496104be565b61024960cc5481565b604051601281526020016101e9565b6102306102a03660046115ea565b610526565b6102306102b33660046115ea565b610548565b6102306102c6366004611650565b61065b565b6102de6102d936600461170c565b61066f565b005b60ca546102ed90600f0b81565b604051600f9190910b81526020016101e9565b61024961030e366004611770565b6001600160a01b031660009081526033602052604090205490565b6102de610808565b6102de61081c565b610249610896565b6065546001600160a01b0316610205565b6101dc6108a5565b6102306103683660046115ea565b6108b4565b61023061037b3660046115ea565b61092f565b61024961038e366004611792565b61093d565b6102de610bbc565b61024960cd5481565b6102496103b23660046117b4565b610c17565b6097546001600160a01b0316610205565b6102de6103d6366004611770565b610c42565b6102de6103e9366004611770565b610cb3565b6060603680546103fd906117e7565b80601f0160208091040260200160405190810160405280929190818152602001828054610429906117e7565b80156104765780601f1061044b57610100808354040283529160200191610476565b820191906000526020600020905b81548152906001019060200180831161045957829003601f168201915b5050505050905090565b60003361048e818585610d46565b60019150505b92915050565b6000336104a8858285610e6a565b6104b3858585610ee4565b506001949350505050565b60cb546000906104d36201518061016d611837565b6104dd908261184e565b421061050d576104eb61108f565b6104fa6201518061016d611837565b60cb54610507919061184e565b91505090565b61051c6201518061016d611837565b610507908261184e565b60003361048e8185856105398383610c17565b610543919061184e565b610d46565b60c9546000906001600160a01b031633146105925760405162461bcd60e51b815260206004820152600560248201526410904c0c0d60da1b60448201526064015b60405180910390fd5b6001600160a01b0383166105d05760405162461bcd60e51b8152602060048201526005602482015264043453030360dc1b6044820152606401610589565b6105df6201518061016d611837565b60cb546105ec919061184e565b42106105fa576105fa61108f565b60008261060660355490565b610610919061184e565b905061061a6111cb565b8111156106515760405162461bcd60e51b8152602060048201526005602482015264424130303560d81b6044820152606401610589565b61048e84846111f5565b600061066733836112b7565b506001919050565b600054610100900460ff161580801561068f5750600054600160ff909116105b806106a95750303b1580156106a9575060005460ff166001145b61070c5760405162461bcd60e51b815260206004820152602e60248201527f496e697469616c697a61626c653a20636f6e747261637420697320616c72656160448201526d191e481a5b9a5d1a585b1a5e995960921b6064820152608401610589565b6000805460ff19166001179055801561072f576000805461ff0019166101001790555b6107376113eb565b610741838361141a565b600061074f6012600a611945565b61075e90645d21dba000611837565b905061076a33826111f5565b6107796201518061016d611837565b610786620151804261184e565b6107909190611954565b60cb5560ca80546fffffffffffffffffffffffffffffffff19166001600160801b03179055600060cc5560cd558015610803576000805461ff0019169055604051600181527f7f26b83ff96e1f2b6a682f133852f6798a09c465da95921460cefb38474024989060200160405180910390a15b505050565b61081061144b565b61081a60006114a5565b565b60975433906001600160a01b0316811461088a5760405162461bcd60e51b815260206004820152602960248201527f4f776e61626c6532537465703a2063616c6c6572206973206e6f7420746865206044820152683732bb9037bbb732b960b91b6064820152608401610589565b610893816114a5565b50565b60006108a06111cb565b905090565b6060603780546103fd906117e7565b600033816108c28286610c17565b9050838110156109225760405162461bcd60e51b815260206004820152602560248201527f45524332303a2064656372656173656420616c6c6f77616e63652062656c6f77604482015264207a65726f60d81b6064820152608401610589565b6104b38286868403610d46565b60003361048e818585610ee4565b6000818311156109775760405162461bcd60e51b8152602060048201526005602482015264424130303160d81b6044820152606401610589565b60cb5460cc54600091906109906201518061016d611837565b61099a908361184e565b8511156109e4576109b06201518061016d611837565b6109ba908361184e565b9150671080e992061ab3006109d7670de0b6b3a764000083611837565b6109e19190611967565b90505b6109f36201518061016d611837565b6109fd908361184e565b851115610a345760405162461bcd60e51b8152602060048201526005602482015264212098181960d91b6044820152606401610589565b60005b6103e8811015610bb157828610610ae85785610a586201518061016d611837565b610a62908561184e565b811115610a8557610a786201518061016d611837565b610a82908561184e565b90505b87610a956201518061016d611837565b610a9f908661184e565b8110610aac575050610bb1565b84811015610ab75750835b610ac18183611954565b610acb9085611837565b610ad5908761184e565b9550848910610ae5575050610bb1565b50505b610af76201518061016d611837565b610b019084611954565b9250670de0b6b3a7640000610b1e671080e992061ab30084611837565b610b289190611967565b9150610b396201518061016d611837565b610b50906c0134833473721fd427f8000000611967565b821115610b9f5760405162461bcd60e51b815260206004820152601860248201527f546869732073686f756c64206e657665722068617070656e00000000000000006044820152606401610589565b80610ba981611989565b915050610a37565b509195945050505050565b610bcb6201518061016d611837565b60cb54610bd8919061184e565b421015610c0f5760405162461bcd60e51b8152602060048201526005602482015264042413030360dc1b6044820152606401610589565b61081a61108f565b6001600160a01b03918216600090815260346020908152604080832093909416825291909152205490565b610c4a61144b565b609780546001600160a01b0383166001600160a01b03199091168117909155610c7b6065546001600160a01b031690565b6001600160a01b03167f38d16b8cac22d99fc7c124b9cd0de2d3fa1faef420bfe791d8c362d765e2270060405160405180910390a350565b610cbb61144b565b60c9546001600160a01b031615610cfc5760405162461bcd60e51b8152602060048201526005602482015264424130303360d81b6044820152606401610589565b60c980546001600160a01b0319166001600160a01b0383169081179091556040517fcec52196e972044edde8689a1b608e459c5946b7f3e5c8cd3d6d8e126d422e1c90600090a250565b6001600160a01b038316610da85760405162461bcd60e51b8152602060048201526024808201527f45524332303a20617070726f76652066726f6d20746865207a65726f206164646044820152637265737360e01b6064820152608401610589565b6001600160a01b038216610e095760405162461bcd60e51b815260206004820152602260248201527f45524332303a20617070726f766520746f20746865207a65726f206164647265604482015261737360f01b6064820152608401610589565b6001600160a01b0383811660008181526034602090815260408083209487168084529482529182902085905590518481527f8c5be1e5ebec7d5bd14f71427d1e84f3dd0314c0f7b2291e5b200ac8c7c3b925910160405180910390a3505050565b6000610e768484610c17565b90506000198114610ede5781811015610ed15760405162461bcd60e51b815260206004820152601d60248201527f45524332303a20696e73756666696369656e7420616c6c6f77616e63650000006044820152606401610589565b610ede8484848403610d46565b50505050565b6001600160a01b038316610f485760405162461bcd60e51b815260206004820152602560248201527f45524332303a207472616e736665722066726f6d20746865207a65726f206164604482015264647265737360d81b6064820152608401610589565b6001600160a01b038216610faa5760405162461bcd60e51b815260206004820152602360248201527f45524332303a207472616e7366657220746f20746865207a65726f206164647260448201526265737360e81b6064820152608401610589565b6001600160a01b038316600090815260336020526040902054818110156110225760405162461bcd60e51b815260206004820152602660248201527f45524332303a207472616e7366657220616d6f756e7420657863656564732062604482015265616c616e636560d01b6064820152608401610589565b6001600160a01b0380851660008181526033602052604080822086860390559286168082529083902080548601905591517fddf252ad1be2c89b69c2b068fc378daa952ba7f163c4a11628f55a4df523b3ef906110829086815260200190565b60405180910390a3610ede565b60cc5460cd546110a46201518061016d611837565b60cb60008282546110b5919061184e565b909155505060ca8054600191906000906110d3908490600f0b6119a2565b92506101000a8154816001600160801b030219169083600f0b6001600160801b031602179055508160000361112f576111116201518061016d611837565b611128906c0134833473721fd427f8000000611967565b9150611181565b61113e6201518061016d611837565b6111489083611837565b611152908261184e565b60cd8190559050671080e992061ab300611174670de0b6b3a764000084611837565b61117e9190611967565b91505b60cc82905560408051428152602081018490529081018290527f27e46362a1e6129b6dd539c984ce739291a97128dfcaeca1255e8ac83abd94419060600160405180910390a15050565b600060cc5460cb54426111de9190611954565b6111e89190611837565b60cd546108a0919061184e565b6001600160a01b03821661124b5760405162461bcd60e51b815260206004820152601f60248201527f45524332303a206d696e7420746f20746865207a65726f2061646472657373006044820152606401610589565b806035600082825461125d919061184e565b90915550506001600160a01b0382166000818152603360209081526040808320805486019055518481527fddf252ad1be2c89b69c2b068fc378daa952ba7f163c4a11628f55a4df523b3ef910160405180910390a35b5050565b6001600160a01b0382166113175760405162461bcd60e51b815260206004820152602160248201527f45524332303a206275726e2066726f6d20746865207a65726f206164647265736044820152607360f81b6064820152608401610589565b6001600160a01b0382166000908152603360205260409020548181101561138b5760405162461bcd60e51b815260206004820152602260248201527f45524332303a206275726e20616d6f756e7420657863656564732062616c616e604482015261636560f01b6064820152608401610589565b6001600160a01b03831660008181526033602090815260408083208686039055603580548790039055518581529192917fddf252ad1be2c89b69c2b068fc378daa952ba7f163c4a11628f55a4df523b3ef910160405180910390a3505050565b600054610100900460ff166114125760405162461bcd60e51b8152600401610589906119e1565b61081a6114be565b600054610100900460ff166114415760405162461bcd60e51b8152600401610589906119e1565b6112b382826114ee565b6065546001600160a01b0316331461081a5760405162461bcd60e51b815260206004820181905260248201527f4f776e61626c653a2063616c6c6572206973206e6f7420746865206f776e65726044820152606401610589565b609780546001600160a01b03191690556108938161152e565b600054610100900460ff166114e55760405162461bcd60e51b8152600401610589906119e1565b61081a336114a5565b600054610100900460ff166115155760405162461bcd60e51b8152600401610589906119e1565b60366115218382611a7a565b5060376108038282611a7a565b606580546001600160a01b038381166001600160a01b0319831681179093556040519116919082907f8be0079c531659141344cd1fd0a4f28419497f9722a3daafe3b4186f6b6457e090600090a35050565b600060208083528351808285015260005b818110156115ad57858101830151858201604001528201611591565b506000604082860101526040601f19601f8301168501019250505092915050565b80356001600160a01b03811681146115e557600080fd5b919050565b600080604083850312156115fd57600080fd5b611606836115ce565b946020939093013593505050565b60008060006060848603121561162957600080fd5b611632846115ce565b9250611640602085016115ce565b9150604084013590509250925092565b60006020828403121561166257600080fd5b5035919050565b634e487b7160e01b600052604160045260246000fd5b600082601f83011261169057600080fd5b813567ffffffffffffffff808211156116ab576116ab611669565b604051601f8301601f19908116603f011681019082821181831017156116d3576116d3611669565b816040528381528660208588010111156116ec57600080fd5b836020870160208301376000602085830101528094505050505092915050565b6000806040838503121561171f57600080fd5b823567ffffffffffffffff8082111561173757600080fd5b6117438683870161167f565b9350602085013591508082111561175957600080fd5b506117668582860161167f565b9150509250929050565b60006020828403121561178257600080fd5b61178b826115ce565b9392505050565b600080604083850312156117a557600080fd5b50508035926020909101359150565b600080604083850312156117c757600080fd5b6117d0836115ce565b91506117de602084016115ce565b90509250929050565b600181811c908216806117fb57607f821691505b60208210810361181b57634e487b7160e01b600052602260045260246000fd5b50919050565b634e487b7160e01b600052601160045260246000fd5b808202811582820484141761049457610494611821565b8082018082111561049457610494611821565b600181815b8085111561189c57816000190482111561188257611882611821565b8085161561188f57918102915b93841c9390800290611866565b509250929050565b6000826118b357506001610494565b816118c057506000610494565b81600181146118d657600281146118e0576118fc565b6001915050610494565b60ff8411156118f1576118f1611821565b50506001821b610494565b5060208310610133831016604e8410600b841016171561191f575081810a610494565b6119298383611861565b806000190482111561193d5761193d611821565b029392505050565b600061178b60ff8416836118a4565b8181038181111561049457610494611821565b60008261198457634e487b7160e01b600052601260045260246000fd5b500490565b60006001820161199b5761199b611821565b5060010190565b600f81810b9083900b016f7fffffffffffffffffffffffffffffff81136f7fffffffffffffffffffffffffffffff198212171561049457610494611821565b6020808252602b908201527f496e697469616c697a61626c653a20636f6e7472616374206973206e6f74206960408201526a6e697469616c697a696e6760a81b606082015260800190565b601f82111561080357600081815260208120601f850160051c81016020861015611a535750805b601f850160051c820191505b81811015611a7257828155600101611a5f565b505050505050565b815167ffffffffffffffff811115611a9457611a94611669565b611aa881611aa284546117e7565b84611a2c565b602080601f831160018114611add5760008415611ac55750858301515b600019600386901b1c1916600185901b178555611a72565b600085815260208120601f198616915b82811015611b0c57888601518255948401946001909101908401611aed565b5085821015611b2a5787850151600019600388901b60f8161c191681555b5050505050600190811b0190555056fea2646970667358221220664d006572cd6527f4eae33ddd261f47bc5ae88b7077f55a4ba9420dd5dba3d564736f6c63430008110033",
  "linkReferences": {},
  "deployedLinkReferences": {}
}