{
  "_format": "hh-sol-artifact-1",
  "contractName": "MockSwap",
  "sourceName": "contracts/mock/MockSwap.sol",
  "abi": [
    {
      "inputs": [],
      "name": "getHOPEPrice",
      "outputs": [
        {
          "internalType": "uint256",
          "name": "",
          "type": "uint256"
        }
      ],
      "stateMutability": "view",
      "type": "function"
    },
    {
      "inputs": [],
      "name": "getLTPrice",
      "outputs": [
        {
          "internalType": "uint256",
          "name": "",
          "type": "uint256"
        }
      ],
      "stateMutability": "view",
      "type": "function"
    },
    {
      "inputs": [],
      "name": "getStHOPEPrice",
      "outputs": [
        {
          "internalType": "uint256",
          "name": "",
          "type": "uint256"
        }
      ],
      "stateMutability": "view",
      "type": "function"
    }
  ],
  "bytecode": "0x6080604052348015600f57600080fd5b5060928061001e6000396000f3fe6080604052348015600f57600080fd5b5060043610603c5760003560e01c806365403b1e146041578063b4733cef146056578063dd54bc8d146056575b600080fd5b60025b60405190815260200160405180910390f35b6001604456fea2646970667358221220d2864b29c3f1702a8927bfef887f1c719976756c14e9c610c071bda8c48c8cfc64736f6c63430008110033",
  "linkReferences": {},
  "deployedLinkReferences": {}
}