{
  "_format": "hh-sol-artifact-1",
  "contractName": "Ownership",
  "sourceName": "contracts/Ownership.sol",
  "abi": [
    {
      "inputs": [],
      "stateMutability": "nonpayable",
      "type": "constructor"
    },
    {
      "anonymous": false,
      "inputs": [
        {
          "indexed": true,
          "internalType": "address",
          "name": "owner",
          "type": "address"
        }
      ],
      "name": "AcceptNewOwnership",
      "type": "event"
    },
    {
      "anonymous": false,
      "inputs": [
        {
          "indexed": true,
          "internalType": "address",
          "name": "futureOwner",
          "type": "address"
        }
      ],
      "name": "CommitNewOwnership",
      "type": "event"
    },
    {
      "inputs": [],
      "name": "acceptTransferOwnership",
      "outputs": [],
      "stateMutability": "nonpayable",
      "type": "function"
    },
    {
      "inputs": [
        {
          "internalType": "address",
          "name": "newOwner",
          "type": "address"
        }
      ],
      "name": "commitTransferOwnership",
      "outputs": [],
      "stateMutability": "nonpayable",
      "type": "function"
    },
    {
      "inputs": [],
      "name": "futureOwner",
      "outputs": [
        {
          "internalType": "address",
          "name": "",
          "type": "address"
        }
      ],
      "stateMutability": "view",
      "type": "function"
    },
    {
      "inputs": [],
      "name": "owner",
      "outputs": [
        {
          "internalType": "address",
          "name": "",
          "type": "address"
        }
      ],
      "stateMutability": "view",
      "type": "function"
    }
  ],
  "bytecode": "0x608060405234801561001057600080fd5b50600080546001600160a01b03191633908117825560405190917f405c0e6e5e78abd3919565924321c67e70f1b0f989c4ac8cd327269a73c42d6e91a261025a8061005c6000396000f3fe608060405234801561001057600080fd5b506004361061004c5760003560e01c80637b371107146100515780638da5cb5b1461005b578063b9e9d1aa14610084578063e1cebf0b14610095575b600080fd5b6100596100a8565b005b6000546001600160a01b03165b6040516001600160a01b03909116815260200160405180910390f35b6001546001600160a01b0316610068565b6100596100a33660046101f4565b610150565b6001546001600160a01b031633146101075760405162461bcd60e51b815260206004820181905260248201527f43616c6c6572206973206e6f7420616c6c6f77656420746f206f70657261746560448201526064015b60405180910390fd5b60008054336001600160a01b0319918216811783556001805490921690915560405190917f405c0e6e5e78abd3919565924321c67e70f1b0f989c4ac8cd327269a73c42d6e91a2565b6000546001600160a01b031633146101aa5760405162461bcd60e51b815260206004820181905260248201527f43616c6c6572206973206e6f7420616c6c6f77656420746f206f70657261746560448201526064016100fe565b600180546001600160a01b0319166001600160a01b0383169081179091556040517f3abe9db6779f8a27a45cfa602f3f6da1b676d51b7b9b9f8e88da494f78dfda5d90600090a250565b60006020828403121561020657600080fd5b81356001600160a01b038116811461021d57600080fd5b939250505056fea2646970667358221220f44b0cad857fc481f5f43d11058deb859aaa9f6d82b3e6ffb25c3a25a13e8f2c64736f6c63430008110033",
  "linkReferences": {},
  "deployedLinkReferences": {}
}