{
  "_format": "hh-sol-artifact-1",
  "contractName": "PoolGomboc",
  "sourceName": "contracts/gombocs/PoolGomboc.sol",
  "abi": [
    {
      "inputs": [
        {
          "internalType": "address",
          "name": "_lpAddr",
          "type": "address"
        },
        {
          "internalType": "address",
          "name": "_minter",
          "type": "address"
        },
        {
          "internalType": "address",
          "name": "_permit2Address",
          "type": "address"
        }
      ],
      "stateMutability": "nonpayable",
      "type": "constructor"
    },
    {
      "anonymous": false,
      "inputs": [
        {
          "indexed": true,
          "internalType": "address",
          "name": "_owner",
          "type": "address"
        },
        {
          "indexed": true,
          "internalType": "address",
          "name": "_spender",
          "type": "address"
        },
        {
          "indexed": false,
          "internalType": "uint256",
          "name": "_value",
          "type": "uint256"
        }
      ],
      "name": "Approval",
      "type": "event"
    },
    {
      "anonymous": false,
      "inputs": [
        {
          "indexed": true,
          "internalType": "address",
          "name": "provider",
          "type": "address"
        },
        {
          "indexed": false,
          "internalType": "uint256",
          "name": "value",
          "type": "uint256"
        }
      ],
      "name": "Deposit",
      "type": "event"
    },
    {
      "anonymous": false,
      "inputs": [
        {
          "indexed": false,
          "internalType": "uint8",
          "name": "version",
          "type": "uint8"
        }
      ],
      "name": "Initialized",
      "type": "event"
    },
    {
      "anonymous": false,
      "inputs": [
        {
          "indexed": true,
          "internalType": "address",
          "name": "previousOwner",
          "type": "address"
        },
        {
          "indexed": true,
          "internalType": "address",
          "name": "newOwner",
          "type": "address"
        }
      ],
      "name": "OwnershipTransferStarted",
      "type": "event"
    },
    {
      "anonymous": false,
      "inputs": [
        {
          "indexed": true,
          "internalType": "address",
          "name": "previousOwner",
          "type": "address"
        },
        {
          "indexed": true,
          "internalType": "address",
          "name": "newOwner",
          "type": "address"
        }
      ],
      "name": "OwnershipTransferred",
      "type": "event"
    },
    {
      "anonymous": false,
      "inputs": [
        {
          "indexed": true,
          "internalType": "address",
          "name": "_from",
          "type": "address"
        },
        {
          "indexed": true,
          "internalType": "address",
          "name": "_to",
          "type": "address"
        },
        {
          "indexed": false,
          "internalType": "uint256",
          "name": "_value",
          "type": "uint256"
        }
      ],
      "name": "Transfer",
      "type": "event"
    },
    {
      "anonymous": false,
      "inputs": [
        {
          "indexed": false,
          "internalType": "address",
          "name": "user",
          "type": "address"
        },
        {
          "indexed": false,
          "internalType": "uint256",
          "name": "originalBalance",
          "type": "uint256"
        },
        {
          "indexed": false,
          "internalType": "uint256",
          "name": "originalSupply",
          "type": "uint256"
        },
        {
          "indexed": false,
          "internalType": "uint256",
          "name": "workingBalance",
          "type": "uint256"
        },
        {
          "indexed": false,
          "internalType": "uint256",
          "name": "workingSupply",
          "type": "uint256"
        },
        {
          "indexed": false,
          "internalType": "uint256",
          "name": "votingBalance",
          "type": "uint256"
        },
        {
          "indexed": false,
          "internalType": "uint256",
          "name": "votingTotal",
          "type": "uint256"
        }
      ],
      "name": "UpdateLiquidityLimit",
      "type": "event"
    },
    {
      "anonymous": false,
      "inputs": [
        {
          "indexed": true,
          "internalType": "address",
          "name": "provider",
          "type": "address"
        },
        {
          "indexed": false,
          "internalType": "uint256",
          "name": "value",
          "type": "uint256"
        }
      ],
      "name": "Withdraw",
      "type": "event"
    },
    {
      "inputs": [],
      "name": "acceptOwnership",
      "outputs": [],
      "stateMutability": "nonpayable",
      "type": "function"
    },
    {
      "inputs": [
        {
          "internalType": "address",
          "name": "_rewardToken",
          "type": "address"
        },
        {
          "internalType": "address",
          "name": "_distributor",
          "type": "address"
        }
      ],
      "name": "addReward",
      "outputs": [],
      "stateMutability": "nonpayable",
      "type": "function"
    },
    {
      "inputs": [
        {
          "internalType": "address",
          "name": "",
          "type": "address"
        },
        {
          "internalType": "address",
          "name": "",
          "type": "address"
        }
      ],
      "name": "allowance",
      "outputs": [
        {
          "internalType": "uint256",
          "name": "",
          "type": "uint256"
        }
      ],
      "stateMutability": "view",
      "type": "function"
    },
    {
      "inputs": [
        {
          "internalType": "address",
          "name": "_spender",
          "type": "address"
        },
        {
          "internalType": "uint256",
          "name": "_value",
          "type": "uint256"
        }
      ],
      "name": "approve",
      "outputs": [
        {
          "internalType": "bool",
          "name": "",
          "type": "bool"
        }
      ],
      "stateMutability": "nonpayable",
      "type": "function"
    },
    {
      "inputs": [
        {
          "internalType": "address",
          "name": "",
          "type": "address"
        }
      ],
      "name": "balanceOf",
      "outputs": [
        {
          "internalType": "uint256",
          "name": "",
          "type": "uint256"
        }
      ],
      "stateMutability": "view",
      "type": "function"
    },
    {
      "inputs": [
        {
          "internalType": "address",
          "name": "",
          "type": "address"
        },
        {
          "internalType": "address",
          "name": "",
          "type": "address"
        }
      ],
      "name": "claimData",
      "outputs": [
        {
          "internalType": "uint256",
          "name": "",
          "type": "uint256"
        }
      ],
      "stateMutability": "view",
      "type": "function"
    },
    {
      "inputs": [],
      "name": "claimRewards",
      "outputs": [],
      "stateMutability": "nonpayable",
      "type": "function"
    },
    {
      "inputs": [
        {
          "internalType": "address",
          "name": "_addr",
          "type": "address"
        }
      ],
      "name": "claimRewards",
      "outputs": [],
      "stateMutability": "nonpayable",
      "type": "function"
    },
    {
      "inputs": [
        {
          "internalType": "address",
          "name": "_addr",
          "type": "address"
        },
        {
          "internalType": "address",
          "name": "_receiver",
          "type": "address"
        }
      ],
      "name": "claimRewards",
      "outputs": [],
      "stateMutability": "nonpayable",
      "type": "function"
    },
    {
      "inputs": [
        {
          "internalType": "address",
          "name": "_user",
          "type": "address"
        },
        {
          "internalType": "address",
          "name": "_reward_token",
          "type": "address"
        }
      ],
      "name": "claimableReward",
      "outputs": [
        {
          "internalType": "uint256",
          "name": "",
          "type": "uint256"
        }
      ],
      "stateMutability": "view",
      "type": "function"
    },
    {
      "inputs": [
        {
          "internalType": "address",
          "name": "_addr",
          "type": "address"
        }
      ],
      "name": "claimableTokens",
      "outputs": [
        {
          "internalType": "uint256",
          "name": "",
          "type": "uint256"
        }
      ],
      "stateMutability": "nonpayable",
      "type": "function"
    },
    {
      "inputs": [
        {
          "internalType": "address",
          "name": "_addr",
          "type": "address"
        },
        {
          "internalType": "address",
          "name": "_token",
          "type": "address"
        }
      ],
      "name": "claimedReward",
      "outputs": [
        {
          "internalType": "uint256",
          "name": "",
          "type": "uint256"
        }
      ],
      "stateMutability": "view",
      "type": "function"
    },
    {
      "inputs": [],
      "name": "controller",
      "outputs": [
        {
          "internalType": "contract IGombocController",
          "name": "",
          "type": "address"
        }
      ],
      "stateMutability": "view",
      "type": "function"
    },
    {
      "inputs": [],
      "name": "decimals",
      "outputs": [
        {
          "internalType": "uint256",
          "name": "",
          "type": "uint256"
        }
      ],
      "stateMutability": "view",
      "type": "function"
    },
    {
      "inputs": [
        {
          "internalType": "address",
          "name": "_spender",
          "type": "address"
        },
        {
          "internalType": "uint256",
          "name": "_subtractedValue",
          "type": "uint256"
        }
      ],
      "name": "decreaseAllowance",
      "outputs": [
        {
          "internalType": "bool",
          "name": "",
          "type": "bool"
        }
      ],
      "stateMutability": "nonpayable",
      "type": "function"
    },
    {
      "inputs": [
        {
          "internalType": "uint256",
          "name": "_value",
          "type": "uint256"
        },
        {
          "internalType": "address",
          "name": "_addr",
          "type": "address"
        }
      ],
      "name": "deposit",
      "outputs": [],
      "stateMutability": "nonpayable",
      "type": "function"
    },
    {
      "inputs": [
        {
          "internalType": "uint256",
          "name": "_value",
          "type": "uint256"
        },
        {
          "internalType": "address",
          "name": "_addr",
          "type": "address"
        },
        {
          "internalType": "bool",
          "name": "_claimRewards_",
          "type": "bool"
        }
      ],
      "name": "deposit",
      "outputs": [],
      "stateMutability": "nonpayable",
      "type": "function"
    },
    {
      "inputs": [
        {
          "internalType": "uint256",
          "name": "_value",
          "type": "uint256"
        }
      ],
      "name": "deposit",
      "outputs": [],
      "stateMutability": "nonpayable",
      "type": "function"
    },
    {
      "inputs": [
        {
          "internalType": "address",
          "name": "_rewardToken",
          "type": "address"
        },
        {
          "internalType": "uint256",
          "name": "_amount",
          "type": "uint256"
        }
      ],
      "name": "depositRewardToken",
      "outputs": [],
      "stateMutability": "payable",
      "type": "function"
    },
    {
      "inputs": [],
      "name": "futureEpochTime",
      "outputs": [
        {
          "internalType": "uint256",
          "name": "",
          "type": "uint256"
        }
      ],
      "stateMutability": "view",
      "type": "function"
    },
    {
      "inputs": [
        {
          "internalType": "address",
          "name": "_spender",
          "type": "address"
        },
        {
          "internalType": "uint256",
          "name": "_addedValue",
          "type": "uint256"
        }
      ],
      "name": "increaseAllowance",
      "outputs": [
        {
          "internalType": "bool",
          "name": "",
          "type": "bool"
        }
      ],
      "stateMutability": "nonpayable",
      "type": "function"
    },
    {
      "inputs": [],
      "name": "inflationRate",
      "outputs": [
        {
          "internalType": "uint256",
          "name": "",
          "type": "uint256"
        }
      ],
      "stateMutability": "view",
      "type": "function"
    },
    {
      "inputs": [],
      "name": "integrateCheckpoint",
      "outputs": [
        {
          "internalType": "uint256",
          "name": "",
          "type": "uint256"
        }
      ],
      "stateMutability": "view",
      "type": "function"
    },
    {
      "inputs": [
        {
          "internalType": "address",
          "name": "",
          "type": "address"
        }
      ],
      "name": "integrateCheckpointOf",
      "outputs": [
        {
          "internalType": "uint256",
          "name": "",
          "type": "uint256"
        }
      ],
      "stateMutability": "view",
      "type": "function"
    },
    {
      "inputs": [
        {
          "internalType": "address",
          "name": "",
          "type": "address"
        }
      ],
      "name": "integrateFraction",
      "outputs": [
        {
          "internalType": "uint256",
          "name": "",
          "type": "uint256"
        }
      ],
      "stateMutability": "view",
      "type": "function"
    },
    {
      "inputs": [
        {
          "internalType": "address",
          "name": "",
          "type": "address"
        }
      ],
      "name": "integrateInvSupplyOf",
      "outputs": [
        {
          "internalType": "uint256",
          "name": "",
          "type": "uint256"
        }
      ],
      "stateMutability": "view",
      "type": "function"
    },
    {
      "inputs": [],
      "name": "isKilled",
      "outputs": [
        {
          "internalType": "bool",
          "name": "",
          "type": "bool"
        }
      ],
      "stateMutability": "view",
      "type": "function"
    },
    {
      "inputs": [
        {
          "internalType": "address",
          "name": "_addr",
          "type": "address"
        }
      ],
      "name": "kick",
      "outputs": [],
      "stateMutability": "nonpayable",
      "type": "function"
    },
    {
      "inputs": [
        {
          "internalType": "address",
          "name": "addr",
          "type": "address"
        }
      ],
      "name": "lpBalanceOf",
      "outputs": [
        {
          "internalType": "uint256",
          "name": "",
          "type": "uint256"
        }
      ],
      "stateMutability": "view",
      "type": "function"
    },
    {
      "inputs": [],
      "name": "lpToken",
      "outputs": [
        {
          "internalType": "address",
          "name": "",
          "type": "address"
        }
      ],
      "stateMutability": "view",
      "type": "function"
    },
    {
      "inputs": [],
      "name": "lpTotalSupply",
      "outputs": [
        {
          "internalType": "uint256",
          "name": "",
          "type": "uint256"
        }
      ],
      "stateMutability": "view",
      "type": "function"
    },
    {
      "inputs": [],
      "name": "ltToken",
      "outputs": [
        {
          "internalType": "contract ILT",
          "name": "",
          "type": "address"
        }
      ],
      "stateMutability": "view",
      "type": "function"
    },
    {
      "inputs": [],
      "name": "minter",
      "outputs": [
        {
          "internalType": "contract IMinter",
          "name": "",
          "type": "address"
        }
      ],
      "stateMutability": "view",
      "type": "function"
    },
    {
      "inputs": [],
      "name": "name",
      "outputs": [
        {
          "internalType": "string",
          "name": "",
          "type": "string"
        }
      ],
      "stateMutability": "view",
      "type": "function"
    },
    {
      "inputs": [],
      "name": "owner",
      "outputs": [
        {
          "internalType": "address",
          "name": "",
          "type": "address"
        }
      ],
      "stateMutability": "view",
      "type": "function"
    },
    {
      "inputs": [],
      "name": "pendingOwner",
      "outputs": [
        {
          "internalType": "address",
          "name": "",
          "type": "address"
        }
      ],
      "stateMutability": "view",
      "type": "function"
    },
    {
      "inputs": [],
      "name": "period",
      "outputs": [
        {
          "internalType": "uint256",
          "name": "",
          "type": "uint256"
        }
      ],
      "stateMutability": "view",
      "type": "function"
    },
    {
      "inputs": [
        {
          "internalType": "uint256",
          "name": "",
          "type": "uint256"
        }
      ],
      "name": "periodTimestamp",
      "outputs": [
        {
          "internalType": "uint256",
          "name": "",
          "type": "uint256"
        }
      ],
      "stateMutability": "view",
      "type": "function"
    },
    {
      "inputs": [],
      "name": "permit2Address",
      "outputs": [
        {
          "internalType": "address",
          "name": "",
          "type": "address"
        }
      ],
      "stateMutability": "view",
      "type": "function"
    },
    {
      "inputs": [],
      "name": "renounceOwnership",
      "outputs": [],
      "stateMutability": "nonpayable",
      "type": "function"
    },
    {
      "inputs": [],
      "name": "rewardCount",
      "outputs": [
        {
          "internalType": "uint256",
          "name": "",
          "type": "uint256"
        }
      ],
      "stateMutability": "view",
      "type": "function"
    },
    {
      "inputs": [
        {
          "internalType": "address",
          "name": "",
          "type": "address"
        }
      ],
      "name": "rewardData",
      "outputs": [
        {
          "internalType": "address",
          "name": "token",
          "type": "address"
        },
        {
          "internalType": "address",
          "name": "distributor",
          "type": "address"
        },
        {
          "internalType": "uint256",
          "name": "periodFinish",
          "type": "uint256"
        },
        {
          "internalType": "uint256",
          "name": "rate",
          "type": "uint256"
        },
        {
          "internalType": "uint256",
          "name": "lastUpdate",
          "type": "uint256"
        },
        {
          "internalType": "uint256",
          "name": "integral",
          "type": "uint256"
        }
      ],
      "stateMutability": "view",
      "type": "function"
    },
    {
      "inputs": [
        {
          "internalType": "address",
          "name": "",
          "type": "address"
        },
        {
          "internalType": "address",
          "name": "",
          "type": "address"
        }
      ],
      "name": "rewardIntegralFor",
      "outputs": [
        {
          "internalType": "uint256",
          "name": "",
          "type": "uint256"
        }
      ],
      "stateMutability": "view",
      "type": "function"
    },
    {
      "inputs": [
        {
          "internalType": "uint256",
          "name": "",
          "type": "uint256"
        }
      ],
      "name": "rewardTokens",
      "outputs": [
        {
          "internalType": "address",
          "name": "",
          "type": "address"
        }
      ],
      "stateMutability": "view",
      "type": "function"
    },
    {
      "inputs": [
        {
          "internalType": "address",
          "name": "",
          "type": "address"
        }
      ],
      "name": "rewardsReceiver",
      "outputs": [
        {
          "internalType": "address",
          "name": "",
          "type": "address"
        }
      ],
      "stateMutability": "view",
      "type": "function"
    },
    {
      "inputs": [
        {
          "internalType": "bool",
          "name": "_isKilled",
          "type": "bool"
        }
      ],
      "name": "setKilled",
      "outputs": [],
      "stateMutability": "nonpayable",
      "type": "function"
    },
    {
      "inputs": [
        {
          "internalType": "address",
          "name": "_rewardToken",
          "type": "address"
        },
        {
          "internalType": "address",
          "name": "_distributor",
          "type": "address"
        }
      ],
      "name": "setRewardDistributor",
      "outputs": [],
      "stateMutability": "nonpayable",
      "type": "function"
    },
    {
      "inputs": [
        {
          "internalType": "address",
          "name": "_receiver",
          "type": "address"
        }
      ],
      "name": "setRewardsReceiver",
      "outputs": [],
      "stateMutability": "nonpayable",
      "type": "function"
    },
    {
      "inputs": [],
      "name": "symbol",
      "outputs": [
        {
          "internalType": "string",
          "name": "",
          "type": "string"
        }
      ],
      "stateMutability": "view",
      "type": "function"
    },
    {
      "inputs": [],
      "name": "totalSupply",
      "outputs": [
        {
          "internalType": "uint256",
          "name": "",
          "type": "uint256"
        }
      ],
      "stateMutability": "view",
      "type": "function"
    },
    {
      "inputs": [
        {
          "internalType": "address",
          "name": "_to",
          "type": "address"
        },
        {
          "internalType": "uint256",
          "name": "_value",
          "type": "uint256"
        }
      ],
      "name": "transfer",
      "outputs": [
        {
          "internalType": "bool",
          "name": "",
          "type": "bool"
        }
      ],
      "stateMutability": "nonpayable",
      "type": "function"
    },
    {
      "inputs": [
        {
          "internalType": "address",
          "name": "_from",
          "type": "address"
        },
        {
          "internalType": "address",
          "name": "_to",
          "type": "address"
        },
        {
          "internalType": "uint256",
          "name": "_value",
          "type": "uint256"
        }
      ],
      "name": "transferFrom",
      "outputs": [
        {
          "internalType": "bool",
          "name": "",
          "type": "bool"
        }
      ],
      "stateMutability": "nonpayable",
      "type": "function"
    },
    {
      "inputs": [
        {
          "internalType": "address",
          "name": "newOwner",
          "type": "address"
        }
      ],
      "name": "transferOwnership",
      "outputs": [],
      "stateMutability": "nonpayable",
      "type": "function"
    },
    {
      "inputs": [
        {
          "internalType": "address",
          "name": "_addr",
          "type": "address"
        }
      ],
      "name": "userCheckpoint",
      "outputs": [
        {
          "internalType": "bool",
          "name": "",
          "type": "bool"
        }
      ],
      "stateMutability": "nonpayable",
      "type": "function"
    },
    {
      "inputs": [],
      "name": "votingEscrow",
      "outputs": [
        {
          "internalType": "contract IVotingEscrow",
          "name": "",
          "type": "address"
        }
      ],
      "stateMutability": "view",
      "type": "function"
    },
    {
      "inputs": [
        {
          "internalType": "uint256",
          "name": "_value",
          "type": "uint256"
        }
      ],
      "name": "withdraw",
      "outputs": [],
      "stateMutability": "nonpayable",
      "type": "function"
    },
    {
      "inputs": [
        {
          "internalType": "uint256",
          "name": "_value",
          "type": "uint256"
        },
        {
          "internalType": "bool",
          "name": "_claimRewards_",
          "type": "bool"
        }
      ],
      "name": "withdraw",
      "outputs": [],
      "stateMutability": "nonpayable",
      "type": "function"
    },
    {
      "inputs": [
        {
          "internalType": "address",
          "name": "",
          "type": "address"
        }
      ],
      "name": "workingBalances",
      "outputs": [
        {
          "internalType": "uint256",
          "name": "",
          "type": "uint256"
        }
      ],
      "stateMutability": "view",
      "type": "function"
    },
    {
      "inputs": [],
      "name": "workingSupply",
      "outputs": [
        {
          "internalType": "uint256",
          "name": "",
          "type": "uint256"
        }
      ],
      "stateMutability": "view",
      "type": "function"
    }
  ],
  "bytecode": "0x60a06040523480156200001157600080fd5b5060405162003963380380620039638339810160408190526200003491620005aa565b816001600160a01b038116620000915760405162461bcd60e51b815260206004820152601b60248201527f696e76616c696420766f74696e67457363726f7741646472657373000000000060448201526064015b60405180910390fd5b80609760016101000a8154816001600160a01b0302191690836001600160a01b031602179055506000609760019054906101000a90046001600160a01b03166001600160a01b031663fc0c546a6040518163ffffffff1660e01b8152600401602060405180830381865afa1580156200010e573d6000803e3d6000fd5b505050506040513d601f19601f82011682018060405250810190620001349190620005f4565b905080609860006101000a8154816001600160a01b0302191690836001600160a01b03160217905550609760019054906101000a90046001600160a01b03166001600160a01b031663f77c47916040518163ffffffff1660e01b8152600401602060405180830381865afa158015620001b1573d6000803e3d6000fd5b505050506040513d601f19601f82011682018060405250810190620001d79190620005f4565b609980546001600160a01b0319166001600160a01b0392909216918217905560408051634f2bfe5b60e01b81529051634f2bfe5b916004808201926020929091908290030181865afa15801562000232573d6000803e3d6000fd5b505050506040513d601f19601f82011682018060405250810190620002589190620005f4565b609a80546001600160a01b0319166001600160a01b0392831617905560008052609f6020908152427fa705961f203609058950cfd817eb7a7627c9e270651c936aad3abdfa253727ec5560985460408051631627391760e11b815290519190931692632c4e722e9260048083019391928290030181865afa158015620002e2573d6000803e3d6000fd5b505050506040513d601f19601f8201168201806040525081019062000308919062000619565b60a4556098546040805163277dbafb60e01b815290516001600160a01b039092169163277dbafb9160048082019260209290919082900301816000875af115801562000358573d6000803e3d6000fd5b505050506040513d601f19601f820116820180604052508101906200037e919062000619565b609b555050600160a5556001600160a01b038316620003e85760405162461bcd60e51b815260206004820152603060248201526000805160206200394383398151915260448201526f206c70546f6b656e206164647265737360801b606482015260840162000088565b6001600160a01b038116620004485760405162461bcd60e51b815260206004820152603060248201526000805160206200394383398151915260448201526f207065726d697432206164647265737360801b606482015260840162000088565b60a980546001600160a01b0319166001600160a01b038381169190911790915583166080819052604080516395d89b4160e01b815290516395d89b41916004808201926000929091908290030181865afa158015620004ab573d6000803e3d6000fd5b505050506040513d6000823e601f3d908101601f19168201604052620004d5919081019062000649565b60a790620004e49082620007ad565b50826001600160a01b031663313ce5676040518163ffffffff1660e01b8152600401602060405180830381865afa15801562000524573d6000803e3d6000fd5b505050506040513d601f19601f820116820180604052508101906200054a919062000879565b60ff1660a855604051620005649060a7906020016200089e565b60405160208183030381529060405260a69081620005839190620007ad565b505050506200092b565b80516001600160a01b0381168114620005a557600080fd5b919050565b600080600060608486031215620005c057600080fd5b620005cb846200058d565b9250620005db602085016200058d565b9150620005eb604085016200058d565b90509250925092565b6000602082840312156200060757600080fd5b62000612826200058d565b9392505050565b6000602082840312156200062c57600080fd5b5051919050565b634e487b7160e01b600052604160045260246000fd5b600060208083850312156200065d57600080fd5b82516001600160401b03808211156200067557600080fd5b818501915085601f8301126200068a57600080fd5b8151818111156200069f576200069f62000633565b604051601f8201601f19908116603f01168101908382118183101715620006ca57620006ca62000633565b816040528281528886848701011115620006e357600080fd5b600093505b82841015620007075784840186015181850187015292850192620006e8565b600086848301015280965050505050505092915050565b600181811c908216806200073357607f821691505b6020821081036200075457634e487b7160e01b600052602260045260246000fd5b50919050565b601f821115620007a857600081815260208120601f850160051c81016020861015620007835750805b601f850160051c820191505b81811015620007a4578281556001016200078f565b5050505b505050565b81516001600160401b03811115620007c957620007c962000633565b620007e181620007da84546200071e565b846200075a565b602080601f831160018114620008195760008415620008005750858301515b600019600386901b1c1916600185901b178555620007a4565b600085815260208120601f198616915b828110156200084a5788860151825594840194600190910190840162000829565b5085821015620008695787850151600019600388901b60f8161c191681555b5050505050600190811b01905550565b6000602082840312156200088c57600080fd5b815160ff811681146200061257600080fd5b6000808354620008ae816200071e565b60018281168015620008c95760018114620008df5762000910565b60ff198416875282151583028701945062000910565b8760005260208060002060005b85811015620009075781548a820152908401908201620008ec565b50505082870194505b5050662d476f6d626f6360c81b835250506007019392505050565b608051612fee620009556000396000818161070201528181612193015261235e0152612fee6000f3fe60806040526004361061038c5760003560e01c806379085425116101dc578063b07b709b11610102578063dd62ed3e116100a0578063ef78d4fd1161006f578063ef78d4fd14610ba7578063f1e42ccd14610bbd578063f2fde38b14610bdd578063f77c479114610bfd57600080fd5b8063dd62ed3e14610af9578063e30c397814610b31578063e50912ae14610b4f578063ef5cfb8c14610b8757600080fd5b8063c5224983116100dc578063c522498314610a76578063c8562f7214610a96578063caa0b9ed14610aac578063d26abffa14610ad957600080fd5b8063b07b709b14610a09578063b1bd608614610a29578063b6b55f2514610a5657600080fd5b8063958da8de1161017a5780639e48d35e116101495780639e48d35e14610993578063a457c2d7146109a9578063a5870d6b146109c9578063a9059cbb146109e957600080fd5b8063958da8de146108fb57806395d89b411461092857806396c551751461093d5780639c46665c1461095d57600080fd5b806383df6747116101b657806383df67471461088357806384d24226146108a35780638da5cb5b146108c35780638fe8a101146108e157600080fd5b8063790854251461083857806379ba50971461084e5780637bb7bed11461086357600080fd5b806338d07436116102c15780635fcbd2851161025f5780636e553f651161022e5780636e553f65146107a957806370a08231146107c9578063715018a6146107f65780637699b4cd1461080b57600080fd5b80635fcbd285146106f357806363f577771461072657806366be23221461075e57806368bbad981461077357600080fd5b806348e5d9f81161029b57806348e5d9f8146105fa5780634f2bfe5b1461068f578063505362c4146106af57806353cc9e54146106d357600080fd5b806338d074361461059a57806339509351146105ba57806340b47e1a146105da57600080fd5b80632b1b9a211161032e57806331e202cc1161030857806331e202cc1461052257806331f9e35b1461054f57806334380a6114610565578063372500ab1461058557600080fd5b80632b1b9a21146104d95780632e1a7d4d146104ec578063313ce5671461050c57600080fd5b8063095ea7b31161036a578063095ea7b31461041b57806318160ddd1461044b57806323b872dd1461046f578063261958261461048f57600080fd5b806306fdde031461039157806307546172146103bc57806309599504146103f9575b600080fd5b34801561039d57600080fd5b506103a6610c1d565b6040516103b39190612c93565b60405180910390f35b3480156103c857600080fd5b506097546103e19061010090046001600160a01b031681565b6040516001600160a01b0390911681526020016103b3565b34801561040557600080fd5b50610419610414366004612cef565b610cab565b005b34801561042757600080fd5b5061043b610436366004612d28565b610cc6565b60405190151581526020016103b3565b34801561045757600080fd5b5061046160ab5481565b6040519081526020016103b3565b34801561047b57600080fd5b5061043b61048a366004612d52565b610ce0565b34801561049b57600080fd5b506104196104aa366004612d8e565b33600090815260b96020526040902080546001600160a01b0319166001600160a01b0392909216919091179055565b6104196104e7366004612d28565b610d67565b3480156104f857600080fd5b50610419610507366004612da9565b610fa7565b34801561051857600080fd5b5061046160a85481565b34801561052e57600080fd5b5061046161053d366004612da9565b609f6020526000908152604090205481565b34801561055b57600080fd5b5061046160a45481565b34801561057157600080fd5b50610461610580366004612dc2565b610fc7565b34801561059157600080fd5b50610419610ffe565b3480156105a657600080fd5b506104196105b5366004612df5565b61101d565b3480156105c657600080fd5b5061043b6105d5366004612d28565b611039565b3480156105e657600080fd5b506104196105f5366004612dc2565b611078565b34801561060657600080fd5b50610657610615366004612d8e565b60b7602052600090815260409020805460018201546002830154600384015460048501546005909501546001600160a01b039485169593909416939192909186565b604080516001600160a01b039788168152969095166020870152938501929092526060840152608083015260a082015260c0016103b3565b34801561069b57600080fd5b50609a546103e1906001600160a01b031681565b3480156106bb57600080fd5b50609e546000908152609f6020526040902054610461565b3480156106df57600080fd5b506104196106ee366004612dc2565b611163565b3480156106ff57600080fd5b507f00000000000000000000000000000000000000000000000000000000000000006103e1565b34801561073257600080fd5b50610461610741366004612dc2565b60b860209081526000928352604080842090915290825290205481565b34801561076a57600080fd5b5060ab54610461565b34801561077f57600080fd5b506103e161078e366004612d8e565b60b9602052600090815260409020546001600160a01b031681565b3480156107b557600080fd5b506104196107c4366004612e25565b6111fa565b3480156107d557600080fd5b506104616107e4366004612d8e565b60aa6020526000908152604090205481565b34801561080257600080fd5b5061041961120e565b34801561081757600080fd5b50610461610826366004612d8e565b60a26020526000908152604090205481565b34801561084457600080fd5b5061046160ae5481565b34801561085a57600080fd5b50610419611220565b34801561086f57600080fd5b506103e161087e366004612da9565b611297565b34801561088f57600080fd5b5061041961089e366004612e48565b6112b7565b3480156108af57600080fd5b506104616108be366004612d8e565b6112d9565b3480156108cf57600080fd5b506033546001600160a01b03166103e1565b3480156108ed57600080fd5b5060975461043b9060ff1681565b34801561090757600080fd5b50610461610916366004612d8e565b609c6020526000908152604090205481565b34801561093457600080fd5b506103a6611381565b34801561094957600080fd5b50610419610958366004612d8e565b61138e565b34801561096957600080fd5b50610461610978366004612d8e565b6001600160a01b0316600090815260aa602052604090205490565b34801561099f57600080fd5b50610461609b5481565b3480156109b557600080fd5b5061043b6109c4366004612d28565b61161d565b3480156109d557600080fd5b506098546103e1906001600160a01b031681565b3480156109f557600080fd5b5061043b610a04366004612d28565b6116ba565b348015610a1557600080fd5b5061043b610a24366004612d8e565b6116dc565b348015610a3557600080fd5b50610461610a44366004612d8e565b60a16020526000908152604090205481565b348015610a6257600080fd5b50610419610a71366004612da9565b611778565b348015610a8257600080fd5b5060a9546103e1906001600160a01b031681565b348015610aa257600080fd5b50610461609d5481565b348015610ab857600080fd5b50610461610ac7366004612d8e565b60a36020526000908152604090205481565b348015610ae557600080fd5b50610461610af4366004612dc2565b61178c565b348015610b0557600080fd5b50610461610b14366004612dc2565b60ac60209081526000928352604080842090915290825290205481565b348015610b3d57600080fd5b506065546001600160a01b03166103e1565b348015610b5b57600080fd5b50610461610b6a366004612dc2565b60ad60209081526000928352604080842090915290825290205481565b348015610b9357600080fd5b50610419610ba2366004612d8e565b611903565b348015610bb357600080fd5b50610461609e5481565b348015610bc957600080fd5b50610419610bd8366004612dc2565b611916565b348015610be957600080fd5b50610419610bf8366004612d8e565b611928565b348015610c0957600080fd5b506099546103e1906001600160a01b031681565b60a68054610c2a90612e88565b80601f0160208091040260200160405190810160405280929190818152602001828054610c5690612e88565b8015610ca35780601f10610c7857610100808354040283529160200191610ca3565b820191906000526020600020905b815481529060010190602001808311610c8657829003601f168201915b505050505081565b610cb3611999565b6097805460ff1916911515919091179055565b600033610cd48185856119f3565b60019150505b92915050565b6000610cea611b18565b6001600160a01b038416600090815260ac602090815260408083203384529091529020546000198114610d4657610d218382612ed8565b6001600160a01b038616600090815260ac602090815260408083203384529091529020555b610d51858585611b71565b6001915050610d60600160a555565b9392505050565b610d6f611b18565b6001600160a01b03828116600090815260b76020526040902060010154163314610de05760405162461bcd60e51b815260206004820152601860248201527f4e6f207065726d697373696f6e20746f2065786563757465000000000000000060448201526064015b60405180910390fd5b610df0600060ab54600080611c98565b6040516323b872dd60e01b8152336004820152306024820152604481018290526001600160a01b038316906323b872dd906064016020604051808303816000875af1158015610e43573d6000803e3d6000fd5b505050506040513d601f19601f82011682018060405250810190610e679190612eeb565b610e7057600080fd5b6001600160a01b038216600090815260b76020526040902060020154428111610ecc57610ea1620151806007612f08565b610eab9083612f35565b6001600160a01b038416600090815260b76020526040902060030155610f45565b6000610ed84283612ed8565b6001600160a01b038516600090815260b7602052604081206003015491925090610f029083612f08565b9050610f12620151806007612f08565b610f1c8286612f49565b610f269190612f35565b6001600160a01b038616600090815260b7602052604090206003015550505b6001600160a01b038316600090815260b76020526040902042600490910155610f72620151806007612f08565b610f7c9042612f49565b6001600160a01b038416600090815260b7602052604090206002015550610fa3600160a555565b5050565b610faf611b18565b610fba8160006120fd565b610fc4600160a555565b50565b6001600160a01b03808316600090815260ad60209081526040808320938516835292905290812054610d6090600160801b90612f5c565b611006611b18565b61101133600061227e565b61101b600160a555565b565b611025611b18565b61102f82826120fd565b610fa3600160a555565b33600081815260ac602090815260408083206001600160a01b0387168452909152812054909190610cd49082908690611073908790612f49565b6119f3565b611080611999565b60ae546008811061109057600080fd5b6001600160a01b03838116600090815260b7602052604090206001015416156110ec5760405162461bcd60e51b815260206004820152600e60248201526d5265706561742073657474696e6760901b6044820152606401610dd7565b6001600160a01b03838116600090815260b76020526040902060010180546001600160a01b0319169184169190911790558260af826008811061113157611131612f70565b0180546001600160a01b0319166001600160a01b039290921691909117905561115b816001612f49565b60ae55505050565b6001600160a01b03808316600090815260b76020526040902060010154163381148061119957506033546001600160a01b031633145b6111a257600080fd5b6001600160a01b0381166111b557600080fd5b6001600160a01b0382166111c857600080fd5b506001600160a01b03918216600090815260b76020526040902060010180546001600160a01b03191691909216179055565b611202611b18565b61102f828260006122b1565b611216611999565b61101b6000612459565b60655433906001600160a01b0316811461128e5760405162461bcd60e51b815260206004820152602960248201527f4f776e61626c6532537465703a2063616c6c6572206973206e6f7420746865206044820152683732bb9037bbb732b960b91b6064820152608401610dd7565b610fc481612459565b60af81600881106112a757600080fd5b01546001600160a01b0316905081565b6112bf611b18565b6112ca8383836122b1565b6112d4600160a555565b505050565b60006112e482612472565b6097546040516308b752bb60e41b81526001600160a01b03848116600483015230602483015261010090920490911690638b752bb090604401602060405180830381865afa15801561133a573d6000803e3d6000fd5b505050506040513d601f19601f8201168201806040525081019061135e9190612f86565b6001600160a01b038316600090815260a36020526040902054610cda9190612ed8565b60a78054610c2a90612e88565b6001600160a01b03818116600081815260a2602052604080822054609a549151638c71e5d160e01b8152600481019490945293919291169063eac6a6679085908390638c71e5d190602401602060405180830381865afa1580156113f6573d6000803e3d6000fd5b505050506040513d601f19601f8201168201806040525081019061141a9190612f86565b6040516001600160e01b031960e085901b1681526001600160a01b0390921660048301526024820152604401602060405180830381865afa158015611463573d6000803e3d6000fd5b505050506040513d601f19601f820116820180604052508101906114879190612f86565b905060006114aa846001600160a01b0316600090815260aa602052604090205490565b609a54604051633037408d60e01b81526001600160a01b038781166004830152426024830152929350911690633037408d90604401602060405180830381865afa1580156114fc573d6000803e3d6000fd5b505050506040513d601f19601f820116820180604052508101906115209190612f86565b158061152b57508282115b61156f5760405162461bcd60e51b815260206004820152601560248201527419195d8e881ada58dac81b9bdd08185b1b1bddd959605a1b6044820152606401610dd7565b606461157c602883612f08565b6115869190612f35565b6001600160a01b0385166000908152609c6020526040902054116115e35760405162461bcd60e51b815260206004820152601460248201527319195d8e881ada58dac81b9bdd081b995959195960621b6044820152606401610dd7565b6115ec84612472565b6116178461160f866001600160a01b0316600090815260aa602052604090205490565b60ab546129d0565b50505050565b33600081815260ac602090815260408083206001600160a01b0387168452909152812054909190838110156116a25760405162461bcd60e51b815260206004820152602560248201527f45524332303a2064656372656173656420616c6c6f77616e63652062656c6f77604482015264207a65726f60d81b6064820152608401610dd7565b6116af82868684036119f3565b506001949350505050565b60006116c4611b18565b6116cf338484611b71565b506001610cda600160a555565b6000336001600160a01b0383161480611704575060975461010090046001600160a01b031633145b6117445760405162461bcd60e51b815260206004820152601160248201527019195d8e881d5b985d5d1a1bdc9a5e9959607a1b6044820152606401610dd7565b61174d82612472565b6117708261160f846001600160a01b0316600090815260aa602052604090205490565b506001919050565b611780611b18565b610fba813360006122b1565b6001600160a01b038116600090815260b7602052604081206005015460ab548015611858576001600160a01b038416600090815260b760205260408120600201546117d8904290612c2b565b6001600160a01b038616600090815260b76020526040812060040154919250906118029083612ed8565b6001600160a01b038716600090815260b76020526040902060030154909150839061182d9083612f08565b61183f90670de0b6b3a7640000612f08565b6118499190612f35565b6118539085612f49565b935050505b6001600160a01b03808516600090815260b86020908152604080832093891683529290529081205490670de0b6b3a76400006118948386612ed8565b6001600160a01b038916600090815260aa60205260409020546118b79190612f08565b6118c19190612f35565b6001600160a01b03808916600090815260ad60209081526040808320938b16835292905220549091506118f890829060801c612f49565b979650505050505050565b61190b611b18565b610fba81600061227e565b61191e611b18565b61102f828261227e565b611930611999565b606580546001600160a01b0383166001600160a01b031990911681179091556119616033546001600160a01b031690565b6001600160a01b03167f38d16b8cac22d99fc7c124b9cd0de2d3fa1faef420bfe791d8c362d765e2270060405160405180910390a350565b6033546001600160a01b0316331461101b5760405162461bcd60e51b815260206004820181905260248201527f4f776e61626c653a2063616c6c6572206973206e6f7420746865206f776e65726044820152606401610dd7565b6001600160a01b038316611a555760405162461bcd60e51b8152602060048201526024808201527f45524332303a20617070726f76652066726f6d20746865207a65726f206164646044820152637265737360e01b6064820152608401610dd7565b6001600160a01b038216611ab65760405162461bcd60e51b815260206004820152602260248201527f45524332303a20617070726f766520746f20746865207a65726f206164647265604482015261737360f01b6064820152608401610dd7565b6001600160a01b03838116600081815260ac602090815260408083209487168084529482529182902085905590518481527f8c5be1e5ebec7d5bd14f71427d1e84f3dd0314c0f7b2291e5b200ac8c7c3b92591015b60405180910390a3505050565b600260a55403611b6a5760405162461bcd60e51b815260206004820152601f60248201527f5265656e7472616e637947756172643a207265656e7472616e742063616c6c006044820152606401610dd7565b600260a555565b611b7a83612472565b611b8382612472565b8015611c535760ab5460ae5415801590611ba457611ba48583600080611c98565b6001600160a01b038516600090815260aa6020526040812054611bc8908590612ed8565b6001600160a01b038716600090815260aa602052604090208190559050611bf08682856129d0565b8115611c0357611c038584600080611c98565b6001600160a01b038516600090815260aa6020526040902054611c27908590612f49565b6001600160a01b038616600090815260aa602052604090208190559050611c4f8582856129d0565b5050505b816001600160a01b0316836001600160a01b03167fddf252ad1be2c89b69c2b068fc378daa952ba7f163c4a11628f55a4df523b3ef83604051611b0b91815260200190565b611cea6040518060e001604052806000815260200160006001600160a01b031681526020016000815260200160006001600160a01b031681526020016000815260200160008152602001600081525090565b600081526001600160a01b038083166020830152851615611d73576001600160a01b038516600090815260aa60205260409020548152828015611d3457506001600160a01b038216155b15611d73576001600160a01b03808616600090815260b96020908152604090912054909116908201819052611d73576001600160a01b03851660208201525b60ae54604082015260005b60088110156120f557604082015181146120f55760af8160088110611da557611da5612f70565b01546001600160a01b0390811660608401818152600091825260b760208181526040808520600501546080890152925190941683529092522060020154611ded904290612c2b565b60a0830190815260608301516001600160a01b0316600090815260b760205260409020600401549051611e209190612ed8565b60c0830181905215611edd5760a082015160608301516001600160a01b0316600090815260b760205260409020600401558415611edd5760608201516001600160a01b0316600090815260b7602052604090206003015460c08301518691611e8791612f08565b611e9990670de0b6b3a7640000612f08565b611ea39190612f35565b82608001818151611eb49190612f49565b905250608082015160608301516001600160a01b0316600090815260b760205260409020600501555b6001600160a01b038616156120e35760608201516001600160a01b03908116600090815260b860209081526040808320938a168352929052908120546080840151909190821015611f885760808401805160608601516001600160a01b03908116600090815260b860209081526040808320938e168352929052205551670de0b6b3a764000090611f6f908490612ed8565b8551611f7b9190612f08565b611f859190612f35565b90505b6001600160a01b03808916600090815260ad60209081526040808320606089015190941683529290529081205490611fc483608084901c612f49565b905080156120de576000611fdc600160801b84612f5c565b9050881561209c57611fee8282612f49565b6001600160a01b038c8116600090815260ad6020908152604080832060608d0180518616855290835292819020949094559051908a0151925163a9059cbb60e01b8152928216600484015260248301859052169063a9059cbb906044016020604051808303816000875af115801561206a573d6000803e3d6000fd5b505050506040513d601f19601f8201168201806040525081019061208e9190612eeb565b61209757600080fd5b6120dc565b83156120dc576120b0608083901b82612f49565b6001600160a01b03808d16600090815260ad6020908152604080832060608d0151909416835292905220555b505b505050505b806120ed81612f9f565b915050611d7e565b505050505050565b61210633612472565b811561220d5760ae5460ab54901580159190612129576121293382856000611c98565b6121338482612ed8565b33600090815260aa602052604081205491925090612152908690612ed8565b33600081815260aa6020526040902082905560ab8490559091506121779082846129d0565b60405163a9059cbb60e01b8152336004820152602481018690527f00000000000000000000000000000000000000000000000000000000000000006001600160a01b03169063a9059cbb906044016020604051808303816000875af11580156121e4573d6000803e3d6000fd5b505050506040513d601f19601f820116820180604052508101906122089190612eeb565b505050505b60405182815233907f884edad9ce6fa2440d8a54cc123490eb96d2768479d49ff9c7366125a94243649060200160405180910390a260405182815260009033907fddf252ad1be2c89b69c2b068fc378daa952ba7f163c4a11628f55a4df523b3ef9060200160405180910390a35050565b6001600160a01b038116156122a2576001600160a01b03821633146122a257600080fd5b610fa38260ab54600184611c98565b6122ba82612472565b82156123d85760ae5460ab549015801591906122dd576122dd8482856000611c98565b6122e78582612f49565b6001600160a01b038516600090815260aa60205260408120549192509061230f908790612f49565b6001600160a01b038616600090815260aa6020526040902081905560ab839055905061233c8582846129d0565b6040516323b872dd60e01b8152336004820152306024820152604481018790527f00000000000000000000000000000000000000000000000000000000000000006001600160a01b0316906323b872dd906064016020604051808303816000875af11580156123af573d6000803e3d6000fd5b505050506040513d601f19601f820116820180604052508101906123d39190612eeb565b505050505b816001600160a01b03167fe1fffcc4923d04b559f4d29a8bfc6cda04eb5b0d3c460751c2402c5c5cc9109c8460405161241391815260200190565b60405180910390a26040518381526001600160a01b038316906000907fddf252ad1be2c89b69c2b068fc378daa952ba7f163c4a11628f55a4df523b3ef90602001611b0b565b606580546001600160a01b0319169055610fc481612c41565b6124ab6040518060c001604052806000815260200160008152602001600081526020016000815260200160008152602001600081525090565b609e548082526000908152609f60209081526040808320548285019081528451845260a09283905292819020549084015260a454606084018190526080840152609b549083018190529051116125f057609860009054906101000a90046001600160a01b03166001600160a01b031663277dbafb6040518163ffffffff1660e01b81526004016020604051808303816000875af1158015612550573d6000803e3d6000fd5b505050506040513d601f19601f820116820180604052508101906125749190612f86565b609b5560985460408051631627391760e11b815290516001600160a01b0390921691632c4e722e916004808201926020929091908290030181865afa1580156125c1573d6000803e3d6000fd5b505050506040513d601f19601f820116820180604052508101906125e59190612f86565b6080820181905260a4555b60995460405163b93cd39d60e01b81523060048201526001600160a01b039091169063b93cd39d90602401600060405180830381600087803b15801561263557600080fd5b505af1158015612649573d6000803e3d6000fd5b505060975460ff16159150612662905057600060608201525b80602001514211156128e857609d54602082015160006126ce612689620151806007612f08565b612697620151806007612f08565b6126a5620151806007612f08565b87602001516126b49190612f49565b6126be9190612f35565b6126c89190612f08565b42612c2b565b905060005b6101f48110156128e35760006126e98484612ed8565b6099549091506000906001600160a01b031663335612463061270f620151806007612f08565b61271d620151806007612f08565b612727908a612f35565b6127319190612f08565b6040516001600160e01b031960e085901b1681526001600160a01b0390921660048301526024820152604401602060405180830381865afa15801561277a573d6000803e3d6000fd5b505050506040513d601f19601f8201168201806040525081019061279e9190612f86565b9050851561289e57848760a00151101580156127bd5750838760a00151105b156128635785858860a001516127d39190612ed8565b8289606001516127e39190612f08565b6127ed9190612f08565b6127f79190612f35565b876040018181516128089190612f49565b9052506080870151606088015260a087015186906128269086612ed8565b8289606001516128369190612f08565b6128409190612f08565b61284a9190612f35565b8760400181815161285b9190612f49565b90525061289e565b85828289606001516128759190612f08565b61287f9190612f08565b6128899190612f35565b8760400181815161289a9190612f49565b9052505b4284036128ac5750506128e3565b8394506128cc6201518060076128c29190612f08565b6126c89086612f49565b9350505080806128db90612f9f565b9150506126d3565b505050505b6001816000018181516128fb9190612f49565b9052508051609e8190556000908152609f6020908152604080832042905580840180518551855260a08452828520556001600160a01b0386168452609c83528184205460a190935292205491519091670de0b6b3a76400009161295e9190612ed8565b6129689083612f08565b6129729190612f35565b6001600160a01b038416600090815260a360205260408120805490919061299a908490612f49565b9091555050506040908101516001600160a01b03909216600090815260a160209081528282209390935560a29092529020429055565b609a54604051633037408d60e01b81526001600160a01b0385811660048301524260248301526000921690633037408d90604401602060405180830381865afa158015612a21573d6000803e3d6000fd5b505050506040513d601f19601f82011682018060405250810190612a459190612f86565b609a5460405163d2dcd93360e01b81524260048201529192506000916001600160a01b039091169063d2dcd93390602401602060405180830381865afa158015612a93573d6000803e3d6000fd5b505050506040513d601f19601f82011682018060405250810190612ab79190612f86565b905060006064612ac8602887612f08565b612ad29190612f35565b9050600082118015612b255750612aed62015180600e612f08565b60008052609f6020527fa705961f203609058950cfd817eb7a7627c9e270651c936aad3abdfa253727ec54612b229190612f49565b42115b15612b6d57606482612b38602883612ed8565b612b428688612f08565b612b4c9190612f08565b612b569190612f35565b612b609190612f35565b612b6a9082612f49565b90505b612b778582612c2b565b6001600160a01b0387166000908152609c60205260408120805490839055609d54929350918290612ba9908590612f49565b612bb39190612ed8565b609d819055604080516001600160a01b038b168152602081018a9052908101889052606081018590526080810182905260a0810187905260c081018690529091507f47211fe8b1eecabef1c013b28eb9caa892fd6bf2d3f1f5111d08cc115de841659060e00160405180910390a15050505050505050565b6000818310612c3a5781610d60565b5090919050565b603380546001600160a01b038381166001600160a01b0319831681179093556040519116919082907f8be0079c531659141344cd1fd0a4f28419497f9722a3daafe3b4186f6b6457e090600090a35050565b600060208083528351808285015260005b81811015612cc057858101830151858201604001528201612ca4565b506000604082860101526040601f19601f8301168501019250505092915050565b8015158114610fc457600080fd5b600060208284031215612d0157600080fd5b8135610d6081612ce1565b80356001600160a01b0381168114612d2357600080fd5b919050565b60008060408385031215612d3b57600080fd5b612d4483612d0c565b946020939093013593505050565b600080600060608486031215612d6757600080fd5b612d7084612d0c565b9250612d7e60208501612d0c565b9150604084013590509250925092565b600060208284031215612da057600080fd5b610d6082612d0c565b600060208284031215612dbb57600080fd5b5035919050565b60008060408385031215612dd557600080fd5b612dde83612d0c565b9150612dec60208401612d0c565b90509250929050565b60008060408385031215612e0857600080fd5b823591506020830135612e1a81612ce1565b809150509250929050565b60008060408385031215612e3857600080fd5b82359150612dec60208401612d0c565b600080600060608486031215612e5d57600080fd5b83359250612e6d60208501612d0c565b91506040840135612e7d81612ce1565b809150509250925092565b600181811c90821680612e9c57607f821691505b602082108103612ebc57634e487b7160e01b600052602260045260246000fd5b50919050565b634e487b7160e01b600052601160045260246000fd5b81810381811115610cda57610cda612ec2565b600060208284031215612efd57600080fd5b8151610d6081612ce1565b8082028115828204841417610cda57610cda612ec2565b634e487b7160e01b600052601260045260246000fd5b600082612f4457612f44612f1f565b500490565b80820180821115610cda57610cda612ec2565b600082612f6b57612f6b612f1f565b500690565b634e487b7160e01b600052603260045260246000fd5b600060208284031215612f9857600080fd5b5051919050565b600060018201612fb157612fb1612ec2565b506001019056fea2646970667358221220a2dccbf5d80fa6f2f79cec7b27ddc8b452f14a4f6a406bedc4d44562d298867864736f6c634300081100335374616b696e67486f70653a3a696e697469616c697a653a20696e76616c6964",
  "linkReferences": {},
  "deployedLinkReferences": {}
}