{
  "_format": "hh-sol-artifact-1",
  "contractName": "RestrictedList",
  "sourceName": "contracts/RestrictedList.sol",
  "abi": [
    {
      "anonymous": false,
      "inputs": [
        {
          "indexed": false,
          "internalType": "address",
          "name": "_user",
          "type": "address"
        }
      ],
      "name": "AddedRestrictedList",
      "type": "event"
    },
    {
      "anonymous": false,
      "inputs": [
        {
          "indexed": true,
          "internalType": "address",
          "name": "previousOwner",
          "type": "address"
        },
        {
          "indexed": true,
          "internalType": "address",
          "name": "newOwner",
          "type": "address"
        }
      ],
      "name": "OwnershipTransferStarted",
      "type": "event"
    },
    {
      "anonymous": false,
      "inputs": [
        {
          "indexed": true,
          "internalType": "address",
          "name": "previousOwner",
          "type": "address"
        },
        {
          "indexed": true,
          "internalType": "address",
          "name": "newOwner",
          "type": "address"
        }
      ],
      "name": "OwnershipTransferred",
      "type": "event"
    },
    {
      "anonymous": false,
      "inputs": [
        {
          "indexed": false,
          "internalType": "address",
          "name": "_user",
          "type": "address"
        }
      ],
      "name": "RemovedRestrictedList",
      "type": "event"
    },
    {
      "inputs": [],
      "name": "acceptOwnership",
      "outputs": [],
      "stateMutability": "nonpayable",
      "type": "function"
    },
    {
      "inputs": [
        {
          "internalType": "address",
          "name": "_evilUser",
          "type": "address"
        }
      ],
      "name": "addRestrictedList",
      "outputs": [],
      "stateMutability": "nonpayable",
      "type": "function"
    },
    {
      "inputs": [
        {
          "internalType": "address",
          "name": "_maker",
          "type": "address"
        }
      ],
      "name": "getRestrictedListStatus",
      "outputs": [
        {
          "internalType": "bool",
          "name": "",
          "type": "bool"
        }
      ],
      "stateMutability": "view",
      "type": "function"
    },
    {
      "inputs": [
        {
          "internalType": "address",
          "name": "",
          "type": "address"
        }
      ],
      "name": "isRestrictedList",
      "outputs": [
        {
          "internalType": "bool",
          "name": "",
          "type": "bool"
        }
      ],
      "stateMutability": "view",
      "type": "function"
    },
    {
      "inputs": [],
      "name": "owner",
      "outputs": [
        {
          "internalType": "address",
          "name": "",
          "type": "address"
        }
      ],
      "stateMutability": "view",
      "type": "function"
    },
    {
      "inputs": [],
      "name": "pendingOwner",
      "outputs": [
        {
          "internalType": "address",
          "name": "",
          "type": "address"
        }
      ],
      "stateMutability": "view",
      "type": "function"
    },
    {
      "inputs": [
        {
          "internalType": "address",
          "name": "_clearedUser",
          "type": "address"
        }
      ],
      "name": "removeRestrictedList",
      "outputs": [],
      "stateMutability": "nonpayable",
      "type": "function"
    },
    {
      "inputs": [],
      "name": "renounceOwnership",
      "outputs": [],
      "stateMutability": "nonpayable",
      "type": "function"
    },
    {
      "inputs": [
        {
          "internalType": "address",
          "name": "newOwner",
          "type": "address"
        }
      ],
      "name": "transferOwnership",
      "outputs": [],
      "stateMutability": "nonpayable",
      "type": "function"
    }
  ],
  "bytecode": "0x608060405234801561001057600080fd5b5061001a3361001f565b610096565b600180546001600160a01b031916905561004381610046602090811b61033d17901c565b50565b600080546001600160a01b038381166001600160a01b0319831681178455604051919092169283917f8be0079c531659141344cd1fd0a4f28419497f9722a3daafe3b4186f6b6457e09190a35050565b610466806100a56000396000f3fe608060405234801561001057600080fd5b50600436106100935760003560e01c8063a467dcd411610066578063a467dcd4146100e7578063cbcc85ba1461011a578063dc2d30ed14610146578063e30c397814610159578063f2fde38b1461016a57600080fd5b806362acec8914610098578063715018a6146100ad57806379ba5097146100b55780638da5cb5b146100bd575b600080fd5b6100ab6100a6366004610400565b61017d565b005b6100ab6101dd565b6100ab6101f1565b6000546001600160a01b03165b6040516001600160a01b0390911681526020015b60405180910390f35b61010a6100f5366004610400565b60026020526000908152604090205460ff1681565b60405190151581526020016100de565b61010a610128366004610400565b6001600160a01b031660009081526002602052604090205460ff1690565b6100ab610154366004610400565b610270565b6001546001600160a01b03166100ca565b6100ab610178366004610400565b6102cc565b61018561038d565b6001600160a01b038116600081815260026020908152604091829020805460ff1916905590519182527f5a46486c63789ddf38c1abcd9ddab36420ef3e0ce977972d386abdc46b282d4e91015b60405180910390a150565b6101e561038d565b6101ef60006103e7565b565b60015433906001600160a01b031681146102645760405162461bcd60e51b815260206004820152602960248201527f4f776e61626c6532537465703a2063616c6c6572206973206e6f7420746865206044820152683732bb9037bbb732b960b91b60648201526084015b60405180910390fd5b61026d816103e7565b50565b61027861038d565b6001600160a01b038116600081815260026020908152604091829020805460ff1916600117905590519182527f1c076b3f188c8cc8a8b120b4001b5b86b7f7cfafd0456ec479981dbd24f5533991016101d2565b6102d461038d565b600180546001600160a01b0383166001600160a01b031990911681179091556103056000546001600160a01b031690565b6001600160a01b03167f38d16b8cac22d99fc7c124b9cd0de2d3fa1faef420bfe791d8c362d765e2270060405160405180910390a350565b600080546001600160a01b038381166001600160a01b0319831681178455604051919092169283917f8be0079c531659141344cd1fd0a4f28419497f9722a3daafe3b4186f6b6457e09190a35050565b6000546001600160a01b031633146101ef5760405162461bcd60e51b815260206004820181905260248201527f4f776e61626c653a2063616c6c6572206973206e6f7420746865206f776e6572604482015260640161025b565b600180546001600160a01b031916905561026d8161033d565b60006020828403121561041257600080fd5b81356001600160a01b038116811461042957600080fd5b939250505056fea264697066735822122069ab5381606aa145c1dfd721c924952adc213e9972e0fdbd6faa85f001d17e2f64736f6c63430008110033",
  "linkReferences": {},
  "deployedLinkReferences": {}
}