{
  "_format": "hh-sol-artifact-1",
  "contractName": "StakingHOPE",
  "sourceName": "contracts/StakingHOPE.sol",
  "abi": [
    {
      "inputs": [
        {
          "internalType": "address",
          "name": "_stakedToken",
          "type": "address"
        },
        {
          "internalType": "address",
          "name": "_minter",
          "type": "address"
        },
        {
          "internalType": "address",
          "name": "_permit2Address",
          "type": "address"
        }
      ],
      "stateMutability": "nonpayable",
      "type": "constructor"
    },
    {
      "anonymous": false,
      "inputs": [
        {
          "indexed": true,
          "internalType": "address",
          "name": "owner",
          "type": "address"
        },
        {
          "indexed": true,
          "internalType": "address",
          "name": "spender",
          "type": "address"
        },
        {
          "indexed": false,
          "internalType": "uint256",
          "name": "value",
          "type": "uint256"
        }
      ],
      "name": "Approval",
      "type": "event"
    },
    {
      "anonymous": false,
      "inputs": [
        {
          "indexed": true,
          "internalType": "address",
          "name": "provider",
          "type": "address"
        },
        {
          "indexed": false,
          "internalType": "uint256",
          "name": "value",
          "type": "uint256"
        }
      ],
      "name": "Deposit",
      "type": "event"
    },
    {
      "anonymous": false,
      "inputs": [
        {
          "indexed": false,
          "internalType": "uint8",
          "name": "version",
          "type": "uint8"
        }
      ],
      "name": "Initialized",
      "type": "event"
    },
    {
      "anonymous": false,
      "inputs": [
        {
          "indexed": true,
          "internalType": "address",
          "name": "previousOwner",
          "type": "address"
        },
        {
          "indexed": true,
          "internalType": "address",
          "name": "newOwner",
          "type": "address"
        }
      ],
      "name": "OwnershipTransferStarted",
      "type": "event"
    },
    {
      "anonymous": false,
      "inputs": [
        {
          "indexed": true,
          "internalType": "address",
          "name": "previousOwner",
          "type": "address"
        },
        {
          "indexed": true,
          "internalType": "address",
          "name": "newOwner",
          "type": "address"
        }
      ],
      "name": "OwnershipTransferred",
      "type": "event"
    },
    {
      "anonymous": false,
      "inputs": [
        {
          "indexed": true,
          "internalType": "address",
          "name": "user",
          "type": "address"
        },
        {
          "indexed": false,
          "internalType": "uint256",
          "name": "amount",
          "type": "uint256"
        }
      ],
      "name": "Redeem",
      "type": "event"
    },
    {
      "anonymous": false,
      "inputs": [
        {
          "indexed": false,
          "internalType": "address",
          "name": "user",
          "type": "address"
        },
        {
          "indexed": false,
          "internalType": "uint256",
          "name": "amount",
          "type": "uint256"
        }
      ],
      "name": "RewardsAccrued",
      "type": "event"
    },
    {
      "anonymous": false,
      "inputs": [
        {
          "indexed": true,
          "internalType": "address",
          "name": "user",
          "type": "address"
        },
        {
          "indexed": false,
          "internalType": "uint256",
          "name": "amount",
          "type": "uint256"
        }
      ],
      "name": "RewardsClaimed",
      "type": "event"
    },
    {
      "anonymous": false,
      "inputs": [
        {
          "indexed": true,
          "internalType": "address",
          "name": "user",
          "type": "address"
        },
        {
          "indexed": false,
          "internalType": "uint256",
          "name": "amount",
          "type": "uint256"
        }
      ],
      "name": "Staking",
      "type": "event"
    },
    {
      "anonymous": false,
      "inputs": [
        {
          "indexed": true,
          "internalType": "address",
          "name": "from",
          "type": "address"
        },
        {
          "indexed": true,
          "internalType": "address",
          "name": "to",
          "type": "address"
        },
        {
          "indexed": false,
          "internalType": "uint256",
          "name": "value",
          "type": "uint256"
        }
      ],
      "name": "Transfer",
      "type": "event"
    },
    {
      "anonymous": false,
      "inputs": [
        {
          "indexed": true,
          "internalType": "address",
          "name": "user",
          "type": "address"
        },
        {
          "indexed": false,
          "internalType": "uint256",
          "name": "amount",
          "type": "uint256"
        }
      ],
      "name": "Unstaking",
      "type": "event"
    },
    {
      "anonymous": false,
      "inputs": [
        {
          "indexed": false,
          "internalType": "address",
          "name": "user",
          "type": "address"
        },
        {
          "indexed": false,
          "internalType": "uint256",
          "name": "originalBalance",
          "type": "uint256"
        },
        {
          "indexed": false,
          "internalType": "uint256",
          "name": "originalSupply",
          "type": "uint256"
        },
        {
          "indexed": false,
          "internalType": "uint256",
          "name": "workingBalance",
          "type": "uint256"
        },
        {
          "indexed": false,
          "internalType": "uint256",
          "name": "workingSupply",
          "type": "uint256"
        },
        {
          "indexed": false,
          "internalType": "uint256",
          "name": "votingBalance",
          "type": "uint256"
        },
        {
          "indexed": false,
          "internalType": "uint256",
          "name": "votingTotal",
          "type": "uint256"
        }
      ],
      "name": "UpdateLiquidityLimit",
      "type": "event"
    },
    {
      "anonymous": false,
      "inputs": [
        {
          "indexed": true,
          "internalType": "address",
          "name": "provider",
          "type": "address"
        },
        {
          "indexed": false,
          "internalType": "uint256",
          "name": "value",
          "type": "uint256"
        }
      ],
      "name": "Withdraw",
      "type": "event"
    },
    {
      "inputs": [],
      "name": "acceptOwnership",
      "outputs": [],
      "stateMutability": "nonpayable",
      "type": "function"
    },
    {
      "inputs": [
        {
          "internalType": "address",
          "name": "owner",
          "type": "address"
        },
        {
          "internalType": "address",
          "name": "spender",
          "type": "address"
        }
      ],
      "name": "allowance",
      "outputs": [
        {
          "internalType": "uint256",
          "name": "",
          "type": "uint256"
        }
      ],
      "stateMutability": "view",
      "type": "function"
    },
    {
      "inputs": [
        {
          "internalType": "address",
          "name": "spender",
          "type": "address"
        },
        {
          "internalType": "uint256",
          "name": "amount",
          "type": "uint256"
        }
      ],
      "name": "approve",
      "outputs": [
        {
          "internalType": "bool",
          "name": "",
          "type": "bool"
        }
      ],
      "stateMutability": "nonpayable",
      "type": "function"
    },
    {
      "inputs": [
        {
          "internalType": "address",
          "name": "account",
          "type": "address"
        }
      ],
      "name": "balanceOf",
      "outputs": [
        {
          "internalType": "uint256",
          "name": "",
          "type": "uint256"
        }
      ],
      "stateMutability": "view",
      "type": "function"
    },
    {
      "inputs": [
        {
          "internalType": "address",
          "name": "_addr",
          "type": "address"
        }
      ],
      "name": "claimableTokens",
      "outputs": [
        {
          "internalType": "uint256",
          "name": "",
          "type": "uint256"
        }
      ],
      "stateMutability": "nonpayable",
      "type": "function"
    },
    {
      "inputs": [],
      "name": "controller",
      "outputs": [
        {
          "internalType": "contract IGombocController",
          "name": "",
          "type": "address"
        }
      ],
      "stateMutability": "view",
      "type": "function"
    },
    {
      "inputs": [],
      "name": "decimals",
      "outputs": [
        {
          "internalType": "uint8",
          "name": "",
          "type": "uint8"
        }
      ],
      "stateMutability": "view",
      "type": "function"
    },
    {
      "inputs": [
        {
          "internalType": "address",
          "name": "spender",
          "type": "address"
        },
        {
          "internalType": "uint256",
          "name": "subtractedValue",
          "type": "uint256"
        }
      ],
      "name": "decreaseAllowance",
      "outputs": [
        {
          "internalType": "bool",
          "name": "",
          "type": "bool"
        }
      ],
      "stateMutability": "nonpayable",
      "type": "function"
    },
    {
      "inputs": [],
      "name": "futureEpochTime",
      "outputs": [
        {
          "internalType": "uint256",
          "name": "",
          "type": "uint256"
        }
      ],
      "stateMutability": "view",
      "type": "function"
    },
    {
      "inputs": [
        {
          "internalType": "address",
          "name": "spender",
          "type": "address"
        },
        {
          "internalType": "uint256",
          "name": "addedValue",
          "type": "uint256"
        }
      ],
      "name": "increaseAllowance",
      "outputs": [
        {
          "internalType": "bool",
          "name": "",
          "type": "bool"
        }
      ],
      "stateMutability": "nonpayable",
      "type": "function"
    },
    {
      "inputs": [],
      "name": "inflationRate",
      "outputs": [
        {
          "internalType": "uint256",
          "name": "",
          "type": "uint256"
        }
      ],
      "stateMutability": "view",
      "type": "function"
    },
    {
      "inputs": [],
      "name": "integrateCheckpoint",
      "outputs": [
        {
          "internalType": "uint256",
          "name": "",
          "type": "uint256"
        }
      ],
      "stateMutability": "view",
      "type": "function"
    },
    {
      "inputs": [
        {
          "internalType": "address",
          "name": "",
          "type": "address"
        }
      ],
      "name": "integrateCheckpointOf",
      "outputs": [
        {
          "internalType": "uint256",
          "name": "",
          "type": "uint256"
        }
      ],
      "stateMutability": "view",
      "type": "function"
    },
    {
      "inputs": [
        {
          "internalType": "address",
          "name": "",
          "type": "address"
        }
      ],
      "name": "integrateFraction",
      "outputs": [
        {
          "internalType": "uint256",
          "name": "",
          "type": "uint256"
        }
      ],
      "stateMutability": "view",
      "type": "function"
    },
    {
      "inputs": [
        {
          "internalType": "address",
          "name": "",
          "type": "address"
        }
      ],
      "name": "integrateInvSupplyOf",
      "outputs": [
        {
          "internalType": "uint256",
          "name": "",
          "type": "uint256"
        }
      ],
      "stateMutability": "view",
      "type": "function"
    },
    {
      "inputs": [],
      "name": "isKilled",
      "outputs": [
        {
          "internalType": "bool",
          "name": "",
          "type": "bool"
        }
      ],
      "stateMutability": "view",
      "type": "function"
    },
    {
      "inputs": [
        {
          "internalType": "address",
          "name": "_addr",
          "type": "address"
        }
      ],
      "name": "kick",
      "outputs": [],
      "stateMutability": "nonpayable",
      "type": "function"
    },
    {
      "inputs": [
        {
          "internalType": "address",
          "name": "_addr",
          "type": "address"
        }
      ],
      "name": "lpBalanceOf",
      "outputs": [
        {
          "internalType": "uint256",
          "name": "",
          "type": "uint256"
        }
      ],
      "stateMutability": "view",
      "type": "function"
    },
    {
      "inputs": [],
      "name": "lpTotalSupply",
      "outputs": [
        {
          "internalType": "uint256",
          "name": "",
          "type": "uint256"
        }
      ],
      "stateMutability": "view",
      "type": "function"
    },
    {
      "inputs": [],
      "name": "ltToken",
      "outputs": [
        {
          "internalType": "contract ILT",
          "name": "",
          "type": "address"
        }
      ],
      "stateMutability": "view",
      "type": "function"
    },
    {
      "inputs": [],
      "name": "minter",
      "outputs": [
        {
          "internalType": "contract IMinter",
          "name": "",
          "type": "address"
        }
      ],
      "stateMutability": "view",
      "type": "function"
    },
    {
      "inputs": [],
      "name": "name",
      "outputs": [
        {
          "internalType": "string",
          "name": "",
          "type": "string"
        }
      ],
      "stateMutability": "view",
      "type": "function"
    },
    {
      "inputs": [],
      "name": "owner",
      "outputs": [
        {
          "internalType": "address",
          "name": "",
          "type": "address"
        }
      ],
      "stateMutability": "view",
      "type": "function"
    },
    {
      "inputs": [],
      "name": "pendingOwner",
      "outputs": [
        {
          "internalType": "address",
          "name": "",
          "type": "address"
        }
      ],
      "stateMutability": "view",
      "type": "function"
    },
    {
      "inputs": [],
      "name": "period",
      "outputs": [
        {
          "internalType": "uint256",
          "name": "",
          "type": "uint256"
        }
      ],
      "stateMutability": "view",
      "type": "function"
    },
    {
      "inputs": [
        {
          "internalType": "uint256",
          "name": "",
          "type": "uint256"
        }
      ],
      "name": "periodTimestamp",
      "outputs": [
        {
          "internalType": "uint256",
          "name": "",
          "type": "uint256"
        }
      ],
      "stateMutability": "view",
      "type": "function"
    },
    {
      "inputs": [],
      "name": "permit2Address",
      "outputs": [
        {
          "internalType": "address",
          "name": "",
          "type": "address"
        }
      ],
      "stateMutability": "view",
      "type": "function"
    },
    {
      "inputs": [],
      "name": "redeemAll",
      "outputs": [],
      "stateMutability": "nonpayable",
      "type": "function"
    },
    {
      "inputs": [
        {
          "internalType": "uint256",
          "name": "maxIndex",
          "type": "uint256"
        }
      ],
      "name": "redeemByMaxIndex",
      "outputs": [],
      "stateMutability": "nonpayable",
      "type": "function"
    },
    {
      "inputs": [],
      "name": "renounceOwnership",
      "outputs": [],
      "stateMutability": "nonpayable",
      "type": "function"
    },
    {
      "inputs": [
        {
          "internalType": "bool",
          "name": "_isKilled",
          "type": "bool"
        }
      ],
      "name": "setKilled",
      "outputs": [],
      "stateMutability": "nonpayable",
      "type": "function"
    },
    {
      "inputs": [],
      "name": "stakedToken",
      "outputs": [
        {
          "internalType": "address",
          "name": "",
          "type": "address"
        }
      ],
      "stateMutability": "view",
      "type": "function"
    },
    {
      "inputs": [
        {
          "internalType": "uint256",
          "name": "amount",
          "type": "uint256"
        },
        {
          "internalType": "uint256",
          "name": "nonce",
          "type": "uint256"
        },
        {
          "internalType": "uint256",
          "name": "deadline",
          "type": "uint256"
        },
        {
          "internalType": "bytes",
          "name": "signature",
          "type": "bytes"
        }
      ],
      "name": "staking",
      "outputs": [],
      "stateMutability": "nonpayable",
      "type": "function"
    },
    {
      "inputs": [],
      "name": "symbol",
      "outputs": [
        {
          "internalType": "string",
          "name": "",
          "type": "string"
        }
      ],
      "stateMutability": "view",
      "type": "function"
    },
    {
      "inputs": [],
      "name": "totalNotRedeemAmount",
      "outputs": [
        {
          "internalType": "uint256",
          "name": "",
          "type": "uint256"
        }
      ],
      "stateMutability": "view",
      "type": "function"
    },
    {
      "inputs": [],
      "name": "totalSupply",
      "outputs": [
        {
          "internalType": "uint256",
          "name": "",
          "type": "uint256"
        }
      ],
      "stateMutability": "view",
      "type": "function"
    },
    {
      "inputs": [
        {
          "internalType": "address",
          "name": "to",
          "type": "address"
        },
        {
          "internalType": "uint256",
          "name": "amount",
          "type": "uint256"
        }
      ],
      "name": "transfer",
      "outputs": [
        {
          "internalType": "bool",
          "name": "",
          "type": "bool"
        }
      ],
      "stateMutability": "nonpayable",
      "type": "function"
    },
    {
      "inputs": [
        {
          "internalType": "address",
          "name": "_from",
          "type": "address"
        },
        {
          "internalType": "address",
          "name": "_to",
          "type": "address"
        },
        {
          "internalType": "uint256",
          "name": "_amount",
          "type": "uint256"
        }
      ],
      "name": "transferFrom",
      "outputs": [
        {
          "internalType": "bool",
          "name": "",
          "type": "bool"
        }
      ],
      "stateMutability": "nonpayable",
      "type": "function"
    },
    {
      "inputs": [
        {
          "internalType": "address",
          "name": "newOwner",
          "type": "address"
        }
      ],
      "name": "transferOwnership",
      "outputs": [],
      "stateMutability": "nonpayable",
      "type": "function"
    },
    {
      "inputs": [
        {
          "internalType": "uint256",
          "name": "",
          "type": "uint256"
        }
      ],
      "name": "unStakingKeys",
      "outputs": [
        {
          "internalType": "address",
          "name": "",
          "type": "address"
        }
      ],
      "stateMutability": "view",
      "type": "function"
    },
    {
      "inputs": [
        {
          "internalType": "address",
          "name": "_addr",
          "type": "address"
        }
      ],
      "name": "unstakedBalanceOf",
      "outputs": [
        {
          "internalType": "uint256",
          "name": "",
          "type": "uint256"
        }
      ],
      "stateMutability": "view",
      "type": "function"
    },
    {
      "inputs": [],
      "name": "unstakedTotal",
      "outputs": [
        {
          "internalType": "uint256",
          "name": "",
          "type": "uint256"
        }
      ],
      "stateMutability": "view",
      "type": "function"
    },
    {
      "inputs": [
        {
          "internalType": "uint256",
          "name": "amount",
          "type": "uint256"
        }
      ],
      "name": "unstaking",
      "outputs": [],
      "stateMutability": "nonpayable",
      "type": "function"
    },
    {
      "inputs": [
        {
          "internalType": "address",
          "name": "_addr",
          "type": "address"
        }
      ],
      "name": "unstakingBalanceOf",
      "outputs": [
        {
          "internalType": "uint256",
          "name": "",
          "type": "uint256"
        }
      ],
      "stateMutability": "view",
      "type": "function"
    },
    {
      "inputs": [
        {
          "internalType": "address",
          "name": "",
          "type": "address"
        }
      ],
      "name": "unstakingMap",
      "outputs": [
        {
          "internalType": "uint256",
          "name": "notRedeemAmount",
          "type": "uint256"
        },
        {
          "internalType": "uint256",
          "name": "index",
          "type": "uint256"
        }
      ],
      "stateMutability": "view",
      "type": "function"
    },
    {
      "inputs": [],
      "name": "unstakingTotal",
      "outputs": [
        {
          "internalType": "uint256",
          "name": "",
          "type": "uint256"
        }
      ],
      "stateMutability": "view",
      "type": "function"
    },
    {
      "inputs": [
        {
          "internalType": "address",
          "name": "_addr",
          "type": "address"
        }
      ],
      "name": "userCheckpoint",
      "outputs": [
        {
          "internalType": "bool",
          "name": "",
          "type": "bool"
        }
      ],
      "stateMutability": "nonpayable",
      "type": "function"
    },
    {
      "inputs": [],
      "name": "votingEscrow",
      "outputs": [
        {
          "internalType": "contract IVotingEscrow",
          "name": "",
          "type": "address"
        }
      ],
      "stateMutability": "view",
      "type": "function"
    },
    {
      "inputs": [
        {
          "internalType": "address",
          "name": "",
          "type": "address"
        }
      ],
      "name": "workingBalances",
      "outputs": [
        {
          "internalType": "uint256",
          "name": "",
          "type": "uint256"
        }
      ],
      "stateMutability": "view",
      "type": "function"
    },
    {
      "inputs": [],
      "name": "workingSupply",
      "outputs": [
        {
          "internalType": "uint256",
          "name": "",
          "type": "uint256"
        }
      ],
      "stateMutability": "view",
      "type": "function"
    }
  ],
  "bytecode": "0x60806040523480156200001157600080fd5b50604051620035643803806200356483398101604081905262000034916200070a565b816001600160a01b038116620000915760405162461bcd60e51b815260206004820152601b60248201527f696e76616c696420766f74696e67457363726f7741646472657373000000000060448201526064015b60405180910390fd5b8060c960016101000a8154816001600160a01b0302191690836001600160a01b03160217905550600060c960019054906101000a90046001600160a01b03166001600160a01b031663fc0c546a6040518163ffffffff1660e01b8152600401602060405180830381865afa1580156200010e573d6000803e3d6000fd5b505050506040513d601f19601f8201168201806040525081019062000134919062000754565b90508060ca60006101000a8154816001600160a01b0302191690836001600160a01b0316021790555060c960019054906101000a90046001600160a01b03166001600160a01b031663f77c47916040518163ffffffff1660e01b8152600401602060405180830381865afa158015620001b1573d6000803e3d6000fd5b505050506040513d601f19601f82011682018060405250810190620001d7919062000754565b60cb80546001600160a01b0319166001600160a01b0392909216918217905560408051634f2bfe5b60e01b81529051634f2bfe5b916004808201926020929091908290030181865afa15801562000232573d6000803e3d6000fd5b505050506040513d601f19601f8201168201806040525081019062000258919062000754565b60cc80546001600160a01b0319166001600160a01b039283161790556000805260d16020908152427efa5413e7b01fc543d01f0911de573ace463b956369df4472f39030e8d98b775560ca5460408051631627391760e11b815290519190931692632c4e722e9260048083019391928290030181865afa158015620002e1573d6000803e3d6000fd5b505050506040513d601f19601f8201168201806040525081019062000307919062000779565b60d65560ca546040805163277dbafb60e01b815290516001600160a01b039092169163277dbafb9160048082019260209290919082900301816000875af115801562000357573d6000803e3d6000fd5b505050506040513d601f19601f820116820180604052508101906200037d919062000779565b60cd555050600054610100900460ff1615808015620003a35750600054600160ff909116105b80620003d35750620003c030620005f460201b620016fe1760201c565b158015620003d3575060005460ff166001145b620004385760405162461bcd60e51b815260206004820152602e60248201527f496e697469616c697a61626c653a20636f6e747261637420697320616c72656160448201526d191e481a5b9a5d1a585b1a5e995960921b606482015260840162000088565b6000805460ff1916600117905580156200045c576000805461ff0019166101001790555b6001600160a01b038416620004bc5760405162461bcd60e51b815260206004820152603060248201526000805160206200354483398151915260448201526f207374616b696e67206164647265737360801b606482015260840162000088565b6001600160a01b0382166200051c5760405162461bcd60e51b815260206004820152603060248201526000805160206200354483398151915260448201526f207065726d697432206164647265737360801b606482015260840162000088565b620005736040518060400160405280600f81526020016e5374616b656420484f504520554e4960881b815250604051806040016040528060068152602001657374484f504560d01b8152506200060360201b60201c565b60d780546001600160a01b038087166001600160a01b03199283161790925560d88054928516929091169190911790558015620005ea576000805461ff0019169055604051600181527f7f26b83ff96e1f2b6a682f133852f6798a09c465da95921460cefb38474024989060200160405180910390a15b5050505062000903565b6001600160a01b03163b151590565b600054610100900460ff166200065f5760405162461bcd60e51b815260206004820152602b60248201526000805160206200352483398151915260448201526a6e697469616c697a696e6760a81b606482015260840162000088565b6200066b82826200066f565b5050565b600054610100900460ff16620006cb5760405162461bcd60e51b815260206004820152602b60248201526000805160206200352483398151915260448201526a6e697469616c697a696e6760a81b606482015260840162000088565b6036620006d9838262000837565b506037620006e8828262000837565b505050565b80516001600160a01b03811681146200070557600080fd5b919050565b6000806000606084860312156200072057600080fd5b6200072b84620006ed565b92506200073b60208501620006ed565b91506200074b60408501620006ed565b90509250925092565b6000602082840312156200076757600080fd5b6200077282620006ed565b9392505050565b6000602082840312156200078c57600080fd5b5051919050565b634e487b7160e01b600052604160045260246000fd5b600181811c90821680620007be57607f821691505b602082108103620007df57634e487b7160e01b600052602260045260246000fd5b50919050565b601f821115620006e857600081815260208120601f850160051c810160208610156200080e5750805b601f850160051c820191505b818110156200082f578281556001016200081a565b505050505050565b81516001600160401b0381111562000853576200085362000793565b6200086b81620008648454620007a9565b84620007e5565b602080601f831160018114620008a357600084156200088a5750858301515b600019600386901b1c1916600185901b1785556200082f565b600085815260208120601f198616915b82811015620008d457888601518255948401946001909101908401620008b3565b5085821015620008f35787850151600019600388901b60f8161c191681555b5050505050600190811b01905550565b612c1180620009136000396000f3fe608060405234801561001057600080fd5b50600436106102d65760003560e01c80638fe8a10111610182578063b8b80498116100e9578063cc7a262e116100a2578063ef78d4fd1161007c578063ef78d4fd14610683578063f2fde38b1461068c578063f77c47911461069f578063fc566d52146106b257600080fd5b8063cc7a262e1461064c578063dd62ed3e1461065f578063e30c39781461067257600080fd5b8063b8b80498146105e1578063bdc83b1f146105f4578063c5224983146105fd578063c826860414610610578063c8562f7214610623578063caa0b9ed1461062c57600080fd5b80639e48d35e1161013b5780639e48d35e1461056c578063a457c2d714610575578063a5870d6b14610588578063a9059cbb1461059b578063b07b709b146105ae578063b1bd6086146105c157600080fd5b80638fe8a101146104fe57806390827da71461050b578063958da8de1461051e57806395d89b411461053e57806396c55175146105465780639c46665c1461055957600080fd5b80634f2bfe5b1161024157806373dd0555116101fa5780637b4dacef116101d45780637b4dacef146104bf57806384d24226146104c75780638b45a673146104da5780638da5cb5b146104ed57600080fd5b806373dd0555146104845780637699b4cd1461049757806379ba5097146104b757600080fd5b80634f2bfe5b146103e5578063505362c4146103f857806353f7425f1461040f57806366be23221461044b57806370a0823114610453578063715018a61461047c57600080fd5b806323b872dd1161029357806323b872dd1461037f5780632f4350c214610392578063313ce5671461039a57806331e202cc146103a957806331f9e35b146103c957806339509351146103d257600080fd5b806306fdde03146102db57806307546172146102f95780630959950414610329578063095ea7b31461033e57806317a3c3701461036157806318160ddd14610377575b600080fd5b6102e36106c5565b6040516102f09190612811565b60405180910390f35b60c9546103119061010090046001600160a01b031681565b6040516001600160a01b0390911681526020016102f0565b61033c610337366004612832565b610757565b005b61035161034c36600461286b565b610772565b60405190151581526020016102f0565b61036961078c565b6040519081526020016102f0565b603554610369565b61035161038d366004612895565b6107f6565b61033c610848565b604051601281526020016102f0565b6103696103b73660046128d1565b60d16020526000908152604090205481565b61036960d65481565b6103516103e036600461286b565b6109da565b60cc54610311906001600160a01b031681565b60d054600090815260d16020526040902054610369565b61043661041d3660046128ea565b60da602052600090815260409020805460019091015482565b604080519283526020830191909152016102f0565b6103696109fc565b6103696104613660046128ea565b6001600160a01b031660009081526033602052604090205490565b61033c610a19565b61033c61049236600461291b565b610a2d565b6103696104a53660046128ea565b60d46020526000908152604090205481565b61033c610bb9565b610369610c33565b6103696104d53660046128ea565b610c97565b6103696104e83660046128ea565b610d3f565b6065546001600160a01b0316610311565b60c9546103519060ff1681565b61033c6105193660046128d1565b610dd4565b61036961052c3660046128ea565b60ce6020526000908152604090205481565b6102e3610ffb565b61033c6105543660046128ea565b61100a565b6103696105673660046128ea565b611265565b61036960cd5481565b61035161058336600461286b565b611293565b60ca54610311906001600160a01b031681565b6103516105a936600461286b565b611319565b6103516105bc3660046128ea565b61135c565b6103696105cf3660046128ea565b60d36020526000908152604090205481565b6103116105ef3660046128d1565b6113e2565b61036960d95481565b60d854610311906001600160a01b031681565b61036961061e3660046128ea565b61140c565b61036960cf5481565b61036961063a3660046128ea565b60d56020526000908152604090205481565b60d754610311906001600160a01b031681565b61036961066d3660046129e9565b611499565b6097546001600160a01b0316610311565b61036960d05481565b61033c61069a3660046128ea565b6114c4565b60cb54610311906001600160a01b031681565b61033c6106c03660046128d1565b611535565b6060603680546106d490612a1c565b80601f016020809104026020016040519081016040528092919081815260200182805461070090612a1c565b801561074d5780601f106107225761010080835404028352916020019161074d565b820191906000526020600020905b81548152906001019060200180831161073057829003601f168201915b5050505050905090565b61075f61170d565b60c9805460ff1916911515919091179055565b600033610780818585611767565b60019150505b92915050565b600080805b60db548110156107f057600060db82815481106107b0576107b0612a50565b6000918252602090912001546001600160a01b031690506107d081610d3f565b6107da9084612a7c565b92505080806107e890612a8f565b915050610791565b50919050565b60006108018461188c565b61080a8361188c565b6000610817858585611ded565b90506108338561082687611265565b61082e6109fc565b611e06565b6108408461082686611265565b949350505050565b33600061085482610d3f565b9050806000036108a25760405162461bcd60e51b8152602060048201526014602482015273139bc81c995919595b58589b1948185b5bdd5b9d60621b60448201526064015b60405180910390fd5b6108ab8261188c565b6001600160a01b038216600090815260da6020526040902060018101545b801561096357600081815260028084016020526040909120015460ff166109635760008181526002830160205260409020600101544211156109515760008181526002808401602052604090912080549101805460ff191660011790558254610933908290612aa8565b835560d9805482919060009061094a908490612aa8565b9091555050505b8061095b81612abb565b9150506108c9565b5061096e8383612060565b60d754610985906001600160a01b0316848461218c565b6109928361082685611265565b826001600160a01b03167f222838db2794d11532d940e8dec38ae307ed0b63cd97c233322e221f998767a6836040516109cd91815260200190565b60405180910390a2505050565b6000336107808185856109ed8383611499565b6109f79190612a7c565b611767565b600060d954610a0a60355490565b610a149190612aa8565b905090565b610a2161170d565b610a2b6000612284565b565b83600003610a735760405162461bcd60e51b81526020600482015260136024820152721253959053125117d6915493d7d05353d55395606a1b6044820152606401610899565b60003360d7546040516370a0823160e01b81526001600160a01b038084166004830152929350600092909116906370a0823190602401602060405180830381865afa158015610ac6573d6000803e3d6000fd5b505050506040513d601f19601f82011682018060405250810190610aea9190612ad2565b905085811015610b2d5760405162461bcd60e51b815260206004820152600e60248201526d1253959053125117d05353d5539560921b6044820152606401610899565b60d85460d754610b4e916001600160a01b039081169116888589898961229d565b610b578261188c565b610b6182876122f9565b610b6e8261082684611265565b816001600160a01b03167fb831f69f1cebc12b23cd864ce5bfea2669d01956050a0147d71d418074559c2187604051610ba991815260200190565b60405180910390a2505050505050565b60975433906001600160a01b03168114610c275760405162461bcd60e51b815260206004820152602960248201527f4f776e61626c6532537465703a2063616c6c6572206973206e6f7420746865206044820152683732bb9037bbb732b960b91b6064820152608401610899565b610c3081612284565b50565b600080805b60db548110156107f057600060db8281548110610c5757610c57612a50565b6000918252602090912001546001600160a01b03169050610c778161140c565b610c819084612a7c565b9250508080610c8f90612a8f565b915050610c38565b6000610ca28261188c565b60c9546040516308b752bb60e41b81526001600160a01b03848116600483015230602483015261010090920490911690638b752bb090604401602060405180830381865afa158015610cf8573d6000803e3d6000fd5b505050506040513d601f19601f82011682018060405250810190610d1c9190612ad2565b6001600160a01b038316600090815260d560205260409020546107869190612aa8565b6001600160a01b038116600090815260da6020526040812060018101548291905b8015610dcb57600081815260028084016020526040909120015460ff16610dcb5760008181526002830160205260409020600101544210610db9576000818152600283016020526040902054610db69084612a7c565b92505b80610dc381612abb565b915050610d60565b50909392505050565b80600003610e1a5760405162461bcd60e51b81526020600482015260136024820152721253959053125117d6915493d7d05353d55395606a1b6044820152606401610899565b3360008181526033602052604090205482811015610e6b5760405162461bcd60e51b815260206004820152600e60248201526d1253959053125117d05353d5539560921b6044820152606401610899565b610e748261188c565b60006201518080610e858142612a7c565b610e8f9190612aeb565b610e999190612b0d565b90506000610eab62015180601c612b0d565b610eb59083612a7c565b6001600160a01b038516600090815260da602052604081206001810154929350919003610f285760db80546001810182556000919091527f4c0d3471ead8ee99fbd8249e33f683e07c6cd6071fe102dd09617b2c353de4300180546001600160a01b0319166001600160a01b0387161790555b8054610f35908790612a7c565b8155600180820154610f4691612a7c565b600182810182905560408051606081018252898152602080820187815260008385018181529681526002808901909352938420925183555193820193909355925192909101805460ff19169215159290921790915560d98054889290610fad908490612a7c565b90915550610fc090508561082681611265565b846001600160a01b03167ff2619dcba9802bb8ec071016f659320c48304701ba220f0420bed16f87139a6687604051610ba991815260200190565b6060603780546106d490612a1c565b6001600160a01b03818116600081815260d460205260408082205460cc549151638c71e5d160e01b8152600481019490945293919291169063eac6a6679085908390638c71e5d190602401602060405180830381865afa158015611072573d6000803e3d6000fd5b505050506040513d601f19601f820116820180604052508101906110969190612ad2565b6040516001600160e01b031960e085901b1681526001600160a01b0390921660048301526024820152604401602060405180830381865afa1580156110df573d6000803e3d6000fd5b505050506040513d601f19601f820116820180604052508101906111039190612ad2565b9050600061111084611265565b60cc54604051633037408d60e01b81526001600160a01b038781166004830152426024830152929350911690633037408d90604401602060405180830381865afa158015611162573d6000803e3d6000fd5b505050506040513d601f19601f820116820180604052508101906111869190612ad2565b158061119157508282115b6111d55760405162461bcd60e51b815260206004820152601560248201527419195d8e881ada58dac81b9bdd08185b1b1bddd959605a1b6044820152606401610899565b60646111e2602883612b0d565b6111ec9190612aeb565b6001600160a01b038516600090815260ce6020526040902054116112495760405162461bcd60e51b815260206004820152601460248201527319195d8e881ada58dac81b9bdd081b995959195960621b6044820152606401610899565b6112528461188c565b61125f8461082686611265565b50505050565b6001600160a01b038116600090815260da602090815260408083205460339092528220546107869190612aa8565b600033816112a18286611499565b9050838110156113015760405162461bcd60e51b815260206004820152602560248201527f45524332303a2064656372656173656420616c6c6f77616e63652062656c6f77604482015264207a65726f60d81b6064820152608401610899565b61130e8286868403611767565b506001949350505050565b60006113243361188c565b61132d8361188c565b600061133984846123ba565b90506113483361082633611265565b6113558461082686611265565b9392505050565b6000336001600160a01b0383161480611384575060c95461010090046001600160a01b031633145b6113c45760405162461bcd60e51b815260206004820152601160248201527019195d8e881d5b985d5d1a1bdc9a5e9959607a1b6044820152606401610899565b6113cd8261188c565b6113da8261082684611265565b506001919050565b60db81815481106113f257600080fd5b6000918252602090912001546001600160a01b0316905081565b6001600160a01b038116600090815260da6020526040812060018101548291905b8015610dcb57600081815260028084016020526040909120015460ff16610dcb5760008181526002830160205260409020600101544210156114875760008181526002830160205260409020546114849084612a7c565b92505b8061149181612abb565b91505061142d565b6001600160a01b03918216600090815260346020908152604080832093909416825291909152205490565b6114cc61170d565b609780546001600160a01b0383166001600160a01b031990911681179091556114fd6065546001600160a01b031690565b6001600160a01b03167f38d16b8cac22d99fc7c124b9cd0de2d3fa1faef420bfe791d8c362d765e2270060405160405180910390a350565b33600061154182610d3f565b90508060000361158a5760405162461bcd60e51b8152602060048201526014602482015273139bc81c995919595b58589b1948185b5bdd5b9d60621b6044820152606401610899565b60006115958361188c565b6001600160a01b038316600090815260da602052604081209060015b826001015481116116865786821015611686576000818152600284016020526040902060010154421180156115fa5750600081815260028085016020526040909120015460ff16155b1561167457600081815260028401602052604090205461161a8186612a7c565b60008381526002808701602052604090912001805460ff191660011790558454909550611648908290612aa8565b845560d9805482919060009061165f908490612aa8565b9091555083905061166f81612a8f565b935050505b8061167e81612a8f565b9150506115b1565b5082156116f6576116978584612060565b60d7546116ae906001600160a01b0316868561218c565b6116bb8561082687611265565b846001600160a01b03167f222838db2794d11532d940e8dec38ae307ed0b63cd97c233322e221f998767a684604051610ba991815260200190565b505050505050565b6001600160a01b03163b151590565b6065546001600160a01b03163314610a2b5760405162461bcd60e51b815260206004820181905260248201527f4f776e61626c653a2063616c6c6572206973206e6f7420746865206f776e65726044820152606401610899565b6001600160a01b0383166117c95760405162461bcd60e51b8152602060048201526024808201527f45524332303a20617070726f76652066726f6d20746865207a65726f206164646044820152637265737360e01b6064820152608401610899565b6001600160a01b03821661182a5760405162461bcd60e51b815260206004820152602260248201527f45524332303a20617070726f766520746f20746865207a65726f206164647265604482015261737360f01b6064820152608401610899565b6001600160a01b0383811660008181526034602090815260408083209487168084529482529182902085905590518481527f8c5be1e5ebec7d5bd14f71427d1e84f3dd0314c0f7b2291e5b200ac8c7c3b92591015b60405180910390a3505050565b6118c56040518060c001604052806000815260200160008152602001600081526020016000815260200160008152602001600081525090565b60d054808252600090815260d160209081526040808320548285019081528451845260d290925291829020549183019190915260d65460608301819052608083015260cd5460a08301819052905111611a0d5760ca60009054906101000a90046001600160a01b03166001600160a01b031663277dbafb6040518163ffffffff1660e01b81526004016020604051808303816000875af115801561196d573d6000803e3d6000fd5b505050506040513d601f19601f820116820180604052508101906119919190612ad2565b60cd5560ca5460408051631627391760e11b815290516001600160a01b0390921691632c4e722e916004808201926020929091908290030181865afa1580156119de573d6000803e3d6000fd5b505050506040513d601f19601f82011682018060405250810190611a029190612ad2565b6080820181905260d6555b60cb5460405163b93cd39d60e01b81523060048201526001600160a01b039091169063b93cd39d90602401600060405180830381600087803b158015611a5257600080fd5b505af1158015611a66573d6000803e3d6000fd5b505060c95460ff16159150611a7f905057600060608201525b8060200151421115611d055760cf5460208201516000611aeb611aa6620151806007612b0d565b611ab4620151806007612b0d565b611ac2620151806007612b0d565b8760200151611ad19190612a7c565b611adb9190612aeb565b611ae59190612b0d565b426123c8565b905060005b6101f4811015611d00576000611b068484612aa8565b60cb549091506000906001600160a01b0316633356124630611b2c620151806007612b0d565b611b3a620151806007612b0d565b611b44908a612aeb565b611b4e9190612b0d565b6040516001600160e01b031960e085901b1681526001600160a01b0390921660048301526024820152604401602060405180830381865afa158015611b97573d6000803e3d6000fd5b505050506040513d601f19601f82011682018060405250810190611bbb9190612ad2565b90508515611cbb57848760a0015110158015611bda5750838760a00151105b15611c805785858860a00151611bf09190612aa8565b828960600151611c009190612b0d565b611c0a9190612b0d565b611c149190612aeb565b87604001818151611c259190612a7c565b9052506080870151606088015260a08701518690611c439086612aa8565b828960600151611c539190612b0d565b611c5d9190612b0d565b611c679190612aeb565b87604001818151611c789190612a7c565b905250611cbb565b8582828960600151611c929190612b0d565b611c9c9190612b0d565b611ca69190612aeb565b87604001818151611cb79190612a7c565b9052505b428403611cc9575050611d00565b839450611ce9620151806007611cdf9190612b0d565b611ae59086612a7c565b935050508080611cf890612a8f565b915050611af0565b505050505b600181600001818151611d189190612a7c565b905250805160d0819055600090815260d16020908152604080832042905580840180518551855260d28452828520556001600160a01b038616845260ce83528184205460d390935292205491519091670de0b6b3a764000091611d7b9190612aa8565b611d859083612b0d565b611d8f9190612aeb565b6001600160a01b038416600090815260d5602052604081208054909190611db7908490612a7c565b9091555050506040908101516001600160a01b03909216600090815260d360209081528282209390935560d49092529020429055565b600033611dfb8582856123de565b61130e858585612452565b60cc54604051633037408d60e01b81526001600160a01b0385811660048301524260248301526000921690633037408d90604401602060405180830381865afa158015611e57573d6000803e3d6000fd5b505050506040513d601f19601f82011682018060405250810190611e7b9190612ad2565b60cc5460405163d2dcd93360e01b81524260048201529192506000916001600160a01b039091169063d2dcd93390602401602060405180830381865afa158015611ec9573d6000803e3d6000fd5b505050506040513d601f19601f82011682018060405250810190611eed9190612ad2565b905060006064611efe602887612b0d565b611f089190612aeb565b9050600082118015611f5a5750611f2362015180600e612b0d565b6000805260d16020527efa5413e7b01fc543d01f0911de573ace463b956369df4472f39030e8d98b7754611f579190612a7c565b42115b15611fa257606482611f6d602883612aa8565b611f778688612b0d565b611f819190612b0d565b611f8b9190612aeb565b611f959190612aeb565b611f9f9082612a7c565b90505b611fac85826123c8565b6001600160a01b038716600090815260ce6020526040812080549083905560cf54929350918290611fde908590612a7c565b611fe89190612aa8565b60cf819055604080516001600160a01b038b168152602081018a9052908101889052606081018590526080810182905260a0810187905260c081018690529091507f47211fe8b1eecabef1c013b28eb9caa892fd6bf2d3f1f5111d08cc115de841659060e00160405180910390a15050505050505050565b6001600160a01b0382166120c05760405162461bcd60e51b815260206004820152602160248201527f45524332303a206275726e2066726f6d20746865207a65726f206164647265736044820152607360f81b6064820152608401610899565b6001600160a01b038216600090815260336020526040902054818110156121345760405162461bcd60e51b815260206004820152602260248201527f45524332303a206275726e20616d6f756e7420657863656564732062616c616e604482015261636560f01b6064820152608401610899565b6001600160a01b03831660008181526033602090815260408083208686039055603580548790039055518581529192917fddf252ad1be2c89b69c2b068fc378daa952ba7f163c4a11628f55a4df523b3ef910161187f565b60405163a9059cbb60e01b81526001600160a01b0383811660048301526024820183905284919082169063a9059cbb906044016020604051808303816000875af11580156121de573d6000803e3d6000fd5b505050506040513d601f19601f820116820180604052508101906122029190612b24565b5060003d8015612219576020811461222357600080fd5b600019915061222f565b60206000803e60005191505b508061227d5760405162461bcd60e51b815260206004820152601960248201527f544f4b454e5f5452414e534645525f4f55545f4641494c4544000000000000006044820152606401610899565b5050505050565b609780546001600160a01b0319169055610c30816125fd565b6040805160a0810182526001600160a01b03881660608201908152608082018890528152602080820186905281830185905282518084019093523083528201879052906122ed898784848761264f565b50505050505050505050565b6001600160a01b03821661234f5760405162461bcd60e51b815260206004820152601f60248201527f45524332303a206d696e7420746f20746865207a65726f2061646472657373006044820152606401610899565b80603560008282546123619190612a7c565b90915550506001600160a01b0382166000818152603360209081526040808320805486019055518481527fddf252ad1be2c89b69c2b068fc378daa952ba7f163c4a11628f55a4df523b3ef910160405180910390a35050565b600033610780818585612452565b60008183106123d75781611355565b5090919050565b60006123ea8484611499565b9050600019811461125f57818110156124455760405162461bcd60e51b815260206004820152601d60248201527f45524332303a20696e73756666696369656e7420616c6c6f77616e63650000006044820152606401610899565b61125f8484848403611767565b6001600160a01b0383166124b65760405162461bcd60e51b815260206004820152602560248201527f45524332303a207472616e736665722066726f6d20746865207a65726f206164604482015264647265737360d81b6064820152608401610899565b6001600160a01b0382166125185760405162461bcd60e51b815260206004820152602360248201527f45524332303a207472616e7366657220746f20746865207a65726f206164647260448201526265737360e81b6064820152608401610899565b6001600160a01b038316600090815260336020526040902054818110156125905760405162461bcd60e51b815260206004820152602660248201527f45524332303a207472616e7366657220616d6f756e7420657863656564732062604482015265616c616e636560d01b6064820152608401610899565b6001600160a01b0380851660008181526033602052604080822086860390559286168082529083902080548601905591517fddf252ad1be2c89b69c2b068fc378daa952ba7f163c4a11628f55a4df523b3ef906125f09086815260200190565b60405180910390a361125f565b606580546001600160a01b038381166001600160a01b0319831681179093556040519116919082907f8be0079c531659141344cd1fd0a4f28419497f9722a3daafe3b4186f6b6457e090600090a35050565b82515182516040516370a0823160e01b81526001600160a01b039182166004820152600092918391908316906370a0823190602401602060405180830381865afa1580156126a1573d6000803e3d6000fd5b505050506040513d601f19601f820116820180604052508101906126c59190612ad2565b60405163187945bd60e11b81529091506001600160a01b038916906330f28b7a906126fa90899089908c908a90600401612b41565b600060405180830381600087803b15801561271457600080fd5b505af1158015612728573d6000803e3d6000fd5b50508751516040516370a0823160e01b8152306004820152600093506001600160a01b0390911691506370a0823190602401602060405180830381865afa158015612777573d6000803e3d6000fd5b505050506040513d601f19601f8201168201806040525081019061279b9190612ad2565b905060006127a98383612aa8565b9050866020015181146127be576127be612bc5565b9998505050505050505050565b6000815180845260005b818110156127f1576020818501810151868301820152016127d5565b506000602082860101526020601f19601f83011685010191505092915050565b60208152600061135560208301846127cb565b8015158114610c3057600080fd5b60006020828403121561284457600080fd5b813561135581612824565b80356001600160a01b038116811461286657600080fd5b919050565b6000806040838503121561287e57600080fd5b6128878361284f565b946020939093013593505050565b6000806000606084860312156128aa57600080fd5b6128b38461284f565b92506128c16020850161284f565b9150604084013590509250925092565b6000602082840312156128e357600080fd5b5035919050565b6000602082840312156128fc57600080fd5b6113558261284f565b634e487b7160e01b600052604160045260246000fd5b6000806000806080858703121561293157600080fd5b843593506020850135925060408501359150606085013567ffffffffffffffff8082111561295e57600080fd5b818701915087601f83011261297257600080fd5b81358181111561298457612984612905565b604051601f8201601f19908116603f011681019083821181831017156129ac576129ac612905565b816040528281528a60208487010111156129c557600080fd5b82602086016020830137600060208483010152809550505050505092959194509250565b600080604083850312156129fc57600080fd5b612a058361284f565b9150612a136020840161284f565b90509250929050565b600181811c90821680612a3057607f821691505b6020821081036107f057634e487b7160e01b600052602260045260246000fd5b634e487b7160e01b600052603260045260246000fd5b634e487b7160e01b600052601160045260246000fd5b8082018082111561078657610786612a66565b600060018201612aa157612aa1612a66565b5060010190565b8181038181111561078657610786612a66565b600081612aca57612aca612a66565b506000190190565b600060208284031215612ae457600080fd5b5051919050565b600082612b0857634e487b7160e01b600052601260045260246000fd5b500490565b808202811582820484141761078657610786612a66565b600060208284031215612b3657600080fd5b815161135581612824565b6000610100612b6483885180516001600160a01b03168252602090810151910152565b6020870151604084015260408701516060840152612b98608084018780516001600160a01b03168252602090810151910152565b6001600160a01b03851660c084015260e08301819052612bba818401856127cb565b979650505050505050565b634e487b7160e01b600052600160045260246000fdfea2646970667358221220f37117a5e0243ea78e09871770da5a0fca8f48884e2287fca98c5f5fb36a5fdf64736f6c63430008110033496e697469616c697a61626c653a20636f6e7472616374206973206e6f7420695374616b696e67486f70653a3a696e697469616c697a653a20696e76616c6964",
  "linkReferences": {},
  "deployedLinkReferences": {}
}