{
  "_format": "hh-sol-artifact-1",
  "contractName": "StETH",
  "sourceName": "contracts/mock/StETH.sol",
  "abi": [
    {
      "inputs": [],
      "stateMutability": "nonpayable",
      "type": "constructor"
    },
    {
      "anonymous": false,
      "inputs": [
        {
          "indexed": true,
          "internalType": "address",
          "name": "owner",
          "type": "address"
        },
        {
          "indexed": true,
          "internalType": "address",
          "name": "spender",
          "type": "address"
        },
        {
          "indexed": false,
          "internalType": "uint256",
          "name": "value",
          "type": "uint256"
        }
      ],
      "name": "Approval",
      "type": "event"
    },
    {
      "anonymous": false,
      "inputs": [
        {
          "indexed": true,
          "internalType": "address",
          "name": "previousOwner",
          "type": "address"
        },
        {
          "indexed": true,
          "internalType": "address",
          "name": "newOwner",
          "type": "address"
        }
      ],
      "name": "OwnershipTransferStarted",
      "type": "event"
    },
    {
      "anonymous": false,
      "inputs": [
        {
          "indexed": true,
          "internalType": "address",
          "name": "previousOwner",
          "type": "address"
        },
        {
          "indexed": true,
          "internalType": "address",
          "name": "newOwner",
          "type": "address"
        }
      ],
      "name": "OwnershipTransferred",
      "type": "event"
    },
    {
      "anonymous": false,
      "inputs": [
        {
          "indexed": true,
          "internalType": "address",
          "name": "_sender",
          "type": "address"
        },
        {
          "indexed": false,
          "internalType": "address",
          "name": "_referal",
          "type": "address"
        }
      ],
      "name": "Referal",
      "type": "event"
    },
    {
      "anonymous": false,
      "inputs": [
        {
          "indexed": true,
          "internalType": "address",
          "name": "from",
          "type": "address"
        },
        {
          "indexed": true,
          "internalType": "address",
          "name": "to",
          "type": "address"
        },
        {
          "indexed": false,
          "internalType": "uint256",
          "name": "value",
          "type": "uint256"
        }
      ],
      "name": "Transfer",
      "type": "event"
    },
    {
      "inputs": [],
      "name": "acceptOwnership",
      "outputs": [],
      "stateMutability": "nonpayable",
      "type": "function"
    },
    {
      "inputs": [
        {
          "internalType": "address",
          "name": "owner",
          "type": "address"
        },
        {
          "internalType": "address",
          "name": "spender",
          "type": "address"
        }
      ],
      "name": "allowance",
      "outputs": [
        {
          "internalType": "uint256",
          "name": "",
          "type": "uint256"
        }
      ],
      "stateMutability": "view",
      "type": "function"
    },
    {
      "inputs": [
        {
          "internalType": "address",
          "name": "spender",
          "type": "address"
        },
        {
          "internalType": "uint256",
          "name": "amount",
          "type": "uint256"
        }
      ],
      "name": "approve",
      "outputs": [
        {
          "internalType": "bool",
          "name": "",
          "type": "bool"
        }
      ],
      "stateMutability": "nonpayable",
      "type": "function"
    },
    {
      "inputs": [
        {
          "internalType": "address",
          "name": "account",
          "type": "address"
        }
      ],
      "name": "balanceOf",
      "outputs": [
        {
          "internalType": "uint256",
          "name": "",
          "type": "uint256"
        }
      ],
      "stateMutability": "view",
      "type": "function"
    },
    {
      "inputs": [],
      "name": "decimals",
      "outputs": [
        {
          "internalType": "uint8",
          "name": "",
          "type": "uint8"
        }
      ],
      "stateMutability": "view",
      "type": "function"
    },
    {
      "inputs": [
        {
          "internalType": "address",
          "name": "spender",
          "type": "address"
        },
        {
          "internalType": "uint256",
          "name": "subtractedValue",
          "type": "uint256"
        }
      ],
      "name": "decreaseAllowance",
      "outputs": [
        {
          "internalType": "bool",
          "name": "",
          "type": "bool"
        }
      ],
      "stateMutability": "nonpayable",
      "type": "function"
    },
    {
      "inputs": [
        {
          "internalType": "uint256",
          "name": "_sharesAmount",
          "type": "uint256"
        }
      ],
      "name": "getPooledEthByShares",
      "outputs": [
        {
          "internalType": "uint256",
          "name": "",
          "type": "uint256"
        }
      ],
      "stateMutability": "view",
      "type": "function"
    },
    {
      "inputs": [
        {
          "internalType": "uint256",
          "name": "_ethAmount",
          "type": "uint256"
        }
      ],
      "name": "getSharesByPooledEth",
      "outputs": [
        {
          "internalType": "uint256",
          "name": "",
          "type": "uint256"
        }
      ],
      "stateMutability": "view",
      "type": "function"
    },
    {
      "inputs": [
        {
          "internalType": "address",
          "name": "spender",
          "type": "address"
        },
        {
          "internalType": "uint256",
          "name": "addedValue",
          "type": "uint256"
        }
      ],
      "name": "increaseAllowance",
      "outputs": [
        {
          "internalType": "bool",
          "name": "",
          "type": "bool"
        }
      ],
      "stateMutability": "nonpayable",
      "type": "function"
    },
    {
      "inputs": [],
      "name": "name",
      "outputs": [
        {
          "internalType": "string",
          "name": "",
          "type": "string"
        }
      ],
      "stateMutability": "view",
      "type": "function"
    },
    {
      "inputs": [],
      "name": "owner",
      "outputs": [
        {
          "internalType": "address",
          "name": "",
          "type": "address"
        }
      ],
      "stateMutability": "view",
      "type": "function"
    },
    {
      "inputs": [],
      "name": "pendingOwner",
      "outputs": [
        {
          "internalType": "address",
          "name": "",
          "type": "address"
        }
      ],
      "stateMutability": "view",
      "type": "function"
    },
    {
      "inputs": [],
      "name": "receiveRewards",
      "outputs": [],
      "stateMutability": "payable",
      "type": "function"
    },
    {
      "inputs": [],
      "name": "renounceOwnership",
      "outputs": [],
      "stateMutability": "nonpayable",
      "type": "function"
    },
    {
      "inputs": [
        {
          "internalType": "address",
          "name": "_referal",
          "type": "address"
        }
      ],
      "name": "submit",
      "outputs": [
        {
          "internalType": "uint256",
          "name": "sharesToMint",
          "type": "uint256"
        }
      ],
      "stateMutability": "payable",
      "type": "function"
    },
    {
      "inputs": [],
      "name": "symbol",
      "outputs": [
        {
          "internalType": "string",
          "name": "",
          "type": "string"
        }
      ],
      "stateMutability": "view",
      "type": "function"
    },
    {
      "inputs": [],
      "name": "totalSupply",
      "outputs": [
        {
          "internalType": "uint256",
          "name": "",
          "type": "uint256"
        }
      ],
      "stateMutability": "view",
      "type": "function"
    },
    {
      "inputs": [
        {
          "internalType": "address",
          "name": "to",
          "type": "address"
        },
        {
          "internalType": "uint256",
          "name": "amount",
          "type": "uint256"
        }
      ],
      "name": "transfer",
      "outputs": [
        {
          "internalType": "bool",
          "name": "",
          "type": "bool"
        }
      ],
      "stateMutability": "nonpayable",
      "type": "function"
    },
    {
      "inputs": [
        {
          "internalType": "address",
          "name": "from",
          "type": "address"
        },
        {
          "internalType": "address",
          "name": "to",
          "type": "address"
        },
        {
          "internalType": "uint256",
          "name": "amount",
          "type": "uint256"
        }
      ],
      "name": "transferFrom",
      "outputs": [
        {
          "internalType": "bool",
          "name": "",
          "type": "bool"
        }
      ],
      "stateMutability": "nonpayable",
      "type": "function"
    },
    {
      "inputs": [
        {
          "internalType": "address",
          "name": "newOwner",
          "type": "address"
        }
      ],
      "name": "transferOwnership",
      "outputs": [],
      "stateMutability": "nonpayable",
      "type": "function"
    },
    {
      "inputs": [
        {
          "internalType": "uint256",
          "name": "amount",
          "type": "uint256"
        }
      ],
      "name": "withdraw",
      "outputs": [
        {
          "internalType": "uint256",
          "name": "sharesToBurn",
          "type": "uint256"
        }
      ],
      "stateMutability": "nonpayable",
      "type": "function"
    }
  ],
  "bytecode": "0x60803462000365576001600160401b03906040908082018381118282101762000266578252601081526020906f098d2c8de40a6e8c2d6d2dcce408aa8960831b828201528251938385018581108282111762000266578452600594858152640e6e88aa8960db1b84820152825182811162000266576003918254916001958684811c941680156200035a575b8885101462000344578190601f94858111620002ef575b50889085831160011462000288576000926200027c575b505060001982861b1c191690861b1783555b8051938411620002665760049586548681811c911680156200025b575b828210146200024657838111620001fd575b50809285116001146200018f575093839491849260009562000183575b50501b92600019911b1c19161790555b600680546001600160a01b031990811690915582543391811682179093559051916001600160a01b03167f8be0079c531659141344cd1fd0a4f28419497f9722a3daafe3b4186f6b6457e0600080a3610f0790816200036b8239f35b01519350388062000117565b92919084601f1981168860005285600020956000905b89838310620001e25750505010620001c7575b50505050811b01905562000127565b01519060f884600019921b161c1916905538808080620001b8565b858701518955909701969485019488935090810190620001a5565b8760005281600020848088018c1c8201928489106200023c575b018b1c019087905b8281106200022f575050620000fa565b600081550187906200021f565b9250819262000217565b602288634e487b7160e01b6000525260246000fd5b90607f1690620000e8565b634e487b7160e01b600052604160045260246000fd5b015190503880620000b9565b90889350601f19831691876000528a6000209260005b8c828210620002d85750508411620002bf575b505050811b018355620000cb565b015160001983881b60f8161c19169055388080620002b1565b8385015186558c979095019493840193016200029e565b9091508560005288600020858085018d1c8201928b86106200033a575b918d8b928796959401901c01915b8281106200032a575050620000a2565b600081558594508a91016200031a565b925081926200030c565b634e487b7160e01b600052602260045260246000fd5b93607f16936200008b565b600080fdfe60806040908082526004918236101561001757600080fd5b600092833560e01c92836306fdde03146109e257508263095ea7b3146109b857826318160ddd1461099d578263192084511461097d57826323b872dd146108aa5782632e1a7d4d14610741578263313ce5671461072557826339509351146106d5578263631cbe3c146106af57826370a0823114610676578263715018a61461060f57826379ba5097146105405782637a28fb88146105195782638da5cb5b146104f057826395d89b41146103d1578263a1903eab146102d0578263a457c2d71461022d57508163a9059cbb146101f4578163dd62ed3e146101ab578163e30c39781461017e575063f2fde38b1461010e57600080fd5b3461017b57602036600319011261017b57610127610b03565b61012f610b34565b600680546001600160a01b0319166001600160a01b039283169081179091556005549091167f38d16b8cac22d99fc7c124b9cd0de2d3fa1faef420bfe791d8c362d765e227008380a380f35b80fd5b9050346101a757816003193601126101a75760065490516001600160a01b039091168152602090f35b5080fd5b9050346101a757806003193601126101a757806020926101c9610b03565b6101d1610b1e565b6001600160a01b0391821683526001865283832091168252845220549051908152f35b9050346101a757806003193601126101a757602090610226610214610b03565b61021f602435610e1f565b9033610cb1565b5160018152f35b833461017b578260031936011261017b57610246610b03565b918360243592338152600160205281812060018060a01b038616825260205220549082821061027f576020856102268585038733610baf565b608490602086519162461bcd60e51b8352820152602560248201527f45524332303a2064656372656173656420616c6c6f77616e63652062656c6f77604482015264207a65726f60d81b6064820152fd5b91506020928360031936011261017b576102e8610b03565b906102f234610e1f565b93331561038e575061030684600254610b8c565b6002553381528085528281208481540190558251908482527fddf252ad1be2c89b69c2b068fc378daa952ba7f163c4a11628f55a4df523b3ef863393a361034f34600754610b8c565b60075581516001600160a01b03909116815233907f4854022b8e6166bbd5bbdce55cb9ddf61f8b3b7abebf842d00de35ab2d080a65908590a251908152f35b835162461bcd60e51b8152908101869052601f60248201527f45524332303a206d696e7420746f20746865207a65726f2061646472657373006044820152606490fd5b8382346101a757816003193601126101a757805190828454600181811c908083169283156104e6575b60209384841081146104d3578388529081156104b75750600114610462575b505050829003601f01601f191682019267ffffffffffffffff84118385101761044f575082918261044b925282610aba565b0390f35b634e487b7160e01b815260418552602490fd5b8787529192508591837f8a35acfbc15ff81a39ae7d344fd709f28e8600b4aa8c65c6b64bfe7fe36bd19b5b8385106104a35750505050830101858080610419565b80548886018301529301928490820161048d565b60ff1916878501525050151560051b8401019050858080610419565b634e487b7160e01b895260228a52602489fd5b91607f16916103fa565b8382346101a757816003193601126101a75760055490516001600160a01b039091168152602090f35b90833461017b57602036600319011261017b575061053960209235610e8b565b9051908152f35b91503461060b578260031936011261060b57600654916001600160a01b039133838516036105b65750506bffffffffffffffffffffffff60a01b8092166006556005549133908316176005553391167f8be0079c531659141344cd1fd0a4f28419497f9722a3daafe3b4186f6b6457e08380a380f35b906020608492519162461bcd60e51b8352820152602960248201527f4f776e61626c6532537465703a2063616c6c6572206973206e6f7420746865206044820152683732bb9037bbb732b960b91b6064820152fd5b8280fd5b833461017b578060031936011261017b57610628610b34565b600680546001600160a01b031990811690915560058054918216905581906001600160a01b03167f8be0079c531659141344cd1fd0a4f28419497f9722a3daafe3b4186f6b6457e08280a380f35b8382346101a75760203660031901126101a7576020916105399082906001600160a01b036106a2610b03565b1681528085522054610e8b565b838060031936011261017b576106c3610b34565b6106cf34600754610b8c565b60075580f35b8382346101a757806003193601126101a75761022660209261071e6106f8610b03565b338352600186528483206001600160a01b03821684528652918490205460243590610b8c565b9033610baf565b8382346101a757816003193601126101a7576020905160128152f35b91503461060b576020928360031936011261017b57823561076181610e1f565b93331561085d573383528286528383205485811061080f578590338552848852038484205584600254036002558284518681527fddf252ad1be2c89b69c2b068fc378daa952ba7f163c4a11628f55a4df523b3ef883392a3600754908282039182116107fc57508280809381936007558181156107f3575b3390f1156107e8575051908152f35b9051903d90823e3d90fd5b506108fc6107d9565b634e487b7160e01b845260119052602483fd5b845162461bcd60e51b8152808301889052602260248201527f45524332303a206275726e20616d6f756e7420657863656564732062616c616e604482015261636560f01b6064820152608490fd5b835162461bcd60e51b8152908101869052602160248201527f45524332303a206275726e2066726f6d20746865207a65726f206164647265736044820152607360f81b6064820152608490fd5b8390346101a75760603660031901126101a7576108c5610b03565b6108cd610b1e565b91846108da604435610e1f565b6001600160a01b0384168652600160208181528388203389529052919095205491908201610911575b602086610226878787610cb1565b84821061093a575091839161092f6020969561022695033383610baf565b919394819350610903565b606490602087519162461bcd60e51b8352820152601d60248201527f45524332303a20696e73756666696369656e7420616c6c6f77616e63650000006044820152fd5b90833461017b57602036600319011261017b575061053960209235610e1f565b8382346101a757816003193601126101a75751478152602090f35b8382346101a757806003193601126101a7576020906102266109d8610b03565b6024359033610baf565b8491923461060b578260031936011261060b5782600354600181811c90808316928315610ab0575b60209384841081146104d3578388529081156104b75750600114610a5a57505050829003601f01601f191682019267ffffffffffffffff84118385101761044f575082918261044b925282610aba565b600387529192508591837fc2575a0e9e593c00f959f8c92f12db2869c3395a3b0502d05e2516446f71f85b5b838510610a9c5750505050830101858080610419565b805488860183015293019284908201610a86565b91607f1691610a0a565b6020808252825181830181905290939260005b828110610aef57505060409293506000838284010152601f8019910116010190565b818101860151848201604001528501610acd565b600435906001600160a01b0382168203610b1957565b600080fd5b602435906001600160a01b0382168203610b1957565b6005546001600160a01b03163303610b4857565b606460405162461bcd60e51b815260206004820152602060248201527f4f776e61626c653a2063616c6c6572206973206e6f7420746865206f776e65726044820152fd5b91908201809211610b9957565b634e487b7160e01b600052601160045260246000fd5b6001600160a01b03908116918215610c605716918215610c105760207f8c5be1e5ebec7d5bd14f71427d1e84f3dd0314c0f7b2291e5b200ac8c7c3b925918360005260018252604060002085600052825280604060002055604051908152a3565b60405162461bcd60e51b815260206004820152602260248201527f45524332303a20617070726f766520746f20746865207a65726f206164647265604482015261737360f01b6064820152608490fd5b60405162461bcd60e51b8152602060048201526024808201527f45524332303a20617070726f76652066726f6d20746865207a65726f206164646044820152637265737360e01b6064820152608490fd5b6001600160a01b03908116918215610dcc5716918215610d7b57600082815280602052604081205491808310610d2757604082827fddf252ad1be2c89b69c2b068fc378daa952ba7f163c4a11628f55a4df523b3ef958760209652828652038282205586815220818154019055604051908152a3565b60405162461bcd60e51b815260206004820152602660248201527f45524332303a207472616e7366657220616d6f756e7420657863656564732062604482015265616c616e636560d01b6064820152608490fd5b60405162461bcd60e51b815260206004820152602360248201527f45524332303a207472616e7366657220746f20746865207a65726f206164647260448201526265737360e81b6064820152608490fd5b60405162461bcd60e51b815260206004820152602560248201527f45524332303a207472616e736665722066726f6d20746865207a65726f206164604482015264647265737360d81b6064820152608490fd5b60025480158015610e6e575b610e5c57610e3891610e78565b600754908115610e46570490565b634e487b7160e01b600052601260045260246000fd5b5080800460011481151715610b995790565b5060075415610e2b565b81810292918115918404141715610b9957565b60025490811590818015610ec7575b610eb357600754610eaa91610e78565b90610e46570490565b91505080156001828004141715610b995790565b5060075415610e9a56fea26469706673582212209c2ec8fe798a06422a1da0776840d4345a0a4e231ec10c39c7800466d147698a64736f6c63430008110033",
  "linkReferences": {},
  "deployedLinkReferences": {}
}