{
  "_format": "hh-sol-artifact-1",
  "contractName": "StETH",
  "sourceName": "contracts/mock/StETH.sol",
  "abi": [
    {
      "inputs": [],
      "stateMutability": "nonpayable",
      "type": "constructor"
    },
    {
      "anonymous": false,
      "inputs": [
        {
          "indexed": true,
          "internalType": "address",
          "name": "owner",
          "type": "address"
        },
        {
          "indexed": true,
          "internalType": "address",
          "name": "spender",
          "type": "address"
        },
        {
          "indexed": false,
          "internalType": "uint256",
          "name": "value",
          "type": "uint256"
        }
      ],
      "name": "Approval",
      "type": "event"
    },
    {
      "anonymous": false,
      "inputs": [
        {
          "indexed": true,
          "internalType": "address",
          "name": "previousOwner",
          "type": "address"
        },
        {
          "indexed": true,
          "internalType": "address",
          "name": "newOwner",
          "type": "address"
        }
      ],
      "name": "OwnershipTransferStarted",
      "type": "event"
    },
    {
      "anonymous": false,
      "inputs": [
        {
          "indexed": true,
          "internalType": "address",
          "name": "previousOwner",
          "type": "address"
        },
        {
          "indexed": true,
          "internalType": "address",
          "name": "newOwner",
          "type": "address"
        }
      ],
      "name": "OwnershipTransferred",
      "type": "event"
    },
    {
      "anonymous": false,
      "inputs": [
        {
          "indexed": true,
          "internalType": "address",
          "name": "_sender",
          "type": "address"
        },
        {
          "indexed": false,
          "internalType": "address",
          "name": "_referal",
          "type": "address"
        }
      ],
      "name": "Referal",
      "type": "event"
    },
    {
      "anonymous": false,
      "inputs": [
        {
          "indexed": true,
          "internalType": "address",
          "name": "from",
          "type": "address"
        },
        {
          "indexed": true,
          "internalType": "address",
          "name": "to",
          "type": "address"
        },
        {
          "indexed": false,
          "internalType": "uint256",
          "name": "value",
          "type": "uint256"
        }
      ],
      "name": "Transfer",
      "type": "event"
    },
    {
      "inputs": [],
      "name": "DOMAIN_SEPARATOR",
      "outputs": [
        {
          "internalType": "bytes32",
          "name": "",
          "type": "bytes32"
        }
      ],
      "stateMutability": "view",
      "type": "function"
    },
    {
      "inputs": [],
      "name": "EIP712_REVISION",
      "outputs": [
        {
          "internalType": "bytes",
          "name": "",
          "type": "bytes"
        }
      ],
      "stateMutability": "view",
      "type": "function"
    },
    {
      "inputs": [],
      "name": "MINTER_ROLE",
      "outputs": [
        {
          "internalType": "bytes32",
          "name": "",
          "type": "bytes32"
        }
      ],
      "stateMutability": "view",
      "type": "function"
    },
    {
      "inputs": [],
      "name": "PERMIT_TYPEHASH",
      "outputs": [
        {
          "internalType": "bytes32",
          "name": "",
          "type": "bytes32"
        }
      ],
      "stateMutability": "view",
      "type": "function"
    },
    {
      "inputs": [],
      "name": "acceptOwnership",
      "outputs": [],
      "stateMutability": "nonpayable",
      "type": "function"
    },
    {
      "inputs": [
        {
          "internalType": "address",
          "name": "owner",
          "type": "address"
        },
        {
          "internalType": "address",
          "name": "spender",
          "type": "address"
        }
      ],
      "name": "allowance",
      "outputs": [
        {
          "internalType": "uint256",
          "name": "",
          "type": "uint256"
        }
      ],
      "stateMutability": "view",
      "type": "function"
    },
    {
      "inputs": [
        {
          "internalType": "address",
          "name": "spender",
          "type": "address"
        },
        {
          "internalType": "uint256",
          "name": "amount",
          "type": "uint256"
        }
      ],
      "name": "approve",
      "outputs": [
        {
          "internalType": "bool",
          "name": "",
          "type": "bool"
        }
      ],
      "stateMutability": "nonpayable",
      "type": "function"
    },
    {
      "inputs": [
        {
          "internalType": "address",
          "name": "account",
          "type": "address"
        }
      ],
      "name": "balanceOf",
      "outputs": [
        {
          "internalType": "uint256",
          "name": "",
          "type": "uint256"
        }
      ],
      "stateMutability": "view",
      "type": "function"
    },
    {
      "inputs": [],
      "name": "decimals",
      "outputs": [
        {
          "internalType": "uint8",
          "name": "",
          "type": "uint8"
        }
      ],
      "stateMutability": "view",
      "type": "function"
    },
    {
      "inputs": [
        {
          "internalType": "address",
          "name": "spender",
          "type": "address"
        },
        {
          "internalType": "uint256",
          "name": "subtractedValue",
          "type": "uint256"
        }
      ],
      "name": "decreaseAllowance",
      "outputs": [
        {
          "internalType": "bool",
          "name": "",
          "type": "bool"
        }
      ],
      "stateMutability": "nonpayable",
      "type": "function"
    },
    {
      "inputs": [
        {
          "internalType": "uint256",
          "name": "_sharesAmount",
          "type": "uint256"
        }
      ],
      "name": "getPooledEthByShares",
      "outputs": [
        {
          "internalType": "uint256",
          "name": "",
          "type": "uint256"
        }
      ],
      "stateMutability": "view",
      "type": "function"
    },
    {
      "inputs": [
        {
          "internalType": "uint256",
          "name": "_ethAmount",
          "type": "uint256"
        }
      ],
      "name": "getSharesByPooledEth",
      "outputs": [
        {
          "internalType": "uint256",
          "name": "",
          "type": "uint256"
        }
      ],
      "stateMutability": "view",
      "type": "function"
    },
    {
      "inputs": [
        {
          "internalType": "address",
          "name": "spender",
          "type": "address"
        },
        {
          "internalType": "uint256",
          "name": "addedValue",
          "type": "uint256"
        }
      ],
      "name": "increaseAllowance",
      "outputs": [
        {
          "internalType": "bool",
          "name": "",
          "type": "bool"
        }
      ],
      "stateMutability": "nonpayable",
      "type": "function"
    },
    {
      "inputs": [],
      "name": "name",
      "outputs": [
        {
          "internalType": "string",
          "name": "",
          "type": "string"
        }
      ],
      "stateMutability": "view",
      "type": "function"
    },
    {
      "inputs": [
        {
          "internalType": "address",
          "name": "owner",
          "type": "address"
        }
      ],
      "name": "nonces",
      "outputs": [
        {
          "internalType": "uint256",
          "name": "",
          "type": "uint256"
        }
      ],
      "stateMutability": "view",
      "type": "function"
    },
    {
      "inputs": [],
      "name": "owner",
      "outputs": [
        {
          "internalType": "address",
          "name": "",
          "type": "address"
        }
      ],
      "stateMutability": "view",
      "type": "function"
    },
    {
      "inputs": [],
      "name": "pendingOwner",
      "outputs": [
        {
          "internalType": "address",
          "name": "",
          "type": "address"
        }
      ],
      "stateMutability": "view",
      "type": "function"
    },
    {
      "inputs": [
        {
          "internalType": "address",
          "name": "owner",
          "type": "address"
        },
        {
          "internalType": "address",
          "name": "spender",
          "type": "address"
        },
        {
          "internalType": "uint256",
          "name": "value",
          "type": "uint256"
        },
        {
          "internalType": "uint256",
          "name": "deadline",
          "type": "uint256"
        },
        {
          "internalType": "uint8",
          "name": "v",
          "type": "uint8"
        },
        {
          "internalType": "bytes32",
          "name": "r",
          "type": "bytes32"
        },
        {
          "internalType": "bytes32",
          "name": "s",
          "type": "bytes32"
        }
      ],
      "name": "permit",
      "outputs": [],
      "stateMutability": "nonpayable",
      "type": "function"
    },
    {
      "inputs": [],
      "name": "receiveRewards",
      "outputs": [],
      "stateMutability": "payable",
      "type": "function"
    },
    {
      "inputs": [],
      "name": "renounceOwnership",
      "outputs": [],
      "stateMutability": "nonpayable",
      "type": "function"
    },
    {
      "inputs": [
        {
          "internalType": "address",
          "name": "_referal",
          "type": "address"
        }
      ],
      "name": "submit",
      "outputs": [
        {
          "internalType": "uint256",
          "name": "sharesToMint",
          "type": "uint256"
        }
      ],
      "stateMutability": "payable",
      "type": "function"
    },
    {
      "inputs": [],
      "name": "symbol",
      "outputs": [
        {
          "internalType": "string",
          "name": "",
          "type": "string"
        }
      ],
      "stateMutability": "view",
      "type": "function"
    },
    {
      "inputs": [],
      "name": "totalSupply",
      "outputs": [
        {
          "internalType": "uint256",
          "name": "",
          "type": "uint256"
        }
      ],
      "stateMutability": "view",
      "type": "function"
    },
    {
      "inputs": [
        {
          "internalType": "address",
          "name": "to",
          "type": "address"
        },
        {
          "internalType": "uint256",
          "name": "amount",
          "type": "uint256"
        }
      ],
      "name": "transfer",
      "outputs": [
        {
          "internalType": "bool",
          "name": "",
          "type": "bool"
        }
      ],
      "stateMutability": "nonpayable",
      "type": "function"
    },
    {
      "inputs": [
        {
          "internalType": "address",
          "name": "from",
          "type": "address"
        },
        {
          "internalType": "address",
          "name": "to",
          "type": "address"
        },
        {
          "internalType": "uint256",
          "name": "amount",
          "type": "uint256"
        }
      ],
      "name": "transferFrom",
      "outputs": [
        {
          "internalType": "bool",
          "name": "",
          "type": "bool"
        }
      ],
      "stateMutability": "nonpayable",
      "type": "function"
    },
    {
      "inputs": [
        {
          "internalType": "address",
          "name": "newOwner",
          "type": "address"
        }
      ],
      "name": "transferOwnership",
      "outputs": [],
      "stateMutability": "nonpayable",
      "type": "function"
    },
    {
      "inputs": [
        {
          "internalType": "uint256",
          "name": "amount",
          "type": "uint256"
        }
      ],
      "name": "withdraw",
      "outputs": [
        {
          "internalType": "uint256",
          "name": "sharesToBurn",
          "type": "uint256"
        }
      ],
      "stateMutability": "nonpayable",
      "type": "function"
    }
  ],
  "bytecode": "0x608060409080825234620004565762000018816200045b565b6010815260206f098d2c8de40a6e8c2d6d2dcce408aa8960831b8183015282519262000044846200045b565b6005808552640e6e88aa8960db1b8386015283516001600160401b039591908681116200037857600390806200007b835462000477565b97601f9889811162000403575b5087908983116001146200039a576000926200038e575b50508160011b9160001990841b1c19161781555b8251878111620003785780600494620000cd865462000477565b89811162000326575b508790898311600114620002bd57600092620002b1575b50508160011b9160001990841b1c19161783555b600680546001600160a01b03199081169091558254908116339081178455855197916001600160a01b03167f8be0079c531659141344cd1fd0a4f28419497f9722a3daafe3b4186f6b6457e0600080a3600090825492620001628462000477565b90818a52888a0194896001978883169283600014620002935750505060011462000254575b505087601f1992030116860195808710888811176200023f57868552519020948490620001b4816200045b565b82815201603160f81b8152208251938401947f8b73c3c69bb8fe3d512ecc4cf759cc79239f7b179b0ffacaa9a75d522b39400f86528385015260608401524660808401523060a084015260a0835260c0830194838610908611176200022a57508390525190206009556113109081620004b58239f35b604190634e487b7160e01b6000525260246000fd5b604184634e487b7160e01b6000525260246000fd5b889293506000528160002090856000925b8284106200027c5750505088010190388062000187565b80548c85018601528a949093019287910162000265565b925093925093945060ff191685521515901b88010190388062000187565b015190503880620000ed565b60008781528981209350601f198516905b8a8282106200030f575050908460019594939210620002f6575b505050811b01835562000101565b015160001983861b60f8161c19169055388080620002e8565b6001859682939686015181550195019301620002ce565b909150856000528760002089808501871c8201928a86106200036e575b90859493929101871c01905b8181106200035e5750620000d6565b600081558493506001016200034f565b9250819262000343565b634e487b7160e01b600052604160045260246000fd5b0151905038806200009f565b60008581528981209350601f198516905b8a828210620003ec575050908460019594939210620003d3575b505050811b018155620000b3565b015160001983861b60f8161c19169055388080620003c5565b6001859682939686015181550195019301620003ab565b90915060008481528881208a808601881c8201938b87106200044c575b9086959493929101881c01915b8281106200043d57505062000088565b8181558594506001016200042d565b9350819362000420565b600080fd5b604081019081106001600160401b038211176200037857604052565b90600182811c92168015620004a9575b60208310146200049357565b634e487b7160e01b600052602260045260246000fd5b91607f16916200048756fe60806040908082526004918236101561001757600080fd5b600092833560e01c92836306fdde0314610da257508263095ea7b314610d7857826318160ddd14610d5d5782631920845114610d3d57826323b872dd14610c6a5782632e1a7d4d14610b0157826330adf81f14610ac6578263313ce56714610aaa5782633644e51514610a8b5782633950935114610a3b578263631cbe3c14610a1557826370a08231146109dc578263715018a614610975578263781603761461090e57826379ba50971461083f5782637a28fb88146108185782637ecebe00146107e05782638da5cb5b146107b757826395d89b411461069c578263a1903eab1461059b578263a457c2d7146104f8578263a9059cbb146104bf578263d505accf1461027157508163d539139314610236578163dd62ed3e146101ed578163e30c3978146101c0575063f2fde38b1461015057600080fd5b346101bd5760203660031901126101bd57610169610ed4565b610171610f3d565b600680546001600160a01b0319166001600160a01b039283169081179091556005549091167f38d16b8cac22d99fc7c124b9cd0de2d3fa1faef420bfe791d8c362d765e227008380a380f35b80fd5b9050346101e957816003193601126101e95760065490516001600160a01b039091168152602090f35b5080fd5b9050346101e957806003193601126101e9578060209261020b610ed4565b610213610eef565b6001600160a01b0391821683526001865283832091168252845220549051908152f35b9050346101e957816003193601126101e957602090517f9f2df0fed2c77648de5860a4cc508cd0818c85b8b8a1ab4ceeef8d981c8956a68152f35b8382346101e95760e03660031901126101e95761028c610ed4565b610294610eef565b9060443592606435906084359160ff83168093036104bb576001600160a01b038481169182156104885780421161045057828952600760205283892054946009549085519160208301937f6e71edae12b1b97f4d1f60370fef10105fa2faae0126114a169c64845d6126c985528688850152858b1660608501528b60808501528860a085015260c084015260c0835260e0830167ffffffffffffffff948482108683111761043b578189528451902061010085019261190160f01b8452610102860152610122850152604281526101608401948186109086111761042757848852519020835261018082015260a4356101a082015260c4356101c090910152888052602090899060809060015afa1561041d5787511681036103e657600183018093116103d357866103d0979850526007602052862055610fb8565b80f35b634e487b7160e01b875260118852602487fd5b815162461bcd60e51b81526020818a01526011602482015270494e56414c49445f5349474e415455524560781b6044820152606490fd5b82513d89823e3d90fd5b50634e487b7160e01b8c5260418d5260248cfd5b5050634e487b7160e01b8c5260418d5260248cfd5b835162461bcd60e51b81526020818c0152601260248201527124a72b20a624a22fa2ac2824a920aa24a7a760711b6044820152606490fd5b835162461bcd60e51b81526020818c0152600d60248201526c24a72b20a624a22fa7aba722a960991b6044820152606490fd5b8680fd5b8382346101e957806003193601126101e9576020906104f16104df610ed4565b6104ea602435611228565b90336110ba565b5160018152f35b83346101bd57826003193601126101bd57610511610ed4565b918360243592338152600160205281812060018060a01b038616825260205220549082821061054a576020856104f18585038733610fb8565b608490602086519162461bcd60e51b8352820152602560248201527f45524332303a2064656372656173656420616c6c6f77616e63652062656c6f77604482015264207a65726f60d81b6064820152fd5b9150602092836003193601126101bd576105b3610ed4565b906105bd34611228565b93331561065957506105d184600254610f95565b6002553381528085528281208481540190558251908482527fddf252ad1be2c89b69c2b068fc378daa952ba7f163c4a11628f55a4df523b3ef863393a361061a34600854610f95565b60085581516001600160a01b03909116815233907f4854022b8e6166bbd5bbdce55cb9ddf61f8b3b7abebf842d00de35ab2d080a65908590a251908152f35b835162461bcd60e51b8152908101869052601f60248201527f45524332303a206d696e7420746f20746865207a65726f2061646472657373006044820152606490fd5b9083346101bd57806003193601126101bd5781519181845492600184811c918186169586156107ad575b602096878510811461079a579087899a92868b999a9b529182600014610770575050600114610715575b858861071189610702848a0385610f05565b51928284938452830190610e94565b0390f35b815286935091907f8a35acfbc15ff81a39ae7d344fd709f28e8600b4aa8c65c6b64bfe7fe36bd19b5b8284106107585750505082010181610702610711886106f0565b8054848a01860152889550879490930192810161073e565b60ff19168882015294151560051b87019094019450859350610702925061071191508990506106f0565b634e487b7160e01b835260228a52602483fd5b92607f16926106c6565b8382346101e957816003193601126101e95760055490516001600160a01b039091168152602090f35b8382346101e95760203660031901126101e95760209181906001600160a01b03610808610ed4565b1681526007845220549051908152f35b9083346101bd5760203660031901126101bd575061083860209235611294565b9051908152f35b91503461090a578260031936011261090a57600654916001600160a01b039133838516036108b55750506bffffffffffffffffffffffff60a01b8092166006556005549133908316176005553391167f8be0079c531659141344cd1fd0a4f28419497f9722a3daafe3b4186f6b6457e08380a380f35b906020608492519162461bcd60e51b8352820152602960248201527f4f776e61626c6532537465703a2063616c6c6572206973206e6f7420746865206044820152683732bb9037bbb732b960b91b6064820152fd5b8280fd5b8382346101e957816003193601126101e9578051918183019083821067ffffffffffffffff83111761096257506107119350815260018252603160f81b602083015251918291602083526020830190610e94565b634e487b7160e01b815260418552602490fd5b83346101bd57806003193601126101bd5761098e610f3d565b600680546001600160a01b031990811690915560058054918216905581906001600160a01b03167f8be0079c531659141344cd1fd0a4f28419497f9722a3daafe3b4186f6b6457e08280a380f35b8382346101e95760203660031901126101e9576020916108389082906001600160a01b03610a08610ed4565b1681528085522054611294565b83806003193601126101bd57610a29610f3d565b610a3534600854610f95565b60085580f35b8382346101e957806003193601126101e9576104f1602092610a84610a5e610ed4565b338352600186528483206001600160a01b03821684528652918490205460243590610f95565b9033610fb8565b8382346101e957816003193601126101e9576020906009549051908152f35b8382346101e957816003193601126101e9576020905160128152f35b8382346101e957816003193601126101e957602090517f6e71edae12b1b97f4d1f60370fef10105fa2faae0126114a169c64845d6126c98152f35b91503461090a57602092836003193601126101bd578235610b2181611228565b933315610c1d5733835282865283832054858110610bcf578590338552848852038484205584600254036002558284518681527fddf252ad1be2c89b69c2b068fc378daa952ba7f163c4a11628f55a4df523b3ef883392a360085490828203918211610bbc5750828080938193600855818115610bb3575b3390f115610ba8575051908152f35b9051903d90823e3d90fd5b506108fc610b99565b634e487b7160e01b845260119052602483fd5b845162461bcd60e51b8152808301889052602260248201527f45524332303a206275726e20616d6f756e7420657863656564732062616c616e604482015261636560f01b6064820152608490fd5b835162461bcd60e51b8152908101869052602160248201527f45524332303a206275726e2066726f6d20746865207a65726f206164647265736044820152607360f81b6064820152608490fd5b8390346101e95760603660031901126101e957610c85610ed4565b610c8d610eef565b9184610c9a604435611228565b6001600160a01b0384168652600160208181528388203389529052919095205491908201610cd1575b6020866104f18787876110ba565b848210610cfa5750918391610cef602096956104f195033383610fb8565b919394819350610cc3565b606490602087519162461bcd60e51b8352820152601d60248201527f45524332303a20696e73756666696369656e7420616c6c6f77616e63650000006044820152fd5b9083346101bd5760203660031901126101bd575061083860209235611228565b8382346101e957816003193601126101e95751478152602090f35b8382346101e957806003193601126101e9576020906104f1610d98610ed4565b6024359033610fb8565b8483346101e957816003193601126101e9578160035492600184811c91818616958615610e8a575b602096878510811461079a578899509688969785829a529182600014610e63575050600114610e07575b5050506107119291610702910385610f05565b9190869350600383527fc2575a0e9e593c00f959f8c92f12db2869c3395a3b0502d05e2516446f71f85b5b828410610e4b5750505082010181610702610711610df4565b8054848a018601528895508794909301928101610e32565b60ff19168782015293151560051b8601909301935084925061070291506107119050610df4565b92607f1692610dca565b919082519283825260005b848110610ec0575050826000602080949584010152601f8019910116010190565b602081830181015184830182015201610e9f565b600435906001600160a01b0382168203610eea57565b600080fd5b602435906001600160a01b0382168203610eea57565b90601f8019910116810190811067ffffffffffffffff821117610f2757604052565b634e487b7160e01b600052604160045260246000fd5b6005546001600160a01b03163303610f5157565b606460405162461bcd60e51b815260206004820152602060248201527f4f776e61626c653a2063616c6c6572206973206e6f7420746865206f776e65726044820152fd5b91908201809211610fa257565b634e487b7160e01b600052601160045260246000fd5b6001600160a01b0390811691821561106957169182156110195760207f8c5be1e5ebec7d5bd14f71427d1e84f3dd0314c0f7b2291e5b200ac8c7c3b925918360005260018252604060002085600052825280604060002055604051908152a3565b60405162461bcd60e51b815260206004820152602260248201527f45524332303a20617070726f766520746f20746865207a65726f206164647265604482015261737360f01b6064820152608490fd5b60405162461bcd60e51b8152602060048201526024808201527f45524332303a20617070726f76652066726f6d20746865207a65726f206164646044820152637265737360e01b6064820152608490fd5b6001600160a01b039081169182156111d557169182156111845760008281528060205260408120549180831061113057604082827fddf252ad1be2c89b69c2b068fc378daa952ba7f163c4a11628f55a4df523b3ef958760209652828652038282205586815220818154019055604051908152a3565b60405162461bcd60e51b815260206004820152602660248201527f45524332303a207472616e7366657220616d6f756e7420657863656564732062604482015265616c616e636560d01b6064820152608490fd5b60405162461bcd60e51b815260206004820152602360248201527f45524332303a207472616e7366657220746f20746865207a65726f206164647260448201526265737360e81b6064820152608490fd5b60405162461bcd60e51b815260206004820152602560248201527f45524332303a207472616e736665722066726f6d20746865207a65726f206164604482015264647265737360d81b6064820152608490fd5b60025480158015611277575b6112655761124191611281565b60085490811561124f570490565b634e487b7160e01b600052601260045260246000fd5b5080800460011481151715610fa25790565b5060085415611234565b81810292918115918404141715610fa257565b600254908115908180156112d0575b6112bc576008546112b391611281565b9061124f570490565b91505080156001828004141715610fa25790565b50600854156112a356fea26469706673582212207b5254f9df2b4c15d8062374a072fdabb69709d1507cf4505b8509d1e53017fc64736f6c63430008110033",
  "linkReferences": {},
  "deployedLinkReferences": {}
}