{
  "_format": "hh-sol-artifact-1",
  "contractName": "SwapBurner",
  "sourceName": "contracts/feeDistributor/feeToVault/SwapBurner.sol",
  "abi": [
    {
      "inputs": [
        {
          "internalType": "contract IERC20",
          "name": "_HOPE",
          "type": "address"
        },
        {
          "internalType": "address",
          "name": "_feeVault",
          "type": "address"
        }
      ],
      "stateMutability": "nonpayable",
      "type": "constructor"
    },
    {
      "anonymous": false,
      "inputs": [
        {
          "indexed": true,
          "internalType": "address",
          "name": "previousOwner",
          "type": "address"
        },
        {
          "indexed": true,
          "internalType": "address",
          "name": "newOwner",
          "type": "address"
        }
      ],
      "name": "OwnershipTransferStarted",
      "type": "event"
    },
    {
      "anonymous": false,
      "inputs": [
        {
          "indexed": true,
          "internalType": "address",
          "name": "previousOwner",
          "type": "address"
        },
        {
          "indexed": true,
          "internalType": "address",
          "name": "newOwner",
          "type": "address"
        }
      ],
      "name": "OwnershipTransferred",
      "type": "event"
    },
    {
      "anonymous": false,
      "inputs": [
        {
          "indexed": false,
          "internalType": "contract ISwapRouter[]",
          "name": "_routers",
          "type": "address[]"
        }
      ],
      "name": "SetRouters",
      "type": "event"
    },
    {
      "inputs": [],
      "name": "HOPE",
      "outputs": [
        {
          "internalType": "contract IERC20",
          "name": "",
          "type": "address"
        }
      ],
      "stateMutability": "view",
      "type": "function"
    },
    {
      "inputs": [],
      "name": "acceptOwnership",
      "outputs": [],
      "stateMutability": "nonpayable",
      "type": "function"
    },
    {
      "inputs": [
        {
          "internalType": "contract ISwapRouter",
          "name": "",
          "type": "address"
        },
        {
          "internalType": "address",
          "name": "",
          "type": "address"
        }
      ],
      "name": "approved",
      "outputs": [
        {
          "internalType": "bool",
          "name": "",
          "type": "bool"
        }
      ],
      "stateMutability": "view",
      "type": "function"
    },
    {
      "inputs": [
        {
          "internalType": "address",
          "name": "to",
          "type": "address"
        },
        {
          "internalType": "address",
          "name": "token",
          "type": "address"
        },
        {
          "internalType": "uint256",
          "name": "amount",
          "type": "uint256"
        },
        {
          "internalType": "uint256",
          "name": "amountOutMin",
          "type": "uint256"
        },
        {
          "internalType": "address[]",
          "name": "path",
          "type": "address[]"
        }
      ],
      "name": "burn",
      "outputs": [],
      "stateMutability": "nonpayable",
      "type": "function"
    },
    {
      "inputs": [],
      "name": "feeVault",
      "outputs": [
        {
          "internalType": "address",
          "name": "",
          "type": "address"
        }
      ],
      "stateMutability": "view",
      "type": "function"
    },
    {
      "inputs": [],
      "name": "owner",
      "outputs": [
        {
          "internalType": "address",
          "name": "",
          "type": "address"
        }
      ],
      "stateMutability": "view",
      "type": "function"
    },
    {
      "inputs": [],
      "name": "pendingOwner",
      "outputs": [
        {
          "internalType": "address",
          "name": "",
          "type": "address"
        }
      ],
      "stateMutability": "view",
      "type": "function"
    },
    {
      "inputs": [],
      "name": "renounceOwnership",
      "outputs": [],
      "stateMutability": "nonpayable",
      "type": "function"
    },
    {
      "inputs": [
        {
          "internalType": "uint256",
          "name": "",
          "type": "uint256"
        }
      ],
      "name": "routers",
      "outputs": [
        {
          "internalType": "contract ISwapRouter",
          "name": "",
          "type": "address"
        }
      ],
      "stateMutability": "view",
      "type": "function"
    },
    {
      "inputs": [
        {
          "internalType": "contract ISwapRouter[]",
          "name": "_routers",
          "type": "address[]"
        }
      ],
      "name": "setRouters",
      "outputs": [],
      "stateMutability": "nonpayable",
      "type": "function"
    },
    {
      "inputs": [
        {
          "internalType": "address",
          "name": "newOwner",
          "type": "address"
        }
      ],
      "name": "transferOwnership",
      "outputs": [],
      "stateMutability": "nonpayable",
      "type": "function"
    }
  ],
  "bytecode": "0x60c0346100d157601f610e1a38819003918201601f19168301916001600160401b038311848410176100d65780849260409485528339810103126100d15780516001600160a01b039182821682036100d157602001519082821682036100d15760018060a01b03198060015416600155600054903390821617600055604051933391167f8be0079c531659141344cd1fd0a4f28419497f9722a3daafe3b4186f6b6457e0600080a360805260a052610d2d90816100ed8239608051816107ac015260a05181818160e0015261089f0152f35b600080fd5b634e487b7160e01b600052604160045260246000fdfe6080604052600436101561001257600080fd5b60003560e01c8062b439f9146108ce578063478222c2146108895780634e9c111814610840578063715018a6146107db57806374ac61121461079657806379ba5097146106ce5780638da5cb5b146106a5578063e30c39781461067c578063f2fde38b1461060c578063f4b16045146105b65763fa1481a21461009457600080fd5b346105005760a0366003190112610500576100ad610b26565b6100b5610b3c565b9060443560843567ffffffffffffffff8111610500576100d9903690600401610ad0565b90929091907f00000000000000000000000000000000000000000000000000000000000000006001600160a01b03163303610580576040516370a0823160e01b8082523060048301529560209391929184846024816001600160a01b0386165afa9384156102c157600094610551575b506040516323b872dd60e01b8152336004820152306024820152604481018290528590600090606490826001600160a01b0387165af13d15601f3d116001600051141617161561050c5760405197885230600489015284886024816001600160a01b0386165afa9788156102c1576000986104d8575b50878481031161047b57838803116104c25760025480156104ac5760026000908152600080516020610cd8833981519152546001600160a01b031691815b8181106103b15750506064351161037b5760018060a01b0316938460005260038152604060002060018060a01b038316600052815260ff60406000205416156102cd575b505060009495859161027d604051988997889687956338ed173960e01b875203600486015285602486015260a0604486015260a4850191610c7f565b6001600160a01b03909116606483015242608483015203925af180156102c1576102a357005b6102bf903d806000833e6102b78183610be1565b810190610c03565b005b6040513d6000823e3d90fd5b60405163095ea7b360e01b81526004810186905260001960248201528190600090604490826001600160a01b0387165af13d15601f3d11600160005114161716156103465760008581526003825260408082206001600160a01b03909416825292909152908120805460ff191660011790558690610241565b6064906040519062461bcd60e51b82526004820152600e60248201526d1054141493d59157d1905253115160921b6044820152fd5b60405162461bcd60e51b815260048101869052600e60248201526d57726f6e6720736c69707061676560901b6044820152606490fd5b8960008a8d8a6103c086610b01565b9054926103f16040519788968795869463d06ca61f60e01b8652036004850152604060248501526044840191610c7f565b039260039190911b1c6001600160a01b03165afa9081156102c157600091610491575b506000198a01908a821161047b578461042d8383610cc3565b5111610444575b505061043f90610bbe565b6101fd565b90919450610453929350610cc3565b519061043f61046184610b01565b905460039190911b1c6001600160a01b0316939038610434565b634e487b7160e01b600052601160045260246000fd5b6104a691503d806000833e6102b78183610be1565b38610414565b634e487b7160e01b600052603260045260246000fd5b634e487b7160e01b600052600160045260246000fd5b9097508481813d8311610505575b6104f08183610be1565b81010312610500575196386101bf565b600080fd5b503d6104e6565b60405162461bcd60e51b815260048101869052601960248201527f5452414e534645525f46524f4d5f4641494c45443131313131000000000000006044820152606490fd5b9093508481813d8311610579575b6105698183610be1565b8101031261050057519238610149565b503d61055f565b60405162461bcd60e51b815260206004820152600e60248201526d24b73b30b634b21031b0b63632b960911b6044820152606490fd5b34610500576040366003190112610500576105cf610b26565b6105d7610b3c565b9060018060a01b03809116600052600360205260406000209116600052602052602060ff604060002054166040519015158152f35b3461050057602036600319011261050057610625610b26565b61062d610b66565b60018060a01b0380911690816bffffffffffffffffffffffff60a01b6001541617600155600054167f38d16b8cac22d99fc7c124b9cd0de2d3fa1faef420bfe791d8c362d765e22700600080a3005b34610500576000366003190112610500576001546040516001600160a01b039091168152602090f35b34610500576000366003190112610500576000546040516001600160a01b039091168152602090f35b34610500576000366003190112610500576001546001600160a01b03338183160361073f576bffffffffffffffffffffffff60a01b8092166001556000549133908316176000553391167f8be0079c531659141344cd1fd0a4f28419497f9722a3daafe3b4186f6b6457e0600080a3005b60405162461bcd60e51b815260206004820152602960248201527f4f776e61626c6532537465703a2063616c6c6572206973206e6f7420746865206044820152683732bb9037bbb732b960b91b6064820152608490fd5b34610500576000366003190112610500576040517f00000000000000000000000000000000000000000000000000000000000000006001600160a01b03168152602090f35b34610500576000366003190112610500576107f4610b66565b600180546001600160a01b0319908116909155600080549182168155906001600160a01b03167f8be0079c531659141344cd1fd0a4f28419497f9722a3daafe3b4186f6b6457e08280a3005b3461050057602036600319011261050057600435600254811015610500576002600052600080516020610cd883398151915201546040516001600160a01b039091168152602090f35b34610500576000366003190112610500576040517f00000000000000000000000000000000000000000000000000000000000000006001600160a01b03168152602090f35b34610500576020806003193601126105005767ffffffffffffffff9060043582811161050057610902903690600401610ad0565b909261090c610b66565b8115610a975760005b828110610a2e57508111610a1857680100000000000000008111610a1857600254816002558082106109e9575b5082600260005260005b8281106109c15750509060405191808284018385525260408301939160005b82811061099a577f617b7fd911b09e960a31ac836da0c592fdab646f1ecd876524e2071637eddcf685870386a1005b909192948280600192838060a01b036109b28a610b52565b1681520196019392910161096b565b600190846109ce84610bcd565b93019281600080516020610cd883398151915201550161094c565b81600080516020610cd883398151915291820191015b818110610a0c5750610942565b600081556001016109ff565b634e487b7160e01b600052604160045260246000fd5b6001600160a01b03610a45600583901b8701610bcd565b1615610a5957610a5490610bbe565b610915565b60405162461bcd60e51b815260048101859052601660248201527516995c9bc81859191c995cdcc81b9bdd081d985b1a5960521b6044820152606490fd5b60405162461bcd60e51b8152600481018490526011602482015270496e76616c69642061646472657373657360781b6044820152606490fd5b9181601f840112156105005782359167ffffffffffffffff8311610500576020808501948460051b01011161050057565b6002548110156104ac576002600052600080516020610cd88339815191520190600090565b600435906001600160a01b038216820361050057565b602435906001600160a01b038216820361050057565b35906001600160a01b038216820361050057565b6000546001600160a01b03163303610b7a57565b606460405162461bcd60e51b815260206004820152602060248201527f4f776e61626c653a2063616c6c6572206973206e6f7420746865206f776e65726044820152fd5b600019811461047b5760010190565b356001600160a01b03811681036105005790565b90601f8019910116810190811067ffffffffffffffff821117610a1857604052565b90602090818382031261050057825167ffffffffffffffff93848211610500570181601f82011215610500578051938411610a18578360051b9060405194610c4d85840187610be1565b85528380860192820101928311610500578301905b828210610c70575050505090565b81518152908301908301610c62565b91908082526020809201929160005b828110610c9c575050505090565b909192938280600192838060a01b03610cb489610b52565b16815201950193929101610c8e565b80518210156104ac5760209160051b01019056fe405787fa12a823e0f2b7631cc41b3ba8828b3321ca811111fa75cd3aa3bb5acea2646970667358221220e79151d051363143bb577161c9377e51d5bab33e38fc99f9e8ea01bf38cb7efa64736f6c63430008110033",
  "linkReferences": {},
  "deployedLinkReferences": {}
}