{
  "_format": "hh-sol-artifact-1",
  "contractName": "SwapFeeToVault",
  "sourceName": "contracts/feeDistributor/SwapFeeToVault.sol",
  "abi": [
    {
      "inputs": [
        {
          "internalType": "address",
          "name": "_burnerManger",
          "type": "address"
        }
      ],
      "stateMutability": "nonpayable",
      "type": "constructor"
    },
    {
      "anonymous": false,
      "inputs": [
        {
          "indexed": true,
          "internalType": "address",
          "name": "previousOwner",
          "type": "address"
        },
        {
          "indexed": true,
          "internalType": "address",
          "name": "newOwner",
          "type": "address"
        }
      ],
      "name": "OwnershipTransferStarted",
      "type": "event"
    },
    {
      "anonymous": false,
      "inputs": [
        {
          "indexed": true,
          "internalType": "address",
          "name": "previousOwner",
          "type": "address"
        },
        {
          "indexed": true,
          "internalType": "address",
          "name": "newOwner",
          "type": "address"
        }
      ],
      "name": "OwnershipTransferred",
      "type": "event"
    },
    {
      "anonymous": false,
      "inputs": [
        {
          "indexed": false,
          "internalType": "address",
          "name": "account",
          "type": "address"
        }
      ],
      "name": "Paused",
      "type": "event"
    },
    {
      "anonymous": false,
      "inputs": [
        {
          "indexed": false,
          "internalType": "address",
          "name": "account",
          "type": "address"
        }
      ],
      "name": "Unpaused",
      "type": "event"
    },
    {
      "inputs": [],
      "name": "acceptOwnership",
      "outputs": [],
      "stateMutability": "nonpayable",
      "type": "function"
    },
    {
      "inputs": [
        {
          "internalType": "address",
          "name": "token",
          "type": "address"
        }
      ],
      "name": "burn",
      "outputs": [],
      "stateMutability": "nonpayable",
      "type": "function"
    },
    {
      "inputs": [],
      "name": "burnerManger",
      "outputs": [
        {
          "internalType": "address",
          "name": "",
          "type": "address"
        }
      ],
      "stateMutability": "view",
      "type": "function"
    },
    {
      "inputs": [],
      "name": "owner",
      "outputs": [
        {
          "internalType": "address",
          "name": "",
          "type": "address"
        }
      ],
      "stateMutability": "view",
      "type": "function"
    },
    {
      "inputs": [],
      "name": "pause",
      "outputs": [],
      "stateMutability": "nonpayable",
      "type": "function"
    },
    {
      "inputs": [],
      "name": "paused",
      "outputs": [
        {
          "internalType": "bool",
          "name": "",
          "type": "bool"
        }
      ],
      "stateMutability": "view",
      "type": "function"
    },
    {
      "inputs": [],
      "name": "pendingOwner",
      "outputs": [
        {
          "internalType": "address",
          "name": "",
          "type": "address"
        }
      ],
      "stateMutability": "view",
      "type": "function"
    },
    {
      "inputs": [],
      "name": "renounceOwnership",
      "outputs": [],
      "stateMutability": "nonpayable",
      "type": "function"
    },
    {
      "inputs": [
        {
          "internalType": "address",
          "name": "newOwner",
          "type": "address"
        }
      ],
      "name": "transferOwnership",
      "outputs": [],
      "stateMutability": "nonpayable",
      "type": "function"
    },
    {
      "inputs": [],
      "name": "unpause",
      "outputs": [],
      "stateMutability": "nonpayable",
      "type": "function"
    },
    {
      "inputs": [
        {
          "internalType": "address",
          "name": "pool",
          "type": "address"
        }
      ],
      "name": "withdrawAdminFee",
      "outputs": [],
      "stateMutability": "nonpayable",
      "type": "function"
    },
    {
      "inputs": [
        {
          "internalType": "address[]",
          "name": "pools",
          "type": "address[]"
        }
      ],
      "name": "withdrawMany",
      "outputs": [],
      "stateMutability": "nonpayable",
      "type": "function"
    }
  ],
  "bytecode": "0x6080346100b757601f61090738819003918201601f19168301916001600160401b038311848410176100bc578084926020946040528339810103126100b757516001600160a01b0390818116908190036100b7576001546000549060018060a01b0319913383821617600055604051943391167f8be0079c531659141344cd1fd0a4f28419497f9722a3daafe3b4186f6b6457e0600080a360018060a81b031916600155600254161760025561083490816100d38239f35b600080fd5b634e487b7160e01b600052604160045260246000fdfe6040608081526004908136101561001557600080fd5b600091823560e01c9081633f4ba83a1461065c5781635c975abb14610635578163658e4821146104ef5783908263715018a61461048a57826379ba5097146103cb5782638456cb591461036a57826389afcb441461034c5782638da5cb5b14610324578263d883c43d1461016d5750508063e30c397814610145578063f2fde38b146100d55763fe6fc1aa146100aa57600080fd5b346100d157816003193601126100d15760025490516001600160a01b039091168152602090f35b5080fd5b8234610142576020366003190112610142576100ef610744565b6100f761075f565b600180546001600160a01b0319166001600160a01b0392831690811790915582549091167f38d16b8cac22d99fc7c124b9cd0de2d3fa1faef420bfe791d8c362d765e227008380a380f35b80fd5b50346100d157816003193601126100d15760015490516001600160a01b039091168152602090f35b909150346100d157602090816003193601126102c15761018b610744565b6101936107b7565b6001600160a01b031690813b156102c55784516313966db560e01b81528481838183875af1801561030b57610315575b5084516370a0823160e01b81523082820152838160248188875af190811561030b5785916102da575b50806101f6578480f35b85938451916323b872dd60e01b835230848401528460248401526044830152808260648189885af180156102d05761028f575b50506024908351948593849263226bf2d160e21b845230908401525af180156102835761025a575b80808085938480f35b813d831161027c575b61026d8183610722565b81010312610142573880610251565b503d610263565b505051903d90823e3d90fd5b9080929450813d83116102c9575b6102a78183610722565b810103126102c55751801515036102c15783913880610229565b8280fd5b8380fd5b503d61029d565b85513d88823e3d90fd5b90508381813d8311610304575b6102f18183610722565b810103126103005751386101ec565b8480fd5b503d6102e7565b86513d87823e3d90fd5b61031e906106f8565b386101c3565b5082346100d157816003193601126100d157905490516001600160a01b039091168152602090f35b503461014257602036600319011261014257610366610744565b5080f35b5082346100d157816003193601126100d15760207f62e78cea01bee320cd4e420270b5ea74000d11b0c9f74754ebdbfc544b05a258916103a861075f565b6103b06107b7565b6001805460ff60a01b1916600160a01b17905551338152a180f35b83346102c157826003193601126102c157600154916001600160a01b039133838516036104355750506001600160a01b031991821660015582543392811683178455167f8be0079c531659141344cd1fd0a4f28419497f9722a3daafe3b4186f6b6457e08380a380f35b906020608492519162461bcd60e51b8352820152602960248201527f4f776e61626c6532537465703a2063616c6c6572206973206e6f7420746865206044820152683732bb9037bbb732b960b91b6064820152fd5b50346101425780600319360112610142576104a361075f565b600180546001600160a01b03199081169091558154908116825581906001600160a01b03167f8be0079c531659141344cd1fd0a4f28419497f9722a3daafe3b4186f6b6457e08280a380f35b9050823461014257602091826003193601126100d15780359367ffffffffffffffff938486116102c557366023870112156102c557858301359485116106225760059085821b96835196610545838a0189610722565b8752818701602480998301019136831161061e578901905b8282106105fb5750505061056f6107b7565b845b86518110156105f75780831b87018201516001600160a01b0316303b156105f35784519063d883c43d60e01b82528682015286818a8183305af180156105e9576105da575b5060001981146105c857600101610571565b634e487b7160e01b8652601185528786fd5b6105e3906106f8565b886105b6565b85513d89823e3d90fd5b8680fd5b8580f35b81356001600160a01b038116810361061a57815290830190830161055d565b8880fd5b8780fd5b634e487b7160e01b845260418352602484fd5b5050346100d157816003193601126100d15760209060ff60015460a01c1690519015158152f35b9050346102c157826003193601126102c15761067661075f565b6001549060ff8260a01c16156106be575060ff60a01b1916600155513381527f5db9ee0a495bf2e6ff9c91a7834c1ba4fdd244a5e8aa4e537bd38aeae4b073aa90602090a180f35b606490602084519162461bcd60e51b8352820152601460248201527314185d5cd8589b194e881b9bdd081c185d5cd95960621b6044820152fd5b67ffffffffffffffff811161070c57604052565b634e487b7160e01b600052604160045260246000fd5b90601f8019910116810190811067ffffffffffffffff82111761070c57604052565b600435906001600160a01b038216820361075a57565b600080fd5b6000546001600160a01b0316330361077357565b606460405162461bcd60e51b815260206004820152602060248201527f4f776e61626c653a2063616c6c6572206973206e6f7420746865206f776e65726044820152fd5b60ff60015460a01c166107c657565b60405162461bcd60e51b815260206004820152601060248201526f14185d5cd8589b194e881c185d5cd95960821b6044820152606490fdfea2646970667358221220e4acf35ae62483485249bb883a5edd6b0f926b2aad0ea8814927e8e3e397a78d64736f6c63430008110033",
  "linkReferences": {},
  "deployedLinkReferences": {}
}