{
  "_format": "hh-sol-artifact-1",
  "contractName": "HOPESalesAgent",
  "sourceName": "contracts/agents/HOPESalesAgent.sol",
  "abi": [
    {
      "inputs": [
        {
          "internalType": "address",
          "name": "_hopeToken",
          "type": "address"
        },
        {
          "internalType": "address",
          "name": "_permit2",
          "type": "address"
        }
      ],
      "stateMutability": "nonpayable",
      "type": "constructor"
    },
    {
      "anonymous": false,
      "inputs": [
        {
          "indexed": false,
          "internalType": "string",
          "name": "symbol",
          "type": "string"
        },
        {
          "indexed": false,
          "internalType": "address",
          "name": "token",
          "type": "address"
        },
        {
          "indexed": false,
          "internalType": "uint256",
          "name": "rate",
          "type": "uint256"
        }
      ],
      "name": "AddCurrency",
      "type": "event"
    },
    {
      "anonymous": false,
      "inputs": [
        {
          "indexed": false,
          "internalType": "string",
          "name": "fromCurrency",
          "type": "string"
        },
        {
          "indexed": true,
          "internalType": "address",
          "name": "buyer",
          "type": "address"
        },
        {
          "indexed": false,
          "internalType": "uint256",
          "name": "fromValue",
          "type": "uint256"
        },
        {
          "indexed": false,
          "internalType": "uint256",
          "name": "toValue",
          "type": "uint256"
        },
        {
          "indexed": false,
          "internalType": "uint256",
          "name": "blockTimestamp",
          "type": "uint256"
        }
      ],
      "name": "Buy",
      "type": "event"
    },
    {
      "anonymous": false,
      "inputs": [
        {
          "indexed": false,
          "internalType": "string",
          "name": "symbol",
          "type": "string"
        },
        {
          "indexed": false,
          "internalType": "uint256",
          "name": "newRate",
          "type": "uint256"
        },
        {
          "indexed": false,
          "internalType": "uint256",
          "name": "oldRate",
          "type": "uint256"
        }
      ],
      "name": "ChangeCurrencyRate",
      "type": "event"
    },
    {
      "anonymous": false,
      "inputs": [
        {
          "indexed": false,
          "internalType": "string",
          "name": "symbol",
          "type": "string"
        }
      ],
      "name": "DeleteCurrency",
      "type": "event"
    },
    {
      "anonymous": false,
      "inputs": [
        {
          "indexed": true,
          "internalType": "address",
          "name": "previousOwner",
          "type": "address"
        },
        {
          "indexed": true,
          "internalType": "address",
          "name": "newOwner",
          "type": "address"
        }
      ],
      "name": "OwnershipTransferStarted",
      "type": "event"
    },
    {
      "anonymous": false,
      "inputs": [
        {
          "indexed": true,
          "internalType": "address",
          "name": "previousOwner",
          "type": "address"
        },
        {
          "indexed": true,
          "internalType": "address",
          "name": "newOwner",
          "type": "address"
        }
      ],
      "name": "OwnershipTransferred",
      "type": "event"
    },
    {
      "anonymous": false,
      "inputs": [
        {
          "indexed": false,
          "internalType": "address",
          "name": "account",
          "type": "address"
        }
      ],
      "name": "Paused",
      "type": "event"
    },
    {
      "anonymous": false,
      "inputs": [
        {
          "indexed": false,
          "internalType": "string",
          "name": "symbol",
          "type": "string"
        },
        {
          "indexed": true,
          "internalType": "address",
          "name": "to",
          "type": "address"
        },
        {
          "indexed": false,
          "internalType": "uint256",
          "name": "amount",
          "type": "uint256"
        }
      ],
      "name": "Redeem",
      "type": "event"
    },
    {
      "anonymous": false,
      "inputs": [
        {
          "indexed": false,
          "internalType": "address",
          "name": "account",
          "type": "address"
        }
      ],
      "name": "Unpaused",
      "type": "event"
    },
    {
      "inputs": [],
      "name": "acceptOwnership",
      "outputs": [],
      "stateMutability": "nonpayable",
      "type": "function"
    },
    {
      "inputs": [
        {
          "internalType": "string",
          "name": "symbol",
          "type": "string"
        },
        {
          "internalType": "address",
          "name": "token",
          "type": "address"
        },
        {
          "internalType": "uint256",
          "name": "rate",
          "type": "uint256"
        }
      ],
      "name": "addCurrency",
      "outputs": [],
      "stateMutability": "nonpayable",
      "type": "function"
    },
    {
      "inputs": [
        {
          "internalType": "string",
          "name": "symbol",
          "type": "string"
        }
      ],
      "name": "balanceOf",
      "outputs": [
        {
          "internalType": "uint256",
          "name": "",
          "type": "uint256"
        }
      ],
      "stateMutability": "view",
      "type": "function"
    },
    {
      "inputs": [
        {
          "internalType": "string",
          "name": "fromCurrency",
          "type": "string"
        },
        {
          "internalType": "uint256",
          "name": "fromValue",
          "type": "uint256"
        },
        {
          "internalType": "uint256",
          "name": "nonce",
          "type": "uint256"
        },
        {
          "internalType": "uint256",
          "name": "deadline",
          "type": "uint256"
        },
        {
          "internalType": "bytes",
          "name": "signature",
          "type": "bytes"
        }
      ],
      "name": "buy",
      "outputs": [],
      "stateMutability": "nonpayable",
      "type": "function"
    },
    {
      "inputs": [
        {
          "internalType": "string",
          "name": "symbol",
          "type": "string"
        },
        {
          "internalType": "uint256",
          "name": "rate",
          "type": "uint256"
        }
      ],
      "name": "changeCurrencyRate",
      "outputs": [],
      "stateMutability": "nonpayable",
      "type": "function"
    },
    {
      "inputs": [
        {
          "internalType": "string",
          "name": "",
          "type": "string"
        }
      ],
      "name": "currencys",
      "outputs": [
        {
          "internalType": "address",
          "name": "token",
          "type": "address"
        },
        {
          "internalType": "string",
          "name": "symbol",
          "type": "string"
        },
        {
          "internalType": "uint256",
          "name": "rate",
          "type": "uint256"
        }
      ],
      "stateMutability": "view",
      "type": "function"
    },
    {
      "inputs": [
        {
          "internalType": "string",
          "name": "symbol",
          "type": "string"
        }
      ],
      "name": "deleteCurrency",
      "outputs": [],
      "stateMutability": "nonpayable",
      "type": "function"
    },
    {
      "inputs": [],
      "name": "hopeToken",
      "outputs": [
        {
          "internalType": "address",
          "name": "",
          "type": "address"
        }
      ],
      "stateMutability": "view",
      "type": "function"
    },
    {
      "inputs": [],
      "name": "owner",
      "outputs": [
        {
          "internalType": "address",
          "name": "",
          "type": "address"
        }
      ],
      "stateMutability": "view",
      "type": "function"
    },
    {
      "inputs": [],
      "name": "pause",
      "outputs": [],
      "stateMutability": "nonpayable",
      "type": "function"
    },
    {
      "inputs": [],
      "name": "paused",
      "outputs": [
        {
          "internalType": "bool",
          "name": "",
          "type": "bool"
        }
      ],
      "stateMutability": "view",
      "type": "function"
    },
    {
      "inputs": [],
      "name": "pendingOwner",
      "outputs": [
        {
          "internalType": "address",
          "name": "",
          "type": "address"
        }
      ],
      "stateMutability": "view",
      "type": "function"
    },
    {
      "inputs": [],
      "name": "permit2",
      "outputs": [
        {
          "internalType": "address",
          "name": "",
          "type": "address"
        }
      ],
      "stateMutability": "view",
      "type": "function"
    },
    {
      "inputs": [],
      "name": "rateDenominator",
      "outputs": [
        {
          "internalType": "uint256",
          "name": "",
          "type": "uint256"
        }
      ],
      "stateMutability": "view",
      "type": "function"
    },
    {
      "inputs": [
        {
          "internalType": "string",
          "name": "symbol",
          "type": "string"
        },
        {
          "internalType": "address",
          "name": "to",
          "type": "address"
        },
        {
          "internalType": "uint256",
          "name": "amount",
          "type": "uint256"
        }
      ],
      "name": "redeem",
      "outputs": [
        {
          "internalType": "bool",
          "name": "",
          "type": "bool"
        }
      ],
      "stateMutability": "nonpayable",
      "type": "function"
    },
    {
      "inputs": [],
      "name": "remainingCredit",
      "outputs": [
        {
          "internalType": "uint256",
          "name": "",
          "type": "uint256"
        }
      ],
      "stateMutability": "view",
      "type": "function"
    },
    {
      "inputs": [],
      "name": "renounceOwnership",
      "outputs": [],
      "stateMutability": "nonpayable",
      "type": "function"
    },
    {
      "inputs": [
        {
          "internalType": "address",
          "name": "newOwner",
          "type": "address"
        }
      ],
      "name": "transferOwnership",
      "outputs": [],
      "stateMutability": "nonpayable",
      "type": "function"
    },
    {
      "inputs": [],
      "name": "unpause",
      "outputs": [],
      "stateMutability": "nonpayable",
      "type": "function"
    }
  ],
  "bytecode": "0x60806040523480156200001157600080fd5b5060405162001b3b38038062001b3b83398101604081905262000034916200011b565b6200003f3362000084565b6001805460ff60a01b19169055600380546001600160a01b039384166001600160a01b031991821617909155600480549290931691161790556103e860025562000153565b600180546001600160a01b0319169055620000ab81620000ae602090811b62000d6617901c565b50565b600080546001600160a01b038381166001600160a01b0319831681178455604051919092169283917f8be0079c531659141344cd1fd0a4f28419497f9722a3daafe3b4186f6b6457e09190a35050565b80516001600160a01b03811681146200011657600080fd5b919050565b600080604083850312156200012f57600080fd5b6200013a83620000fe565b91506200014a60208401620000fe565b90509250929050565b6119d880620001636000396000f3fe608060405234801561001057600080fd5b50600436106101215760003560e01c806379ba5097116100ad578063b4dafd2c11610071578063b4dafd2c14610230578063c9eac39114610243578063e30c397814610265578063f2fde38b14610276578063fc9f472c1461028957600080fd5b806379ba5097146101f35780638456cb59146101fb578063865192f7146102035780638da5cb5b1461020c578063a72d79fc1461021d57600080fd5b80634f4aa709116100f45780634f4aa709146101945780635c975abb146101a75780636082cb31146101c5578063715018a6146101d85780637336c38d146101e057600080fd5b806305059b6a1461012657806312261ee71461015657806335ee5f87146101695780633f4ba83a1461018a575b600080fd5b600354610139906001600160a01b031681565b6040516001600160a01b0390911681526020015b60405180910390f35b600454610139906001600160a01b031681565b61017c610177366004611390565b610291565b60405190815260200161014d565b610192610340565b005b6101926101a23660046113e9565b610352565b600154600160a01b900460ff165b604051901515815260200161014d565b6101926101d3366004611440565b610559565b610192610630565b6101b56101ee3660046113e9565b610642565b6101926107a5565b61019261081f565b61017c60025481565b6000546001600160a01b0316610139565b61019261022b366004611390565b61082f565b61019261023e366004611485565b61099c565b610256610251366004611390565b610bc3565b60405161014d9392919061156a565b6001546001600160a01b0316610139565b61019261028436600461159e565b610c83565b61017c610cf4565b6000806005836040516102a491906115b9565b90815260405190819003602001902080549091506001600160a01b03166102ce5750600092915050565b80546040516370a0823160e01b81523060048201526001600160a01b03909116906370a0823190602401602060405180830381865afa158015610315573d6000803e3d6000fd5b505050506040513d601f19601f8201168201806040525081019061033991906115d5565b9392505050565b610348610db6565b610350610e10565b565b61035a610db6565b600060058460405161036c91906115b9565b90815260405190819003602001902080549091506001600160a01b0316156103c35760405162461bcd60e51b8152602060048201526005602482015264242998181960d91b60448201526064015b60405180910390fd5b600082116103fb5760405162461bcd60e51b8152602060048201526005602482015264485330303360d81b60448201526064016103ba565b6001600160a01b0383166104395760405162461bcd60e51b8152602060048201526005602482015264043453030360dc1b60448201526064016103ba565b60008390506000816001600160a01b03166395d89b416040518163ffffffff1660e01b8152600401600060405180830381865afa15801561047e573d6000803e3d6000fd5b505050506040513d6000823e601f3d908101601f191682016040526104a691908101906115ee565b90506104b28682610e65565b6104e65760405162461bcd60e51b81526020600482015260056024820152641214cc0c0d60da1b60448201526064016103ba565b600183016104f487826116ee565b5082546001600160a01b0319166001600160a01b038616178355600283018490556040517fa38498fb6895e659ad5dc7f6eb4ac95cc71f053fa98e63abf91bbc6a4855967a90610549908890889088906117ae565b60405180910390a1505050505050565b610561610db6565b600060058360405161057391906115b9565b90815260405190819003602001902080549091506001600160a01b03166105ac5760405162461bcd60e51b81526004016103ba906117dc565b600082116105e45760405162461bcd60e51b8152602060048201526005602482015264485330303360d81b60448201526064016103ba565b600281018054908390556040517f043978879d6062f383d888ad52fce113b0d4b13003b11065fb4e1e92cc44cc1d90610622908690869085906117fb565b60405180910390a150505050565b610638610db6565b6103506000610e92565b600061064c610db6565b610654610eab565b600060058560405161066691906115b9565b90815260405190819003602001902080549091506001600160a01b031661069f5760405162461bcd60e51b81526004016103ba906117dc565b6040516335ee5f8760e01b815260009030906335ee5f87906106c5908990600401611820565b602060405180830381865afa1580156106e2573d6000803e3d6000fd5b505050506040513d601f19601f8201168201806040525081019061070691906115d5565b9050838110156107405760405162461bcd60e51b815260206004820152600560248201526421a298181960d91b60448201526064016103ba565b8154610756906001600160a01b03168686610ef8565b846001600160a01b03167f199eb151b1df1f56ae68127dbb4468195f02c11d522e66bd8a9526c0cc1487d68786604051610791929190611833565b60405180910390a250600195945050505050565b60015433906001600160a01b031681146108135760405162461bcd60e51b815260206004820152602960248201527f4f776e61626c6532537465703a2063616c6c6572206973206e6f7420746865206044820152683732bb9037bbb732b960b91b60648201526084016103ba565b61081c81610e92565b50565b610827610db6565b610350610ff0565b610837610db6565b600060058260405161084991906115b9565b90815260405190819003602001902080549091506001600160a01b03166108825760405162461bcd60e51b81526004016103ba906117dc565b6040516335ee5f8760e01b815230906335ee5f87906108a5908590600401611820565b602060405180830381865afa1580156108c2573d6000803e3d6000fd5b505050506040513d601f19601f820116820180604052508101906108e691906115d5565b1561091b5760405162461bcd60e51b8152602060048201526005602482015264485330303560d81b60448201526064016103ba565b60058260405161092b91906115b9565b90815260405190819003602001902080546001600160a01b031916815560006109576001830182611275565b600282016000905550507f7b9303c87aa57c58420ef2f8143dc8823691c406dc81dd580fed922ec070c36d826040516109909190611820565b60405180910390a15050565b6109a4610eab565b60006005866040516109b691906115b9565b90815260405190819003602001902080549091506001600160a01b0316610a075760405162461bcd60e51b8152602060048201526005602482015264048533030360dc1b60448201526064016103ba565b6000610a17868360020154611033565b905060008111610a515760405162461bcd60e51b8152602060048201526005602482015264485330303160d81b60448201526064016103ba565b306001600160a01b031663fc9f472c6040518163ffffffff1660e01b8152600401602060405180830381865afa158015610a8f573d6000803e3d6000fd5b505050506040513d601f19601f82011682018060405250810190610ab391906115d5565b811115610aea5760405162461bcd60e51b81526020600482015260056024820152641051cc0c0d60da1b60448201526064016103ba565b60045482543391610b0c916001600160a01b03918216911689848a8a8a61104d565b6003546040516340c10f1960e01b81526001600160a01b03838116600483015260248201859052909116906340c10f1990604401600060405180830381600087803b158015610b5a57600080fd5b505af1158015610b6e573d6000803e3d6000fd5b50505050806001600160a01b03167fe4e7dac1dd38d0bc6af33e31d491adf0f21fa875f3c9cebace347a6560e2d6a689898542604051610bb19493929190611855565b60405180910390a25050505050505050565b8051602081830181018051600582529282019190930120915280546001820180546001600160a01b039092169291610bfa90611665565b80601f0160208091040260200160405190810160405280929190818152602001828054610c2690611665565b8015610c735780601f10610c4857610100808354040283529160200191610c73565b820191906000526020600020905b815481529060010190602001808311610c5657829003601f168201915b5050505050908060020154905083565b610c8b610db6565b600180546001600160a01b0383166001600160a01b03199091168117909155610cbc6000546001600160a01b031690565b6001600160a01b03167f38d16b8cac22d99fc7c124b9cd0de2d3fa1faef420bfe791d8c362d765e2270060405160405180910390a350565b600354604051631a5d515360e21b81523060048201526000916001600160a01b031690636975454c90602401602060405180830381865afa158015610d3d573d6000803e3d6000fd5b505050506040513d601f19601f82011682018060405250810190610d6191906115d5565b905090565b600080546001600160a01b038381166001600160a01b0319831681178455604051919092169283917f8be0079c531659141344cd1fd0a4f28419497f9722a3daafe3b4186f6b6457e09190a35050565b6000546001600160a01b031633146103505760405162461bcd60e51b815260206004820181905260248201527f4f776e61626c653a2063616c6c6572206973206e6f7420746865206f776e657260448201526064016103ba565b610e186110a9565b6001805460ff60a01b191690557f5db9ee0a495bf2e6ff9c91a7834c1ba4fdd244a5e8aa4e537bd38aeae4b073aa335b6040516001600160a01b03909116815260200160405180910390a1565b60008151835114610e7857506000610e8c565b818051906020012083805190602001201490505b92915050565b600180546001600160a01b031916905561081c81610d66565b600154600160a01b900460ff16156103505760405162461bcd60e51b815260206004820152601060248201526f14185d5cd8589b194e881c185d5cd95960821b60448201526064016103ba565b60405163a9059cbb60e01b81526001600160a01b0383811660048301526024820183905284919082169063a9059cbb906044016020604051808303816000875af1158015610f4a573d6000803e3d6000fd5b505050506040513d601f19601f82011682018060405250810190610f6e9190611884565b5060003d8015610f855760208114610f8f57600080fd5b6000199150610f9b565b60206000803e60005191505b5080610fe95760405162461bcd60e51b815260206004820152601960248201527f544f4b454e5f5452414e534645525f4f55545f4641494c45440000000000000060448201526064016103ba565b5050505050565b610ff8610eab565b6001805460ff60a01b1916600160a01b1790557f62e78cea01bee320cd4e420270b5ea74000d11b0c9f74754ebdbfc544b05a258610e483390565b60025460009061104383856118bc565b61033991906118d3565b6040805160a0810182526001600160a01b038816606082019081526080820188905281526020808201869052818301859052825180840190935230835282018790529061109d89878484876110f9565b50505050505050505050565b600154600160a01b900460ff166103505760405162461bcd60e51b815260206004820152601460248201527314185d5cd8589b194e881b9bdd081c185d5cd95960621b60448201526064016103ba565b82515182516040516370a0823160e01b81526001600160a01b039182166004820152600092918391908316906370a0823190602401602060405180830381865afa15801561114b573d6000803e3d6000fd5b505050506040513d601f19601f8201168201806040525081019061116f91906115d5565b60405163187945bd60e11b81529091506001600160a01b038916906330f28b7a906111a490899089908c908a906004016118f5565b600060405180830381600087803b1580156111be57600080fd5b505af11580156111d2573d6000803e3d6000fd5b50508751516040516370a0823160e01b8152306004820152600093506001600160a01b0390911691506370a0823190602401602060405180830381865afa158015611221573d6000803e3d6000fd5b505050506040513d601f19601f8201168201806040525081019061124591906115d5565b905060006112538383611979565b9050866020015181146112685761126861198c565b9998505050505050505050565b50805461128190611665565b6000825580601f10611291575050565b601f01602090049060005260206000209081019061081c91905b808211156112bf57600081556001016112ab565b5090565b634e487b7160e01b600052604160045260246000fd5b604051601f8201601f1916810167ffffffffffffffff81118282101715611302576113026112c3565b604052919050565b600067ffffffffffffffff821115611324576113246112c3565b50601f01601f191660200190565b60006113456113408461130a565b6112d9565b905082815283838301111561135957600080fd5b828260208301376000602084830101529392505050565b600082601f83011261138157600080fd5b61033983833560208501611332565b6000602082840312156113a257600080fd5b813567ffffffffffffffff8111156113b957600080fd5b6113c584828501611370565b949350505050565b80356001600160a01b03811681146113e457600080fd5b919050565b6000806000606084860312156113fe57600080fd5b833567ffffffffffffffff81111561141557600080fd5b61142186828701611370565b935050611430602085016113cd565b9150604084013590509250925092565b6000806040838503121561145357600080fd5b823567ffffffffffffffff81111561146a57600080fd5b61147685828601611370565b95602094909401359450505050565b600080600080600060a0868803121561149d57600080fd5b853567ffffffffffffffff808211156114b557600080fd5b6114c189838a01611370565b965060208801359550604088013594506060880135935060808801359150808211156114ec57600080fd5b508601601f810188136114fe57600080fd5b61150d88823560208401611332565b9150509295509295909350565b60005b8381101561153557818101518382015260200161151d565b50506000910152565b6000815180845261155681602086016020860161151a565b601f01601f19169290920160200192915050565b6001600160a01b038416815260606020820181905260009061158e9083018561153e565b9050826040830152949350505050565b6000602082840312156115b057600080fd5b610339826113cd565b600082516115cb81846020870161151a565b9190910192915050565b6000602082840312156115e757600080fd5b5051919050565b60006020828403121561160057600080fd5b815167ffffffffffffffff81111561161757600080fd5b8201601f8101841361162857600080fd5b80516116366113408261130a565b81815285602083850101111561164b57600080fd5b61165c82602083016020860161151a565b95945050505050565b600181811c9082168061167957607f821691505b60208210810361169957634e487b7160e01b600052602260045260246000fd5b50919050565b601f8211156116e957600081815260208120601f850160051c810160208610156116c65750805b601f850160051c820191505b818110156116e5578281556001016116d2565b5050505b505050565b815167ffffffffffffffff811115611708576117086112c3565b61171c816117168454611665565b8461169f565b602080601f83116001811461175157600084156117395750858301515b600019600386901b1c1916600185901b1785556116e5565b600085815260208120601f198616915b8281101561178057888601518255948401946001909101908401611761565b508582101561179e5787850151600019600388901b60f8161c191681555b5050505050600190811b01905550565b6060815260006117c1606083018661153e565b6001600160a01b039490941660208301525060400152919050565b602080825260059082015264434530303160d81b604082015260600190565b60608152600061180e606083018661153e565b60208301949094525060400152919050565b602081526000610339602083018461153e565b604081526000611846604083018561153e565b90508260208301529392505050565b608081526000611868608083018761153e565b6020830195909552506040810192909252606090910152919050565b60006020828403121561189657600080fd5b8151801515811461033957600080fd5b634e487b7160e01b600052601160045260246000fd5b8082028115828204841417610e8c57610e8c6118a6565b6000826118f057634e487b7160e01b600052601260045260246000fd5b500490565b600061010061191883885180516001600160a01b03168252602090810151910152565b602087015160408401526040870151606084015261194c608084018780516001600160a01b03168252602090810151910152565b6001600160a01b03851660c084015260e0830181905261196e8184018561153e565b979650505050505050565b81810381811115610e8c57610e8c6118a6565b634e487b7160e01b600052600160045260246000fdfea264697066735822122040db4be52c5de28b601302abd179efa7d392d80590a9c225d33645c7b3a1869564736f6c63430008110033",
  "linkReferences": {},
  "deployedLinkReferences": {}
}