{
  "_format": "hh-sol-artifact-1",
  "contractName": "UnderlyingBurner",
  "sourceName": "contracts/feeDistributor/UnderlyingBurner.sol",
  "abi": [
    {
      "inputs": [],
      "stateMutability": "nonpayable",
      "type": "constructor"
    },
    {
      "anonymous": false,
      "inputs": [
        {
          "indexed": false,
          "internalType": "uint8",
          "name": "version",
          "type": "uint8"
        }
      ],
      "name": "Initialized",
      "type": "event"
    },
    {
      "anonymous": false,
      "inputs": [
        {
          "indexed": true,
          "internalType": "address",
          "name": "previousOwner",
          "type": "address"
        },
        {
          "indexed": true,
          "internalType": "address",
          "name": "newOwner",
          "type": "address"
        }
      ],
      "name": "OwnershipTransferStarted",
      "type": "event"
    },
    {
      "anonymous": false,
      "inputs": [
        {
          "indexed": true,
          "internalType": "address",
          "name": "previousOwner",
          "type": "address"
        },
        {
          "indexed": true,
          "internalType": "address",
          "name": "newOwner",
          "type": "address"
        }
      ],
      "name": "OwnershipTransferred",
      "type": "event"
    },
    {
      "anonymous": false,
      "inputs": [
        {
          "indexed": false,
          "internalType": "address",
          "name": "account",
          "type": "address"
        }
      ],
      "name": "Paused",
      "type": "event"
    },
    {
      "anonymous": false,
      "inputs": [
        {
          "indexed": true,
          "internalType": "address",
          "name": "token",
          "type": "address"
        },
        {
          "indexed": true,
          "internalType": "address",
          "name": "emergencyReturn",
          "type": "address"
        },
        {
          "indexed": false,
          "internalType": "uint256",
          "name": "amount",
          "type": "uint256"
        }
      ],
      "name": "RecoverBalance",
      "type": "event"
    },
    {
      "anonymous": false,
      "inputs": [
        {
          "indexed": true,
          "internalType": "address",
          "name": "feeDistributor",
          "type": "address"
        },
        {
          "indexed": false,
          "internalType": "uint256",
          "name": "amount",
          "type": "uint256"
        }
      ],
      "name": "ToFeeDistributor",
      "type": "event"
    },
    {
      "anonymous": false,
      "inputs": [
        {
          "indexed": false,
          "internalType": "address",
          "name": "account",
          "type": "address"
        }
      ],
      "name": "Unpaused",
      "type": "event"
    },
    {
      "inputs": [],
      "name": "acceptOwnership",
      "outputs": [],
      "stateMutability": "nonpayable",
      "type": "function"
    },
    {
      "inputs": [],
      "name": "emergencyReturn",
      "outputs": [
        {
          "internalType": "address",
          "name": "",
          "type": "address"
        }
      ],
      "stateMutability": "view",
      "type": "function"
    },
    {
      "inputs": [],
      "name": "feeDistributor",
      "outputs": [
        {
          "internalType": "address",
          "name": "",
          "type": "address"
        }
      ],
      "stateMutability": "view",
      "type": "function"
    },
    {
      "inputs": [],
      "name": "gombocFeeDistributor",
      "outputs": [
        {
          "internalType": "address",
          "name": "",
          "type": "address"
        }
      ],
      "stateMutability": "view",
      "type": "function"
    },
    {
      "inputs": [],
      "name": "hopeToken",
      "outputs": [
        {
          "internalType": "address",
          "name": "",
          "type": "address"
        }
      ],
      "stateMutability": "view",
      "type": "function"
    },
    {
      "inputs": [
        {
          "internalType": "address",
          "name": "_hopeToken",
          "type": "address"
        },
        {
          "internalType": "address",
          "name": "_feeDistributor",
          "type": "address"
        },
        {
          "internalType": "address",
          "name": "_gombocFeeDistributor",
          "type": "address"
        },
        {
          "internalType": "address",
          "name": "_emergencyReturn",
          "type": "address"
        }
      ],
      "name": "initialize",
      "outputs": [],
      "stateMutability": "nonpayable",
      "type": "function"
    },
    {
      "inputs": [],
      "name": "owner",
      "outputs": [
        {
          "internalType": "address",
          "name": "",
          "type": "address"
        }
      ],
      "stateMutability": "view",
      "type": "function"
    },
    {
      "inputs": [],
      "name": "pause",
      "outputs": [],
      "stateMutability": "nonpayable",
      "type": "function"
    },
    {
      "inputs": [],
      "name": "paused",
      "outputs": [
        {
          "internalType": "bool",
          "name": "",
          "type": "bool"
        }
      ],
      "stateMutability": "view",
      "type": "function"
    },
    {
      "inputs": [],
      "name": "pendingOwner",
      "outputs": [
        {
          "internalType": "address",
          "name": "",
          "type": "address"
        }
      ],
      "stateMutability": "view",
      "type": "function"
    },
    {
      "inputs": [
        {
          "internalType": "address",
          "name": "token",
          "type": "address"
        }
      ],
      "name": "recoverBalance",
      "outputs": [
        {
          "internalType": "bool",
          "name": "",
          "type": "bool"
        }
      ],
      "stateMutability": "nonpayable",
      "type": "function"
    },
    {
      "inputs": [],
      "name": "renounceOwnership",
      "outputs": [],
      "stateMutability": "nonpayable",
      "type": "function"
    },
    {
      "inputs": [
        {
          "internalType": "address",
          "name": "_addr",
          "type": "address"
        }
      ],
      "name": "setEmergencyReturn",
      "outputs": [],
      "stateMutability": "nonpayable",
      "type": "function"
    },
    {
      "inputs": [],
      "name": "transferHopeToFeeDistributor",
      "outputs": [
        {
          "internalType": "uint256",
          "name": "",
          "type": "uint256"
        }
      ],
      "stateMutability": "nonpayable",
      "type": "function"
    },
    {
      "inputs": [
        {
          "internalType": "address",
          "name": "newOwner",
          "type": "address"
        }
      ],
      "name": "transferOwnership",
      "outputs": [],
      "stateMutability": "nonpayable",
      "type": "function"
    },
    {
      "inputs": [],
      "name": "unpause",
      "outputs": [],
      "stateMutability": "nonpayable",
      "type": "function"
    }
  ],
  "bytecode": "0x608080604052346100c1576000549060ff8260081c1661006f575060ff80821610610034575b604051610c0290816100c78239f35b60ff90811916176000557f7f26b83ff96e1f2b6a682f133852f6798a09c465da95921460cefb3847402498602060405160ff8152a138610025565b62461bcd60e51b815260206004820152602760248201527f496e697469616c697a61626c653a20636f6e747261637420697320696e697469604482015266616c697a696e6760c81b6064820152608490fd5b600080fdfe60806040908082526004918236101561001757600080fd5b600091823560e01c90816305059b6a146109ef575080630d43e8ad146109c75780633f4ba83a146109315780635a4b8c1d146109095780635c975abb146108e657806368662ea0146107ae5780637089559514610786578063715018a61461071f57806379ba5097146106965780637ae850bc146104ad5780638456cb59146104535780638da5cb5b1461042b578063b26bb8c4146103eb578063e30c3978146103c3578063f2fde38b146103525763f8c8765e146100d557600080fd5b3461034e57608036600319011261034e576100ee610a14565b926001600160a01b03906024358281169081900361034a576044359183831680930361034657606435938085168095036103425786549460ff8660081c161595868097610335575b801561031e575b156102c4578899839188600160ff9c9b9c198316178b556102b3575b5061017360ff8a5460081c1661016e81610b28565b610b28565b61017c33610a2f565b16946001600160601b0360a01b90868260cc54161760cc55858260c954161760c9558160ca54161760ca5560cb54161760cb5586519263095ea7b360e01b908185528385015286600019958660248701528560448160209b8c945af19283156102a757889560449461028a575b508060cc54169060ca5416968a519788968795865285015260248401525af1801561028057610253575b5061021c578280f35b7f7f26b83ff96e1f2b6a682f133852f6798a09c465da95921460cefb38474024989161ff001984541684555160018152a138808280f35b61027290833d8511610279575b61026a8183610ad8565b810190610b10565b5038610213565b503d610260565b84513d87823e3d90fd5b6102a090873d89116102795761026a8183610ad8565b50386101e9565b508851903d90823e3d90fd5b61ffff191661010117895538610159565b875162461bcd60e51b8152602081860152602e60248201527f496e697469616c697a61626c653a20636f6e747261637420697320616c72656160448201526d191e481a5b9a5d1a585b1a5e995960921b6064820152608490fd5b50303b15801561013d5750600160ff82161461013d565b50600160ff821610610136565b8680fd5b8580fd5b8480fd5b5080fd5b82346103c05760203660031901126103c05761036c610a14565b610374610a80565b606580546001600160a01b0319166001600160a01b039283169081179091556033549091167f38d16b8cac22d99fc7c124b9cd0de2d3fa1faef420bfe791d8c362d765e227008380a380f35b80fd5b503461034e578160031936011261034e5760655490516001600160a01b039091168152602090f35b82346103c05760203660031901126103c057610405610a14565b61040d610a80565b60018060a01b03166001600160601b0360a01b60cb54161760cb5580f35b503461034e578160031936011261034e5760335490516001600160a01b039091168152602090f35b503461034e578160031936011261034e5760207f62e78cea01bee320cd4e420270b5ea74000d11b0c9f74754ebdbfc544b05a25891610490610a80565b610498610b88565b600160ff19609754161760975551338152a180f35b503461034e578160031936011261034e576104c6610b88565b60cc5481516370a0823160e01b815230818601526020946001600160a01b03949290919086908290602490829089165afa90811561068c57839161065b575b508015610621578060011c948060c954168551888160248189630852cd8d60e31b968783528d8b8401525af180156106175791899187936105fa575b5060248460ca5416918951948593849283528c8a8401525af180156105f057908892916105d3575b508060c9541686518881527fc0d7dca386819be4531a394d4da010f10cf7f9a67aaa32e0ac5051ee58626ede938491a260ca541690878651888152a26001191693808504600214901517156105c057505051908152f35b634e487b7160e01b825260119052602490fd5b6105e990833d85116102795761026a8183610ad8565b5038610569565b86513d87823e3d90fd5b61061090833d85116102795761026a8183610ad8565b5038610541565b87513d88823e3d90fd5b835162461bcd60e51b81528083018790526014602482015273696e73756666696369656e742062616c616e636560601b6044820152606490fd5b90508581813d8311610685575b6106728183610ad8565b81010312610681575138610505565b8280fd5b503d610668565b84513d85823e3d90fd5b50829034610681578260031936011261068157606554336001600160a01b03909116036106ca57826106c733610a2f565b80f35b906020608492519162461bcd60e51b8352820152602960248201527f4f776e61626c6532537465703a2063616c6c6572206973206e6f7420746865206044820152683732bb9037bbb732b960b91b6064820152fd5b82346103c057806003193601126103c057610738610a80565b606580546001600160a01b031990811690915560338054918216905581906001600160a01b03167f8be0079c531659141344cd1fd0a4f28419497f9722a3daafe3b4186f6b6457e08280a380f35b503461034e578160031936011261034e5760ca5490516001600160a01b039091168152602090f35b5090346103c0576020928360031936011261034e576107cb610a14565b6107d3610a80565b83516370a0823160e01b81523081840152926001600160a01b0391821692908685602481875afa9485156108da5781956108ab575b50868160448560cb541689519063a9059cbb60e01b82528682015288602482015282885af19051600114601f3d11163d151716156108765750847fd0a849a4b4c83176fa52813aff6ed8aa60f8756be6d3cc5cdf086614e3db6af49160cb5416938551908152a35160018152f35b845162461bcd60e51b8152908101869052600f60248201526e1514905394d1915497d19052531151608a1b6044820152606490fd5b9094508681813d83116108d3575b6108c38183610ad8565b8101031261034a57519338610808565b503d6108b9565b508551903d90823e3d90fd5b503461034e578160031936011261034e5760209060ff6097541690519015158152f35b503461034e578160031936011261034e5760cb5490516001600160a01b039091168152602090f35b50823461068157826003193601126106815761094b610a80565b6097549060ff82161561098d575060ff1916609755513381527f5db9ee0a495bf2e6ff9c91a7834c1ba4fdd244a5e8aa4e537bd38aeae4b073aa90602090a180f35b606490602084519162461bcd60e51b8352820152601460248201527314185d5cd8589b194e881b9bdd081c185d5cd95960621b6044820152fd5b503461034e578160031936011261034e5760c95490516001600160a01b039091168152602090f35b83903461034e578160031936011261034e5760cc546001600160a01b03168152602090f35b600435906001600160a01b0382168203610a2a57565b600080fd5b6001600160601b0360a01b90816065541660655560335460018060a01b038092168093821617603355167f8be0079c531659141344cd1fd0a4f28419497f9722a3daafe3b4186f6b6457e0600080a3565b6033546001600160a01b03163303610a9457565b606460405162461bcd60e51b815260206004820152602060248201527f4f776e61626c653a2063616c6c6572206973206e6f7420746865206f776e65726044820152fd5b90601f8019910116810190811067ffffffffffffffff821117610afa57604052565b634e487b7160e01b600052604160045260246000fd5b90816020910312610a2a57518015158103610a2a5790565b15610b2f57565b60405162461bcd60e51b815260206004820152602b60248201527f496e697469616c697a61626c653a20636f6e7472616374206973206e6f74206960448201526a6e697469616c697a696e6760a81b6064820152608490fd5b60ff60975416610b9457565b60405162461bcd60e51b815260206004820152601060248201526f14185d5cd8589b194e881c185d5cd95960821b6044820152606490fdfea2646970667358221220130f743a233fd1e199cc95f2b36896585b0ded7aff908579eac8afbc533a34ce64736f6c63430008110033",
  "linkReferences": {},
  "deployedLinkReferences": {}
}