{
  "_format": "hh-sol-artifact-1",
  "contractName": "SmartWalletWhitelist",
  "sourceName": "contracts/SmartWalletWhitelist.sol",
  "abi": [
    {
      "anonymous": false,
      "inputs": [
        {
          "indexed": false,
          "internalType": "address",
          "name": "",
          "type": "address"
        }
      ],
      "name": "ApproveWallet",
      "type": "event"
    },
    {
      "anonymous": false,
      "inputs": [
        {
          "indexed": true,
          "internalType": "address",
          "name": "previousOwner",
          "type": "address"
        },
        {
          "indexed": true,
          "internalType": "address",
          "name": "newOwner",
          "type": "address"
        }
      ],
      "name": "OwnershipTransferStarted",
      "type": "event"
    },
    {
      "anonymous": false,
      "inputs": [
        {
          "indexed": true,
          "internalType": "address",
          "name": "previousOwner",
          "type": "address"
        },
        {
          "indexed": true,
          "internalType": "address",
          "name": "newOwner",
          "type": "address"
        }
      ],
      "name": "OwnershipTransferred",
      "type": "event"
    },
    {
      "anonymous": false,
      "inputs": [
        {
          "indexed": false,
          "internalType": "address",
          "name": "",
          "type": "address"
        }
      ],
      "name": "RevokeWallet",
      "type": "event"
    },
    {
      "inputs": [],
      "name": "acceptOwnership",
      "outputs": [],
      "stateMutability": "nonpayable",
      "type": "function"
    },
    {
      "inputs": [],
      "name": "applySetChecker",
      "outputs": [],
      "stateMutability": "nonpayable",
      "type": "function"
    },
    {
      "inputs": [
        {
          "internalType": "address",
          "name": "_wallet",
          "type": "address"
        }
      ],
      "name": "approveWallet",
      "outputs": [],
      "stateMutability": "nonpayable",
      "type": "function"
    },
    {
      "inputs": [
        {
          "internalType": "address",
          "name": "_wallet",
          "type": "address"
        }
      ],
      "name": "check",
      "outputs": [
        {
          "internalType": "bool",
          "name": "",
          "type": "bool"
        }
      ],
      "stateMutability": "view",
      "type": "function"
    },
    {
      "inputs": [],
      "name": "checker",
      "outputs": [
        {
          "internalType": "address",
          "name": "",
          "type": "address"
        }
      ],
      "stateMutability": "view",
      "type": "function"
    },
    {
      "inputs": [
        {
          "internalType": "address",
          "name": "_checker",
          "type": "address"
        }
      ],
      "name": "commitSetChecker",
      "outputs": [],
      "stateMutability": "nonpayable",
      "type": "function"
    },
    {
      "inputs": [],
      "name": "future_checker",
      "outputs": [
        {
          "internalType": "address",
          "name": "",
          "type": "address"
        }
      ],
      "stateMutability": "view",
      "type": "function"
    },
    {
      "inputs": [],
      "name": "owner",
      "outputs": [
        {
          "internalType": "address",
          "name": "",
          "type": "address"
        }
      ],
      "stateMutability": "view",
      "type": "function"
    },
    {
      "inputs": [],
      "name": "pendingOwner",
      "outputs": [
        {
          "internalType": "address",
          "name": "",
          "type": "address"
        }
      ],
      "stateMutability": "view",
      "type": "function"
    },
    {
      "inputs": [],
      "name": "renounceOwnership",
      "outputs": [],
      "stateMutability": "nonpayable",
      "type": "function"
    },
    {
      "inputs": [
        {
          "internalType": "address",
          "name": "_wallet",
          "type": "address"
        }
      ],
      "name": "revokeWallet",
      "outputs": [],
      "stateMutability": "nonpayable",
      "type": "function"
    },
    {
      "inputs": [
        {
          "internalType": "address",
          "name": "newOwner",
          "type": "address"
        }
      ],
      "name": "transferOwnership",
      "outputs": [],
      "stateMutability": "nonpayable",
      "type": "function"
    },
    {
      "inputs": [
        {
          "internalType": "address",
          "name": "",
          "type": "address"
        }
      ],
      "name": "wallets",
      "outputs": [
        {
          "internalType": "bool",
          "name": "",
          "type": "bool"
        }
      ],
      "stateMutability": "view",
      "type": "function"
    }
  ],
  "bytecode": "0x6080806040523461006357600180546001600160a01b03199081169091556000805433928116831782556001600160a01b0316907f8be0079c531659141344cd1fd0a4f28419497f9722a3daafe3b4186f6b6457e09080a361063390816100698239f35b600080fdfe60406080815260048036101561001457600080fd5b600091823560e01c9081630fcb0ae51461045757816326b42b1a14610418578163715018a6146103b357816379ba5097146102f3578163808a9d401461028457816389b08f11146102445781638da5cb5b1461021c5781638fcdecc8146101f3578163943f35a4146101b2578163c23697a814610174578163cf5303cf1461014b578163e30c397814610122575063f2fde38b146100b157600080fd5b3461011e57602036600319011261011e57356001600160a01b038181169182900361011a576100de6104c9565b600180546001600160a01b031916831790558254167f38d16b8cac22d99fc7c124b9cd0de2d3fa1faef420bfe791d8c362d765e227008380a380f35b8280fd5b5080fd5b83903461011e578160031936011261011e5760015490516001600160a01b039091168152602090f35b83903461011e578160031936011261011e5760035490516001600160a01b039091168152602090f35b9190503461011a57602036600319011261011a5735916001600160a01b03831683036101af57506101a6602092610521565b90519015158152f35b80fd5b50503461011e57602036600319011261011e5780356001600160a01b0381169081900361011a576101e16104c9565b81546001600160a01b03191617905580f35b9190503461011a578260031936011261011a575490516001600160a01b03909116815260209150f35b83903461011e578160031936011261011e57905490516001600160a01b039091168152602090f35b9190503461011a57602036600319011261011a57356001600160a01b0381169081900361011a57818360ff92602095526002855220541690519015158152f35b9190503461011a57602036600319011261011a57356001600160a01b038116919082900361011a577f1b676c3cc753786cb95aff57280fd7406f1da74e2a8b9755fdd395aded3e16dd916020916102d96104c9565b81855260028352808520805460ff1916905551908152a180f35b90503461011a578260031936011261011a57600154916001600160a01b0391338385160361035e5750506001600160a01b031991821660015582543392811683178455167f8be0079c531659141344cd1fd0a4f28419497f9722a3daafe3b4186f6b6457e08380a380f35b906020608492519162461bcd60e51b8352820152602960248201527f4f776e61626c6532537465703a2063616c6c6572206973206e6f7420746865206044820152683732bb9037bbb732b960b91b6064820152fd5b83346101af57806003193601126101af576103cc6104c9565b600180546001600160a01b03199081169091558154908116825581906001600160a01b03167f8be0079c531659141344cd1fd0a4f28419497f9722a3daafe3b4186f6b6457e08280a380f35b50503461011e578160031936011261011e576104326104c9565b60018060a01b039054166bffffffffffffffffffffffff60a01b600354161760035580f35b9190503461011a57602036600319011261011a57356001600160a01b038116919082900361011a577fc1e7aae3f3125e58cfc69ab2a872a655dbb9427614aa85b29bb5abeaca4d6a92916020916104ac6104c9565b81855260028352808520805460ff1916600117905551908152a180f35b6000546001600160a01b031633036104dd57565b606460405162461bcd60e51b815260206004820152602060248201527f4f776e61626c653a2063616c6c6572206973206e6f7420746865206f776e65726044820152fd5b6001600160a01b0390811660008181526002602052604081205460ff1692831561054b5750505090565b600354169250908261055d5750905090565b602090602460405180958193631846d2f560e31b835260048301525afa9182156105f057819261058c57505090565b90915060203d81116105e9575b601f8101601f1916820167ffffffffffffffff8111838210176105d55760209183916040528101031261011e57519081151582036101af575090565b634e487b7160e01b84526041600452602484fd5b503d610599565b50604051903d90823e3d90fdfea264697066735822122072647a21e88d28d26e9958e4ccaa2e0ebccaddc0bf80ae90835c2dfe887adf8264736f6c63430008110033",
  "linkReferences": {},
  "deployedLinkReferences": {}
}