{
  "_format": "hh-sol-artifact-1",
  "contractName": "Vault",
  "sourceName": "contracts/automation/Vault.sol",
  "abi": [
    {
      "inputs": [
        {
          "internalType": "address",
          "name": "_HOPE",
          "type": "address"
        },
        {
          "internalType": "address",
          "name": "_WBTC",
          "type": "address"
        },
        {
          "internalType": "address",
          "name": "_stETH",
          "type": "address"
        }
      ],
      "stateMutability": "nonpayable",
      "type": "constructor"
    },
    {
      "anonymous": false,
      "inputs": [
        {
          "indexed": true,
          "internalType": "address",
          "name": "previousOwner",
          "type": "address"
        },
        {
          "indexed": true,
          "internalType": "address",
          "name": "newOwner",
          "type": "address"
        }
      ],
      "name": "OwnershipTransferStarted",
      "type": "event"
    },
    {
      "anonymous": false,
      "inputs": [
        {
          "indexed": true,
          "internalType": "address",
          "name": "previousOwner",
          "type": "address"
        },
        {
          "indexed": true,
          "internalType": "address",
          "name": "newOwner",
          "type": "address"
        }
      ],
      "name": "OwnershipTransferred",
      "type": "event"
    },
    {
      "anonymous": false,
      "inputs": [
        {
          "indexed": true,
          "internalType": "bytes32",
          "name": "role",
          "type": "bytes32"
        },
        {
          "indexed": true,
          "internalType": "bytes32",
          "name": "previousAdminRole",
          "type": "bytes32"
        },
        {
          "indexed": true,
          "internalType": "bytes32",
          "name": "newAdminRole",
          "type": "bytes32"
        }
      ],
      "name": "RoleAdminChanged",
      "type": "event"
    },
    {
      "anonymous": false,
      "inputs": [
        {
          "indexed": true,
          "internalType": "bytes32",
          "name": "role",
          "type": "bytes32"
        },
        {
          "indexed": true,
          "internalType": "address",
          "name": "account",
          "type": "address"
        },
        {
          "indexed": true,
          "internalType": "address",
          "name": "sender",
          "type": "address"
        }
      ],
      "name": "RoleGranted",
      "type": "event"
    },
    {
      "anonymous": false,
      "inputs": [
        {
          "indexed": true,
          "internalType": "bytes32",
          "name": "role",
          "type": "bytes32"
        },
        {
          "indexed": true,
          "internalType": "address",
          "name": "account",
          "type": "address"
        },
        {
          "indexed": true,
          "internalType": "address",
          "name": "sender",
          "type": "address"
        }
      ],
      "name": "RoleRevoked",
      "type": "event"
    },
    {
      "anonymous": false,
      "inputs": [
        {
          "indexed": false,
          "internalType": "uint256",
          "name": "oldBurnFeeRate",
          "type": "uint256"
        },
        {
          "indexed": false,
          "internalType": "uint256",
          "name": "newBurnFeeRate",
          "type": "uint256"
        }
      ],
      "name": "UpdateBurnFeeRate",
      "type": "event"
    },
    {
      "anonymous": false,
      "inputs": [
        {
          "indexed": false,
          "internalType": "address",
          "name": "oldGateway",
          "type": "address"
        },
        {
          "indexed": false,
          "internalType": "address",
          "name": "newGateway",
          "type": "address"
        }
      ],
      "name": "UpdateGateway",
      "type": "event"
    },
    {
      "anonymous": false,
      "inputs": [
        {
          "indexed": false,
          "internalType": "uint256",
          "name": "oldMintFeeRate",
          "type": "uint256"
        },
        {
          "indexed": false,
          "internalType": "uint256",
          "name": "newMintFeeRate",
          "type": "uint256"
        }
      ],
      "name": "UpdateMintFeeRate",
      "type": "event"
    },
    {
      "inputs": [],
      "name": "DEFAULT_ADMIN_ROLE",
      "outputs": [
        {
          "internalType": "bytes32",
          "name": "",
          "type": "bytes32"
        }
      ],
      "stateMutability": "view",
      "type": "function"
    },
    {
      "inputs": [],
      "name": "ETH_TO_BTC_RATIO",
      "outputs": [
        {
          "internalType": "uint256",
          "name": "",
          "type": "uint256"
        }
      ],
      "stateMutability": "view",
      "type": "function"
    },
    {
      "inputs": [],
      "name": "FEE_RATE_FACTOR",
      "outputs": [
        {
          "internalType": "uint256",
          "name": "",
          "type": "uint256"
        }
      ],
      "stateMutability": "view",
      "type": "function"
    },
    {
      "inputs": [],
      "name": "HOPE",
      "outputs": [
        {
          "internalType": "contract IHOPE",
          "name": "",
          "type": "address"
        }
      ],
      "stateMutability": "view",
      "type": "function"
    },
    {
      "inputs": [],
      "name": "K",
      "outputs": [
        {
          "internalType": "uint256",
          "name": "",
          "type": "uint256"
        }
      ],
      "stateMutability": "view",
      "type": "function"
    },
    {
      "inputs": [],
      "name": "K_FACTOR",
      "outputs": [
        {
          "internalType": "uint256",
          "name": "",
          "type": "uint256"
        }
      ],
      "stateMutability": "view",
      "type": "function"
    },
    {
      "inputs": [],
      "name": "VAULT_MANAGER_ROLE",
      "outputs": [
        {
          "internalType": "bytes32",
          "name": "",
          "type": "bytes32"
        }
      ],
      "stateMutability": "view",
      "type": "function"
    },
    {
      "inputs": [],
      "name": "WBTC",
      "outputs": [
        {
          "internalType": "contract IWBTC",
          "name": "",
          "type": "address"
        }
      ],
      "stateMutability": "view",
      "type": "function"
    },
    {
      "inputs": [],
      "name": "acceptOwnership",
      "outputs": [],
      "stateMutability": "nonpayable",
      "type": "function"
    },
    {
      "inputs": [
        {
          "internalType": "address",
          "name": "_manager",
          "type": "address"
        }
      ],
      "name": "addVaultManager",
      "outputs": [],
      "stateMutability": "nonpayable",
      "type": "function"
    },
    {
      "inputs": [],
      "name": "burnFeeRate",
      "outputs": [
        {
          "internalType": "uint256",
          "name": "",
          "type": "uint256"
        }
      ],
      "stateMutability": "view",
      "type": "function"
    },
    {
      "inputs": [
        {
          "internalType": "address",
          "name": "_recipient",
          "type": "address"
        }
      ],
      "name": "claimHOPE",
      "outputs": [],
      "stateMutability": "nonpayable",
      "type": "function"
    },
    {
      "inputs": [
        {
          "internalType": "address",
          "name": "_recipient",
          "type": "address"
        }
      ],
      "name": "claimStETH",
      "outputs": [],
      "stateMutability": "nonpayable",
      "type": "function"
    },
    {
      "inputs": [],
      "name": "claimableHOPE",
      "outputs": [
        {
          "internalType": "uint256",
          "name": "",
          "type": "uint256"
        }
      ],
      "stateMutability": "view",
      "type": "function"
    },
    {
      "inputs": [],
      "name": "claimableStETH",
      "outputs": [
        {
          "internalType": "uint256",
          "name": "",
          "type": "uint256"
        }
      ],
      "stateMutability": "view",
      "type": "function"
    },
    {
      "inputs": [
        {
          "internalType": "address",
          "name": "_user",
          "type": "address"
        },
        {
          "internalType": "uint256",
          "name": "_amount",
          "type": "uint256"
        }
      ],
      "name": "deposit",
      "outputs": [
        {
          "internalType": "uint256",
          "name": "",
          "type": "uint256"
        }
      ],
      "stateMutability": "nonpayable",
      "type": "function"
    },
    {
      "inputs": [],
      "name": "gateway",
      "outputs": [
        {
          "internalType": "address",
          "name": "",
          "type": "address"
        }
      ],
      "stateMutability": "view",
      "type": "function"
    },
    {
      "inputs": [
        {
          "internalType": "bytes32",
          "name": "role",
          "type": "bytes32"
        }
      ],
      "name": "getRoleAdmin",
      "outputs": [
        {
          "internalType": "bytes32",
          "name": "",
          "type": "bytes32"
        }
      ],
      "stateMutability": "view",
      "type": "function"
    },
    {
      "inputs": [
        {
          "internalType": "bytes32",
          "name": "role",
          "type": "bytes32"
        },
        {
          "internalType": "address",
          "name": "account",
          "type": "address"
        }
      ],
      "name": "grantRole",
      "outputs": [],
      "stateMutability": "nonpayable",
      "type": "function"
    },
    {
      "inputs": [
        {
          "internalType": "bytes32",
          "name": "role",
          "type": "bytes32"
        },
        {
          "internalType": "address",
          "name": "account",
          "type": "address"
        }
      ],
      "name": "hasRole",
      "outputs": [
        {
          "internalType": "bool",
          "name": "",
          "type": "bool"
        }
      ],
      "stateMutability": "view",
      "type": "function"
    },
    {
      "inputs": [
        {
          "internalType": "address",
          "name": "_manager",
          "type": "address"
        }
      ],
      "name": "isVaultManager",
      "outputs": [
        {
          "internalType": "bool",
          "name": "",
          "type": "bool"
        }
      ],
      "stateMutability": "view",
      "type": "function"
    },
    {
      "inputs": [],
      "name": "mintFeeRate",
      "outputs": [
        {
          "internalType": "uint256",
          "name": "",
          "type": "uint256"
        }
      ],
      "stateMutability": "view",
      "type": "function"
    },
    {
      "inputs": [],
      "name": "owner",
      "outputs": [
        {
          "internalType": "address",
          "name": "",
          "type": "address"
        }
      ],
      "stateMutability": "view",
      "type": "function"
    },
    {
      "inputs": [],
      "name": "pendingOwner",
      "outputs": [
        {
          "internalType": "address",
          "name": "",
          "type": "address"
        }
      ],
      "stateMutability": "view",
      "type": "function"
    },
    {
      "inputs": [
        {
          "internalType": "address",
          "name": "_manager",
          "type": "address"
        }
      ],
      "name": "removeVaultManager",
      "outputs": [],
      "stateMutability": "nonpayable",
      "type": "function"
    },
    {
      "inputs": [],
      "name": "renounceOwnership",
      "outputs": [],
      "stateMutability": "nonpayable",
      "type": "function"
    },
    {
      "inputs": [
        {
          "internalType": "bytes32",
          "name": "role",
          "type": "bytes32"
        },
        {
          "internalType": "address",
          "name": "account",
          "type": "address"
        }
      ],
      "name": "renounceRole",
      "outputs": [],
      "stateMutability": "nonpayable",
      "type": "function"
    },
    {
      "inputs": [
        {
          "internalType": "bytes32",
          "name": "role",
          "type": "bytes32"
        },
        {
          "internalType": "address",
          "name": "account",
          "type": "address"
        }
      ],
      "name": "revokeRole",
      "outputs": [],
      "stateMutability": "nonpayable",
      "type": "function"
    },
    {
      "inputs": [
        {
          "internalType": "address",
          "name": "_token",
          "type": "address"
        },
        {
          "internalType": "address",
          "name": "_to",
          "type": "address"
        },
        {
          "internalType": "uint256",
          "name": "_amount",
          "type": "uint256"
        }
      ],
      "name": "safeTransferToken",
      "outputs": [],
      "stateMutability": "nonpayable",
      "type": "function"
    },
    {
      "inputs": [],
      "name": "stETH",
      "outputs": [
        {
          "internalType": "contract IStETH",
          "name": "",
          "type": "address"
        }
      ],
      "stateMutability": "view",
      "type": "function"
    },
    {
      "inputs": [],
      "name": "stakeETH",
      "outputs": [],
      "stateMutability": "payable",
      "type": "function"
    },
    {
      "inputs": [
        {
          "internalType": "bytes4",
          "name": "interfaceId",
          "type": "bytes4"
        }
      ],
      "name": "supportsInterface",
      "outputs": [
        {
          "internalType": "bool",
          "name": "",
          "type": "bool"
        }
      ],
      "stateMutability": "view",
      "type": "function"
    },
    {
      "inputs": [],
      "name": "totalMinted",
      "outputs": [
        {
          "internalType": "uint256",
          "name": "",
          "type": "uint256"
        }
      ],
      "stateMutability": "view",
      "type": "function"
    },
    {
      "inputs": [
        {
          "internalType": "address",
          "name": "newOwner",
          "type": "address"
        }
      ],
      "name": "transferOwnership",
      "outputs": [],
      "stateMutability": "nonpayable",
      "type": "function"
    },
    {
      "inputs": [
        {
          "internalType": "uint256",
          "name": "_rate",
          "type": "uint256"
        }
      ],
      "name": "updateBurnFeeRate",
      "outputs": [],
      "stateMutability": "nonpayable",
      "type": "function"
    },
    {
      "inputs": [
        {
          "internalType": "address",
          "name": "_gateway",
          "type": "address"
        }
      ],
      "name": "updateGateway",
      "outputs": [],
      "stateMutability": "nonpayable",
      "type": "function"
    },
    {
      "inputs": [
        {
          "internalType": "uint256",
          "name": "_rate",
          "type": "uint256"
        }
      ],
      "name": "updateMintFeeRate",
      "outputs": [],
      "stateMutability": "nonpayable",
      "type": "function"
    },
    {
      "inputs": [
        {
          "internalType": "uint256",
          "name": "_amount",
          "type": "uint256"
        }
      ],
      "name": "withdraw",
      "outputs": [
        {
          "internalType": "uint256",
          "name": "",
          "type": "uint256"
        }
      ],
      "stateMutability": "nonpayable",
      "type": "function"
    }
  ],
  "bytecode": "0x60e0346200012957601f62001b5138819003918201601f19168301916001600160401b038311848410176200012e5780849260609460405283398101031262000129576200004d8162000144565b620000696040620000616020850162000144565b930162000144565b60018060a01b031980600154166001556000549033908216176000556040519360018060a01b0380948193823391167f8be0079c531659141344cd1fd0a4f28419497f9722a3daafe3b4186f6b6457e0600080a3166080521660a0521660c0526119f790816200015a82396080518181816107bc015281816109bb01528181610b9301528181610c3801528181610e870152611786015260a05181610af5015260c05181818161033c01528181610414015281816104f401526116980152f35b600080fd5b634e487b7160e01b600052604160045260246000fd5b51906001600160a01b0382168203620001295756fe608060409080825260048036101561001657600080fd5b600092833560e01c92836301ffc9a714610fa457508263116191b614610f7b57826318819a3114610f5d578263248a9ca314610f32578263271f264514610f1557826327e28d3514610ef75782632e1a7d4d14610e1a5782632f2ff15d14610d6d57826336568abe14610cdc57826347e7ef2414610b245782634dede3de14610ae0578263509bf42a14610ac15782635290e6a614610a135782635b1403d6146109815782635e5a24a4146109585782635f80fcad146108a6578263676a553e14610851578263715018a6146107eb57826374ac6112146107a757826377519b731461078757826379ba5097146106ba57826382143897146106595782638da5cb5b1461063157826391d14854146105eb578263a217fddf146105d0578263a2309ff8146105b1578263a932492f14610593578263b076a18a14610550578263be596d3a146104ba578263c0346b2014610443578263c1fe3e48146103ff578263cd842088146103e3578263d547741f146103a4578263dceb986d146102ef578263e30c3978146102c6578263e95d6b0b1461029e578263f0ce193e1461023757505063f2fde38b146101c857600080fd5b34610234576020366003190112610234576101e161100e565b6101e9611451565b600180546001600160a01b0319166001600160a01b0392831690811790915582549091167f38d16b8cac22d99fc7c124b9cd0de2d3fa1faef420bfe791d8c362d765e227008380a380f35b80fd5b9091503461029a57602036600319011261029a577fdb04400763639b671e84f09a57a8e7503bd77dd52af4dd08e274d54135c692509135610276611451565b610284620186a082106117f0565b600554908060055582519182526020820152a180f35b8280fd5b8390346102c257816003193601126102c2576020906102bb61167d565b9051908152f35b5080fd5b8390346102c257816003193601126102c25760015490516001600160a01b039091168152602090f35b9091508260031936011261029a57602083602460018060a01b039461031986600654163314611608565b61032434151561163c565b8451958693849263a1903eab60e01b845283015234907f0000000000000000000000000000000000000000000000000000000000000000165af190811561039b575061036e575080f35b602090813d8111610394575b61038481836113b9565b8101031261038f5780f35b600080fd5b503d61037a565b513d84823e3d90fd5b9091503461029a578060031936011261029a576103e091356103db60016103c9610ff8565b93838752600260205286200154611244565b6113db565b80f35b8390346102c257816003193601126102c25760209051600a8152f35b8390346102c257816003193601126102c257517f00000000000000000000000000000000000000000000000000000000000000006001600160a01b03168152602090f35b8390346102c25760203660031901126102c2577f320ae9fff5f96f3c71868182ddd421299f8e5da0cafa2ee516f59f43c33949569061048061100e565b610488611451565b600680546001600160a01b039283166001600160a01b031982168117909255835192811683528516176020820152a180f35b8382346102c25760203660031901126102c2576104d561100e565b6104dd611024565b6104e561167d565b918215610525575061052191907f00000000000000000000000000000000000000000000000000000000000000006001600160a01b0316611824565b5080f35b606490602086519162461bcd60e51b835282015260056024820152642b2098181960d91b6044820152fd5b83346102345760603660031901126102345761052161056d61100e565b610575610ff8565b61058a60018060a01b03600654163314611608565b60443591611824565b8390346102c257816003193601126102c2576020905162a4d28d8152f35b8390346102c257816003193601126102c2576020906003549051908152f35b8390346102c257816003193601126102c25751908152602090f35b91503461029a578160031936011261029a5781602093610609610ff8565b9235815260028552209060018060a01b0316600052825260ff81600020541690519015158152f35b8390346102c257816003193601126102c257905490516001600160a01b039091168152602090f35b9091503461029a57602036600319011261029a57817f317ed079749cc75caa2c3bb09b215b44dbe32fe2e46fb8d2ee74feafe37ab29d9235610699611451565b6106a7620186a082106117f0565b808254925582519182526020820152a180f35b9091503461029a578260031936011261029a57600154916001600160a01b039133838516036107325750506bffffffffffffffffffffffff60a01b8092166001556000549133908316176000553391167f8be0079c531659141344cd1fd0a4f28419497f9722a3daafe3b4186f6b6457e0600080a380f35b906020608492519162461bcd60e51b8352820152602960248201527f4f776e61626c6532537465703a2063616c6c6572206973206e6f7420746865206044820152683732bb9037bbb732b960b91b6064820152fd5b8390346102c257816003193601126102c2576020905164e8d4a510008152f35b8390346102c257816003193601126102c257517f00000000000000000000000000000000000000000000000000000000000000006001600160a01b03168152602090f35b8334610234578060031936011261023457610804611451565b600180546001600160a01b0319908116909155600080549182168155906001600160a01b03167f8be0079c531659141344cd1fd0a4f28419497f9722a3daafe3b4186f6b6457e08280a380f35b8390346102c25760203660031901126102c2576020918161087061100e565b916000805160206119a2833981519152815260028552209060018060a01b0316600052825260ff81600020541690519015158152f35b8390346102c25760203660031901126102c2576108c161100e565b6108c9611451565b6000805160206119a283398151915291826000526002602052806000209160018060a01b0316918260005260205260ff81600020541615610908578380f35b8260005260026020528060002082600052602052600020600160ff1982541617905533917f2f8788117e7eff1d82e926ec794901d17c78024a50270940304540a733656f0d600080a48180808380f35b8390346102c257816003193601126102c257602090516000805160206119a28339815191528152f35b8382346102c25760203660031901126102c25761099c61100e565b6109a4611024565b6109ac61176b565b9182156109e8575061052191907f00000000000000000000000000000000000000000000000000000000000000006001600160a01b0316611824565b606490602086519162461bcd60e51b83528201526005602482015264564130303360d81b6044820152fd5b8390346102c25760203660031901126102c257610a2e61100e565b610a36611451565b6000805160206119a283398151915291826000526002602052806000209160018060a01b0316918260005260205260ff816000205416610a74578380f35b826000526002602052806000208260005260205260002060ff19815416905533917ff6391f5c32d9c69d2a47ea670b442974b53935d1edc7fd64eb21e047a839171b600080a48180808380f35b8390346102c257816003193601126102c2576020906005549051908152f35b8390346102c257816003193601126102c257517f00000000000000000000000000000000000000000000000000000000000000006001600160a01b03168152602090f35b9091503461029a578060031936011261029a57610b3f61100e565b6006546001600160a01b03939060243590610b5d9086163314611608565b610b6881151561163c565b600354818101809111610cc9576003558154869291839180610c20575b5090610b9091611670565b947f000000000000000000000000000000000000000000000000000000000000000016803b1561029a5784516340c10f1960e01b81526001600160a01b0390941691840191825260208201869052839182908490829060400103925af18015610c1657610c02575b6020838351908152f35b610c0c8491611373565b61029a5782610bf8565b82513d86823e3d90fd5b81610c3392949550620f424093506114a9565b0490857f000000000000000000000000000000000000000000000000000000000000000016803b15610cc55785516340c10f1960e01b815230858201908152602081018590529091899183919082908490829060400103925af18015610cbb57610ca2575b9087939291610b85565b96610cb2610b9092949398611373565b96919290610c98565b86513d8a823e3d90fd5b8780fd5b634e487b7160e01b875260118352602487fd5b8382346102c257826003193601126102c257610cf6610ff8565b90336001600160a01b03831603610d1257906103e091356113db565b608490602085519162461bcd60e51b8352820152602f60248201527f416363657373436f6e74726f6c3a2063616e206f6e6c792072656e6f756e636560448201526e103937b632b9903337b91039b2b63360891b6064820152fd5b91503461029a578160031936011261029a573590610d89610ff8565b908284526002602052610da160018286200154611244565b828452600260209081528185206001600160a01b039093168086529290528084205460ff1615610dcf578380f35b82845260026020528084208285526020528320600160ff1982541617905533917f2f8788117e7eff1d82e926ec794901d17c78024a50270940304540a733656f0d8480a43880808380f35b9091503461029a57602036600319011261029a5781359183610e7560018060a01b0394610e4c86600654163314611608565b610e5781151561163c565b6005548015610eef57610e6e620f424091836114a9565b0490611670565b93610e8285600354611670565b6003557f00000000000000000000000000000000000000000000000000000000000000001691823b156102c257602485918386519586948593630852cd8d60e31b85528401525af18015610c165760209450610ee0575b5051908152f35b610ee990611373565b38610ed9565b508290611670565b8390346102c257816003193601126102c25760209051620f42408152f35b8390346102c257816003193601126102c2576020906102bb61176b565b91503461029a57602036600319011261029a5781602093600192358152600285522001549051908152f35b91503461029a578260031936011261029a5760209250549051908152f35b8390346102c257816003193601126102c25760065490516001600160a01b039091168152602090f35b9250503461029a57602036600319011261029a573563ffffffff60e01b811680910361029a5760209250637965db0b60e01b8114908115610fe7575b5015158152f35b6301ffc9a760e01b14905038610fe0565b602435906001600160a01b038216820361038f57565b600435906001600160a01b038216820361038f57565b3360009081527f94141351b80f1704310b66d100f6d2d855bc312ec9444238ab053b30a5b360216020908152604080832054909291906000805160206119a28339815191529060ff16156110785750505050565b611081336114f9565b9084519061108e8261139d565b6042825283820194606036873782511561123057603086538251906001918210156112305790607860218501536041915b8183116111c257505050611180578461114e604861117293604497985198899161113f8984019876020b1b1b2b9b9a1b7b73a3937b61d1030b1b1b7bab73a1604d1b8a52611116815180928d603789019101611350565b8401917001034b99036b4b9b9b4b733903937b6329607d1b603784015251809386840190611350565b010360288101895201876113b9565b5194859362461bcd60e51b8552600485015251809281602486015285850190611350565b601f01601f19168101030190fd5b60648386519062461bcd60e51b825280600483015260248201527f537472696e67733a20686578206c656e67746820696e73756666696369656e746044820152fd5b909192600f8116601081101561121c576f181899199a1a9b1b9c1cb0b131b232b360811b901a6111f285876114d2565b5360041c928015611208576000190191906110bf565b634e487b7160e01b82526011600452602482fd5b634e487b7160e01b83526032600452602483fd5b634e487b7160e01b81526032600452602490fd5b6000818152602060028152604092838320338452825260ff84842054161561126c5750505050565b611275336114f9565b908451906112828261139d565b6042825283820194606036873782511561123057603086538251906001918210156112305790607860218501536041915b81831161130a57505050611180578461114e604861117293604497985198899161113f8984019876020b1b1b2b9b9a1b7b73a3937b61d1030b1b1b7bab73a1604d1b8a52611116815180928d603789019101611350565b909192600f8116601081101561121c576f181899199a1a9b1b9c1cb0b131b232b360811b901a61133a85876114d2565b5360041c928015611208576000190191906112b3565b60005b8381106113635750506000910152565b8181015183820152602001611353565b67ffffffffffffffff811161138757604052565b634e487b7160e01b600052604160045260246000fd5b6080810190811067ffffffffffffffff82111761138757604052565b90601f8019910116810190811067ffffffffffffffff82111761138757604052565b906000918083526002602052604083209160018060a01b03169182845260205260ff60408420541661140c57505050565b8083526002602052604083208284526020526040832060ff1981541690557ff6391f5c32d9c69d2a47ea670b442974b53935d1edc7fd64eb21e047a839171b339380a4565b6000546001600160a01b0316330361146557565b606460405162461bcd60e51b815260206004820152602060248201527f4f776e61626c653a2063616c6c6572206973206e6f7420746865206f776e65726044820152fd5b818102929181159184041417156114bc57565b634e487b7160e01b600052601160045260246000fd5b9081518110156114e3570160200190565b634e487b7160e01b600052603260045260246000fd5b604051906060820182811067ffffffffffffffff82111761138757604052602a82526020820160403682378251156114e3576030905381516001908110156114e357607860218401536029905b80821161159a5750506115565790565b606460405162461bcd60e51b815260206004820152602060248201527f537472696e67733a20686578206c656e67746820696e73756666696369656e746044820152fd5b9091600f811660108110156115f3576f181899199a1a9b1b9c1cb0b131b232b360811b901a6115c984866114d2565b5360041c9180156115de576000190190611546565b60246000634e487b7160e01b81526011600452fd5b60246000634e487b7160e01b81526032600452fd5b1561160f57565b60405162461bcd60e51b8152602060048201526005602482015264056413030360dc1b6044820152606490fd5b1561164357565b60405162461bcd60e51b8152602060048201526005602482015264564130303160d81b6044820152606490fd5b919082039182116114bc57565b6040516370a0823160e01b81523060048201526020816024817f00000000000000000000000000000000000000000000000000000000000000006001600160a01b03165afa90811561175f5760009161172e575b5060035462a4d28d908181029181830414901517156114bc5764e8d4a51000906402540be40091829104048181029181830414811517156114bc5764174876e8000290808204600a14901517156114bc5761172b91611670565b90565b906020823d8211611757575b81611747602093836113b9565b81010312610234575051386116d1565b3d915061173a565b6040513d6000823e3d90fd5b6040516370a0823160e01b81523060048201526020816024817f00000000000000000000000000000000000000000000000000000000000000006001600160a01b03165afa90811561175f576000916117c2575090565b906020823d82116117e8575b816117db602093836113b9565b8101031261023457505190565b3d91506117ce565b156117f757565b60405162461bcd60e51b815260206004820152600560248201526415904c0c0d60da1b6044820152606490fd5b604080516370a0823160e01b8082526001600160a01b03858116600484018190526020969395909116929091908686602481875afa95861561199657908791600097611963575b50604460009187519063a9059cbb60e01b825260048201528a602482015282875af13d15601f3d116001600051141617161561192d57906024869285519485938492835260048301525afa91821561192357506000916118f1575b506118d19250611670565b9081116118db5790565b634e487b7160e01b600052600160045260246000fd5b919282813d831161191c575b61190781836113b9565b810103126102345750906118d19151386118c6565b503d6118fd565b513d6000823e3d90fd5b835162461bcd60e51b815260048101879052600f60248201526e1514905394d1915497d19052531151608a1b6044820152606490fd5b9182819892983d831161198f575b61197b81836113b9565b81010312610234575051948690604461186b565b503d611971565b85513d6000823e3d90fdfed1473398bb66596de5d1ea1fc8e303ff2ac23265adc9144b1b52065dc4f0934ba2646970667358221220b666aee97f6c254d6569cf13420448c676813bf8f21f83e58b8c60fb76fc155264736f6c63430008110033",
  "linkReferences": {},
  "deployedLinkReferences": {}
}