{
  "_format": "hh-sol-artifact-1",
  "contractName": "Vault",
  "sourceName": "contracts/automation/Vault.sol",
  "abi": [
    {
      "inputs": [
        {
          "internalType": "address",
          "name": "_HOPE",
          "type": "address"
        },
        {
          "internalType": "address",
          "name": "_WBTC",
          "type": "address"
        },
        {
          "internalType": "address",
          "name": "_stETH",
          "type": "address"
        }
      ],
      "stateMutability": "nonpayable",
      "type": "constructor"
    },
    {
      "anonymous": false,
      "inputs": [
        {
          "indexed": true,
          "internalType": "address",
          "name": "previousOwner",
          "type": "address"
        },
        {
          "indexed": true,
          "internalType": "address",
          "name": "newOwner",
          "type": "address"
        }
      ],
      "name": "OwnershipTransferStarted",
      "type": "event"
    },
    {
      "anonymous": false,
      "inputs": [
        {
          "indexed": true,
          "internalType": "address",
          "name": "previousOwner",
          "type": "address"
        },
        {
          "indexed": true,
          "internalType": "address",
          "name": "newOwner",
          "type": "address"
        }
      ],
      "name": "OwnershipTransferred",
      "type": "event"
    },
    {
      "anonymous": false,
      "inputs": [
        {
          "indexed": false,
          "internalType": "address",
          "name": "account",
          "type": "address"
        }
      ],
      "name": "Paused",
      "type": "event"
    },
    {
      "anonymous": false,
      "inputs": [
        {
          "indexed": true,
          "internalType": "bytes32",
          "name": "role",
          "type": "bytes32"
        },
        {
          "indexed": true,
          "internalType": "bytes32",
          "name": "previousAdminRole",
          "type": "bytes32"
        },
        {
          "indexed": true,
          "internalType": "bytes32",
          "name": "newAdminRole",
          "type": "bytes32"
        }
      ],
      "name": "RoleAdminChanged",
      "type": "event"
    },
    {
      "anonymous": false,
      "inputs": [
        {
          "indexed": true,
          "internalType": "bytes32",
          "name": "role",
          "type": "bytes32"
        },
        {
          "indexed": true,
          "internalType": "address",
          "name": "account",
          "type": "address"
        },
        {
          "indexed": true,
          "internalType": "address",
          "name": "sender",
          "type": "address"
        }
      ],
      "name": "RoleGranted",
      "type": "event"
    },
    {
      "anonymous": false,
      "inputs": [
        {
          "indexed": true,
          "internalType": "bytes32",
          "name": "role",
          "type": "bytes32"
        },
        {
          "indexed": true,
          "internalType": "address",
          "name": "account",
          "type": "address"
        },
        {
          "indexed": true,
          "internalType": "address",
          "name": "sender",
          "type": "address"
        }
      ],
      "name": "RoleRevoked",
      "type": "event"
    },
    {
      "anonymous": false,
      "inputs": [
        {
          "indexed": false,
          "internalType": "address",
          "name": "account",
          "type": "address"
        }
      ],
      "name": "Unpaused",
      "type": "event"
    },
    {
      "anonymous": false,
      "inputs": [
        {
          "indexed": false,
          "internalType": "uint256",
          "name": "oldBurnFeeRate",
          "type": "uint256"
        },
        {
          "indexed": false,
          "internalType": "uint256",
          "name": "newBurnFeeRate",
          "type": "uint256"
        }
      ],
      "name": "UpdateBurnFeeRate",
      "type": "event"
    },
    {
      "anonymous": false,
      "inputs": [
        {
          "indexed": false,
          "internalType": "address",
          "name": "oldGateway",
          "type": "address"
        },
        {
          "indexed": false,
          "internalType": "address",
          "name": "newGateway",
          "type": "address"
        }
      ],
      "name": "UpdateGateway",
      "type": "event"
    },
    {
      "anonymous": false,
      "inputs": [
        {
          "indexed": false,
          "internalType": "uint256",
          "name": "oldMintFeeRate",
          "type": "uint256"
        },
        {
          "indexed": false,
          "internalType": "uint256",
          "name": "newMintFeeRate",
          "type": "uint256"
        }
      ],
      "name": "UpdateMintFeeRate",
      "type": "event"
    },
    {
      "inputs": [],
      "name": "DEFAULT_ADMIN_ROLE",
      "outputs": [
        {
          "internalType": "bytes32",
          "name": "",
          "type": "bytes32"
        }
      ],
      "stateMutability": "view",
      "type": "function"
    },
    {
      "inputs": [],
      "name": "ETH_TO_BTC_RATIO",
      "outputs": [
        {
          "internalType": "uint256",
          "name": "",
          "type": "uint256"
        }
      ],
      "stateMutability": "view",
      "type": "function"
    },
    {
      "inputs": [],
      "name": "FEE_RATE_FACTOR",
      "outputs": [
        {
          "internalType": "uint256",
          "name": "",
          "type": "uint256"
        }
      ],
      "stateMutability": "view",
      "type": "function"
    },
    {
      "inputs": [],
      "name": "HOPE",
      "outputs": [
        {
          "internalType": "contract IHOPE",
          "name": "",
          "type": "address"
        }
      ],
      "stateMutability": "view",
      "type": "function"
    },
    {
      "inputs": [],
      "name": "K",
      "outputs": [
        {
          "internalType": "uint256",
          "name": "",
          "type": "uint256"
        }
      ],
      "stateMutability": "view",
      "type": "function"
    },
    {
      "inputs": [],
      "name": "K_FACTOR",
      "outputs": [
        {
          "internalType": "uint256",
          "name": "",
          "type": "uint256"
        }
      ],
      "stateMutability": "view",
      "type": "function"
    },
    {
      "inputs": [],
      "name": "VAULT_MANAGER_ROLE",
      "outputs": [
        {
          "internalType": "bytes32",
          "name": "",
          "type": "bytes32"
        }
      ],
      "stateMutability": "view",
      "type": "function"
    },
    {
      "inputs": [],
      "name": "WBTC",
      "outputs": [
        {
          "internalType": "contract IWBTC",
          "name": "",
          "type": "address"
        }
      ],
      "stateMutability": "view",
      "type": "function"
    },
    {
      "inputs": [],
      "name": "acceptOwnership",
      "outputs": [],
      "stateMutability": "nonpayable",
      "type": "function"
    },
    {
      "inputs": [
        {
          "internalType": "address",
          "name": "_manager",
          "type": "address"
        }
      ],
      "name": "addVaultManager",
      "outputs": [],
      "stateMutability": "nonpayable",
      "type": "function"
    },
    {
      "inputs": [],
      "name": "burnFeeRate",
      "outputs": [
        {
          "internalType": "uint256",
          "name": "",
          "type": "uint256"
        }
      ],
      "stateMutability": "view",
      "type": "function"
    },
    {
      "inputs": [
        {
          "internalType": "address",
          "name": "_recipient",
          "type": "address"
        }
      ],
      "name": "claimHOPE",
      "outputs": [],
      "stateMutability": "nonpayable",
      "type": "function"
    },
    {
      "inputs": [
        {
          "internalType": "address",
          "name": "_recipient",
          "type": "address"
        }
      ],
      "name": "claimStETH",
      "outputs": [],
      "stateMutability": "nonpayable",
      "type": "function"
    },
    {
      "inputs": [],
      "name": "claimableHOPE",
      "outputs": [
        {
          "internalType": "uint256",
          "name": "",
          "type": "uint256"
        }
      ],
      "stateMutability": "view",
      "type": "function"
    },
    {
      "inputs": [],
      "name": "claimableStETH",
      "outputs": [
        {
          "internalType": "uint256",
          "name": "",
          "type": "uint256"
        }
      ],
      "stateMutability": "view",
      "type": "function"
    },
    {
      "inputs": [
        {
          "internalType": "address",
          "name": "_user",
          "type": "address"
        },
        {
          "internalType": "uint256",
          "name": "_amount",
          "type": "uint256"
        }
      ],
      "name": "deposit",
      "outputs": [
        {
          "internalType": "uint256",
          "name": "",
          "type": "uint256"
        }
      ],
      "stateMutability": "nonpayable",
      "type": "function"
    },
    {
      "inputs": [],
      "name": "gateway",
      "outputs": [
        {
          "internalType": "address",
          "name": "",
          "type": "address"
        }
      ],
      "stateMutability": "view",
      "type": "function"
    },
    {
      "inputs": [
        {
          "internalType": "bytes32",
          "name": "role",
          "type": "bytes32"
        }
      ],
      "name": "getRoleAdmin",
      "outputs": [
        {
          "internalType": "bytes32",
          "name": "",
          "type": "bytes32"
        }
      ],
      "stateMutability": "view",
      "type": "function"
    },
    {
      "inputs": [
        {
          "internalType": "bytes32",
          "name": "role",
          "type": "bytes32"
        },
        {
          "internalType": "address",
          "name": "account",
          "type": "address"
        }
      ],
      "name": "grantRole",
      "outputs": [],
      "stateMutability": "nonpayable",
      "type": "function"
    },
    {
      "inputs": [
        {
          "internalType": "bytes32",
          "name": "role",
          "type": "bytes32"
        },
        {
          "internalType": "address",
          "name": "account",
          "type": "address"
        }
      ],
      "name": "hasRole",
      "outputs": [
        {
          "internalType": "bool",
          "name": "",
          "type": "bool"
        }
      ],
      "stateMutability": "view",
      "type": "function"
    },
    {
      "inputs": [
        {
          "internalType": "address",
          "name": "_manager",
          "type": "address"
        }
      ],
      "name": "isVaultManager",
      "outputs": [
        {
          "internalType": "bool",
          "name": "",
          "type": "bool"
        }
      ],
      "stateMutability": "view",
      "type": "function"
    },
    {
      "inputs": [],
      "name": "mintFeeRate",
      "outputs": [
        {
          "internalType": "uint256",
          "name": "",
          "type": "uint256"
        }
      ],
      "stateMutability": "view",
      "type": "function"
    },
    {
      "inputs": [],
      "name": "owner",
      "outputs": [
        {
          "internalType": "address",
          "name": "",
          "type": "address"
        }
      ],
      "stateMutability": "view",
      "type": "function"
    },
    {
      "inputs": [],
      "name": "pause",
      "outputs": [],
      "stateMutability": "nonpayable",
      "type": "function"
    },
    {
      "inputs": [],
      "name": "paused",
      "outputs": [
        {
          "internalType": "bool",
          "name": "",
          "type": "bool"
        }
      ],
      "stateMutability": "view",
      "type": "function"
    },
    {
      "inputs": [],
      "name": "pendingOwner",
      "outputs": [
        {
          "internalType": "address",
          "name": "",
          "type": "address"
        }
      ],
      "stateMutability": "view",
      "type": "function"
    },
    {
      "inputs": [
        {
          "internalType": "address",
          "name": "_manager",
          "type": "address"
        }
      ],
      "name": "removeVaultManager",
      "outputs": [],
      "stateMutability": "nonpayable",
      "type": "function"
    },
    {
      "inputs": [],
      "name": "renounceOwnership",
      "outputs": [],
      "stateMutability": "nonpayable",
      "type": "function"
    },
    {
      "inputs": [
        {
          "internalType": "bytes32",
          "name": "role",
          "type": "bytes32"
        },
        {
          "internalType": "address",
          "name": "account",
          "type": "address"
        }
      ],
      "name": "renounceRole",
      "outputs": [],
      "stateMutability": "nonpayable",
      "type": "function"
    },
    {
      "inputs": [
        {
          "internalType": "bytes32",
          "name": "role",
          "type": "bytes32"
        },
        {
          "internalType": "address",
          "name": "account",
          "type": "address"
        }
      ],
      "name": "revokeRole",
      "outputs": [],
      "stateMutability": "nonpayable",
      "type": "function"
    },
    {
      "inputs": [
        {
          "internalType": "address",
          "name": "_token",
          "type": "address"
        },
        {
          "internalType": "address",
          "name": "_to",
          "type": "address"
        },
        {
          "internalType": "uint256",
          "name": "_amount",
          "type": "uint256"
        }
      ],
      "name": "safeTransferToken",
      "outputs": [],
      "stateMutability": "nonpayable",
      "type": "function"
    },
    {
      "inputs": [],
      "name": "stETH",
      "outputs": [
        {
          "internalType": "contract IStETH",
          "name": "",
          "type": "address"
        }
      ],
      "stateMutability": "view",
      "type": "function"
    },
    {
      "inputs": [],
      "name": "stakeETH",
      "outputs": [],
      "stateMutability": "payable",
      "type": "function"
    },
    {
      "inputs": [
        {
          "internalType": "bytes4",
          "name": "interfaceId",
          "type": "bytes4"
        }
      ],
      "name": "supportsInterface",
      "outputs": [
        {
          "internalType": "bool",
          "name": "",
          "type": "bool"
        }
      ],
      "stateMutability": "view",
      "type": "function"
    },
    {
      "inputs": [],
      "name": "totalMinted",
      "outputs": [
        {
          "internalType": "uint256",
          "name": "",
          "type": "uint256"
        }
      ],
      "stateMutability": "view",
      "type": "function"
    },
    {
      "inputs": [
        {
          "internalType": "address",
          "name": "newOwner",
          "type": "address"
        }
      ],
      "name": "transferOwnership",
      "outputs": [],
      "stateMutability": "nonpayable",
      "type": "function"
    },
    {
      "inputs": [],
      "name": "unpause",
      "outputs": [],
      "stateMutability": "nonpayable",
      "type": "function"
    },
    {
      "inputs": [
        {
          "internalType": "uint256",
          "name": "_rate",
          "type": "uint256"
        }
      ],
      "name": "updateBurnFeeRate",
      "outputs": [],
      "stateMutability": "nonpayable",
      "type": "function"
    },
    {
      "inputs": [
        {
          "internalType": "address",
          "name": "_gateway",
          "type": "address"
        }
      ],
      "name": "updateGateway",
      "outputs": [],
      "stateMutability": "nonpayable",
      "type": "function"
    },
    {
      "inputs": [
        {
          "internalType": "uint256",
          "name": "_rate",
          "type": "uint256"
        }
      ],
      "name": "updateMintFeeRate",
      "outputs": [],
      "stateMutability": "nonpayable",
      "type": "function"
    },
    {
      "inputs": [
        {
          "internalType": "uint256",
          "name": "_amount",
          "type": "uint256"
        }
      ],
      "name": "withdraw",
      "outputs": [
        {
          "internalType": "uint256",
          "name": "",
          "type": "uint256"
        }
      ],
      "stateMutability": "nonpayable",
      "type": "function"
    }
  ],
  "bytecode": "0x60e0346200013357601f62001ce438819003918201601f19168301916001600160401b03831184841017620001385780849260609460405283398101031262000133576200004d816200014e565b62000069604062000061602085016200014e565b93016200014e565b60018060a01b031980600154166001556000549033908216176000556040519360018060a01b0380948193823391167f8be0079c531659141344cd1fd0a4f28419497f9722a3daafe3b4186f6b6457e0600080a360ff1960035416600355166080521660a0521660c052611b80908162000164823960805181818161083901528181610a5c01528181610c3b01528181610ce001528181610fcb015261190f015260a05181610b96015260c05181818161035d015281816104350152818161051501526118210152f35b600080fd5b634e487b7160e01b600052604160045260246000fd5b51906001600160a01b0382168203620001335756fe608060409080825260048036101561001657600080fd5b600092833560e01c92836301ffc9a7146110e957508263116191b6146110c057826318819a31146110a1578263248a9ca314611076578263271f26451461105957826327e28d351461103b5782632e1a7d4d14610f585782632f2ff15d14610eab57826336568abe14610e1a5782633f4ba83a14610d8457826347e7ef2414610bc55782634dede3de14610b81578263509bf42a14610b625782635290e6a614610ab45782635b1403d614610a225782635c975abb146109fe5782635e5a24a4146109d55782635f80fcad14610923578263676a553e146108ce578263715018a61461086857826374ac61121461082457826377519b731461080457826379ba50971461073757826382143897146106d45782638456cb59146106795782638da5cb5b1461065157826391d148541461060b578263a217fddf146105f0578263a2309ff8146105d2578263a932492f146105b4578263b076a18a14610571578263be596d3a146104db578263c0346b2014610464578263c1fe3e4814610420578263cd84208814610404578263d547741f146103c5578263dceb986d14610310578263e30c3978146102e7578263e95d6b0b146102bf578263f0ce193e1461025857505063f2fde38b146101e957600080fd5b3461025557602036600319011261025557610202611153565b61020a611596565b600180546001600160a01b0319166001600160a01b0392831690811790915582549091167f38d16b8cac22d99fc7c124b9cd0de2d3fa1faef420bfe791d8c362d765e227008380a380f35b80fd5b909150346102bb5760203660031901126102bb577fdb04400763639b671e84f09a57a8e7503bd77dd52af4dd08e274d54135c692509135610297611596565b6102a5620186a08210611979565b600654908060065582519182526020820152a180f35b8280fd5b8390346102e357816003193601126102e3576020906102dc611806565b9051908152f35b5080fd5b8390346102e357816003193601126102e35760015490516001600160a01b039091168152602090f35b909150826003193601126102bb57602083602460018060a01b039461033a8660075416331461174d565b610345341515611781565b8451958693849263a1903eab60e01b845283015234907f0000000000000000000000000000000000000000000000000000000000000000165af19081156103bc575061038f575080f35b602090813d81116103b5575b6103a581836114fe565b810103126103b05780f35b600080fd5b503d61039b565b513d84823e3d90fd5b909150346102bb57806003193601126102bb5761040191356103fc60016103ea61113d565b93838752600260205286200154611389565b611520565b80f35b8390346102e357816003193601126102e35760209051600a8152f35b8390346102e357816003193601126102e357517f00000000000000000000000000000000000000000000000000000000000000006001600160a01b03168152602090f35b8390346102e35760203660031901126102e3577f320ae9fff5f96f3c71868182ddd421299f8e5da0cafa2ee516f59f43c3394956906104a1611153565b6104a9611596565b600780546001600160a01b039283166001600160a01b031982168117909255835192811683528516176020820152a180f35b8382346102e35760203660031901126102e3576104f6611153565b6104fe611169565b610506611806565b918215610546575061054291907f00000000000000000000000000000000000000000000000000000000000000006001600160a01b03166119ad565b5080f35b606490602086519162461bcd60e51b835282015260056024820152642b2098181960d91b6044820152fd5b83346102555760603660031901126102555761054261058e611153565b61059661113d565b6105ab60018060a01b0360075416331461174d565b604435916119ad565b8390346102e357816003193601126102e3576020905162a4d28d8152f35b9150346102bb57826003193601126102bb5760209250549051908152f35b8390346102e357816003193601126102e35751908152602090f35b9150346102bb57816003193601126102bb578160209361062961113d565b9235815260028552209060018060a01b0316600052825260ff81600020541690519015158152f35b8390346102e357816003193601126102e357905490516001600160a01b039091168152602090f35b8390346102e357816003193601126102e35760207f62e78cea01bee320cd4e420270b5ea74000d11b0c9f74754ebdbfc544b05a258916106b7611169565b6106bf6117c2565b600160ff19600354161760035551338152a180f35b909150346102bb5760203660031901126102bb577f317ed079749cc75caa2c3bb09b215b44dbe32fe2e46fb8d2ee74feafe37ab29d9135610713611596565b610721620186a08210611979565b600554908060055582519182526020820152a180f35b909150346102bb57826003193601126102bb57600154916001600160a01b039133838516036107af5750506bffffffffffffffffffffffff60a01b8092166001556000549133908316176000553391167f8be0079c531659141344cd1fd0a4f28419497f9722a3daafe3b4186f6b6457e0600080a380f35b906020608492519162461bcd60e51b8352820152602960248201527f4f776e61626c6532537465703a2063616c6c6572206973206e6f7420746865206044820152683732bb9037bbb732b960b91b6064820152fd5b8390346102e357816003193601126102e3576020905164e8d4a510008152f35b8390346102e357816003193601126102e357517f00000000000000000000000000000000000000000000000000000000000000006001600160a01b03168152602090f35b8334610255578060031936011261025557610881611596565b600180546001600160a01b0319908116909155600080549182168155906001600160a01b03167f8be0079c531659141344cd1fd0a4f28419497f9722a3daafe3b4186f6b6457e08280a380f35b8390346102e35760203660031901126102e357602091816108ed611153565b91600080516020611b2b833981519152815260028552209060018060a01b0316600052825260ff81600020541690519015158152f35b8390346102e35760203660031901126102e35761093e611153565b610946611596565b600080516020611b2b83398151915291826000526002602052806000209160018060a01b0316918260005260205260ff81600020541615610985578380f35b8260005260026020528060002082600052602052600020600160ff1982541617905533917f2f8788117e7eff1d82e926ec794901d17c78024a50270940304540a733656f0d600080a48180808380f35b8390346102e357816003193601126102e35760209051600080516020611b2b8339815191528152f35b8390346102e357816003193601126102e35760209060ff6003541690519015158152f35b8382346102e35760203660031901126102e357610a3d611153565b610a45611169565b610a4d6118f4565b918215610a89575061054291907f00000000000000000000000000000000000000000000000000000000000000006001600160a01b03166119ad565b606490602086519162461bcd60e51b83528201526005602482015264564130303360d81b6044820152fd5b8390346102e35760203660031901126102e357610acf611153565b610ad7611596565b600080516020611b2b83398151915291826000526002602052806000209160018060a01b0316918260005260205260ff816000205416610b15578380f35b826000526002602052806000208260005260205260002060ff19815416905533917ff6391f5c32d9c69d2a47ea670b442974b53935d1edc7fd64eb21e047a839171b600080a48180808380f35b8390346102e357816003193601126102e3576020906006549051908152f35b8390346102e357816003193601126102e357517f00000000000000000000000000000000000000000000000000000000000000006001600160a01b03168152602090f35b909150346102bb57806003193601126102bb57610be0611153565b6007546001600160a01b03939060243590610bfe908616331461174d565b610c066117c2565b610c11811515611781565b8154818101809111610d71578255600554869291839180610cc8575b5090610c38916117b5565b947f000000000000000000000000000000000000000000000000000000000000000016803b156102bb5784516340c10f1960e01b81526001600160a01b0390941691840191825260208201869052839182908490829060400103925af18015610cbe57610caa575b6020838351908152f35b610cb484916114b8565b6102bb5782610ca0565b82513d86823e3d90fd5b81610cdb92949550620f424093506115ee565b0490857f000000000000000000000000000000000000000000000000000000000000000016803b15610d6d5785516340c10f1960e01b815230858201908152602081018590529091899183919082908490829060400103925af18015610d6357610d4a575b9087939291610c2d565b96610d5a610c38929493986114b8565b96919290610d40565b86513d8a823e3d90fd5b8780fd5b634e487b7160e01b875260118352602487fd5b9150346102bb57826003193601126102bb57610d9e611169565b6003549060ff821615610de0575060ff1916600355513381527f5db9ee0a495bf2e6ff9c91a7834c1ba4fdd244a5e8aa4e537bd38aeae4b073aa90602090a180f35b606490602084519162461bcd60e51b8352820152601460248201527314185d5cd8589b194e881b9bdd081c185d5cd95960621b6044820152fd5b8382346102e357826003193601126102e357610e3461113d565b90336001600160a01b03831603610e5057906104019135611520565b608490602085519162461bcd60e51b8352820152602f60248201527f416363657373436f6e74726f6c3a2063616e206f6e6c792072656e6f756e636560448201526e103937b632b9903337b91039b2b63360891b6064820152fd5b9150346102bb57816003193601126102bb573590610ec761113d565b908284526002602052610edf60018286200154611389565b828452600260209081528185206001600160a01b039093168086529290528084205460ff1615610f0d578380f35b82845260026020528084208285526020528320600160ff1982541617905533917f2f8788117e7eff1d82e926ec794901d17c78024a50270940304540a733656f0d8480a43880808380f35b909150346102bb5760203660031901126102bb5781359183610fbb60018060a01b0394610f8a8660075416331461174d565b610f926117c2565b610f9d811515611781565b600654801561103357610fb4620f424091836115ee565b04906117b5565b93610fc78584546117b5565b83557f00000000000000000000000000000000000000000000000000000000000000001691823b156102e357602485918386519586948593630852cd8d60e31b85528401525af18015610cbe5760209450611024575b5051908152f35b61102d906114b8565b3861101d565b5082906117b5565b8390346102e357816003193601126102e35760209051620f42408152f35b8390346102e357816003193601126102e3576020906102dc6118f4565b9150346102bb5760203660031901126102bb5781602093600192358152600285522001549051908152f35b8390346102e357816003193601126102e3576020906005549051908152f35b8390346102e357816003193601126102e35760075490516001600160a01b039091168152602090f35b925050346102bb5760203660031901126102bb573563ffffffff60e01b81168091036102bb5760209250637965db0b60e01b811490811561112c575b5015158152f35b6301ffc9a760e01b14905038611125565b602435906001600160a01b03821682036103b057565b600435906001600160a01b03821682036103b057565b3360009081527f94141351b80f1704310b66d100f6d2d855bc312ec9444238ab053b30a5b36021602090815260408083205490929190600080516020611b2b8339815191529060ff16156111bd5750505050565b6111c63361163e565b908451906111d3826114e2565b6042825283820194606036873782511561137557603086538251906001918210156113755790607860218501536041915b818311611307575050506112c5578461129360486112b79360449798519889916112848984019876020b1b1b2b9b9a1b7b73a3937b61d1030b1b1b7bab73a1604d1b8a5261125b815180928d603789019101611495565b8401917001034b99036b4b9b9b4b733903937b6329607d1b603784015251809386840190611495565b010360288101895201876114fe565b5194859362461bcd60e51b8552600485015251809281602486015285850190611495565b601f01601f19168101030190fd5b60648386519062461bcd60e51b825280600483015260248201527f537472696e67733a20686578206c656e67746820696e73756666696369656e746044820152fd5b909192600f81166010811015611361576f181899199a1a9b1b9c1cb0b131b232b360811b901a6113378587611617565b5360041c92801561134d57600019019190611204565b634e487b7160e01b82526011600452602482fd5b634e487b7160e01b83526032600452602483fd5b634e487b7160e01b81526032600452602490fd5b6000818152602060028152604092838320338452825260ff8484205416156113b15750505050565b6113ba3361163e565b908451906113c7826114e2565b6042825283820194606036873782511561137557603086538251906001918210156113755790607860218501536041915b81831161144f575050506112c5578461129360486112b79360449798519889916112848984019876020b1b1b2b9b9a1b7b73a3937b61d1030b1b1b7bab73a1604d1b8a5261125b815180928d603789019101611495565b909192600f81166010811015611361576f181899199a1a9b1b9c1cb0b131b232b360811b901a61147f8587611617565b5360041c92801561134d576000190191906113f8565b60005b8381106114a85750506000910152565b8181015183820152602001611498565b67ffffffffffffffff81116114cc57604052565b634e487b7160e01b600052604160045260246000fd5b6080810190811067ffffffffffffffff8211176114cc57604052565b90601f8019910116810190811067ffffffffffffffff8211176114cc57604052565b906000918083526002602052604083209160018060a01b03169182845260205260ff60408420541661155157505050565b8083526002602052604083208284526020526040832060ff1981541690557ff6391f5c32d9c69d2a47ea670b442974b53935d1edc7fd64eb21e047a839171b339380a4565b6000546001600160a01b031633036115aa57565b606460405162461bcd60e51b815260206004820152602060248201527f4f776e61626c653a2063616c6c6572206973206e6f7420746865206f776e65726044820152fd5b8181029291811591840414171561160157565b634e487b7160e01b600052601160045260246000fd5b908151811015611628570160200190565b634e487b7160e01b600052603260045260246000fd5b604051906060820182811067ffffffffffffffff8211176114cc57604052602a82526020820160403682378251156116285760309053815160019081101561162857607860218401536029905b8082116116df57505061169b5790565b606460405162461bcd60e51b815260206004820152602060248201527f537472696e67733a20686578206c656e67746820696e73756666696369656e746044820152fd5b9091600f81166010811015611738576f181899199a1a9b1b9c1cb0b131b232b360811b901a61170e8486611617565b5360041c91801561172357600019019061168b565b60246000634e487b7160e01b81526011600452fd5b60246000634e487b7160e01b81526032600452fd5b1561175457565b60405162461bcd60e51b8152602060048201526005602482015264056413030360dc1b6044820152606490fd5b1561178857565b60405162461bcd60e51b8152602060048201526005602482015264564130303160d81b6044820152606490fd5b9190820391821161160157565b60ff600354166117ce57565b60405162461bcd60e51b815260206004820152601060248201526f14185d5cd8589b194e881c185d5cd95960821b6044820152606490fd5b6040516370a0823160e01b81523060048201526020816024817f00000000000000000000000000000000000000000000000000000000000000006001600160a01b03165afa9081156118e8576000916118b7575b5060045462a4d28d908181029181830414901517156116015764e8d4a51000906402540be40091829104048181029181830414811517156116015764174876e8000290808204600a1490151715611601576118b4916117b5565b90565b906020823d82116118e0575b816118d0602093836114fe565b810103126102555750513861185a565b3d91506118c3565b6040513d6000823e3d90fd5b6040516370a0823160e01b81523060048201526020816024817f00000000000000000000000000000000000000000000000000000000000000006001600160a01b03165afa9081156118e85760009161194b575090565b906020823d8211611971575b81611964602093836114fe565b8101031261025557505190565b3d9150611957565b1561198057565b60405162461bcd60e51b815260206004820152600560248201526415904c0c0d60da1b6044820152606490fd5b604080516370a0823160e01b8082526001600160a01b03858116600484018190526020969395909116929091908686602481875afa958615611b1f57908791600097611aec575b50604460009187519063a9059cbb60e01b825260048201528a602482015282875af13d15601f3d1160016000511416171615611ab657906024869285519485938492835260048301525afa918215611aac5750600091611a7a575b50611a5a92506117b5565b908111611a645790565b634e487b7160e01b600052600160045260246000fd5b919282813d8311611aa5575b611a9081836114fe565b81010312610255575090611a5a915138611a4f565b503d611a86565b513d6000823e3d90fd5b835162461bcd60e51b815260048101879052600f60248201526e1514905394d1915497d19052531151608a1b6044820152606490fd5b9182819892983d8311611b18575b611b0481836114fe565b8101031261025557505194869060446119f4565b503d611afa565b85513d6000823e3d90fdfed1473398bb66596de5d1ea1fc8e303ff2ac23265adc9144b1b52065dc4f0934ba26469706673582212205152404ec0632155bd9701b6a54c9756805c2841d204ba53d32d82cbccd76e8564736f6c63430008110033",
  "linkReferences": {},
  "deployedLinkReferences": {}
}