{
  "_format": "hh-sol-artifact-1",
  "contractName": "VotingEscrow",
  "sourceName": "contracts/VotingEscrow.sol",
  "abi": [
    {
      "inputs": [
        {
          "internalType": "address",
          "name": "_tokenAddr",
          "type": "address"
        },
        {
          "internalType": "address",
          "name": "_permit2Address",
          "type": "address"
        }
      ],
      "stateMutability": "nonpayable",
      "type": "constructor"
    },
    {
      "anonymous": false,
      "inputs": [
        {
          "indexed": true,
          "internalType": "address",
          "name": "provider",
          "type": "address"
        },
        {
          "indexed": true,
          "internalType": "address",
          "name": "beneficiary",
          "type": "address"
        },
        {
          "indexed": false,
          "internalType": "uint256",
          "name": "value",
          "type": "uint256"
        },
        {
          "indexed": false,
          "internalType": "uint256",
          "name": "afterAmount",
          "type": "uint256"
        },
        {
          "indexed": true,
          "internalType": "uint256",
          "name": "locktime",
          "type": "uint256"
        },
        {
          "indexed": false,
          "internalType": "uint256",
          "name": "_type",
          "type": "uint256"
        },
        {
          "indexed": false,
          "internalType": "uint256",
          "name": "ts",
          "type": "uint256"
        }
      ],
      "name": "Deposit",
      "type": "event"
    },
    {
      "anonymous": false,
      "inputs": [
        {
          "indexed": true,
          "internalType": "address",
          "name": "previousOwner",
          "type": "address"
        },
        {
          "indexed": true,
          "internalType": "address",
          "name": "newOwner",
          "type": "address"
        }
      ],
      "name": "OwnershipTransferStarted",
      "type": "event"
    },
    {
      "anonymous": false,
      "inputs": [
        {
          "indexed": true,
          "internalType": "address",
          "name": "previousOwner",
          "type": "address"
        },
        {
          "indexed": true,
          "internalType": "address",
          "name": "newOwner",
          "type": "address"
        }
      ],
      "name": "OwnershipTransferred",
      "type": "event"
    },
    {
      "anonymous": false,
      "inputs": [
        {
          "indexed": false,
          "internalType": "uint256",
          "name": "prevSupply",
          "type": "uint256"
        },
        {
          "indexed": false,
          "internalType": "uint256",
          "name": "supply",
          "type": "uint256"
        }
      ],
      "name": "Supply",
      "type": "event"
    },
    {
      "anonymous": false,
      "inputs": [
        {
          "indexed": true,
          "internalType": "address",
          "name": "provider",
          "type": "address"
        },
        {
          "indexed": false,
          "internalType": "uint256",
          "name": "value",
          "type": "uint256"
        },
        {
          "indexed": false,
          "internalType": "uint256",
          "name": "ts",
          "type": "uint256"
        }
      ],
      "name": "Withdraw",
      "type": "event"
    },
    {
      "inputs": [],
      "name": "BASE_RATE",
      "outputs": [
        {
          "internalType": "int256",
          "name": "",
          "type": "int256"
        }
      ],
      "stateMutability": "view",
      "type": "function"
    },
    {
      "inputs": [],
      "name": "MAXTIME",
      "outputs": [
        {
          "internalType": "uint256",
          "name": "",
          "type": "uint256"
        }
      ],
      "stateMutability": "view",
      "type": "function"
    },
    {
      "inputs": [],
      "name": "MULTIPLIER",
      "outputs": [
        {
          "internalType": "uint256",
          "name": "",
          "type": "uint256"
        }
      ],
      "stateMutability": "view",
      "type": "function"
    },
    {
      "inputs": [],
      "name": "WEEK",
      "outputs": [
        {
          "internalType": "uint256",
          "name": "",
          "type": "uint256"
        }
      ],
      "stateMutability": "view",
      "type": "function"
    },
    {
      "inputs": [],
      "name": "_DAY",
      "outputs": [
        {
          "internalType": "uint256",
          "name": "",
          "type": "uint256"
        }
      ],
      "stateMutability": "view",
      "type": "function"
    },
    {
      "inputs": [],
      "name": "acceptOwnership",
      "outputs": [],
      "stateMutability": "nonpayable",
      "type": "function"
    },
    {
      "inputs": [
        {
          "internalType": "address",
          "name": "_addr",
          "type": "address"
        }
      ],
      "name": "balanceOf",
      "outputs": [
        {
          "internalType": "uint256",
          "name": "",
          "type": "uint256"
        }
      ],
      "stateMutability": "view",
      "type": "function"
    },
    {
      "inputs": [
        {
          "internalType": "address",
          "name": "_addr",
          "type": "address"
        },
        {
          "internalType": "uint256",
          "name": "_block",
          "type": "uint256"
        }
      ],
      "name": "balanceOfAt",
      "outputs": [
        {
          "internalType": "uint256",
          "name": "",
          "type": "uint256"
        }
      ],
      "stateMutability": "view",
      "type": "function"
    },
    {
      "inputs": [
        {
          "internalType": "address",
          "name": "_addr",
          "type": "address"
        },
        {
          "internalType": "uint256",
          "name": "_t",
          "type": "uint256"
        }
      ],
      "name": "balanceOfAtTime",
      "outputs": [
        {
          "internalType": "uint256",
          "name": "",
          "type": "uint256"
        }
      ],
      "stateMutability": "view",
      "type": "function"
    },
    {
      "inputs": [],
      "name": "checkpointSupply",
      "outputs": [],
      "stateMutability": "nonpayable",
      "type": "function"
    },
    {
      "inputs": [
        {
          "internalType": "uint256",
          "name": "_value",
          "type": "uint256"
        },
        {
          "internalType": "uint256",
          "name": "_unlockTime",
          "type": "uint256"
        },
        {
          "internalType": "uint256",
          "name": "nonce",
          "type": "uint256"
        },
        {
          "internalType": "uint256",
          "name": "deadline",
          "type": "uint256"
        },
        {
          "internalType": "bytes",
          "name": "signature",
          "type": "bytes"
        }
      ],
      "name": "createLock",
      "outputs": [],
      "stateMutability": "nonpayable",
      "type": "function"
    },
    {
      "inputs": [
        {
          "internalType": "address",
          "name": "_beneficiary",
          "type": "address"
        },
        {
          "internalType": "uint256",
          "name": "_value",
          "type": "uint256"
        },
        {
          "internalType": "uint256",
          "name": "_unlockTime",
          "type": "uint256"
        },
        {
          "internalType": "uint256",
          "name": "nonce",
          "type": "uint256"
        },
        {
          "internalType": "uint256",
          "name": "deadline",
          "type": "uint256"
        },
        {
          "internalType": "bytes",
          "name": "signature",
          "type": "bytes"
        }
      ],
      "name": "createLockFor",
      "outputs": [],
      "stateMutability": "nonpayable",
      "type": "function"
    },
    {
      "inputs": [],
      "name": "decimals",
      "outputs": [
        {
          "internalType": "uint256",
          "name": "",
          "type": "uint256"
        }
      ],
      "stateMutability": "view",
      "type": "function"
    },
    {
      "inputs": [],
      "name": "epoch",
      "outputs": [
        {
          "internalType": "uint256",
          "name": "",
          "type": "uint256"
        }
      ],
      "stateMutability": "view",
      "type": "function"
    },
    {
      "inputs": [
        {
          "internalType": "address",
          "name": "_addr",
          "type": "address"
        }
      ],
      "name": "getLastUserSlope",
      "outputs": [
        {
          "internalType": "int256",
          "name": "",
          "type": "int256"
        }
      ],
      "stateMutability": "view",
      "type": "function"
    },
    {
      "inputs": [
        {
          "internalType": "uint256",
          "name": "_index",
          "type": "uint256"
        }
      ],
      "name": "getSupplyPointHistory",
      "outputs": [
        {
          "components": [
            {
              "internalType": "int256",
              "name": "bias",
              "type": "int256"
            },
            {
              "internalType": "int256",
              "name": "slope",
              "type": "int256"
            },
            {
              "internalType": "uint256",
              "name": "ts",
              "type": "uint256"
            },
            {
              "internalType": "uint256",
              "name": "blk",
              "type": "uint256"
            }
          ],
          "internalType": "struct IVotingEscrow.Point",
          "name": "",
          "type": "tuple"
        }
      ],
      "stateMutability": "view",
      "type": "function"
    },
    {
      "inputs": [
        {
          "internalType": "address",
          "name": "_user",
          "type": "address"
        }
      ],
      "name": "getUserPointEpoch",
      "outputs": [
        {
          "internalType": "uint256",
          "name": "",
          "type": "uint256"
        }
      ],
      "stateMutability": "view",
      "type": "function"
    },
    {
      "inputs": [
        {
          "internalType": "address",
          "name": "_userAddress",
          "type": "address"
        },
        {
          "internalType": "uint256",
          "name": "_index",
          "type": "uint256"
        }
      ],
      "name": "getUserPointHistory",
      "outputs": [
        {
          "components": [
            {
              "internalType": "int256",
              "name": "bias",
              "type": "int256"
            },
            {
              "internalType": "int256",
              "name": "slope",
              "type": "int256"
            },
            {
              "internalType": "uint256",
              "name": "ts",
              "type": "uint256"
            },
            {
              "internalType": "uint256",
              "name": "blk",
              "type": "uint256"
            }
          ],
          "internalType": "struct IVotingEscrow.Point",
          "name": "",
          "type": "tuple"
        }
      ],
      "stateMutability": "view",
      "type": "function"
    },
    {
      "inputs": [
        {
          "internalType": "uint256",
          "name": "_value",
          "type": "uint256"
        },
        {
          "internalType": "uint256",
          "name": "nonce",
          "type": "uint256"
        },
        {
          "internalType": "uint256",
          "name": "deadline",
          "type": "uint256"
        },
        {
          "internalType": "bytes",
          "name": "signature",
          "type": "bytes"
        }
      ],
      "name": "increaseAmount",
      "outputs": [],
      "stateMutability": "nonpayable",
      "type": "function"
    },
    {
      "inputs": [
        {
          "internalType": "address",
          "name": "_beneficiary",
          "type": "address"
        },
        {
          "internalType": "uint256",
          "name": "_value",
          "type": "uint256"
        },
        {
          "internalType": "uint256",
          "name": "nonce",
          "type": "uint256"
        },
        {
          "internalType": "uint256",
          "name": "deadline",
          "type": "uint256"
        },
        {
          "internalType": "bytes",
          "name": "signature",
          "type": "bytes"
        }
      ],
      "name": "increaseAmountFor",
      "outputs": [],
      "stateMutability": "nonpayable",
      "type": "function"
    },
    {
      "inputs": [
        {
          "internalType": "uint256",
          "name": "_unlockTime",
          "type": "uint256"
        }
      ],
      "name": "increaseUnlockTime",
      "outputs": [],
      "stateMutability": "nonpayable",
      "type": "function"
    },
    {
      "inputs": [
        {
          "internalType": "address",
          "name": "",
          "type": "address"
        }
      ],
      "name": "locked",
      "outputs": [
        {
          "internalType": "int256",
          "name": "amount",
          "type": "int256"
        },
        {
          "internalType": "uint256",
          "name": "end",
          "type": "uint256"
        }
      ],
      "stateMutability": "view",
      "type": "function"
    },
    {
      "inputs": [
        {
          "internalType": "address",
          "name": "_addr",
          "type": "address"
        }
      ],
      "name": "lockedEnd",
      "outputs": [
        {
          "internalType": "uint256",
          "name": "",
          "type": "uint256"
        }
      ],
      "stateMutability": "view",
      "type": "function"
    },
    {
      "inputs": [],
      "name": "name",
      "outputs": [
        {
          "internalType": "string",
          "name": "",
          "type": "string"
        }
      ],
      "stateMutability": "view",
      "type": "function"
    },
    {
      "inputs": [],
      "name": "owner",
      "outputs": [
        {
          "internalType": "address",
          "name": "",
          "type": "address"
        }
      ],
      "stateMutability": "view",
      "type": "function"
    },
    {
      "inputs": [],
      "name": "pendingOwner",
      "outputs": [
        {
          "internalType": "address",
          "name": "",
          "type": "address"
        }
      ],
      "stateMutability": "view",
      "type": "function"
    },
    {
      "inputs": [],
      "name": "permit2Address",
      "outputs": [
        {
          "internalType": "address",
          "name": "",
          "type": "address"
        }
      ],
      "stateMutability": "view",
      "type": "function"
    },
    {
      "inputs": [],
      "name": "renounceOwnership",
      "outputs": [],
      "stateMutability": "nonpayable",
      "type": "function"
    },
    {
      "inputs": [
        {
          "internalType": "uint256",
          "name": "",
          "type": "uint256"
        }
      ],
      "name": "slopeChanges",
      "outputs": [
        {
          "internalType": "int256",
          "name": "",
          "type": "int256"
        }
      ],
      "stateMutability": "view",
      "type": "function"
    },
    {
      "inputs": [],
      "name": "supply",
      "outputs": [
        {
          "internalType": "uint256",
          "name": "",
          "type": "uint256"
        }
      ],
      "stateMutability": "view",
      "type": "function"
    },
    {
      "inputs": [
        {
          "internalType": "uint256",
          "name": "",
          "type": "uint256"
        }
      ],
      "name": "supplyPointHistory",
      "outputs": [
        {
          "internalType": "int256",
          "name": "bias",
          "type": "int256"
        },
        {
          "internalType": "int256",
          "name": "slope",
          "type": "int256"
        },
        {
          "internalType": "uint256",
          "name": "ts",
          "type": "uint256"
        },
        {
          "internalType": "uint256",
          "name": "blk",
          "type": "uint256"
        }
      ],
      "stateMutability": "view",
      "type": "function"
    },
    {
      "inputs": [],
      "name": "symbol",
      "outputs": [
        {
          "internalType": "string",
          "name": "",
          "type": "string"
        }
      ],
      "stateMutability": "view",
      "type": "function"
    },
    {
      "inputs": [],
      "name": "token",
      "outputs": [
        {
          "internalType": "address",
          "name": "",
          "type": "address"
        }
      ],
      "stateMutability": "view",
      "type": "function"
    },
    {
      "inputs": [],
      "name": "totalSupply",
      "outputs": [
        {
          "internalType": "uint256",
          "name": "",
          "type": "uint256"
        }
      ],
      "stateMutability": "view",
      "type": "function"
    },
    {
      "inputs": [
        {
          "internalType": "uint256",
          "name": "_block",
          "type": "uint256"
        }
      ],
      "name": "totalSupplyAt",
      "outputs": [
        {
          "internalType": "uint256",
          "name": "",
          "type": "uint256"
        }
      ],
      "stateMutability": "view",
      "type": "function"
    },
    {
      "inputs": [
        {
          "internalType": "uint256",
          "name": "_t",
          "type": "uint256"
        }
      ],
      "name": "totalSupplyAtTime",
      "outputs": [
        {
          "internalType": "uint256",
          "name": "",
          "type": "uint256"
        }
      ],
      "stateMutability": "view",
      "type": "function"
    },
    {
      "inputs": [
        {
          "internalType": "address",
          "name": "newOwner",
          "type": "address"
        }
      ],
      "name": "transferOwnership",
      "outputs": [],
      "stateMutability": "nonpayable",
      "type": "function"
    },
    {
      "inputs": [
        {
          "internalType": "address",
          "name": "",
          "type": "address"
        }
      ],
      "name": "userPointEpoch",
      "outputs": [
        {
          "internalType": "uint256",
          "name": "",
          "type": "uint256"
        }
      ],
      "stateMutability": "view",
      "type": "function"
    },
    {
      "inputs": [
        {
          "internalType": "address",
          "name": "",
          "type": "address"
        },
        {
          "internalType": "uint256",
          "name": "",
          "type": "uint256"
        }
      ],
      "name": "userPointHistory",
      "outputs": [
        {
          "internalType": "int256",
          "name": "bias",
          "type": "int256"
        },
        {
          "internalType": "int256",
          "name": "slope",
          "type": "int256"
        },
        {
          "internalType": "uint256",
          "name": "ts",
          "type": "uint256"
        },
        {
          "internalType": "uint256",
          "name": "blk",
          "type": "uint256"
        }
      ],
      "stateMutability": "view",
      "type": "function"
    },
    {
      "inputs": [
        {
          "internalType": "address",
          "name": "_addr",
          "type": "address"
        },
        {
          "internalType": "uint256",
          "name": "_idx",
          "type": "uint256"
        }
      ],
      "name": "userPointHistoryTs",
      "outputs": [
        {
          "internalType": "uint256",
          "name": "",
          "type": "uint256"
        }
      ],
      "stateMutability": "view",
      "type": "function"
    },
    {
      "inputs": [],
      "name": "withdraw",
      "outputs": [],
      "stateMutability": "nonpayable",
      "type": "function"
    }
  ],
  "bytecode": "0x60806040523480156200001157600080fd5b5060405162002d6138038062002d618339810160408190526200003491620002de565b6001600055620000443362000245565b6001600160a01b038116620000875760405162461bcd60e51b8152602060048201526005602482015264043453030360dc1b604482015260640160405180910390fd5b600380546001600160a01b038085166001600160a01b03199283168117909355600480549185169190921617815560408051608081018252600080825260208083018281524284860190815243606086019081528480526008845294517f5eff886ea0ce6ca488a3d6e336d6c0f75f46d19b42c06ce5ee98e42c96d256c75590517f5eff886ea0ce6ca488a3d6e336d6c0f75f46d19b42c06ce5ee98e42c96d256c855517f5eff886ea0ce6ca488a3d6e336d6c0f75f46d19b42c06ce5ee98e42c96d256c95591517f5eff886ea0ce6ca488a3d6e336d6c0f75f46d19b42c06ce5ee98e42c96d256ca55825163313ce56760e01b8152925190949363313ce56793808201939291908290030181865afa158015620001a9573d6000803e3d6000fd5b505050506040513d601f19601f82011682018060405250810190620001cf919062000316565b60ff16600e81905560408051808201909152601081526f159bdd194b595cd8dc9bddd95908131560821b6020820152909150600c90620002109082620003e7565b506040805180820190915260048152631d99531560e21b6020820152600d906200023b9082620003e7565b50505050620004b3565b600280546001600160a01b03191690556200026c816200026f602090811b6200138117901c565b50565b600180546001600160a01b038381166001600160a01b0319831681179093556040519116919082907f8be0079c531659141344cd1fd0a4f28419497f9722a3daafe3b4186f6b6457e090600090a35050565b80516001600160a01b0381168114620002d957600080fd5b919050565b60008060408385031215620002f257600080fd5b620002fd83620002c1565b91506200030d60208401620002c1565b90509250929050565b6000602082840312156200032957600080fd5b815160ff811681146200033b57600080fd5b9392505050565b634e487b7160e01b600052604160045260246000fd5b600181811c908216806200036d57607f821691505b6020821081036200038e57634e487b7160e01b600052602260045260246000fd5b50919050565b601f821115620003e257600081815260208120601f850160051c81016020861015620003bd5750805b601f850160051c820191505b81811015620003de57828155600101620003c9565b5050505b505050565b81516001600160401b0381111562000403576200040362000342565b6200041b8162000414845462000358565b8462000394565b602080601f8311600181146200045357600084156200043a5750858301515b600019600386901b1c1916600185901b178555620003de565b600085815260208120601f198616915b82811015620004845788860151825594840194600190910190840162000463565b5085821015620004a35787850151600019600388901b60f8161c191681555b5050505050600190811b01905550565b61289e80620004c36000396000f3fe608060405234801561001057600080fd5b50600436106102525760003560e01c806381fc83bb11610146578063cbf9fe5f116100c3578063ee00ef3a11610087578063ee00ef3a146105cd578063f2fde38b146105d5578063f3a6d608146105e8578063f4359ce514610627578063f52a36f71461062f578063fc0c546a1461064f57600080fd5b8063cbf9fe5f14610521578063d2dcd9331461055d578063db28696814610570578063e30c397814610583578063eac6a6671461059457600080fd5b8063934911571161010a57806393491157146104cd57806395d89b41146104e0578063981b24d0146104e8578063ab6fd71c146104fb578063c52249831461050e57600080fd5b806381fc83bb1461044357806387ac297e146104635780638c71e5d1146104765780638da5cb5b1461049f578063900cf0cf146104c457600080fd5b80633ccfd60b116101d457806370a082311161019857806370a0823114610405578063715018a61461041857806379ba5097146104205780637b7933b4146104285780637c616fe61461043057600080fd5b80633ccfd60b146103a057806341910f90146103aa5780634deafcae146103b35780634ee2cd7e146103df578063643dafde146103f257600080fd5b80633037408d1161021b5780633037408d146102a9578063313ce567146102bc57806331a8bbce146102c557806334d901a41461031a57806335878d881461035a57600080fd5b80625c9be114610257578063047fc9aa14610274578063059f8b161461027d57806306fdde031461028c57806318160ddd146102a1575b600080fd5b6102616201518081565b6040519081526020015b60405180910390f35b61026160055481565b610261670de0b6b3a764000081565b610294610662565b60405161026b9190612363565b6102616106f0565b6102616102b7366004612399565b610745565b610261600e5481565b6102fa6102d33660046123c3565b60086020526000908152604090208054600182015460028301546003909301549192909184565b60408051948552602085019390935291830152606082015260800161026b565b6102fa610328366004612399565b600960209081526000928352604080842090915290825290208054600182015460028301546003909301549192909184565b61036d6103683660046123c3565b6107f7565b60405161026b91908151815260208083015190820152604080830151908201526060918201519181019190915260800190565b6103a8610867565b005b61026161271081565b6102616103c13660046123dc565b6001600160a01b031660009081526006602052604090206001015490565b6102616103ed366004612399565b6109da565b61036d610400366004612399565b610cff565b6102616104133660046123dc565b610d84565b6103a8610e20565b6103a8610e32565b6103a8610eac565b6103a861043e3660046123c3565b610ee4565b6102616104513660046123dc565b600a6020526000908152604090205481565b6103a861047136600461249a565b611072565b6102616104843660046123dc565b6001600160a01b03166000908152600a602052604090205490565b6001546001600160a01b03165b6040516001600160a01b03909116815260200161026b565b61026160075481565b6103a86104db3660046124f4565b611085565b6102946110a3565b6102616104f63660046123c3565b6110b0565b6103a8610509366004612567565b61126a565b6004546104ac906001600160a01b031681565b61054861052f3660046123dc565b6006602052600090815260409020805460019091015482565b6040805192835260208301919091520161026b565b61026161056b3660046123c3565b61127f565b6103a861057e3660046125cb565b6112e3565b6002546001600160a01b03166104ac565b6102616105a2366004612399565b6001600160a01b03919091166000908152600960209081526040808320938352929052206002015490565b6102616112f0565b6103a86105e33660046123dc565b611302565b6102616105f63660046123dc565b6001600160a01b03166000908152600a60209081526040808320546009835281842090845290915290206001015490565b610261611373565b61026161063d3660046123c3565b600b6020526000908152604090205481565b6003546104ac906001600160a01b031681565b600c805461066f9061261d565b80601f016020809104026020016040519081016040528092919081815260200182805461069b9061261d565b80156106e85780601f106106bd576101008083540402835291602001916106e8565b820191906000526020600020905b8154815290600101906020018083116106cb57829003601f168201915b505050505081565b600754600081815260086020908152604080832081516080810183528154815260018201549381019390935260028101549183019190915260030154606082015290919061073e81426113d3565b9250505090565b600081600003610753574291505b6001600160a01b0383166000908152600a60205260408120549081900361077e5760009150506107f1565b6001600160a01b0384166000908152600960209081526040808320848452825280832081516080810183528154600183015494820185905260028301549382018490526003909201546060820152918703909202909103808252909113156107e557600081525b5191506107f19050565b505b92915050565b6108226040518060800160405280600081526020016000815260200160008152602001600081525090565b50600090815260086020908152604091829020825160808101845281548152600182015492810192909252600281015492820192909252600390910154606082015290565b61086f6114c0565b604080518082018252336000818152600660208181529482208054855292909152835260010154918101829052904210156108d95760405162461bcd60e51b8152602060048201526005602482015264056453031360dc1b60448201526064015b60405180910390fd5b8051604080518082018252336000818152600660208181529482208054855260018101805487870152868901848152848a52949093529452855190935551909155600554610927838261266d565b600555610935338386611519565b60035461094c906001600160a01b03163385611b0b565b6040805184815242602082015233917ff279e6a1f5e320cca91135676d9cb6e44ca8a08c0b88342bcdb1144f6511b568910160405180910390a27f5e2aa66efd74cce82b21852e317e5490d9ecc9e6bb953ae24d90851258cc2f5c816109b2858261266d565b6040805192835260208301919091520160405180910390a1505050506109d86001600055565b565b600043821115610a145760405162461bcd60e51b8152602060048201526005602482015264564530313160d81b60448201526064016108d0565b610a466040518060a0016040528060008152602001600081526020016000815260200160008152602001600081525090565b60008082526001600160a01b0385168152600a60209081526040822054908301525b60808111610b0657602082015182511015610b06576000600283602001518460000151610a959190612680565b610aa0906001612680565b610aaa91906126a9565b6001600160a01b03871660009081526009602090815260408083208484529091529020600301549091508510610ae257808352610af3565b610aed60018261266d565b60208401525b5080610afe816126bd565b915050610a68565b506001600160a01b0384166000908152600960209081526040808320845184528252808320815160808101835281548152600182015493810193909352600281015483830152600301546060830152600754908401819052909190610b6c908690611bfc565b6000818152600860209081526040808320815160808082018452825482526001830154948201949094526002820154818401526003909101546060808301919091528801849052918701929092529085015191925090821015610c54576000600881610bd9856001612680565b8152602001908152602001600020604051806080016040529081600082015481526020016001820154815260200160028201548152602001600382015481525050905081606001518160600151610c30919061266d565b606086015260408083015190820151610c49919061266d565b608086015250610c7d565b6060810151610c63904361266d565b60608501526040810151610c77904261266d565b60808501525b6040810151606085015115610cc7578460600151826060015188610ca1919061266d565b8660800151610cb091906126d6565b610cba91906126a9565b610cc49082612680565b90505b604084015160208501518551918303029003808552600013610cf1575050905192506107f1915050565b6000955050505050506107f1565b610d2a6040518060800160405280600081526020016000815260200160008152602001600081525090565b506001600160a01b0382166000908152600960209081526040808320848452825291829020825160808101845281548152600182015492810192909252600281015492820192909252600390910154606082015292915050565b6001600160a01b0381166000908152600a60205260408120544290808303610db0575060009392505050565b6001600160a01b038416600090815260096020908152604080832084845282528083208151608081018352815460018301549482018590526002830154938201849052600390920154606082015291860390920290910380825290911315610e1757600081525b51949350505050565b610e28611c83565b6109d86000611cdd565b60025433906001600160a01b03168114610ea05760405162461bcd60e51b815260206004820152602960248201527f4f776e61626c6532537465703a2063616c6c6572206973206e6f7420746865206044820152683732bb9037bbb732b960b91b60648201526084016108d0565b610ea981611cdd565b50565b60408051808201909152600080825260208201526040805180820190915260008082526020820152610ee060008383611519565b5050565b610eec6114c0565b336000908152600660209081526040918290208251808401909352805483526001015490820152610f216201518060076126d6565b610f2f6201518060076126d6565b610f3990846126a9565b610f4391906126d6565b915042816020015111610f805760405162461bcd60e51b81526020600482015260056024820152642b2298181b60d91b60448201526064016108d0565b8051600012610fb95760405162461bcd60e51b8152602060048201526005602482015264564530303760d81b60448201526064016108d0565b80602001518211610ff45760405162461bcd60e51b81526020600482015260056024820152640ac8a6060760db1b60448201526064016108d0565b611003620151806105b46126d6565b61100d9042612680565b8211156110445760405162461bcd60e51b8152602060048201526005602482015264564530303960d81b60448201526064016108d0565b611067333360008585600360008060405180602001604052806000815250611cf6565b50610ea96001600055565b61107f3385858585611e5b565b50505050565b61108d611c83565b61109b868686868686611f5a565b505050505050565b600d805461066f9061261d565b6000438211156110ea5760405162461bcd60e51b8152602060048201526005602482015264564530313160d81b60448201526064016108d0565b60075460006110f98483611bfc565b6000818152600860209081526040808320815160808101835281548152600182015493810193909352600281015491830191909152600301546060820152919250838310156111f8576000600881611152866001612680565b8152602001908152602001600020604051806080016040529081600082015481526020016001820154815260200160028201548152602001600382015481525050905080606001518360600151146111f257826060015181606001516111b8919061266d565b836040015182604001516111cc919061266d565b60608501516111db908a61266d565b6111e591906126d6565b6111ef91906126a9565b91505b50611247565b43826060015114611247576060820151611212904361266d565b6040830151611221904261266d565b6060840151611230908961266d565b61123a91906126d6565b61124491906126a9565b90505b6112608282846040015161125b9190612680565b6113d3565b9695505050505050565b611278338686868686611f5a565b5050505050565b60008160000361128d574291505b60075460008181526008602090815260409182902082516080810184528154815260018201549281019290925260028101549282019290925260039091015460608201526112db81856113d3565b949350505050565b6112788585858585611e5b565b6112ff620151806105b46126d6565b81565b61130a611c83565b600280546001600160a01b0383166001600160a01b0319909116811790915561133b6001546001600160a01b031690565b6001600160a01b03167f38d16b8cac22d99fc7c124b9cd0de2d3fa1faef420bfe791d8c362d765e2270060405160405180910390a350565b6112ff6201518060076126d6565b600180546001600160a01b038381166001600160a01b0319831681179093556040519116919082907f8be0079c531659141344cd1fd0a4f28419497f9722a3daafe3b4186f6b6457e090600090a35050565b600082816113e56201518060076126d6565b6113f36201518060076126d6565b836040015161140291906126a9565b61140c91906126d6565b905060005b60ff8110156114a7576114286201518060076126d6565b6114329083612680565b915060008583111561144657859250611457565b506000828152600b60205260409020545b604084015160208501518551918503029003845285830361147857506114a7565b808460200181815161148a91906126ed565b90525050604083018290528061149f816126bd565b915050611411565b508151600013156114b757600082525b50519392505050565b6002600054036115125760405162461bcd60e51b815260206004820152601f60248201527f5265656e7472616e637947756172643a207265656e7472616e742063616c6c0060448201526064016108d0565b6002600055565b61152161229c565b60075460808201526001600160a01b038416156116765742836020015111801561154c575082516000125b156115a657611560620151806105b46126d6565b835161156f9061271090612715565b6115799190612715565b815160209081019190915283015161159290429061266d565b8151602001516115a29190612743565b8151525b4282602001511180156115ba575081516000125b1561161b576115ce620151806105b46126d6565b82516115dd9061271090612715565b6115e79190612715565b60208083015181019190915282015161160190429061266d565b8160200151602001516116149190612743565b6020820151525b6020808401516000908152600b825260409081902054908301528201511561167657826020015182602001510361165b5760408101516060820152611676565b6020808301516000908152600b909152604090205460608201525b604080516080808201835260008083526020830152429282019290925243606082015290820151156116ef57600860008360800151815260200190815260200160002060405180608001604052908160008201548152602001600182015481526020016002820154815260200160038201548152505090505b6040810151606082015181600042821015611741576040850151611713904261266d565b6060860151611722904361266d565b61173490670de0b6b3a76400006126d6565b61173e91906126a9565b90505b60006117516201518060076126d6565b61175f6201518060076126d6565b61176990876126a9565b61177391906126d6565b905060005b60ff8110156118d85761178f6201518060076126d6565b6117999083612680565b91506000428311156117ad574292506117be565b506000828152600b60205260409020545b6117c8878461266d565b88602001516117d79190612743565b88516117e39190612773565b88526020880180518291906117f99083906126ed565b90525087516000131561180b57600088525b60008860200151121561182057600060208901525b604088018390529195508591670de0b6b3a764000061183f868561266d565b61184990866126d6565b61185391906126a9565b61185d9087612680565b606089015260808901805160019190611877908390612680565b90525042830361188d57504360608801526118d8565b60808901516000908152600860209081526040918290208a518155908a01516001820155908901516002820155606089015160039091015550806118d0816126bd565b915050611778565b5060808701516007556001600160a01b038a16156119695786600001516020015187602001516020015161190c9190612773565b8660200181815161191d91906126ed565b9052508651516020880151516119339190612773565b865187906119429083906126ed565b90525060208601516000131561195a57600060208701525b85516000131561196957600086525b60808701516000908152600860209081526040918290208851815590880151600182015590870151600282015560608701516003909101556001600160a01b038a1615611aff574289602001511115611a1f578651602001516040880180516119d39083906126ed565b9052506020808a01519089015103611a0357866020015160200151876040018181516119ff9190612773565b9052505b6040808801516020808c01516000908152600b90915291909120555b4288602001511115611a7357886020015188602001511115611a735786602001516020015187606001818151611a559190612773565b90525060608701516020808a01516000908152600b90915260409020555b6001600160a01b038a166000908152600a6020526040812054611a97906001612680565b6001600160a01b038c166000818152600a602090815260408083208590558c8201805142908301528051436060918201529051948452600983528184209584529482529182902083518155908301516001820155908201516002820155910151600390910155505b50505050505050505050565b60405163a9059cbb60e01b81526001600160a01b0383811660048301526024820183905284919082169063a9059cbb906044016020604051808303816000875af1158015611b5d573d6000803e3d6000fd5b505050506040513d601f19601f82011682018060405250810190611b819190612793565b5060003d8015611b985760208114611ba257600080fd5b6000199150611bae565b60206000803e60005191505b50806112785760405162461bcd60e51b815260206004820152601960248201527f544f4b454e5f5452414e534645525f4f55545f4641494c45440000000000000060448201526064016108d0565b60008082815b60808111611c795781831015611c795760006002611c208486612680565b611c2b906001612680565b611c3591906126a9565b6000818152600860205260409020600301549091508710611c5857809350611c66565b611c6360018261266d565b92505b5080611c71816126bd565b915050611c02565b5090949350505050565b6001546001600160a01b031633146109d85760405162461bcd60e51b815260206004820181905260248201527f4f776e61626c653a2063616c6c6572206973206e6f7420746865206f776e657260448201526064016108d0565b600280546001600160a01b0319169055610ea981611381565b6040805180820182528651815260208088018051828401528351808501909452885184525190830152600554909190611d2f8a82612680565b6005558251611d3f908b906126ed565b83528815611d4f57602083018990525b6001600160a01b038b1660009081526006602090815260409091208451815590840151600190910155611d838b8385611519565b8915611daa57600454600354611daa916001600160a01b0390811691168c8f8a8a8a6120d5565b6020808401518451604080518e8152938401919091528201899052426060830152906001600160a01b03808e1691908f16907f193fa1e51a172de243b75f244207219f0fc534504ae9142df54912cc47f5838e9060800160405180910390a47f5e2aa66efd74cce82b21852e317e5490d9ecc9e6bb953ae24d90851258cc2f5c81611e358c82612680565b6040805192835260208301919091520160405180910390a1505050505050505050505050565b611e636114c0565b6001600160a01b038516600090815260066020908152604091829020825180840190935280548352600101549082015284611ec85760405162461bcd60e51b8152602060048201526005602482015264056453030360dc1b60448201526064016108d0565b8051600012611f015760405162461bcd60e51b815260206004820152600560248201526415914c0c0d60da1b60448201526064016108d0565b42816020015111611f3c5760405162461bcd60e51b8152602060048201526005602482015264564530303560d81b60448201526064016108d0565b611f4f33878760008560028a8a8a611cf6565b506112786001600055565b611f626114c0565b611f706201518060076126d6565b611f7e6201518060076126d6565b611f8890866126a9565b611f9291906126d6565b6001600160a01b038716600090815260066020908152604091829020825180840190935280548352600101549082015290945085611ffa5760405162461bcd60e51b8152602060048201526005602482015264056453030360dc1b60448201526064016108d0565b8051156120315760405162461bcd60e51b8152602060048201526005602482015264564530303160d81b60448201526064016108d0565b4285116120685760405162461bcd60e51b81526020600482015260056024820152642b2298181960d91b60448201526064016108d0565b612077620151806105b46126d6565b6120819042612680565b8511156120b85760405162461bcd60e51b8152602060048201526005602482015264564530303360d81b60448201526064016108d0565b6120ca338888888560018a8a8a611cf6565b5061109b6001600055565b6040805160a0810182526001600160a01b0388166060820190815260808201889052815260208082018690528183018590528251808401909352308352820187905290611aff898784848782515182516040516370a0823160e01b81526001600160a01b039182166004820152600092918391908316906370a0823190602401602060405180830381865afa158015612172573d6000803e3d6000fd5b505050506040513d601f19601f8201168201806040525081019061219691906127b5565b60405163187945bd60e11b81529091506001600160a01b038916906330f28b7a906121cb90899089908c908a906004016127ce565b600060405180830381600087803b1580156121e557600080fd5b505af11580156121f9573d6000803e3d6000fd5b50508751516040516370a0823160e01b8152306004820152600093506001600160a01b0390911691506370a0823190602401602060405180830381865afa158015612248573d6000803e3d6000fd5b505050506040513d601f19601f8201168201806040525081019061226c91906127b5565b9050600061227a838361266d565b90508660200151811461228f5761228f612852565b9998505050505050505050565b6040518060a001604052806122d26040518060800160405280600081526020016000815260200160008152602001600081525090565b81526020016123026040518060800160405280600081526020016000815260200160008152602001600081525090565b81526020016000815260200160008152602001600081525090565b6000815180845260005b8181101561234357602081850181015186830182015201612327565b506000602082860101526020601f19601f83011685010191505092915050565b602081526000612376602083018461231d565b9392505050565b80356001600160a01b038116811461239457600080fd5b919050565b600080604083850312156123ac57600080fd5b6123b58361237d565b946020939093013593505050565b6000602082840312156123d557600080fd5b5035919050565b6000602082840312156123ee57600080fd5b6123768261237d565b634e487b7160e01b600052604160045260246000fd5b600082601f83011261241e57600080fd5b813567ffffffffffffffff80821115612439576124396123f7565b604051601f8301601f19908116603f01168101908282118183101715612461576124616123f7565b8160405283815286602085880101111561247a57600080fd5b836020870160208301376000602085830101528094505050505092915050565b600080600080608085870312156124b057600080fd5b843593506020850135925060408501359150606085013567ffffffffffffffff8111156124dc57600080fd5b6124e88782880161240d565b91505092959194509250565b60008060008060008060c0878903121561250d57600080fd5b6125168761237d565b95506020870135945060408701359350606087013592506080870135915060a087013567ffffffffffffffff81111561254e57600080fd5b61255a89828a0161240d565b9150509295509295509295565b600080600080600060a0868803121561257f57600080fd5b85359450602086013593506040860135925060608601359150608086013567ffffffffffffffff8111156125b257600080fd5b6125be8882890161240d565b9150509295509295909350565b600080600080600060a086880312156125e357600080fd5b6125ec8661237d565b9450602086013593506040860135925060608601359150608086013567ffffffffffffffff8111156125b257600080fd5b600181811c9082168061263157607f821691505b60208210810361265157634e487b7160e01b600052602260045260246000fd5b50919050565b634e487b7160e01b600052601160045260246000fd5b818103818111156107f1576107f1612657565b808201808211156107f1576107f1612657565b634e487b7160e01b600052601260045260246000fd5b6000826126b8576126b8612693565b500490565b6000600182016126cf576126cf612657565b5060010190565b80820281158282048414176107f1576107f1612657565b808201828112600083128015821682158216171561270d5761270d612657565b505092915050565b60008261272457612724612693565b600160ff1b82146000198414161561273e5761273e612657565b500590565b80820260008212600160ff1b8414161561275f5761275f612657565b81810583148215176107f1576107f1612657565b81810360008312801583831316838312821617156107ef576107ef612657565b6000602082840312156127a557600080fd5b8151801515811461237657600080fd5b6000602082840312156127c757600080fd5b5051919050565b60006101006127f183885180516001600160a01b03168252602090810151910152565b6020870151604084015260408701516060840152612825608084018780516001600160a01b03168252602090810151910152565b6001600160a01b03851660c084015260e083018190526128478184018561231d565b979650505050505050565b634e487b7160e01b600052600160045260246000fdfea2646970667358221220476f8000e16438a035518ca047132c57bb6fdd418406049003fc07af8444944a64736f6c63430008110033",
  "linkReferences": {},
  "deployedLinkReferences": {}
}