{
  "_format": "hh-sol-artifact-1",
  "contractName": "MintableERC20",
  "sourceName": "contracts/mock/test-helpers/MintableERC20.sol",
  "abi": [
    {
      "inputs": [
        {
          "internalType": "string",
          "name": "name",
          "type": "string"
        },
        {
          "internalType": "string",
          "name": "symbol",
          "type": "string"
        },
        {
          "internalType": "uint8",
          "name": "decimals_",
          "type": "uint8"
        },
        {
          "internalType": "address",
          "name": "faucet",
          "type": "address"
        }
      ],
      "stateMutability": "nonpayable",
      "type": "constructor"
    },
    {
      "anonymous": false,
      "inputs": [
        {
          "indexed": true,
          "internalType": "address",
          "name": "owner",
          "type": "address"
        },
        {
          "indexed": true,
          "internalType": "address",
          "name": "spender",
          "type": "address"
        },
        {
          "indexed": false,
          "internalType": "uint256",
          "name": "value",
          "type": "uint256"
        }
      ],
      "name": "Approval",
      "type": "event"
    },
    {
      "anonymous": false,
      "inputs": [
        {
          "indexed": true,
          "internalType": "address",
          "name": "previousOwner",
          "type": "address"
        },
        {
          "indexed": true,
          "internalType": "address",
          "name": "newOwner",
          "type": "address"
        }
      ],
      "name": "OwnershipTransferStarted",
      "type": "event"
    },
    {
      "anonymous": false,
      "inputs": [
        {
          "indexed": true,
          "internalType": "address",
          "name": "previousOwner",
          "type": "address"
        },
        {
          "indexed": true,
          "internalType": "address",
          "name": "newOwner",
          "type": "address"
        }
      ],
      "name": "OwnershipTransferred",
      "type": "event"
    },
    {
      "anonymous": false,
      "inputs": [
        {
          "indexed": true,
          "internalType": "bytes32",
          "name": "role",
          "type": "bytes32"
        },
        {
          "indexed": true,
          "internalType": "bytes32",
          "name": "previousAdminRole",
          "type": "bytes32"
        },
        {
          "indexed": true,
          "internalType": "bytes32",
          "name": "newAdminRole",
          "type": "bytes32"
        }
      ],
      "name": "RoleAdminChanged",
      "type": "event"
    },
    {
      "anonymous": false,
      "inputs": [
        {
          "indexed": true,
          "internalType": "bytes32",
          "name": "role",
          "type": "bytes32"
        },
        {
          "indexed": true,
          "internalType": "address",
          "name": "account",
          "type": "address"
        },
        {
          "indexed": true,
          "internalType": "address",
          "name": "sender",
          "type": "address"
        }
      ],
      "name": "RoleGranted",
      "type": "event"
    },
    {
      "anonymous": false,
      "inputs": [
        {
          "indexed": true,
          "internalType": "bytes32",
          "name": "role",
          "type": "bytes32"
        },
        {
          "indexed": true,
          "internalType": "address",
          "name": "account",
          "type": "address"
        },
        {
          "indexed": true,
          "internalType": "address",
          "name": "sender",
          "type": "address"
        }
      ],
      "name": "RoleRevoked",
      "type": "event"
    },
    {
      "anonymous": false,
      "inputs": [
        {
          "indexed": true,
          "internalType": "address",
          "name": "from",
          "type": "address"
        },
        {
          "indexed": true,
          "internalType": "address",
          "name": "to",
          "type": "address"
        },
        {
          "indexed": false,
          "internalType": "uint256",
          "name": "value",
          "type": "uint256"
        }
      ],
      "name": "Transfer",
      "type": "event"
    },
    {
      "inputs": [],
      "name": "DEFAULT_ADMIN_ROLE",
      "outputs": [
        {
          "internalType": "bytes32",
          "name": "",
          "type": "bytes32"
        }
      ],
      "stateMutability": "view",
      "type": "function"
    },
    {
      "inputs": [],
      "name": "DOMAIN_SEPARATOR",
      "outputs": [
        {
          "internalType": "bytes32",
          "name": "",
          "type": "bytes32"
        }
      ],
      "stateMutability": "view",
      "type": "function"
    },
    {
      "inputs": [],
      "name": "EIP712_REVISION",
      "outputs": [
        {
          "internalType": "bytes",
          "name": "",
          "type": "bytes"
        }
      ],
      "stateMutability": "view",
      "type": "function"
    },
    {
      "inputs": [],
      "name": "MINTER_ROLE",
      "outputs": [
        {
          "internalType": "bytes32",
          "name": "",
          "type": "bytes32"
        }
      ],
      "stateMutability": "view",
      "type": "function"
    },
    {
      "inputs": [],
      "name": "PERMIT_TYPEHASH",
      "outputs": [
        {
          "internalType": "bytes32",
          "name": "",
          "type": "bytes32"
        }
      ],
      "stateMutability": "view",
      "type": "function"
    },
    {
      "inputs": [],
      "name": "acceptOwnership",
      "outputs": [],
      "stateMutability": "nonpayable",
      "type": "function"
    },
    {
      "inputs": [
        {
          "internalType": "address",
          "name": "_minter",
          "type": "address"
        }
      ],
      "name": "addMinter",
      "outputs": [],
      "stateMutability": "nonpayable",
      "type": "function"
    },
    {
      "inputs": [
        {
          "internalType": "address",
          "name": "owner",
          "type": "address"
        },
        {
          "internalType": "address",
          "name": "spender",
          "type": "address"
        }
      ],
      "name": "allowance",
      "outputs": [
        {
          "internalType": "uint256",
          "name": "",
          "type": "uint256"
        }
      ],
      "stateMutability": "view",
      "type": "function"
    },
    {
      "inputs": [
        {
          "internalType": "address",
          "name": "spender",
          "type": "address"
        },
        {
          "internalType": "uint256",
          "name": "amount",
          "type": "uint256"
        }
      ],
      "name": "approve",
      "outputs": [
        {
          "internalType": "bool",
          "name": "",
          "type": "bool"
        }
      ],
      "stateMutability": "nonpayable",
      "type": "function"
    },
    {
      "inputs": [
        {
          "internalType": "address",
          "name": "account",
          "type": "address"
        }
      ],
      "name": "balanceOf",
      "outputs": [
        {
          "internalType": "uint256",
          "name": "",
          "type": "uint256"
        }
      ],
      "stateMutability": "view",
      "type": "function"
    },
    {
      "inputs": [],
      "name": "decimals",
      "outputs": [
        {
          "internalType": "uint8",
          "name": "",
          "type": "uint8"
        }
      ],
      "stateMutability": "view",
      "type": "function"
    },
    {
      "inputs": [
        {
          "internalType": "address",
          "name": "spender",
          "type": "address"
        },
        {
          "internalType": "uint256",
          "name": "subtractedValue",
          "type": "uint256"
        }
      ],
      "name": "decreaseAllowance",
      "outputs": [
        {
          "internalType": "bool",
          "name": "",
          "type": "bool"
        }
      ],
      "stateMutability": "nonpayable",
      "type": "function"
    },
    {
      "inputs": [
        {
          "internalType": "bytes32",
          "name": "role",
          "type": "bytes32"
        }
      ],
      "name": "getRoleAdmin",
      "outputs": [
        {
          "internalType": "bytes32",
          "name": "",
          "type": "bytes32"
        }
      ],
      "stateMutability": "view",
      "type": "function"
    },
    {
      "inputs": [
        {
          "internalType": "bytes32",
          "name": "role",
          "type": "bytes32"
        },
        {
          "internalType": "address",
          "name": "account",
          "type": "address"
        }
      ],
      "name": "grantRole",
      "outputs": [],
      "stateMutability": "nonpayable",
      "type": "function"
    },
    {
      "inputs": [
        {
          "internalType": "bytes32",
          "name": "role",
          "type": "bytes32"
        },
        {
          "internalType": "address",
          "name": "account",
          "type": "address"
        }
      ],
      "name": "hasRole",
      "outputs": [
        {
          "internalType": "bool",
          "name": "",
          "type": "bool"
        }
      ],
      "stateMutability": "view",
      "type": "function"
    },
    {
      "inputs": [
        {
          "internalType": "address",
          "name": "spender",
          "type": "address"
        },
        {
          "internalType": "uint256",
          "name": "addedValue",
          "type": "uint256"
        }
      ],
      "name": "increaseAllowance",
      "outputs": [
        {
          "internalType": "bool",
          "name": "",
          "type": "bool"
        }
      ],
      "stateMutability": "nonpayable",
      "type": "function"
    },
    {
      "inputs": [
        {
          "internalType": "address",
          "name": "_minter",
          "type": "address"
        }
      ],
      "name": "isMinter",
      "outputs": [
        {
          "internalType": "bool",
          "name": "",
          "type": "bool"
        }
      ],
      "stateMutability": "view",
      "type": "function"
    },
    {
      "inputs": [
        {
          "internalType": "address",
          "name": "account",
          "type": "address"
        },
        {
          "internalType": "uint256",
          "name": "value",
          "type": "uint256"
        }
      ],
      "name": "mint",
      "outputs": [],
      "stateMutability": "nonpayable",
      "type": "function"
    },
    {
      "inputs": [
        {
          "internalType": "uint256",
          "name": "value",
          "type": "uint256"
        }
      ],
      "name": "mint",
      "outputs": [],
      "stateMutability": "nonpayable",
      "type": "function"
    },
    {
      "inputs": [],
      "name": "name",
      "outputs": [
        {
          "internalType": "string",
          "name": "",
          "type": "string"
        }
      ],
      "stateMutability": "view",
      "type": "function"
    },
    {
      "inputs": [
        {
          "internalType": "address",
          "name": "owner",
          "type": "address"
        }
      ],
      "name": "nonces",
      "outputs": [
        {
          "internalType": "uint256",
          "name": "",
          "type": "uint256"
        }
      ],
      "stateMutability": "view",
      "type": "function"
    },
    {
      "inputs": [],
      "name": "owner",
      "outputs": [
        {
          "internalType": "address",
          "name": "",
          "type": "address"
        }
      ],
      "stateMutability": "view",
      "type": "function"
    },
    {
      "inputs": [],
      "name": "pendingOwner",
      "outputs": [
        {
          "internalType": "address",
          "name": "",
          "type": "address"
        }
      ],
      "stateMutability": "view",
      "type": "function"
    },
    {
      "inputs": [
        {
          "internalType": "address",
          "name": "owner",
          "type": "address"
        },
        {
          "internalType": "address",
          "name": "spender",
          "type": "address"
        },
        {
          "internalType": "uint256",
          "name": "value",
          "type": "uint256"
        },
        {
          "internalType": "uint256",
          "name": "deadline",
          "type": "uint256"
        },
        {
          "internalType": "uint8",
          "name": "v",
          "type": "uint8"
        },
        {
          "internalType": "bytes32",
          "name": "r",
          "type": "bytes32"
        },
        {
          "internalType": "bytes32",
          "name": "s",
          "type": "bytes32"
        }
      ],
      "name": "permit",
      "outputs": [],
      "stateMutability": "nonpayable",
      "type": "function"
    },
    {
      "inputs": [
        {
          "internalType": "address",
          "name": "_minter",
          "type": "address"
        }
      ],
      "name": "removeMinter",
      "outputs": [],
      "stateMutability": "nonpayable",
      "type": "function"
    },
    {
      "inputs": [],
      "name": "renounceOwnership",
      "outputs": [],
      "stateMutability": "nonpayable",
      "type": "function"
    },
    {
      "inputs": [
        {
          "internalType": "bytes32",
          "name": "role",
          "type": "bytes32"
        },
        {
          "internalType": "address",
          "name": "account",
          "type": "address"
        }
      ],
      "name": "renounceRole",
      "outputs": [],
      "stateMutability": "nonpayable",
      "type": "function"
    },
    {
      "inputs": [
        {
          "internalType": "bytes32",
          "name": "role",
          "type": "bytes32"
        },
        {
          "internalType": "address",
          "name": "account",
          "type": "address"
        }
      ],
      "name": "revokeRole",
      "outputs": [],
      "stateMutability": "nonpayable",
      "type": "function"
    },
    {
      "inputs": [
        {
          "internalType": "bytes4",
          "name": "interfaceId",
          "type": "bytes4"
        }
      ],
      "name": "supportsInterface",
      "outputs": [
        {
          "internalType": "bool",
          "name": "",
          "type": "bool"
        }
      ],
      "stateMutability": "view",
      "type": "function"
    },
    {
      "inputs": [],
      "name": "symbol",
      "outputs": [
        {
          "internalType": "string",
          "name": "",
          "type": "string"
        }
      ],
      "stateMutability": "view",
      "type": "function"
    },
    {
      "inputs": [],
      "name": "totalSupply",
      "outputs": [
        {
          "internalType": "uint256",
          "name": "",
          "type": "uint256"
        }
      ],
      "stateMutability": "view",
      "type": "function"
    },
    {
      "inputs": [
        {
          "internalType": "address",
          "name": "to",
          "type": "address"
        },
        {
          "internalType": "uint256",
          "name": "amount",
          "type": "uint256"
        }
      ],
      "name": "transfer",
      "outputs": [
        {
          "internalType": "bool",
          "name": "",
          "type": "bool"
        }
      ],
      "stateMutability": "nonpayable",
      "type": "function"
    },
    {
      "inputs": [
        {
          "internalType": "address",
          "name": "from",
          "type": "address"
        },
        {
          "internalType": "address",
          "name": "to",
          "type": "address"
        },
        {
          "internalType": "uint256",
          "name": "amount",
          "type": "uint256"
        }
      ],
      "name": "transferFrom",
      "outputs": [
        {
          "internalType": "bool",
          "name": "",
          "type": "bool"
        }
      ],
      "stateMutability": "nonpayable",
      "type": "function"
    },
    {
      "inputs": [
        {
          "internalType": "address",
          "name": "newOwner",
          "type": "address"
        }
      ],
      "name": "transferOwnership",
      "outputs": [],
      "stateMutability": "nonpayable",
      "type": "function"
    }
  ],
  "bytecode": "0x60806040818152346200045f5762001fb2803803809162000021828662000464565b84398201916080818403126200045f5780516001600160401b0391908281116200045f57846200005391830162000488565b60209485830151908482116200045f576200007091840162000488565b94848301519260ff84168094036200045f5760600151936001600160a01b039283861686036200045f578051938285116200036c5760038054906001968783811c9316801562000454575b878410146200043e57601f92838111620003f3575b5080878482116001146200038e5760009162000382575b5060001982841b1c191690881b1781555b8a51918583116200036c5760049b8c548981811c9116801562000361575b898210146200034c579081838695949311620002f2575b508891841160011462000288576000936200027c575b505082881b92600019911b1c19161789555b600680546001600160a01b0319908116909155600580549182163390811790915591167f8be0079c531659141344cd1fd0a4f28419497f9722a3daafe3b4186f6b6457e0600080a3828151910120928651878101818110848211176200026757908491895282815201603160f81b8152208651928301937f8b73c3c69bb8fe3d512ecc4cf759cc79239f7b179b0ffacaa9a75d522b39400f85528784015260608301524660808301523060a083015260a0825260c0820190828210908211176200025257856200024496975052519020600a5560ff1960095416176009556200023e33620004ff565b620004ff565b51611a009081620005b28239f35b604187634e487b7160e01b6000525260246000fd5b60418a634e487b7160e01b6000525260246000fd5b01519150388062000143565b60008e81528981208b965093929190601f198616905b8b828210620002db5750508511620002c0575b50505050811b01895562000155565b01519060f884600019921b161c1916905538808080620002b1565b8385015187558d989096019593840193016200029e565b90919293508d600052886000208380870160051c8201928b881062000342575b918c918897969594930160051c01915b828110620003325750506200012d565b600081558796508c910162000322565b9250819262000312565b60228e634e487b7160e01b6000525260246000fd5b90607f169062000116565b634e487b7160e01b600052604160045260246000fd5b905085015138620000e7565b899250601f1982169084600052896000209160005b8b828210620003dc5750508311620003c3575b5050811b018155620000f8565b87015160001983861b60f8161c191690553880620003b6565b838b015185558d96909401939283019201620003a3565b82600052876000208480840160051c8201928a851062000434575b0160051c019089905b82811062000427575050620000d0565b6000815501899062000417565b925081926200040e565b634e487b7160e01b600052602260045260246000fd5b92607f1692620000bb565b600080fd5b601f909101601f19168101906001600160401b038211908210176200036c57604052565b919080601f840112156200045f578251906001600160401b0382116200036c5760405191602091620004c4601f8301601f191684018562000464565b8184528282870101116200045f5760005b818110620004eb57508260009394955001015290565b8581018301518482018401528201620004d5565b6001600160a01b031660008181527fa4bfd7afe708e2e87e7f0e2ad9b4d545417e0f795f57b5c5ab5d799c565a04f460205260408120549091907f9f2df0fed2c77648de5860a4cc508cd0818c85b8b8a1ab4ceeef8d981c8956a69060ff16156200056957505050565b80835260076020526040832082845260205260408320600160ff198254161790557f2f8788117e7eff1d82e926ec794901d17c78024a50270940304540a733656f0d339380a456fe60806040908082526004918236101561001757600080fd5b600092833560e01c92836301ffc9a714610fe95750826306fdde0314610ed2578263095ea7b314610e3857826318160ddd14610e1957826323b872dd14610d50578263248a9ca314610d245782632f2ff15d14610c765782633092afd514610bd157826330adf81f14610b96578263313ce56714610b745782633644e51514610b5557826336568abe14610ac45782633950935114610a7457826340c10f1914610a1f57826370a08231146109e8578263715018a614610981578263781603761461091a57826379ba50971461084f5782637ecebe00146108175782638da5cb5b146107ee57826391d14854146107a657826395d89b4114610771578263983b2d56146106c8578263a0712d681461067c578263a217fddf14610661578263a457c2d7146105be578263a9059cbb1461058d578263aa271e1a14610539578263d505accf146102ee578263d5391393146102c5578263d547741f1461028357508163dd62ed3e1461023a578163e30c39781461020d575063f2fde38b1461019d57600080fd5b3461020a57602036600319011261020a576101b661109e565b6101be6114b3565b600680546001600160a01b0319166001600160a01b039283169081179091556005549091167f38d16b8cac22d99fc7c124b9cd0de2d3fa1faef420bfe791d8c362d765e227008380a380f35b80fd5b90503461023657816003193601126102365760065490516001600160a01b039091168152602090f35b5080fd5b9050346102365780600319360112610236578060209261025861109e565b6102606110b9565b6001600160a01b0391821683526001865283832091168252845220549051908152f35b9150346102c157806003193601126102c1576102be91356102b960016102a76110b9565b93838752600760205286200154611107565b61143d565b80f35b8280fd5b838234610236578160031936011261023657602090516000805160206119ab8339815191528152f35b8382346102365760e03660031901126102365761030961109e565b6103116110b9565b9060443592606435906084359160ff8316809303610535576001600160a01b03848116918215610502578042116104ca5782895260086020528389205494600a549085519160208301937f6e71edae12b1b97f4d1f60370fef10105fa2faae0126114a169c64845d6126c985528688850152858b1660608501528b60808501528860a085015260c084015260c0835260e0830167ffffffffffffffff94848210868311176104b5578189528451902061010085019261190160f01b845261010286015261012285015260428152610160840194818610908611176104a157848852519020835261018082015260a4356101a082015260c4356101c090910152888052602090899060809060015afa15610497578751168103610460576001830180931161044d57866102be979850526008602052862055611787565b634e487b7160e01b875260118852602487fd5b815162461bcd60e51b81526020818a01526011602482015270494e56414c49445f5349474e415455524560781b6044820152606490fd5b82513d89823e3d90fd5b50634e487b7160e01b8c5260418d5260248cfd5b5050634e487b7160e01b8c5260418d5260248cfd5b835162461bcd60e51b81526020818c0152601260248201527124a72b20a624a22fa2ac2824a920aa24a7a760711b6044820152606490fd5b835162461bcd60e51b81526020818c0152600d60248201526c24a72b20a624a22fa7aba722a960991b6044820152606490fd5b8680fd5b8382346102365760203660031901126102365760ff8160209361055a61109e565b6000805160206119ab8339815191528252600786528282206001600160a01b039091168252855220549151911615158152f35b8382346102365780600319360112610236576020906105b76105ad61109e565b6024359033611619565b5160018152f35b833461020a578260031936011261020a576105d761109e565b918360243592338152600160205281812060018060a01b0386168252602052205490828210610610576020856105b78585038733611787565b608490602086519162461bcd60e51b8352820152602560248201527f45524332303a2064656372656173656420616c6c6f77616e63652062656c6f77604482015264207a65726f60d81b6064820152fd5b83823461023657816003193601126102365751908152602090f35b909150346102c15760203660031901126102c1576106c160ff6102be936000805160206119ab83398151915286526007602052808620338752602052852054166118b0565b3533611907565b838234610236576020366003190112610236576106e361109e565b6106eb6114b3565b6000805160206119ab8339815191529182845260076020528084209160018060a01b03169182855260205260ff818520541615610726578380f35b82845260076020528084208285526020528320600160ff1982541617905533917f2f8788117e7eff1d82e926ec794901d17c78024a50270940304540a733656f0d8480a48180808380f35b8382346102365781600319360112610236576107a29061078f61150b565b9051918291602083526020830190611079565b0390f35b909150346102c157816003193601126102c1578160209360ff926107c86110b9565b90358252600786528282206001600160a01b039091168252855220549151911615158152f35b83823461023657816003193601126102365760055490516001600160a01b039091168152602090f35b8382346102365760203660031901126102365760209181906001600160a01b0361083f61109e565b1681526008845220549051908152f35b9150346102c157826003193601126102c157600654916001600160a01b039133838516036108c55750506bffffffffffffffffffffffff60a01b8092166006556005549133908316176005553391167f8be0079c531659141344cd1fd0a4f28419497f9722a3daafe3b4186f6b6457e08380a380f35b906020608492519162461bcd60e51b8352820152602960248201527f4f776e61626c6532537465703a2063616c6c6572206973206e6f7420746865206044820152683732bb9037bbb732b960b91b6064820152fd5b8382346102365781600319360112610236578051918183019083821067ffffffffffffffff83111761096e57506107a29350815260018252603160f81b602083015251918291602083526020830190611079565b634e487b7160e01b815260418552602490fd5b833461020a578060031936011261020a5761099a6114b3565b600680546001600160a01b031990811690915560058054918216905581906001600160a01b03167f8be0079c531659141344cd1fd0a4f28419497f9722a3daafe3b4186f6b6457e08280a380f35b8382346102365760203660031901126102365760209181906001600160a01b03610a1061109e565b16815280845220549051908152f35b8382346102365780600319360112610236576102be90610a6b60ff610a4261109e565b926000805160206119ab83398151915286526007602052808620338752602052852054166118b0565b60243590611907565b8382346102365780600319360112610236576105b7602092610abd610a9761109e565b338352600186528483206001600160a01b038216845286529184902054602435906115f6565b9033611787565b839034610236578260031936011261023657610ade6110b9565b90336001600160a01b03831603610afa57906102be913561143d565b608490602085519162461bcd60e51b8352820152602f60248201527f416363657373436f6e74726f6c3a2063616e206f6e6c792072656e6f756e636560448201526e103937b632b9903337b91039b2b63360891b6064820152fd5b838234610236578160031936011261023657602090600a549051908152f35b83823461023657816003193601126102365760209060ff600954169051908152f35b838234610236578160031936011261023657602090517f6e71edae12b1b97f4d1f60370fef10105fa2faae0126114a169c64845d6126c98152f35b83823461023657602036600319011261023657610bec61109e565b610bf46114b3565b6000805160206119ab8339815191529182845260076020528084209160018060a01b03169182855260205260ff8185205416610c2e578380f35b8284526007602052808420828552602052832060ff19815416905533917ff6391f5c32d9c69d2a47ea670b442974b53935d1edc7fd64eb21e047a839171b8480a48180808380f35b909150346102c157816003193601126102c1573590610c936110b9565b908284526007602052610cab60018286200154611107565b828452600760209081528185206001600160a01b039093168086529290528084205460ff1615610cd9578380f35b82845260076020528084208285526020528320600160ff1982541617905533917f2f8788117e7eff1d82e926ec794901d17c78024a50270940304540a733656f0d8480a43880808380f35b909150346102c15760203660031901126102c15781602093600192358152600785522001549051908152f35b83903461023657606036600319011261023657610d6b61109e565b610d736110b9565b91846044359460018060a01b038416815260016020528181203382526020522054906000198203610dad575b6020866105b7878787611619565b848210610dd65750918391610dcb602096956105b795033383611787565b919394819350610d9f565b606490602087519162461bcd60e51b8352820152601d60248201527f45524332303a20696e73756666696369656e7420616c6c6f77616e63650000006044820152fd5b8382346102365781600319360112610236576020906002549051908152f35b838234610236578060031936011261023657610e5261109e565b602435927f8b1a1d9c2b109e527c9134b25b1a1833b16b6594f92daa9f6d9b7a6024bce9d0610e7f61150b565b6020815191012014610e9a575b506020926105b79133611787565b83151580610eab575b15610e8c5780fd5b50338152600160209081528382206001600160a01b03841683529052828120541515610ea3565b90833461020a578060031936011261020a578151918160035492600184811c91818616958615610fdf575b6020968785108114610fcc578899509688969785829a529182600014610fa5575050600114610f49575b5050506107a29291610f3a9103856110cf565b51928284938452830190611079565b9190869350600383527fc2575a0e9e593c00f959f8c92f12db2869c3395a3b0502d05e2516446f71f85b5b828410610f8d5750505082010181610f3a6107a2610f27565b8054848a018601528895508794909301928101610f74565b60ff19168782015293151560051b86019093019350849250610f3a91506107a29050610f27565b634e487b7160e01b835260228a52602483fd5b92607f1692610efd565b8491346102c15760203660031901126102c1573563ffffffff60e01b81168091036102c157602092506340c10f1960e01b811490811561102b575b5015158152f35b637965db0b60e01b811491508115611045575b5083611024565b6301ffc9a760e01b1490508361103e565b60005b8381106110695750506000910152565b8181015183820152602001611059565b9060209161109281518092818552858086019101611056565b601f01601f1916010190565b600435906001600160a01b03821682036110b457565b600080fd5b602435906001600160a01b03821682036110b457565b90601f8019910116810190811067ffffffffffffffff8211176110f157604052565b634e487b7160e01b600052604160045260246000fd5b60009080825260209060078252604092838120338252835260ff8482205416156111315750505050565b83519167ffffffffffffffff90336060850183811186821017611429578752602a855285850191873684378551156114155760308353855191600192831015611401576078602188015360295b838111611397575061135557908751936080850190858210908211176113415788526042845286840194606036873784511561132d5760308653845182101561132d5790607860218601536041915b8183116112bf5750505061127d5761127993869361125d9361124e6048946112259a519a8b957f416363657373436f6e74726f6c3a206163636f756e74200000000000000000008c8801525180926037880190611056565b8401917001034b99036b4b9b9b4b733903937b6329607d1b603784015251809386840190611056565b010360288101875201856110cf565b5192839262461bcd60e51b845260048401526024830190611079565b0390fd5b60648587519062461bcd60e51b825280600483015260248201527f537472696e67733a20686578206c656e67746820696e73756666696369656e746044820152fd5b909192600f81166010811015611319576f181899199a1a9b1b9c1cb0b131b232b360811b901a6112ef8588611889565b5360041c928015611305576000190191906111cd565b634e487b7160e01b82526011600452602482fd5b634e487b7160e01b83526032600452602483fd5b634e487b7160e01b81526032600452602490fd5b634e487b7160e01b86526041600452602486fd5b60648789519062461bcd60e51b825280600483015260248201527f537472696e67733a20686578206c656e67746820696e73756666696369656e746044820152fd5b90600f811660108110156113ed576f181899199a1a9b1b9c1cb0b131b232b360811b901a6113c5838a611889565b5360041c9080156113d9576000190161117e565b634e487b7160e01b87526011600452602487fd5b634e487b7160e01b88526032600452602488fd5b634e487b7160e01b86526032600452602486fd5b634e487b7160e01b85526032600452602485fd5b634e487b7160e01b85526041600452602485fd5b906000918083526007602052604083209160018060a01b03169182845260205260ff60408420541661146e57505050565b8083526007602052604083208284526020526040832060ff1981541690557ff6391f5c32d9c69d2a47ea670b442974b53935d1edc7fd64eb21e047a839171b339380a4565b6005546001600160a01b031633036114c757565b606460405162461bcd60e51b815260206004820152602060248201527f4f776e61626c653a2063616c6c6572206973206e6f7420746865206f776e65726044820152fd5b60405190600060045490600182811c908084169384156115ec575b60209485841081146115d857838852879493929181156115b85750600114611559575b5050611557925003836110cf565b565b9093915060046000527f8a35acfbc15ff81a39ae7d344fd709f28e8600b4aa8c65c6b64bfe7fe36bd19b936000915b8183106115a057505061155793508201013880611549565b85548884018501529485019487945091830191611588565b91505061155794925060ff191682840152151560051b8201013880611549565b634e487b7160e01b85526022600452602485fd5b91607f1691611526565b9190820180921161160357565b634e487b7160e01b600052601160045260246000fd5b6001600160a01b0390811691821561173457169182156116e35760008281528060205260408120549180831061168f57604082827fddf252ad1be2c89b69c2b068fc378daa952ba7f163c4a11628f55a4df523b3ef958760209652828652038282205586815220818154019055604051908152a3565b60405162461bcd60e51b815260206004820152602660248201527f45524332303a207472616e7366657220616d6f756e7420657863656564732062604482015265616c616e636560d01b6064820152608490fd5b60405162461bcd60e51b815260206004820152602360248201527f45524332303a207472616e7366657220746f20746865207a65726f206164647260448201526265737360e81b6064820152608490fd5b60405162461bcd60e51b815260206004820152602560248201527f45524332303a207472616e736665722066726f6d20746865207a65726f206164604482015264647265737360d81b6064820152608490fd5b6001600160a01b0390811691821561183857169182156117e85760207f8c5be1e5ebec7d5bd14f71427d1e84f3dd0314c0f7b2291e5b200ac8c7c3b925918360005260018252604060002085600052825280604060002055604051908152a3565b60405162461bcd60e51b815260206004820152602260248201527f45524332303a20617070726f766520746f20746865207a65726f206164647265604482015261737360f01b6064820152608490fd5b60405162461bcd60e51b8152602060048201526024808201527f45524332303a20617070726f76652066726f6d20746865207a65726f206164646044820152637265737360e01b6064820152608490fd5b90815181101561189a570160200190565b634e487b7160e01b600052603260045260246000fd5b156118b757565b60405162461bcd60e51b815260206004820152602260248201527f4d696e7461626c653a2063616c6c6572206973206e6f7420746865206d696e7460448201526132b960f11b6064820152608490fd5b6001600160a01b0316908115611965577fddf252ad1be2c89b69c2b068fc378daa952ba7f163c4a11628f55a4df523b3ef6020826119496000946002546115f6565b60025584845283825260408420818154019055604051908152a3565b60405162461bcd60e51b815260206004820152601f60248201527f45524332303a206d696e7420746f20746865207a65726f2061646472657373006044820152606490fdfe9f2df0fed2c77648de5860a4cc508cd0818c85b8b8a1ab4ceeef8d981c8956a6a26469706673582212206583d3b5146157258370867f1e9b136d5032a26ebdae631d36cfb38c1a8e2a2f64736f6c63430008110033",
  "linkReferences": {},
  "deployedLinkReferences": {}
}